{
  "contractName": "TruffleFactory",
  "abi": [
    {
      "inputs": [
        {
          "internalType": "address",
          "name": "marketplaceAddress",
          "type": "address"
        }
      ],
      "stateMutability": "nonpayable",
      "type": "constructor"
    },
    {
      "anonymous": false,
      "inputs": [
        {
          "indexed": true,
          "internalType": "address",
          "name": "owner",
          "type": "address"
        },
        {
          "indexed": true,
          "internalType": "address",
          "name": "approved",
          "type": "address"
        },
        {
          "indexed": true,
          "internalType": "uint256",
          "name": "tokenId",
          "type": "uint256"
        }
      ],
      "name": "Approval",
      "type": "event"
    },
    {
      "anonymous": false,
      "inputs": [
        {
          "indexed": true,
          "internalType": "address",
          "name": "owner",
          "type": "address"
        },
        {
          "indexed": true,
          "internalType": "address",
          "name": "operator",
          "type": "address"
        },
        {
          "indexed": false,
          "internalType": "bool",
          "name": "approved",
          "type": "bool"
        }
      ],
      "name": "ApprovalForAll",
      "type": "event"
    },
    {
      "anonymous": false,
      "inputs": [
        {
          "indexed": true,
          "internalType": "address",
          "name": "owner",
          "type": "address"
        },
        {
          "indexed": false,
          "internalType": "uint256",
          "name": "id",
          "type": "uint256"
        },
        {
          "indexed": false,
          "internalType": "uint256",
          "name": "dna",
          "type": "uint256"
        }
      ],
      "name": "NewTruffle",
      "type": "event"
    },
    {
      "anonymous": false,
      "inputs": [
        {
          "indexed": true,
          "internalType": "address",
          "name": "previousOwner",
          "type": "address"
        },
        {
          "indexed": true,
          "internalType": "address",
          "name": "newOwner",
          "type": "address"
        }
      ],
      "name": "OwnershipTransferred",
      "type": "event"
    },
    {
      "anonymous": false,
      "inputs": [
        {
          "indexed": true,
          "internalType": "address",
          "name": "from",
          "type": "address"
        },
        {
          "indexed": true,
          "internalType": "address",
          "name": "to",
          "type": "address"
        },
        {
          "indexed": true,
          "internalType": "uint256",
          "name": "tokenId",
          "type": "uint256"
        }
      ],
      "name": "Transfer",
      "type": "event"
    },
    {
      "inputs": [
        {
          "internalType": "address",
          "name": "to",
          "type": "address"
        },
        {
          "internalType": "uint256",
          "name": "tokenId",
          "type": "uint256"
        }
      ],
      "name": "approve",
      "outputs": [],
      "stateMutability": "nonpayable",
      "type": "function"
    },
    {
      "inputs": [
        {
          "internalType": "address",
          "name": "owner",
          "type": "address"
        }
      ],
      "name": "balanceOf",
      "outputs": [
        {
          "internalType": "uint256",
          "name": "",
          "type": "uint256"
        }
      ],
      "stateMutability": "view",
      "type": "function",
      "constant": true
    },
    {
      "inputs": [
        {
          "internalType": "uint256",
          "name": "",
          "type": "uint256"
        }
      ],
      "name": "cooldowns",
      "outputs": [
        {
          "internalType": "uint32",
          "name": "",
          "type": "uint32"
        }
      ],
      "stateMutability": "view",
      "type": "function",
      "constant": true
    },
    {
      "inputs": [
        {
          "internalType": "uint256",
          "name": "tokenId",
          "type": "uint256"
        }
      ],
      "name": "getApproved",
      "outputs": [
        {
          "internalType": "address",
          "name": "",
          "type": "address"
        }
      ],
      "stateMutability": "view",
      "type": "function",
      "constant": true
    },
    {
      "inputs": [
        {
          "internalType": "address",
          "name": "owner",
          "type": "address"
        },
        {
          "internalType": "address",
          "name": "operator",
          "type": "address"
        }
      ],
      "name": "isApprovedForAll",
      "outputs": [
        {
          "internalType": "bool",
          "name": "",
          "type": "bool"
        }
      ],
      "stateMutability": "view",
      "type": "function",
      "constant": true
    },
    {
      "inputs": [],
      "name": "name",
      "outputs": [
        {
          "internalType": "string",
          "name": "",
          "type": "string"
        }
      ],
      "stateMutability": "view",
      "type": "function",
      "constant": true
    },
    {
      "inputs": [],
      "name": "owner",
      "outputs": [
        {
          "internalType": "address",
          "name": "",
          "type": "address"
        }
      ],
      "stateMutability": "view",
      "type": "function",
      "constant": true
    },
    {
      "inputs": [
        {
          "internalType": "uint256",
          "name": "tokenId",
          "type": "uint256"
        }
      ],
      "name": "ownerOf",
      "outputs": [
        {
          "internalType": "address",
          "name": "",
          "type": "address"
        }
      ],
      "stateMutability": "view",
      "type": "function",
      "constant": true
    },
    {
      "inputs": [],
      "name": "renounceOwnership",
      "outputs": [],
      "stateMutability": "nonpayable",
      "type": "function"
    },
    {
      "inputs": [
        {
          "internalType": "address",
          "name": "from",
          "type": "address"
        },
        {
          "internalType": "address",
          "name": "to",
          "type": "address"
        },
        {
          "internalType": "uint256",
          "name": "tokenId",
          "type": "uint256"
        }
      ],
      "name": "safeTransferFrom",
      "outputs": [],
      "stateMutability": "nonpayable",
      "type": "function"
    },
    {
      "inputs": [
        {
          "internalType": "address",
          "name": "from",
          "type": "address"
        },
        {
          "internalType": "address",
          "name": "to",
          "type": "address"
        },
        {
          "internalType": "uint256",
          "name": "tokenId",
          "type": "uint256"
        },
        {
          "internalType": "bytes",
          "name": "_data",
          "type": "bytes"
        }
      ],
      "name": "safeTransferFrom",
      "outputs": [],
      "stateMutability": "nonpayable",
      "type": "function"
    },
    {
      "inputs": [
        {
          "internalType": "address",
          "name": "operator",
          "type": "address"
        },
        {
          "internalType": "bool",
          "name": "approved",
          "type": "bool"
        }
      ],
      "name": "setApprovalForAll",
      "outputs": [],
      "stateMutability": "nonpayable",
      "type": "function"
    },
    {
      "inputs": [
        {
          "internalType": "bytes4",
          "name": "interfaceId",
          "type": "bytes4"
        }
      ],
      "name": "supportsInterface",
      "outputs": [
        {
          "internalType": "bool",
          "name": "",
          "type": "bool"
        }
      ],
      "stateMutability": "view",
      "type": "function",
      "constant": true
    },
    {
      "inputs": [],
      "name": "symbol",
      "outputs": [
        {
          "internalType": "string",
          "name": "",
          "type": "string"
        }
      ],
      "stateMutability": "view",
      "type": "function",
      "constant": true
    },
    {
      "inputs": [
        {
          "internalType": "uint256",
          "name": "tokenId",
          "type": "uint256"
        }
      ],
      "name": "tokenURI",
      "outputs": [
        {
          "internalType": "string",
          "name": "",
          "type": "string"
        }
      ],
      "stateMutability": "view",
      "type": "function",
      "constant": true
    },
    {
      "inputs": [
        {
          "internalType": "address",
          "name": "from",
          "type": "address"
        },
        {
          "internalType": "address",
          "name": "to",
          "type": "address"
        },
        {
          "internalType": "uint256",
          "name": "tokenId",
          "type": "uint256"
        }
      ],
      "name": "transferFrom",
      "outputs": [],
      "stateMutability": "nonpayable",
      "type": "function"
    },
    {
      "inputs": [
        {
          "internalType": "address",
          "name": "newOwner",
          "type": "address"
        }
      ],
      "name": "transferOwnership",
      "outputs": [],
      "stateMutability": "nonpayable",
      "type": "function"
    },
    {
      "inputs": [
        {
          "internalType": "uint256",
          "name": "",
          "type": "uint256"
        }
      ],
      "name": "truffles",
      "outputs": [
        {
          "internalType": "string",
          "name": "name",
          "type": "string"
        },
        {
          "internalType": "uint256",
          "name": "id",
          "type": "uint256"
        },
        {
          "internalType": "uint256",
          "name": "dna",
          "type": "uint256"
        },
        {
          "internalType": "uint8",
          "name": "level",
          "type": "uint8"
        },
        {
          "internalType": "uint8",
          "name": "rarity",
          "type": "uint8"
        },
        {
          "internalType": "uint32",
          "name": "readyTime",
          "type": "uint32"
        },
        {
          "internalType": "uint8",
          "name": "dadId",
          "type": "uint8"
        },
        {
          "internalType": "uint8",
          "name": "mumId",
          "type": "uint8"
        }
      ],
      "stateMutability": "view",
      "type": "function",
      "constant": true
    },
    {
      "inputs": [],
      "name": "getFee",
      "outputs": [
        {
          "internalType": "uint256",
          "name": "",
          "type": "uint256"
        }
      ],
      "stateMutability": "view",
      "type": "function",
      "constant": true
    },
    {
      "inputs": [],
      "name": "FreeLeveUp",
      "outputs": [
        {
          "internalType": "uint256",
          "name": "",
          "type": "uint256"
        }
      ],
      "stateMutability": "view",
      "type": "function",
      "constant": true
    },
    {
      "inputs": [],
      "name": "getFeeBreed",
      "outputs": [
        {
          "internalType": "uint256",
          "name": "",
          "type": "uint256"
        }
      ],
      "stateMutability": "view",
      "type": "function",
      "constant": true
    },
    {
      "inputs": [
        {
          "internalType": "string",
          "name": "_name",
          "type": "string"
        }
      ],
      "name": "createRandomTruffle",
      "outputs": [],
      "stateMutability": "payable",
      "type": "function",
      "payable": true
    },
    {
      "inputs": [],
      "name": "getTruffle",
      "outputs": [
        {
          "components": [
            {
              "internalType": "string",
              "name": "name",
              "type": "string"
            },
            {
              "internalType": "uint256",
              "name": "id",
              "type": "uint256"
            },
            {
              "internalType": "uint256",
              "name": "dna",
              "type": "uint256"
            },
            {
              "internalType": "uint8",
              "name": "level",
              "type": "uint8"
            },
            {
              "internalType": "uint8",
              "name": "rarity",
              "type": "uint8"
            },
            {
              "internalType": "uint32",
              "name": "readyTime",
              "type": "uint32"
            },
            {
              "internalType": "uint8",
              "name": "dadId",
              "type": "uint8"
            },
            {
              "internalType": "uint8",
              "name": "mumId",
              "type": "uint8"
            }
          ],
          "internalType": "struct TruffleFactory.Truffle[]",
          "name": "",
          "type": "tuple[]"
        }
      ],
      "stateMutability": "view",
      "type": "function",
      "constant": true
    },
    {
      "inputs": [
        {
          "internalType": "address",
          "name": "_owner",
          "type": "address"
        }
      ],
      "name": "getOwnerTruffles",
      "outputs": [
        {
          "components": [
            {
              "internalType": "string",
              "name": "name",
              "type": "string"
            },
            {
              "internalType": "uint256",
              "name": "id",
              "type": "uint256"
            },
            {
              "internalType": "uint256",
              "name": "dna",
              "type": "uint256"
            },
            {
              "internalType": "uint8",
              "name": "level",
              "type": "uint8"
            },
            {
              "internalType": "uint8",
              "name": "rarity",
              "type": "uint8"
            },
            {
              "internalType": "uint32",
              "name": "readyTime",
              "type": "uint32"
            },
            {
              "internalType": "uint8",
              "name": "dadId",
              "type": "uint8"
            },
            {
              "internalType": "uint8",
              "name": "mumId",
              "type": "uint8"
            }
          ],
          "internalType": "struct TruffleFactory.Truffle[]",
          "name": "",
          "type": "tuple[]"
        }
      ],
      "stateMutability": "view",
      "type": "function",
      "constant": true
    },
    {
      "inputs": [
        {
          "internalType": "uint256",
          "name": "_fee",
          "type": "uint256"
        }
      ],
      "name": "updateFee",
      "outputs": [],
      "stateMutability": "nonpayable",
      "type": "function"
    },
    {
      "inputs": [
        {
          "internalType": "uint256",
          "name": "_feeLevelUp",
          "type": "uint256"
        }
      ],
      "name": "updateFeeLevelUp",
      "outputs": [],
      "stateMutability": "nonpayable",
      "type": "function"
    },
    {
      "inputs": [],
      "name": "withdraw",
      "outputs": [],
      "stateMutability": "payable",
      "type": "function",
      "payable": true
    },
    {
      "inputs": [
        {
          "internalType": "uint256",
          "name": "_TruffleId",
          "type": "uint256"
        }
      ],
      "name": "levelUp",
      "outputs": [],
      "stateMutability": "payable",
      "type": "function",
      "payable": true
    },
    {
      "inputs": [
        {
          "internalType": "uint256",
          "name": "_TruffleId",
          "type": "uint256"
        },
        {
          "internalType": "string",
          "name": "_newName",
          "type": "string"
        }
      ],
      "name": "updateName",
      "outputs": [],
      "stateMutability": "nonpayable",
      "type": "function"
    },
    {
      "inputs": [
        {
          "internalType": "uint256",
          "name": "_truffleId",
          "type": "uint256"
        },
        {
          "internalType": "uint256",
          "name": "_targetDna",
          "type": "uint256"
        }
      ],
      "name": "BreedAndMultiply",
      "outputs": [],
      "stateMutability": "payable",
      "type": "function",
      "payable": true
    }
  ],
  "bytecode": "0x662386f26fc10000600a8190556658d15e17628000600b5566038d7ea4c68000600c55600d556000600e55610708600f5560e060405261a8c0608090815261fd2060a0526201518060c0526200005a90601090600362000184565b503480156200006857600080fd5b50604051620037b3380380620037b38339810160408190526200008b91620002bb565b604080518082018252600781526654727566666c6560c81b60208083019182528351808501909452600384526215119560ea1b908401528151919291620000d59160009162000227565b508051620000eb90600190602084019062000227565b50505062000108620001026200012e60201b60201c565b62000132565b600980546001600160a01b0319166001600160a01b039290921691909117905562000328565b3390565b600680546001600160a01b038381166001600160a01b0319831681179093556040519116919082907f8be0079c531659141344cd1fd0a4f28419497f9722a3daafe3b4186f6b6457e090600090a35050565b600183019183908215620002155791602002820160005b83821115620001e157835183826101000a81548163ffffffff021916908363ffffffff16021790555092602001926004016020816003010492830192600103026200019b565b8015620002135782816101000a81549063ffffffff0219169055600401602081600301049283019260010302620001e1565b505b5062000223929150620002a4565b5090565b8280546200023590620002eb565b90600052602060002090601f01602090048101928262000259576000855562000215565b82601f106200027457805160ff191683800117855562000215565b8280016001018555821562000215579182015b828111156200021557825182559160200191906001019062000287565b5b80821115620002235760008155600101620002a5565b600060208284031215620002cd578081fd5b81516001600160a01b0381168114620002e4578182fd5b9392505050565b6002810460018216806200030057607f821691505b602082108114156200032257634e487b7160e01b600052602260045260246000fd5b50919050565b61347b80620003386000396000f3fe6080604052600436106101cd5760003560e01c806377853218116100f7578063a22cb46511610095578063ced72f8711610064578063ced72f8714610500578063e985e9c514610515578063f2fde38b14610535578063ff5df90a14610555576101cd565b8063a22cb4651461048b578063b1569412146104ab578063b88d4fde146104c0578063c87b56dd146104e0576101cd565b80639012c4a8116100d15780639012c4a81461041657806395d89b4114610436578063962a8ba31461044b5780639d6fac6f1461045e576101cd565b806377853218146103cc578063884a326e146103e15780638da5cb5b14610401576101cd565b80633ccfd60b1161016f57806353e76f2c1161013e57806353e76f2c146103575780636352211e1461037757806370a0823114610397578063715018a6146103b7576101cd565b80633ccfd60b146102ce57806342842e0e146102d657806344b17626146102f65780634cc37fc014610323576101cd565b8063095ea7b3116101ab578063095ea7b3146102575780630ce90ec21461027957806312e2e1c71461028c57806323b872dd146102ae576101cd565b806301ffc9a7146101d257806306fdde0314610208578063081812fc1461022a575b600080fd5b3480156101de57600080fd5b506101f26101ed366004612922565b610568565b6040516101ff9190612c4f565b60405180910390f35b34801561021457600080fd5b5061021d6105b0565b6040516101ff9190612c5a565b34801561023657600080fd5b5061024a6102453660046129a0565b610642565b6040516101ff9190612b23565b34801561026357600080fd5b506102776102723660046128f9565b61068e565b005b6102776102873660046129a0565b610726565b34801561029857600080fd5b506102a16107cf565b6040516101ff919061312c565b3480156102ba57600080fd5b506102776102c936600461280b565b6107d5565b61027761080d565b3480156102e257600080fd5b506102776102f136600461280b565b610892565b34801561030257600080fd5b506103166103113660046127bf565b6108ad565b6040516101ff9190612b74565b34801561032f57600080fd5b5061034361033e3660046129a0565b610acd565b6040516101ff989796959493929190612c6d565b34801561036357600080fd5b506102776103723660046129b8565b610bc4565b34801561038357600080fd5b5061024a6103923660046129a0565b610c6d565b3480156103a357600080fd5b506102a16103b23660046127bf565b610ca2565b3480156103c357600080fd5b50610277610ce6565b3480156103d857600080fd5b506102a1610d31565b3480156103ed57600080fd5b506102776103fc3660046129a0565b610d37565b34801561040d57600080fd5b5061024a610d7b565b34801561042257600080fd5b506102776104313660046129a0565b610d8a565b34801561044257600080fd5b5061021d610dce565b610277610459366004612a2f565b610ddd565b34801561046a57600080fd5b5061047e6104793660046129a0565b6116c2565b6040516101ff9190613143565b34801561049757600080fd5b506102776104a63660046128bf565b6116f2565b3480156104b757600080fd5b506103166117c0565b3480156104cc57600080fd5b506102776104db366004612846565b611914565b3480156104ec57600080fd5b5061021d6104fb3660046129a0565b611953565b34801561050c57600080fd5b506102a16119d6565b34801561052157600080fd5b506101f26105303660046127d9565b6119dc565b34801561054157600080fd5b506102776105503660046127bf565b611a0a565b61027761056336600461295a565b611a7b565b60006001600160e01b031982166380ac58cd60e01b148061059957506001600160e01b03198216635b5e139f60e01b145b806105a857506105a882611adb565b90505b919050565b6060600080546105bf90613341565b80601f01602080910402602001604051908101604052809291908181526020018280546105eb90613341565b80156106385780601f1061060d57610100808354040283529160200191610638565b820191906000526020600020905b81548152906001019060200180831161061b57829003601f168201915b5050505050905090565b600061064d82611af4565b6106725760405162461bcd60e51b815260040161066990612f81565b60405180910390fd5b506000908152600460205260409020546001600160a01b031690565b600061069982610c6d565b9050806001600160a01b0316836001600160a01b031614156106cd5760405162461bcd60e51b81526004016106699061309a565b806001600160a01b03166106df611b11565b6001600160a01b031614806106fb57506106fb81610530611b11565b6107175760405162461bcd60e51b815260040161066990612e5c565b6107218383611b15565b505050565b600c54341461073457600080fd5b3361073e82610c6d565b6001600160a01b03161461075157600080fd5b60006011828154811061077457634e487b7160e01b600052603260045260246000fd5b600091825260209091206004909102016003810154909150601460ff9091161061079d57600080fd5b60038101805460ff169060006107b283613397565b91906101000a81548160ff021916908360ff160217905550505050565b600c5490565b6107e66107e0611b11565b82611b83565b6108025760405162461bcd60e51b8152600401610669906130db565b610721838383611c08565b610815611b11565b6001600160a01b0316610826610d7b565b6001600160a01b03161461084c5760405162461bcd60e51b815260040161066990612fcd565b6000610856610d7b565b6040519091506001600160a01b038216904780156108fc02916000818181858888f1935050505015801561088e573d6000803e3d6000fd5b5050565b61072183838360405180602001604052806000815250611914565b606060006108ba83610ca2565b67ffffffffffffffff8111156108e057634e487b7160e01b600052604160045260246000fd5b60405190808252806020026020018201604052801561091957816020015b6109066125e7565b8152602001906001900390816108fe5790505b5090506000805b601154811015610ac457846001600160a01b031661093d82610c6d565b6001600160a01b03161415610ab2576011818154811061096d57634e487b7160e01b600052603260045260246000fd5b90600052602060002090600402016040518061010001604052908160008201805461099790613341565b80601f01602080910402602001604051908101604052809291908181526020018280546109c390613341565b8015610a105780601f106109e557610100808354040283529160200191610a10565b820191906000526020600020905b8154815290600101906020018083116109f357829003601f168201915b5050509183525050600182015460208201526002820154604082015260039091015460ff808216606084015261010082048116608084015263ffffffff6201000083041660a0840152600160301b8204811660c0840152600160381b9091041660e0909101528351849084908110610a9857634e487b7160e01b600052603260045260246000fd5b60200260200101819052508180610aae9061337c565b9250505b80610abc8161337c565b915050610920565b50909392505050565b60118181548110610add57600080fd5b9060005260206000209060040201600091509050806000018054610b0090613341565b80601f0160208091040260200160405190810160405280929190818152602001828054610b2c90613341565b8015610b795780601f10610b4e57610100808354040283529160200191610b79565b820191906000526020600020905b815481529060010190602001808311610b5c57829003601f168201915b505050600184015460028501546003909501549394909390925060ff8082169250610100820481169163ffffffff6201000082041691600160301b8204811691600160381b90041688565b6002838160118281548110610be957634e487b7160e01b600052603260045260246000fd5b600091825260209091206003600490920201015460ff161015610c0b57600080fd5b33610c1586610c6d565b6001600160a01b031614610c2857600080fd5b838360118781548110610c4b57634e487b7160e01b600052603260045260246000fd5b60009182526020909120610c65936004909202019161262b565b505050505050565b6000818152600260205260408120546001600160a01b0316806105a85760405162461bcd60e51b815260040161066990612f03565b60006001600160a01b038216610cca5760405162461bcd60e51b815260040161066990612eb9565b506001600160a01b031660009081526003602052604090205490565b610cee611b11565b6001600160a01b0316610cff610d7b565b6001600160a01b031614610d255760405162461bcd60e51b815260040161066990612fcd565b610d2f6000611d35565b565b600d5490565b610d3f611b11565b6001600160a01b0316610d50610d7b565b6001600160a01b031614610d765760405162461bcd60e51b815260040161066990612fcd565b600c55565b6006546001600160a01b031690565b610d92611b11565b6001600160a01b0316610da3610d7b565b6001600160a01b031614610dc95760405162461bcd60e51b815260040161066990612fcd565b600b55565b6060600180546105bf90613341565b610de5611b11565b6001600160a01b0316610df6610d7b565b6001600160a01b031614610e1c5760405162461bcd60e51b815260040161066990612fcd565b600d543414610e2a57600080fd5b600060118381548110610e4d57634e487b7160e01b600052603260045260246000fd5b90600052602060002090600402019050600060118381548110610e8057634e487b7160e01b600052603260045260246000fd5b90600052602060002090600402019050610e9982611d87565b610ea257600080fd5b610eab81611d87565b610eb457600080fd5b600180830154908201546002840154600090610ed2906064906133b7565b9050600060648560020154610ee791906133b7565b905060006002610ef98360ff16611d9e565b8360ff16610f098660ff16611d9e565b610f169060ff8816613154565b610f209190613154565b610f2a91906132fe565b610f349190613180565b905060006064610f4583600f6132d5565b610f4f9190613180565b90506000610f5e600a866133cb565b60ff1690506000610f70600a866133cb565b60ff169050600080610f826064611d9e565b905060638860ff16108015610f9a575060638760ff16105b610fa357600080fd5b603c8860ff1611158015610fbb5750603c8760ff1611155b156112b95760148860ff1611158015610fd8575060148760ff1611155b1561116357603281106110f5578660ff168860ff1610611073576000610fff8560056131e8565b61100a8660046131e8565b8d600201548f6002015461101e9190613154565b61102891906132b6565b611032919061316c565b905061103e600a611d9e565b60ff8a1661104d6064846133b7565b61105790846132fe565b6110619190613154565b61106b9190613154565b9250506110f0565b60006110808460056131e8565b61108b8560046131e8565b8d600201548f6002015461109f9190613154565b6110a991906132b6565b6110b3919061316c565b90506110bf600a611d9e565b60ff89166110ce6064846133b7565b6110d890846132fe565b6110e29190613154565b6110ec9190613154565b9250505b61115e565b60006111028560056131e8565b61110d8660046131e8565b8d600201548f600201546111219190613154565b61112b91906132b6565b611135919061316c565b905060ff87166111466064836133b7565b61115090836132fe565b61115a9190613154565b9250505b6112b9565b603c8110611242578660ff168860ff16106111d35760006111858560056131e8565b6111908660046131e8565b8d600201548f600201546111a49190613154565b6111ae91906132b6565b6111b8919061316c565b90506111c4600a611d9e565b60ff8a166110ce6064846133b7565b60006111e08460056131e8565b6111eb8560046131e8565b8d600201548f600201546111ff9190613154565b61120991906132b6565b611213919061316c565b905061121f600a611d9e565b60ff891661122e6064846133b7565b61123890846132fe565b6111509190613154565b600061124f8560056131e8565b61125a8660046131e8565b8d600201548f6002015461126e9190613154565b61127891906132b6565b611282919061316c565b905060ff8087169088166112976064846133b7565b6112a190846132fe565b6112ab9190613154565b6112b59190613154565b9250505b603c8860ff161180156112cf5750603c8760ff16115b1561145557604681106113ec578660ff168860ff161061136a5760006112f68560056131e8565b6113018660046131e8565b8d600201548f600201546113159190613154565b61131f91906132b6565b611329919061316c565b90506113356008611d9e565b60ff8a166113446064846133b7565b61134e90846132fe565b6113589190613154565b6113629190613154565b9250506113e7565b60006113778460056131e8565b6113828560046131e8565b8d600201548f600201546113969190613154565b6113a091906132b6565b6113aa919061316c565b90506113b66008611d9e565b60ff89166113c56064846133b7565b6113cf90846132fe565b6113d99190613154565b6113e39190613154565b9250505b611455565b60006113f98560056131e8565b6114048660046131e8565b8d600201548f600201546114189190613154565b61142291906132b6565b61142c919061316c565b905060ff871661143d6064836133b7565b61144790836132fe565b6114519190613154565b9250505b603c8860ff1611801561146c5750603c8760ff1611155b1561156357605081106114fa5760006114868560056131e8565b6114918660046131e8565b8d600201548f600201546114a59190613154565b6114af91906132b6565b6114b9919061316c565b90506114c56007611d9e565b60ff8a166114d46064846133b7565b6114de90846132fe565b6114e89190613154565b6114f29190613154565b925050611563565b60006115078560056131e8565b6115128660046131e8565b8d600201548f600201546115269190613154565b61153091906132b6565b61153a919061316c565b905060ff871661154b6064836133b7565b61155590836132fe565b61155f9190613154565b9250505b603c8860ff161115801561157a5750603c8760ff16115b1561167157605081106116085760006115948460056131e8565b61159f8560046131e8565b8d600201548f600201546115b39190613154565b6115bd91906132b6565b6115c7919061316c565b90506115d36008611d9e565b60ff89166115e26064846133b7565b6115ec90846132fe565b6115f69190613154565b6116009190613154565b925050611671565b60006116158460056131e8565b6116208560046131e8565b8d600201548f600201546116349190613154565b61163e91906132b6565b611648919061316c565b905060ff87166116596064836133b7565b61166390836132fe565b61166d9190613154565b9250505b6116a06040518060400160405280600b81526020016a4e65772054727566666c6560a81b815250838c8c611df1565b6116a98c611fcb565b6116b28b611fcb565b5050505050505050505050505050565b601081600381106116d257600080fd5b60089182820401919006600402915054906101000a900463ffffffff1681565b6116fa611b11565b6001600160a01b0316826001600160a01b0316141561172b5760405162461bcd60e51b815260040161066990612dd9565b8060056000611738611b11565b6001600160a01b03908116825260208083019390935260409182016000908120918716808252919093529120805460ff19169215159290921790915561177c611b11565b6001600160a01b03167f17307eab39ab6107e8899845ad3d59bd9653f200f220920489ca2b5937696c31836040516117b49190612c4f565b60405180910390a35050565b60606011805480602002602001604051908101604052809291908181526020016000905b8282101561190b57838290600052602060002090600402016040518061010001604052908160008201805461181890613341565b80601f016020809104026020016040519081016040528092919081815260200182805461184490613341565b80156118915780601f1061186657610100808354040283529160200191611891565b820191906000526020600020905b81548152906001019060200180831161187457829003601f168201915b50505091835250506001828101546020808401919091526002840154604084015260039093015460ff808216606085015261010082048116608085015263ffffffff6201000083041660a0850152600160301b8204811660c0850152600160381b9091041660e090920191909152918352920191016117e4565b50505050905090565b61192561191f611b11565b83611b83565b6119415760405162461bcd60e51b8152600401610669906130db565b61194d848484846121cd565b50505050565b606061195e82611af4565b61197a5760405162461bcd60e51b81526004016106699061304b565b6000611984612200565b905060008151116119a457604051806020016040528060008152506119cf565b806119ae84612212565b6040516020016119bf929190612a8d565b6040516020818303038152906040525b9392505050565b600b5490565b6001600160a01b03918216600090815260056020908152604080832093909416825291909152205460ff1690565b611a12611b11565b6001600160a01b0316611a23610d7b565b6001600160a01b031614611a495760405162461bcd60e51b815260040161066990612fcd565b6001600160a01b038116611a6f5760405162461bcd60e51b815260040161066990612d18565b611a7881611d35565b50565b600b543414611a8957600080fd5b6000611a948261232d565b90506000611aa26013611d9e565b611aad6064846133b7565b611ab790846132fe565b611ac19190613154565b611acc906001613154565b90506107218382600080611df1565b6001600160e01b031981166301ffc9a760e01b14919050565b6000908152600260205260409020546001600160a01b0316151590565b3390565b600081815260046020526040902080546001600160a01b0319166001600160a01b0384169081179091558190611b4a82610c6d565b6001600160a01b03167f8c5be1e5ebec7d5bd14f71427d1e84f3dd0314c0f7b2291e5b200ac8c7c3b92560405160405180910390a45050565b6000611b8e82611af4565b611baa5760405162461bcd60e51b815260040161066990612e10565b6000611bb583610c6d565b9050806001600160a01b0316846001600160a01b03161480611bf05750836001600160a01b0316611be584610642565b6001600160a01b0316145b80611c005750611c0081856119dc565b949350505050565b826001600160a01b0316611c1b82610c6d565b6001600160a01b031614611c415760405162461bcd60e51b815260040161066990613002565b6001600160a01b038216611c675760405162461bcd60e51b815260040161066990612d95565b611c72838383610721565b611c7d600082611b15565b6001600160a01b0383166000908152600360205260408120805460019290611ca69084906132fe565b90915550506001600160a01b0382166000908152600360205260408120805460019290611cd4908490613154565b909155505060008181526002602052604080822080546001600160a01b0319166001600160a01b0386811691821790925591518493918716917fddf252ad1be2c89b69c2b068fc378daa952ba7f163c4a11628f55a4df523b3ef91a4505050565b600680546001600160a01b038381166001600160a01b0319831681179093556040519116919082907f8be0079c531659141344cd1fd0a4f28419497f9722a3daafe3b4186f6b6457e090600090a35050565b60030154426201000090910463ffffffff16111590565b600e805460009182611daf8361337c565b919050555060004233600e54604051602001611dcd93929190612afb565b60408051601f19818403018152919052805160209091012090506119cf83826133b7565b6000611dfe6064856133b7565b90506000611e0c600761236e565b6040805161010081018252888152602080820184905291810188905260006060820181905260ff868116608084015263ffffffff421660a084015288811660c0840152871660e0830152601180546001810182559152815180519495509193849360049092027f31ecc21a745e3968a04e9570e4425bc18fa8019c68028196b546d1669c200c680192611ea39284929101906126af565b506020820151600182015560408201516002820155606082015160039091018054608084015160a085015160c086015160e09096015160ff908116600160381b0267ff0000000000000019978216600160301b0266ff0000000000001963ffffffff909416620100000265ffffffff0000199584166101000261ff00199490991660ff199097169690961792909216969096179290921692909217919091161792909216179055611f543383612372565b611f5e828861238c565b611f6860076123ab565b600954611f7f906001600160a01b031660016116f2565b336001600160a01b03167f589cd144bbd2fda6318230895eca43f6ea1a1b5b0464c4bc1221bdfc7fad884c8388604051611fba929190613135565b60405180910390a250505050505050565b600381015460ff80821691604b6101009091049091161061206b5760005b60148160ff1611612069578160ff168160ff161415612057578060ff16600f5461201391906132b6565b6010546120269063ffffffff1642613154565b61203091906132fe565b8360030160026101000a81548163ffffffff021916908363ffffffff160217905550612069565b8061206181613397565b915050611fe9565b505b6003820154603261010090910460ff161080159061209657506003820154604b61010090910460ff16105b156121285760005b60148160ff1611612126578160ff168160ff161415612114578060ff16600f546120c891906132b6565b6010546120e390640100000000900463ffffffff1642613154565b6120ed91906132fe565b8360030160026101000a81548163ffffffff021916908363ffffffff160217905550612126565b8061211e81613397565b91505061209e565b505b6003820154603261010090910460ff16101561088e5760005b60148160ff1611610721578160ff168160ff1614156121bb578060ff16600f5461216b91906132b6565b60105461218a9068010000000000000000900463ffffffff1642613154565b61219491906132fe565b8360030160026101000a81548163ffffffff021916908363ffffffff160217905550610721565b806121c581613397565b915050612141565b6121d8848484611c08565b6121e4848484846123b4565b61194d5760405162461bcd60e51b815260040161066990612cc6565b60408051602081019091526000815290565b60608161223757506040805180820190915260018152600360fc1b60208201526105ab565b8160005b8115612261578061224b8161337c565b915061225a9050600a8361316c565b915061223b565b60008167ffffffffffffffff81111561228a57634e487b7160e01b600052604160045260246000fd5b6040519080825280601f01601f1916602001820160405280156122b4576020820181803683370190505b5090505b8415611c00576122c96001836132fe565b91506122d6600a866133b7565b6122e1906030613154565b60f81b81838151811061230457634e487b7160e01b600052603260045260246000fd5b60200101906001600160f81b031916908160001a905350612326600a8661316c565b94506122b8565b60008042338460405160200161234593929190612abc565b6040516020818303038152906040528051906020012060001c9050600a54816119cf91906133b7565b5490565b61088e8282604051806020016040528060008152506124cf565b60008281526008602090815260409091208251610721928401906126af565b80546001019055565b60006123c8846001600160a01b0316612502565b156124c457836001600160a01b031663150b7a026123e4611b11565b8786866040518563ffffffff1660e01b81526004016124069493929190612b37565b602060405180830381600087803b15801561242057600080fd5b505af1925050508015612450575060408051601f3d908101601f1916820190925261244d9181019061293e565b60015b6124aa573d80801561247e576040519150601f19603f3d011682016040523d82523d6000602084013e612483565b606091505b5080516124a25760405162461bcd60e51b815260040161066990612cc6565b805181602001fd5b6001600160e01b031916630a85bd0160e11b149050611c00565b506001949350505050565b6124d98383612508565b6124e660008484846123b4565b6107215760405162461bcd60e51b815260040161066990612cc6565b3b151590565b6001600160a01b03821661252e5760405162461bcd60e51b815260040161066990612f4c565b61253781611af4565b156125545760405162461bcd60e51b815260040161066990612d5e565b61256060008383610721565b6001600160a01b0382166000908152600360205260408120805460019290612589908490613154565b909155505060008181526002602052604080822080546001600160a01b0319166001600160a01b03861690811790915590518392907fddf252ad1be2c89b69c2b068fc378daa952ba7f163c4a11628f55a4df523b3ef908290a45050565b6040805161010081018252606080825260006020830181905292820183905281018290526080810182905260a0810182905260c0810182905260e081019190915290565b82805461263790613341565b90600052602060002090601f016020900481019282612659576000855561269f565b82601f106126725782800160ff1982351617855561269f565b8280016001018555821561269f579182015b8281111561269f578235825591602001919060010190612684565b506126ab929150612723565b5090565b8280546126bb90613341565b90600052602060002090601f0160209004810192826126dd576000855561269f565b82601f106126f657805160ff191683800117855561269f565b8280016001018555821561269f579182015b8281111561269f578251825591602001919060010190612708565b5b808211156126ab5760008155600101612724565b600067ffffffffffffffff8084111561275357612753613419565b604051601f8501601f19168101602001828111828210171561277757612777613419565b60405284815291508183850186101561278f57600080fd5b8484602083013760006020868301015250509392505050565b80356001600160a01b03811681146105ab57600080fd5b6000602082840312156127d0578081fd5b6119cf826127a8565b600080604083850312156127eb578081fd5b6127f4836127a8565b9150612802602084016127a8565b90509250929050565b60008060006060848603121561281f578081fd5b612828846127a8565b9250612836602085016127a8565b9150604084013590509250925092565b6000806000806080858703121561285b578081fd5b612864856127a8565b9350612872602086016127a8565b925060408501359150606085013567ffffffffffffffff811115612894578182fd5b8501601f810187136128a4578182fd5b6128b387823560208401612738565b91505092959194509250565b600080604083850312156128d1578182fd5b6128da836127a8565b9150602083013580151581146128ee578182fd5b809150509250929050565b6000806040838503121561290b578182fd5b612914836127a8565b946020939093013593505050565b600060208284031215612933578081fd5b81356119cf8161342f565b60006020828403121561294f578081fd5b81516119cf8161342f565b60006020828403121561296b578081fd5b813567ffffffffffffffff811115612981578182fd5b8201601f81018413612991578182fd5b611c0084823560208401612738565b6000602082840312156129b1578081fd5b5035919050565b6000806000604084860312156129cc578283fd5b83359250602084013567ffffffffffffffff808211156129ea578384fd5b818601915086601f8301126129fd578384fd5b813581811115612a0b578485fd5b876020828501011115612a1c578485fd5b6020830194508093505050509250925092565b60008060408385031215612a41578182fd5b50508035926020909101359150565b60008151808452612a68816020860160208601613315565b601f01601f19169290920160200192915050565b63ffffffff169052565b60ff169052565b60008351612a9f818460208801613315565b835190830190612ab3818360208801613315565b01949350505050565b60008482526bffffffffffffffffffffffff198460601b1660208301528251612aec816034850160208701613315565b91909101603401949350505050565b92835260609190911b6bffffffffffffffffffffffff19166020830152603482015260540190565b6001600160a01b0391909116815260200190565b6001600160a01b0385811682528416602082015260408101839052608060608201819052600090612b6a90830184612a50565b9695505050505050565b60208082528251828201819052600091906040908185019080840286018301878501865b83811015612c4157603f1989840301855281516101008151818652612bbf82870182612a50565b9150508882015189860152878201518886015260608083015160ff80821683890152608092508083860151168389015250505060a080830151612c0482880182612a7c565b505060c080830151612c1882880182612a86565b505060e09182015191612c2d86820184612a86565b509588019593505090860190600101612b98565b509098975050505050505050565b901515815260200190565b6000602082526119cf6020830184612a50565b6000610100808352612c818184018c612a50565b602084019a909a525050604081019690965260ff9485166060870152928416608086015263ffffffff9190911660a0850152821660c08401521660e090910152919050565b60208082526032908201527f4552433732313a207472616e7366657220746f206e6f6e20455243373231526560408201527131b2b4bb32b91034b6b83632b6b2b73a32b960711b606082015260800190565b60208082526026908201527f4f776e61626c653a206e6577206f776e657220697320746865207a65726f206160408201526564647265737360d01b606082015260800190565b6020808252601c908201527f4552433732313a20746f6b656e20616c7265616479206d696e74656400000000604082015260600190565b60208082526024908201527f4552433732313a207472616e7366657220746f20746865207a65726f206164646040820152637265737360e01b606082015260800190565b60208082526019908201527f4552433732313a20617070726f766520746f2063616c6c657200000000000000604082015260600190565b6020808252602c908201527f4552433732313a206f70657261746f7220717565727920666f72206e6f6e657860408201526b34b9ba32b73a103a37b5b2b760a11b606082015260800190565b60208082526038908201527f4552433732313a20617070726f76652063616c6c6572206973206e6f74206f7760408201527f6e6572206e6f7220617070726f76656420666f7220616c6c0000000000000000606082015260800190565b6020808252602a908201527f4552433732313a2062616c616e636520717565727920666f7220746865207a65604082015269726f206164647265737360b01b606082015260800190565b60208082526029908201527f4552433732313a206f776e657220717565727920666f72206e6f6e657869737460408201526832b73a103a37b5b2b760b91b606082015260800190565b6020808252818101527f4552433732313a206d696e7420746f20746865207a65726f2061646472657373604082015260600190565b6020808252602c908201527f4552433732313a20617070726f76656420717565727920666f72206e6f6e657860408201526b34b9ba32b73a103a37b5b2b760a11b606082015260800190565b6020808252818101527f4f776e61626c653a2063616c6c6572206973206e6f7420746865206f776e6572604082015260600190565b60208082526029908201527f4552433732313a207472616e73666572206f6620746f6b656e2074686174206960408201526839903737ba1037bbb760b91b606082015260800190565b6020808252602f908201527f4552433732314d657461646174613a2055524920717565727920666f72206e6f60408201526e3732bc34b9ba32b73a103a37b5b2b760891b606082015260800190565b60208082526021908201527f4552433732313a20617070726f76616c20746f2063757272656e74206f776e656040820152603960f91b606082015260800190565b60208082526031908201527f4552433732313a207472616e736665722063616c6c6572206973206e6f74206f6040820152701ddb995c881b9bdc88185c1c1c9bdd9959607a1b606082015260800190565b90815260200190565b918252602082015260400190565b63ffffffff91909116815260200190565b60008219821115613167576131676133ed565b500190565b60008261317b5761317b613403565b500490565b600060ff83168061319357613193613403565b8060ff84160491505092915050565b80825b60018086116131b457506131df565b8187048211156131c6576131c66133ed565b808616156131d357918102915b9490941c9380026131a5565b94509492505050565b60006119cf6000198484600082613201575060016119cf565b8161320e575060006119cf565b8160018114613224576002811461322e5761325b565b60019150506119cf565b60ff84111561323f5761323f6133ed565b6001841b915084821115613255576132556133ed565b506119cf565b5060208310610133831016604e8410600b841016171561328e575081810a83811115613289576132896133ed565b6119cf565b61329b84848460016131a2565b8086048211156132ad576132ad6133ed565b02949350505050565b60008160001904831182151516156132d0576132d06133ed565b500290565b600060ff821660ff84168160ff04811182151516156132f6576132f66133ed565b029392505050565b600082821015613310576133106133ed565b500390565b60005b83811015613330578181015183820152602001613318565b8381111561194d5750506000910152565b60028104600182168061335557607f821691505b6020821081141561337657634e487b7160e01b600052602260045260246000fd5b50919050565b6000600019821415613390576133906133ed565b5060010190565b600060ff821660ff8114156133ae576133ae6133ed565b60010192915050565b6000826133c6576133c6613403565b500690565b600060ff8316806133de576133de613403565b8060ff84160691505092915050565b634e487b7160e01b600052601160045260246000fd5b634e487b7160e01b600052601260045260246000fd5b634e487b7160e01b600052604160045260246000fd5b6001600160e01b031981168114611a7857600080fdfea26469706673582212205a8fc0e005f65ff7309118600a56bad678f306a51e16e6b964b727d9e19ea6c864736f6c63430008000033",
  "immutableReferences": {},
  "source": "// SPDX-License-Identifier: MIT\r\n\r\npragma solidity ^0.8.0;\r\n\r\nimport \"@openzeppelin/contracts/token/ERC721/ERC721.sol\";\r\nimport \"@openzeppelin/contracts/access/Ownable.sol\";\r\nimport \"@openzeppelin/contracts/utils/Counters.sol\";\r\n\r\ncontract TruffleFactory is ERC721, Ownable {\r\n    using Counters for Counters.Counter;\r\n    using Strings for uint256;\r\n    Counters.Counter _tokenIds;\r\n    mapping(uint256 => string) _tokenURIs;\r\n\r\n    constructor(address marketplaceAddress) ERC721(\"Truffle\", \"TFT\") {\r\n        contractAddress = marketplaceAddress;\r\n    }\r\n\r\n    address contractAddress;\r\n    uint256 DNA_MOD = 10**16;\r\n    uint256 fee = 0.025 ether;\r\n    uint256 levelUpFee = 0.001 ether;\r\n    uint256 feeBreed = 0.01 ether;\r\n    uint256 randNonce = 0;\r\n    uint256 lostTime = 30 minutes;\r\n    uint32[3] public cooldowns = [\r\n        uint32(12 hours),\r\n        uint32(18 hours),\r\n        uint32(1 days)\r\n    ];\r\n\r\n    struct Truffle {\r\n        string name;\r\n        uint256 id;\r\n        uint256 dna;\r\n        uint8 level;\r\n        uint8 rarity;\r\n        uint32 readyTime;\r\n        uint8 dadId;\r\n        uint8 mumId;\r\n    }\r\n\r\n    Truffle[] public truffles;\r\n\r\n    event NewTruffle(address indexed owner, uint256 id, uint256 dna);\r\n\r\n    // Helpers\r\n    function getFee() public view returns (uint256) {\r\n        return fee;\r\n    }\r\n\r\n    function FreeLeveUp() public view returns (uint256) {\r\n        return levelUpFee;\r\n    }\r\n\r\n    function getFeeBreed() public view returns (uint256) {\r\n        return feeBreed;\r\n    }\r\n\r\n    function _setTokenURI(uint256 tokenId, string memory _tokenURI) internal {\r\n        _tokenURIs[tokenId] = _tokenURI;\r\n    }\r\n\r\n    function _createRandomDna(string memory _mod)\r\n        internal\r\n        view\r\n        returns (uint256)\r\n    {\r\n        uint256 randomNum = uint256(\r\n            keccak256(abi.encodePacked(block.timestamp, msg.sender, _mod))\r\n        );\r\n        return randomNum % DNA_MOD;\r\n    }\r\n\r\n    function _createTruffle(\r\n        string memory _name,\r\n        uint256 _dna,\r\n        uint8 dadId,\r\n        uint8 mumId\r\n    ) internal {\r\n        uint8 randRarity = uint8(_dna % 100);\r\n\r\n        uint256 newId = _tokenIds.current();\r\n        Truffle memory newTruffle = Truffle(\r\n            _name,\r\n            newId,\r\n            _dna,\r\n            0,\r\n            randRarity,\r\n            uint32(block.timestamp),\r\n            dadId,\r\n            mumId\r\n        );\r\n        truffles.push(newTruffle);\r\n        _safeMint(msg.sender, newId);\r\n        _setTokenURI(newId, _name);\r\n        _tokenIds.increment();\r\n        setApprovalForAll(contractAddress, true);\r\n\r\n        emit NewTruffle(msg.sender, newId, _dna);\r\n    }\r\n\r\n    function createRandomTruffle(string memory _name) public payable {\r\n        require(msg.value == fee);\r\n        uint256 randDna = _createRandomDna(_name);\r\n        uint256 newDna = randDna - (randDna % 100) + randMod(19) + 1;\r\n        _createTruffle(_name, newDna, 0, 0);\r\n    }\r\n\r\n    function getTruffle() public view returns (Truffle[] memory) {\r\n        return truffles;\r\n    }\r\n\r\n    function getOwnerTruffles(address _owner)\r\n        public\r\n        view\r\n        returns (Truffle[] memory)\r\n    {\r\n        Truffle[] memory result = new Truffle[](balanceOf(_owner));\r\n        uint256 counter = 0;\r\n        for (uint256 i = 0; i < truffles.length; i++) {\r\n            if (ownerOf(i) == _owner) {\r\n                result[counter] = truffles[i];\r\n                counter++;\r\n            }\r\n        }\r\n        return result;\r\n    }\r\n\r\n    function updateFee(uint256 _fee) external onlyOwner {\r\n        fee = _fee;\r\n    }\r\n\r\n    function updateFeeLevelUp(uint256 _feeLevelUp) external onlyOwner {\r\n        levelUpFee = _feeLevelUp;\r\n    }\r\n\r\n    function withdraw() external payable onlyOwner {\r\n        address payable _owner = payable(owner());\r\n        _owner.transfer(address(this).balance);\r\n    }\r\n\r\n    // Actions\r\n    modifier aboveLevel(uint256 _level, uint256 _TruffleId) {\r\n        require(truffles[_TruffleId].level >= _level);\r\n        _;\r\n    }\r\n\r\n    function levelUp(uint256 _TruffleId) external payable {\r\n        require(msg.value == levelUpFee);\r\n        require(ownerOf(_TruffleId) == msg.sender);\r\n        Truffle storage truffle = truffles[_TruffleId];\r\n        require(truffle.level < 20);\r\n        truffle.level++;\r\n    }\r\n\r\n    function updateName(uint256 _TruffleId, string calldata _newName)\r\n        external\r\n        aboveLevel(2, _TruffleId)\r\n    {\r\n        require(ownerOf(_TruffleId) == msg.sender);\r\n        truffles[_TruffleId].name = _newName;\r\n    }\r\n\r\n    function randMod(uint256 _modulus) internal returns (uint256) {\r\n        //hm s ngu nhin\r\n        randNonce++;\r\n        uint256 randomNum2 = uint256(\r\n            keccak256(abi.encodePacked(block.timestamp, msg.sender, randNonce))\r\n        );\r\n        return randomNum2 % _modulus;\r\n    }\r\n\r\n    function _triggerCooldown(Truffle storage _truffle) internal {\r\n        //hm kich hoat cooldown\r\n        uint8 levels = _truffle.level;\r\n        if (_truffle.rarity >= 75) {\r\n            for (uint8 i = 0; i <= 20; i++) {\r\n                if (i == levels) {\r\n                    _truffle.readyTime = uint32(\r\n                        block.timestamp + cooldowns[0] - (lostTime * i)\r\n                    );\r\n                    break;\r\n                }\r\n            }\r\n        }\r\n        if (_truffle.rarity >= 50 && _truffle.rarity < 75) {\r\n            for (uint8 i = 0; i <= 20; i++) {\r\n                if (i == levels) {\r\n                    _truffle.readyTime = uint32(\r\n                        block.timestamp + cooldowns[1] - (lostTime * i)\r\n                    );\r\n                    break;\r\n                }\r\n            }\r\n        }\r\n        if (_truffle.rarity < 50) {\r\n            for (uint8 i = 0; i <= 20; i++) {\r\n                if (i == levels) {\r\n                    _truffle.readyTime = uint32(\r\n                        block.timestamp + cooldowns[2] - (lostTime * i)\r\n                    );\r\n                    break;\r\n                }\r\n            }\r\n        }\r\n    }\r\n\r\n    function _isReady(Truffle storage _truffle) internal view returns (bool) {\r\n        return (_truffle.readyTime <= block.timestamp);\r\n    }\r\n\r\n    function BreedAndMultiply(uint256 _truffleId, uint256 _targetDna)\r\n        public\r\n        payable\r\n        onlyOwner\r\n    {\r\n        require(msg.value == feeBreed);\r\n        Truffle storage myTruffle = truffles[_truffleId];\r\n        Truffle storage myTargetDna = truffles[_targetDna];\r\n        require(_isReady(myTruffle));\r\n        require(_isReady(myTargetDna));\r\n        uint8 dadId = uint8(myTruffle.id);\r\n        uint8 mumId = uint8(myTargetDna.id);\r\n\r\n        uint8 valueRarity = uint8(myTruffle.dna % 100);\r\n        uint8 valueRarity2 = uint8(myTargetDna.dna % 100);\r\n        uint8 valueRarity3 = uint8(\r\n            valueRarity +\r\n                randMod(valueRarity) +\r\n                valueRarity2 -\r\n                randMod(valueRarity2)\r\n        ) / 2;\r\n        uint8 valueRarity4 = uint8((valueRarity3 * 15) / 100);\r\n\r\n        uint256 number = valueRarity % 10;\r\n        uint256 number2 = valueRarity2 % 10;\r\n        uint256 newDna;\r\n        uint256 rand = randMod(100);\r\n        require(valueRarity < 99 && valueRarity2 < 99);\r\n        if (valueRarity <= 60 && valueRarity2 <= 60) {\r\n            if (valueRarity <= 20 && valueRarity2 <= 20) {\r\n                if (rand >= 50) {\r\n                    if (valueRarity >= valueRarity2) {\r\n                        uint256 algorithm = ((myTruffle.dna + myTargetDna.dna) *\r\n                            (4**number)) / (5**number);\r\n                        newDna =\r\n                            algorithm -\r\n                            (algorithm % 100) +\r\n                            valueRarity +\r\n                            randMod(10);\r\n                    } else {\r\n                        uint256 algorithm = ((myTruffle.dna + myTargetDna.dna) *\r\n                            (4**number2)) / (5**number2);\r\n                        newDna =\r\n                            algorithm -\r\n                            (algorithm % 100) +\r\n                            valueRarity2 +\r\n                            randMod(10);\r\n                    }\r\n                } else {\r\n                    uint256 algorithm = ((myTruffle.dna + myTargetDna.dna) *\r\n                        (4**number)) / (5**number);\r\n                    newDna = algorithm - (algorithm % 100) + valueRarity3;\r\n                }\r\n            } else {\r\n                if (rand >= 60) {\r\n                    if (valueRarity >= valueRarity2) {\r\n                        uint256 algorithm = ((myTruffle.dna + myTargetDna.dna) *\r\n                            (4**number)) / (5**number);\r\n                        newDna =\r\n                            algorithm -\r\n                            (algorithm % 100) +\r\n                            valueRarity +\r\n                            randMod(10);\r\n                    } else {\r\n                        uint256 algorithm = ((myTruffle.dna + myTargetDna.dna) *\r\n                            (4**number2)) / (5**number2);\r\n                        newDna =\r\n                            algorithm -\r\n                            (algorithm % 100) +\r\n                            valueRarity2 +\r\n                            randMod(10);\r\n                    }\r\n                } else {\r\n                    uint256 algorithm = ((myTruffle.dna + myTargetDna.dna) *\r\n                        (4**number)) / (5**number);\r\n                    newDna =\r\n                        algorithm -\r\n                        (algorithm % 100) +\r\n                        valueRarity3 +\r\n                        valueRarity4;\r\n                }\r\n            }\r\n        }\r\n        if (valueRarity > 60 && valueRarity2 > 60) {\r\n            if (rand >= 70) {\r\n                if (valueRarity >= valueRarity2) {\r\n                    uint256 algorithm = ((myTruffle.dna + myTargetDna.dna) *\r\n                        (4**number)) / (5**number);\r\n                    newDna =\r\n                        algorithm -\r\n                        (algorithm % 100) +\r\n                        valueRarity +\r\n                        randMod(8);\r\n                } else {\r\n                    uint256 algorithm = ((myTruffle.dna + myTargetDna.dna) *\r\n                        (4**number2)) / (5**number2);\r\n                    newDna =\r\n                        algorithm -\r\n                        (algorithm % 100) +\r\n                        valueRarity2 +\r\n                        randMod(8);\r\n                }\r\n            } else {\r\n                uint256 algorithm = ((myTruffle.dna + myTargetDna.dna) *\r\n                    (4**number)) / (5**number);\r\n                newDna = algorithm - (algorithm % 100) + valueRarity3;\r\n            }\r\n        }\r\n        if (valueRarity > 60 && valueRarity2 <= 60) {\r\n            if (rand >= 80) {\r\n                uint256 algorithm = ((myTruffle.dna + myTargetDna.dna) *\r\n                    (4**number)) / (5**number);\r\n                newDna =\r\n                    algorithm -\r\n                    (algorithm % 100) +\r\n                    valueRarity +\r\n                    randMod(7);\r\n            } else {\r\n                uint256 algorithm = ((myTruffle.dna + myTargetDna.dna) *\r\n                    (4**number)) / (5**number);\r\n                newDna = algorithm - (algorithm % 100) + valueRarity3;\r\n            }\r\n        }\r\n        if (valueRarity <= 60 && valueRarity2 > 60) {\r\n            if (rand >= 80) {\r\n                uint256 algorithm = ((myTruffle.dna + myTargetDna.dna) *\r\n                    (4**number2)) / (5**number2);\r\n                newDna =\r\n                    algorithm -\r\n                    (algorithm % 100) +\r\n                    valueRarity2 +\r\n                    randMod(8);\r\n            } else {\r\n                uint256 algorithm = ((myTruffle.dna + myTargetDna.dna) *\r\n                    (4**number2)) / (5**number2);\r\n                newDna = algorithm - (algorithm % 100) + valueRarity3;\r\n            }\r\n        }\r\n\r\n        _createTruffle(\"New Truffle\", newDna, dadId, mumId);\r\n        _triggerCooldown(myTruffle);\r\n        _triggerCooldown(myTargetDna);\r\n    }\r\n}\r\n",
  "sourcePath": "D:\\DAPP\\project-game\\project-game-truffle\\contracts\\TruffleFactory.sol",
  "compiler": {
    "name": "solc",
    "version": "0.8.0+commit.c7dfd78e.Emscripten.clang"
  },
  "schemaVersion": "3.4.3",
  "updatedAt": "2021-11-13T14:26:07.451Z",
  "networkType": "ethereum",
  "devdoc": {
    "kind": "dev",
    "methods": {
      "approve(address,uint256)": {
        "details": "See {IERC721-approve}."
      },
      "balanceOf(address)": {
        "details": "See {IERC721-balanceOf}."
      },
      "getApproved(uint256)": {
        "details": "See {IERC721-getApproved}."
      },
      "isApprovedForAll(address,address)": {
        "details": "See {IERC721-isApprovedForAll}."
      },
      "name()": {
        "details": "See {IERC721Metadata-name}."
      },
      "owner()": {
        "details": "Returns the address of the current owner."
      },
      "ownerOf(uint256)": {
        "details": "See {IERC721-ownerOf}."
      },
      "renounceOwnership()": {
        "details": "Leaves the contract without owner. It will not be possible to call `onlyOwner` functions anymore. Can only be called by the current owner. NOTE: Renouncing ownership will leave the contract without an owner, thereby removing any functionality that is only available to the owner."
      },
      "safeTransferFrom(address,address,uint256)": {
        "details": "See {IERC721-safeTransferFrom}."
      },
      "safeTransferFrom(address,address,uint256,bytes)": {
        "details": "See {IERC721-safeTransferFrom}."
      },
      "setApprovalForAll(address,bool)": {
        "details": "See {IERC721-setApprovalForAll}."
      },
      "supportsInterface(bytes4)": {
        "details": "See {IERC165-supportsInterface}."
      },
      "symbol()": {
        "details": "See {IERC721Metadata-symbol}."
      },
      "tokenURI(uint256)": {
        "details": "See {IERC721Metadata-tokenURI}."
      },
      "transferFrom(address,address,uint256)": {
        "details": "See {IERC721-transferFrom}."
      },
      "transferOwnership(address)": {
        "details": "Transfers ownership of the contract to a new account (`newOwner`). Can only be called by the current owner."
      }
    },
    "version": 1
  },
  "userdoc": {
    "kind": "user",
    "methods": {},
    "version": 1
  }
}