{
  "contractName": "TruffleFactory",
  "abi": [
    {
      "inputs": [],
      "stateMutability": "nonpayable",
      "type": "constructor"
    },
    {
      "anonymous": false,
      "inputs": [
        {
          "indexed": true,
          "internalType": "address",
          "name": "owner",
          "type": "address"
        },
        {
          "indexed": true,
          "internalType": "address",
          "name": "approved",
          "type": "address"
        },
        {
          "indexed": true,
          "internalType": "uint256",
          "name": "tokenId",
          "type": "uint256"
        }
      ],
      "name": "Approval",
      "type": "event"
    },
    {
      "anonymous": false,
      "inputs": [
        {
          "indexed": true,
          "internalType": "address",
          "name": "owner",
          "type": "address"
        },
        {
          "indexed": true,
          "internalType": "address",
          "name": "operator",
          "type": "address"
        },
        {
          "indexed": false,
          "internalType": "bool",
          "name": "approved",
          "type": "bool"
        }
      ],
      "name": "ApprovalForAll",
      "type": "event"
    },
    {
      "anonymous": false,
      "inputs": [
        {
          "indexed": false,
          "internalType": "address",
          "name": "_seller",
          "type": "address"
        },
        {
          "indexed": false,
          "internalType": "address",
          "name": "_buyer",
          "type": "address"
        },
        {
          "indexed": false,
          "internalType": "uint256",
          "name": "_price",
          "type": "uint256"
        }
      ],
      "name": "BuyTruffle",
      "type": "event"
    },
    {
      "anonymous": false,
      "inputs": [
        {
          "indexed": true,
          "internalType": "address",
          "name": "owner",
          "type": "address"
        },
        {
          "indexed": false,
          "internalType": "uint256",
          "name": "id",
          "type": "uint256"
        },
        {
          "indexed": false,
          "internalType": "uint256",
          "name": "dna",
          "type": "uint256"
        }
      ],
      "name": "NewTruffle",
      "type": "event"
    },
    {
      "anonymous": false,
      "inputs": [
        {
          "indexed": true,
          "internalType": "address",
          "name": "previousOwner",
          "type": "address"
        },
        {
          "indexed": true,
          "internalType": "address",
          "name": "newOwner",
          "type": "address"
        }
      ],
      "name": "OwnershipTransferred",
      "type": "event"
    },
    {
      "anonymous": false,
      "inputs": [
        {
          "indexed": true,
          "internalType": "address",
          "name": "from",
          "type": "address"
        },
        {
          "indexed": true,
          "internalType": "address",
          "name": "to",
          "type": "address"
        },
        {
          "indexed": true,
          "internalType": "uint256",
          "name": "tokenId",
          "type": "uint256"
        }
      ],
      "name": "Transfer",
      "type": "event"
    },
    {
      "inputs": [],
      "name": "admin",
      "outputs": [
        {
          "internalType": "address",
          "name": "",
          "type": "address"
        }
      ],
      "stateMutability": "view",
      "type": "function",
      "constant": true
    },
    {
      "inputs": [
        {
          "internalType": "address",
          "name": "to",
          "type": "address"
        },
        {
          "internalType": "uint256",
          "name": "tokenId",
          "type": "uint256"
        }
      ],
      "name": "approve",
      "outputs": [],
      "stateMutability": "nonpayable",
      "type": "function"
    },
    {
      "inputs": [
        {
          "internalType": "address",
          "name": "owner",
          "type": "address"
        }
      ],
      "name": "balanceOf",
      "outputs": [
        {
          "internalType": "uint256",
          "name": "",
          "type": "uint256"
        }
      ],
      "stateMutability": "view",
      "type": "function",
      "constant": true
    },
    {
      "inputs": [
        {
          "internalType": "uint256",
          "name": "",
          "type": "uint256"
        }
      ],
      "name": "cooldowns",
      "outputs": [
        {
          "internalType": "uint32",
          "name": "",
          "type": "uint32"
        }
      ],
      "stateMutability": "view",
      "type": "function",
      "constant": true
    },
    {
      "inputs": [
        {
          "internalType": "uint256",
          "name": "tokenId",
          "type": "uint256"
        }
      ],
      "name": "getApproved",
      "outputs": [
        {
          "internalType": "address",
          "name": "",
          "type": "address"
        }
      ],
      "stateMutability": "view",
      "type": "function",
      "constant": true
    },
    {
      "inputs": [
        {
          "internalType": "address",
          "name": "owner",
          "type": "address"
        },
        {
          "internalType": "address",
          "name": "operator",
          "type": "address"
        }
      ],
      "name": "isApprovedForAll",
      "outputs": [
        {
          "internalType": "bool",
          "name": "",
          "type": "bool"
        }
      ],
      "stateMutability": "view",
      "type": "function",
      "constant": true
    },
    {
      "inputs": [],
      "name": "name",
      "outputs": [
        {
          "internalType": "string",
          "name": "",
          "type": "string"
        }
      ],
      "stateMutability": "view",
      "type": "function",
      "constant": true
    },
    {
      "inputs": [],
      "name": "owner",
      "outputs": [
        {
          "internalType": "address",
          "name": "",
          "type": "address"
        }
      ],
      "stateMutability": "view",
      "type": "function",
      "constant": true
    },
    {
      "inputs": [
        {
          "internalType": "uint256",
          "name": "tokenId",
          "type": "uint256"
        }
      ],
      "name": "ownerOf",
      "outputs": [
        {
          "internalType": "address",
          "name": "",
          "type": "address"
        }
      ],
      "stateMutability": "view",
      "type": "function",
      "constant": true
    },
    {
      "inputs": [],
      "name": "renounceOwnership",
      "outputs": [],
      "stateMutability": "nonpayable",
      "type": "function"
    },
    {
      "inputs": [
        {
          "internalType": "address",
          "name": "from",
          "type": "address"
        },
        {
          "internalType": "address",
          "name": "to",
          "type": "address"
        },
        {
          "internalType": "uint256",
          "name": "tokenId",
          "type": "uint256"
        }
      ],
      "name": "safeTransferFrom",
      "outputs": [],
      "stateMutability": "nonpayable",
      "type": "function"
    },
    {
      "inputs": [
        {
          "internalType": "address",
          "name": "from",
          "type": "address"
        },
        {
          "internalType": "address",
          "name": "to",
          "type": "address"
        },
        {
          "internalType": "uint256",
          "name": "tokenId",
          "type": "uint256"
        },
        {
          "internalType": "bytes",
          "name": "_data",
          "type": "bytes"
        }
      ],
      "name": "safeTransferFrom",
      "outputs": [],
      "stateMutability": "nonpayable",
      "type": "function"
    },
    {
      "inputs": [
        {
          "internalType": "address",
          "name": "operator",
          "type": "address"
        },
        {
          "internalType": "bool",
          "name": "approved",
          "type": "bool"
        }
      ],
      "name": "setApprovalForAll",
      "outputs": [],
      "stateMutability": "nonpayable",
      "type": "function"
    },
    {
      "inputs": [
        {
          "internalType": "bytes4",
          "name": "interfaceId",
          "type": "bytes4"
        }
      ],
      "name": "supportsInterface",
      "outputs": [
        {
          "internalType": "bool",
          "name": "",
          "type": "bool"
        }
      ],
      "stateMutability": "view",
      "type": "function",
      "constant": true
    },
    {
      "inputs": [],
      "name": "symbol",
      "outputs": [
        {
          "internalType": "string",
          "name": "",
          "type": "string"
        }
      ],
      "stateMutability": "view",
      "type": "function",
      "constant": true
    },
    {
      "inputs": [
        {
          "internalType": "uint256",
          "name": "",
          "type": "uint256"
        }
      ],
      "name": "tokenIdToPrice",
      "outputs": [
        {
          "internalType": "uint256",
          "name": "",
          "type": "uint256"
        }
      ],
      "stateMutability": "view",
      "type": "function",
      "constant": true
    },
    {
      "inputs": [
        {
          "internalType": "uint256",
          "name": "tokenId",
          "type": "uint256"
        }
      ],
      "name": "tokenURI",
      "outputs": [
        {
          "internalType": "string",
          "name": "",
          "type": "string"
        }
      ],
      "stateMutability": "view",
      "type": "function",
      "constant": true
    },
    {
      "inputs": [
        {
          "internalType": "address",
          "name": "from",
          "type": "address"
        },
        {
          "internalType": "address",
          "name": "to",
          "type": "address"
        },
        {
          "internalType": "uint256",
          "name": "tokenId",
          "type": "uint256"
        }
      ],
      "name": "transferFrom",
      "outputs": [],
      "stateMutability": "nonpayable",
      "type": "function"
    },
    {
      "inputs": [
        {
          "internalType": "address",
          "name": "newOwner",
          "type": "address"
        }
      ],
      "name": "transferOwnership",
      "outputs": [],
      "stateMutability": "nonpayable",
      "type": "function"
    },
    {
      "inputs": [
        {
          "internalType": "uint256",
          "name": "",
          "type": "uint256"
        }
      ],
      "name": "truffles",
      "outputs": [
        {
          "internalType": "string",
          "name": "name",
          "type": "string"
        },
        {
          "internalType": "uint256",
          "name": "id",
          "type": "uint256"
        },
        {
          "internalType": "uint256",
          "name": "dna",
          "type": "uint256"
        },
        {
          "internalType": "uint8",
          "name": "level",
          "type": "uint8"
        },
        {
          "internalType": "uint8",
          "name": "rarity",
          "type": "uint8"
        },
        {
          "internalType": "address",
          "name": "currentOwner",
          "type": "address"
        },
        {
          "internalType": "address",
          "name": "previousOwner",
          "type": "address"
        },
        {
          "internalType": "uint32",
          "name": "readyTime",
          "type": "uint32"
        },
        {
          "internalType": "uint8",
          "name": "dadId",
          "type": "uint8"
        },
        {
          "internalType": "uint8",
          "name": "mumId",
          "type": "uint8"
        },
        {
          "internalType": "uint256",
          "name": "sell",
          "type": "uint256"
        },
        {
          "internalType": "uint32",
          "name": "sellTime",
          "type": "uint32"
        }
      ],
      "stateMutability": "view",
      "type": "function",
      "constant": true
    },
    {
      "inputs": [],
      "name": "getFee",
      "outputs": [
        {
          "internalType": "uint256",
          "name": "",
          "type": "uint256"
        }
      ],
      "stateMutability": "view",
      "type": "function",
      "constant": true
    },
    {
      "inputs": [],
      "name": "FreeLeveUp",
      "outputs": [
        {
          "internalType": "uint256",
          "name": "",
          "type": "uint256"
        }
      ],
      "stateMutability": "view",
      "type": "function",
      "constant": true
    },
    {
      "inputs": [],
      "name": "getFeeBreed",
      "outputs": [
        {
          "internalType": "uint256",
          "name": "",
          "type": "uint256"
        }
      ],
      "stateMutability": "view",
      "type": "function",
      "constant": true
    },
    {
      "inputs": [
        {
          "internalType": "string",
          "name": "_name",
          "type": "string"
        }
      ],
      "name": "createRandomTruffleFree",
      "outputs": [],
      "stateMutability": "payable",
      "type": "function",
      "payable": true
    },
    {
      "inputs": [
        {
          "internalType": "string",
          "name": "_name",
          "type": "string"
        }
      ],
      "name": "createRandomTruffle",
      "outputs": [],
      "stateMutability": "payable",
      "type": "function",
      "payable": true
    },
    {
      "inputs": [],
      "name": "getTruffle",
      "outputs": [
        {
          "components": [
            {
              "internalType": "string",
              "name": "name",
              "type": "string"
            },
            {
              "internalType": "uint256",
              "name": "id",
              "type": "uint256"
            },
            {
              "internalType": "uint256",
              "name": "dna",
              "type": "uint256"
            },
            {
              "internalType": "uint8",
              "name": "level",
              "type": "uint8"
            },
            {
              "internalType": "uint8",
              "name": "rarity",
              "type": "uint8"
            },
            {
              "internalType": "address",
              "name": "currentOwner",
              "type": "address"
            },
            {
              "internalType": "address",
              "name": "previousOwner",
              "type": "address"
            },
            {
              "internalType": "uint32",
              "name": "readyTime",
              "type": "uint32"
            },
            {
              "internalType": "uint8",
              "name": "dadId",
              "type": "uint8"
            },
            {
              "internalType": "uint8",
              "name": "mumId",
              "type": "uint8"
            },
            {
              "internalType": "uint256",
              "name": "sell",
              "type": "uint256"
            },
            {
              "internalType": "uint32",
              "name": "sellTime",
              "type": "uint32"
            }
          ],
          "internalType": "struct TruffleFactory.Truffle[]",
          "name": "",
          "type": "tuple[]"
        }
      ],
      "stateMutability": "view",
      "type": "function",
      "constant": true
    },
    {
      "inputs": [
        {
          "internalType": "address",
          "name": "_owner",
          "type": "address"
        }
      ],
      "name": "getOwnerTruffles",
      "outputs": [
        {
          "components": [
            {
              "internalType": "string",
              "name": "name",
              "type": "string"
            },
            {
              "internalType": "uint256",
              "name": "id",
              "type": "uint256"
            },
            {
              "internalType": "uint256",
              "name": "dna",
              "type": "uint256"
            },
            {
              "internalType": "uint8",
              "name": "level",
              "type": "uint8"
            },
            {
              "internalType": "uint8",
              "name": "rarity",
              "type": "uint8"
            },
            {
              "internalType": "address",
              "name": "currentOwner",
              "type": "address"
            },
            {
              "internalType": "address",
              "name": "previousOwner",
              "type": "address"
            },
            {
              "internalType": "uint32",
              "name": "readyTime",
              "type": "uint32"
            },
            {
              "internalType": "uint8",
              "name": "dadId",
              "type": "uint8"
            },
            {
              "internalType": "uint8",
              "name": "mumId",
              "type": "uint8"
            },
            {
              "internalType": "uint256",
              "name": "sell",
              "type": "uint256"
            },
            {
              "internalType": "uint32",
              "name": "sellTime",
              "type": "uint32"
            }
          ],
          "internalType": "struct TruffleFactory.Truffle[]",
          "name": "",
          "type": "tuple[]"
        }
      ],
      "stateMutability": "view",
      "type": "function",
      "constant": true
    },
    {
      "inputs": [
        {
          "internalType": "uint256",
          "name": "_fee",
          "type": "uint256"
        }
      ],
      "name": "updateFee",
      "outputs": [],
      "stateMutability": "nonpayable",
      "type": "function"
    },
    {
      "inputs": [
        {
          "internalType": "uint256",
          "name": "_feeLevelUp",
          "type": "uint256"
        }
      ],
      "name": "updateFeeLevelUp",
      "outputs": [],
      "stateMutability": "nonpayable",
      "type": "function"
    },
    {
      "inputs": [],
      "name": "withdraw",
      "outputs": [],
      "stateMutability": "payable",
      "type": "function",
      "payable": true
    },
    {
      "inputs": [
        {
          "internalType": "uint256",
          "name": "_TruffleId",
          "type": "uint256"
        }
      ],
      "name": "levelUp",
      "outputs": [],
      "stateMutability": "payable",
      "type": "function",
      "payable": true
    },
    {
      "inputs": [
        {
          "internalType": "uint256",
          "name": "_TruffleId",
          "type": "uint256"
        },
        {
          "internalType": "string",
          "name": "_newName",
          "type": "string"
        }
      ],
      "name": "updateName",
      "outputs": [],
      "stateMutability": "nonpayable",
      "type": "function"
    },
    {
      "inputs": [
        {
          "internalType": "uint256",
          "name": "_truffleId",
          "type": "uint256"
        },
        {
          "internalType": "uint256",
          "name": "_targetDna",
          "type": "uint256"
        }
      ],
      "name": "BreedAndMultiply",
      "outputs": [],
      "stateMutability": "payable",
      "type": "function",
      "payable": true
    },
    {
      "inputs": [
        {
          "internalType": "address",
          "name": "_from",
          "type": "address"
        },
        {
          "internalType": "address",
          "name": "_to",
          "type": "address"
        },
        {
          "internalType": "uint256",
          "name": "_tokenId",
          "type": "uint256"
        }
      ],
      "name": "GiftToken",
      "outputs": [],
      "stateMutability": "nonpayable",
      "type": "function"
    },
    {
      "inputs": [
        {
          "internalType": "uint256",
          "name": "_tokenId",
          "type": "uint256"
        },
        {
          "internalType": "uint256",
          "name": "_price",
          "type": "uint256"
        }
      ],
      "name": "allowBuy",
      "outputs": [],
      "stateMutability": "payable",
      "type": "function",
      "payable": true
    },
    {
      "inputs": [
        {
          "internalType": "uint256",
          "name": "_tokenId",
          "type": "uint256"
        }
      ],
      "name": "disallowBuy",
      "outputs": [],
      "stateMutability": "nonpayable",
      "type": "function"
    },
    {
      "inputs": [
        {
          "internalType": "uint256",
          "name": "_tokenId",
          "type": "uint256"
        }
      ],
      "name": "buy",
      "outputs": [],
      "stateMutability": "payable",
      "type": "function",
      "payable": true
    },
    {
      "inputs": [
        {
          "internalType": "uint256",
          "name": "_tokenId",
          "type": "uint256"
        },
        {
          "internalType": "uint256",
          "name": "_newPrice",
          "type": "uint256"
        }
      ],
      "name": "changePrice",
      "outputs": [],
      "stateMutability": "nonpayable",
      "type": "function"
    },
    {
      "inputs": [],
      "name": "getAllTruffleSell",
      "outputs": [
        {
          "components": [
            {
              "internalType": "string",
              "name": "name",
              "type": "string"
            },
            {
              "internalType": "uint256",
              "name": "id",
              "type": "uint256"
            },
            {
              "internalType": "uint256",
              "name": "dna",
              "type": "uint256"
            },
            {
              "internalType": "uint8",
              "name": "level",
              "type": "uint8"
            },
            {
              "internalType": "uint8",
              "name": "rarity",
              "type": "uint8"
            },
            {
              "internalType": "address",
              "name": "currentOwner",
              "type": "address"
            },
            {
              "internalType": "address",
              "name": "previousOwner",
              "type": "address"
            },
            {
              "internalType": "uint32",
              "name": "readyTime",
              "type": "uint32"
            },
            {
              "internalType": "uint8",
              "name": "dadId",
              "type": "uint8"
            },
            {
              "internalType": "uint8",
              "name": "mumId",
              "type": "uint8"
            },
            {
              "internalType": "uint256",
              "name": "sell",
              "type": "uint256"
            },
            {
              "internalType": "uint32",
              "name": "sellTime",
              "type": "uint32"
            }
          ],
          "internalType": "struct TruffleFactory.Truffle[]",
          "name": "",
          "type": "tuple[]"
        }
      ],
      "stateMutability": "view",
      "type": "function",
      "constant": true
    },
    {
      "inputs": [
        {
          "internalType": "address",
          "name": "_owner",
          "type": "address"
        }
      ],
      "name": "getOwnerTrufflesSell",
      "outputs": [
        {
          "components": [
            {
              "internalType": "string",
              "name": "name",
              "type": "string"
            },
            {
              "internalType": "uint256",
              "name": "id",
              "type": "uint256"
            },
            {
              "internalType": "uint256",
              "name": "dna",
              "type": "uint256"
            },
            {
              "internalType": "uint8",
              "name": "level",
              "type": "uint8"
            },
            {
              "internalType": "uint8",
              "name": "rarity",
              "type": "uint8"
            },
            {
              "internalType": "address",
              "name": "currentOwner",
              "type": "address"
            },
            {
              "internalType": "address",
              "name": "previousOwner",
              "type": "address"
            },
            {
              "internalType": "uint32",
              "name": "readyTime",
              "type": "uint32"
            },
            {
              "internalType": "uint8",
              "name": "dadId",
              "type": "uint8"
            },
            {
              "internalType": "uint8",
              "name": "mumId",
              "type": "uint8"
            },
            {
              "internalType": "uint256",
              "name": "sell",
              "type": "uint256"
            },
            {
              "internalType": "uint32",
              "name": "sellTime",
              "type": "uint32"
            }
          ],
          "internalType": "struct TruffleFactory.Truffle[]",
          "name": "",
          "type": "tuple[]"
        }
      ],
      "stateMutability": "view",
      "type": "function",
      "constant": true
    },
    {
      "inputs": [
        {
          "internalType": "uint256",
          "name": "_tokenId",
          "type": "uint256"
        }
      ],
      "name": "dailyMission",
      "outputs": [],
      "stateMutability": "nonpayable",
      "type": "function"
    }
  ],
  "bytecode": "0x662386f26fc1000060098190556658d15e17628000600a5566038d7ea4c68000600b819055600c91909155600d556000600e55610708600f5560e060405261a8c0608090815261fd2060a0526201518060c052620000629060109060036200019e565b503480156200007057600080fd5b50604080518082018252600781527f54727566666c650000000000000000000000000000000000000000000000000060208083019182528351808501909452600384527f5446540000000000000000000000000000000000000000000000000000000000908401528151919291620000eb9160009162000241565b5080516200010190600190602084019062000241565b505050620001306200012162000148640100000000026401000000009004565b6401000000006200014c810204565b60088054600160a060020a031916331790556200032b565b3390565b60068054600160a060020a03838116600160a060020a0319831681179093556040519116919082907f8be0079c531659141344cd1fd0a4f28419497f9722a3daafe3b4186f6b6457e090600090a35050565b6001830191839082156200022f5791602002820160005b83821115620001fb57835183826101000a81548163ffffffff021916908363ffffffff1602179055509260200192600401602081600301049283019260010302620001b5565b80156200022d5782816101000a81549063ffffffff0219169055600401602081600301049283019260010302620001fb565b505b506200023d929150620002be565b5090565b8280546200024f90620002d5565b90600052602060002090601f0160209004810192826200027357600085556200022f565b82601f106200028e57805160ff19168380011785556200022f565b828001600101855582156200022f579182015b828111156200022f578251825591602001919060010190620002a1565b5b808211156200023d5760008155600101620002bf565b600281046001821680620002ea57607f821691505b6020821081141562000325577f4e487b7100000000000000000000000000000000000000000000000000000000600052602260045260246000fd5b50919050565b614e91806200033b6000396000f3fe608060405260043610610263576000357c0100000000000000000000000000000000000000000000000000000000900480639012c4a811610156578063c87b56dd116100d3578063e985e9c511610097578063e985e9c51461067d578063f2fde38b1461069d578063f4812eb9146106bd578063f628d6d1146106dd578063f851a440146106fd578063ff5df90a1461071257610263565b8063c87b56dd146105f5578063ced72f8714610615578063d49913121461062a578063d96a094a1461064a578063e41296a71461065d57610263565b8063a22cb4651161011a578063a22cb4651461056d578063b15694121461058d578063b3de019c146105a2578063b88d4fde146105c2578063bbb5e8d3146105e257610263565b80639012c4a8146104e357806395d89b4114610503578063962a8ba3146105185780639d678a9c1461052b5780639d6fac6f1461054057610263565b806344b17626116101e4578063715018a6116101a8578063715018a614610464578063778532181461047957806377e00c311461048e578063884a326e146104ae5780638da5cb5b146104ce57610263565b806344b176261461039f5780634cc37fc0146103cc57806353e76f2c146104045780636352211e1461042457806370a082311461044457610263565b806312e2e1c71161022b57806312e2e1c71461032257806323b872dd1461034457806325a5c16c146103645780633ccfd60b1461037757806342842e0e1461037f57610263565b806301ffc9a71461026857806306fdde031461029e578063081812fc146102c0578063095ea7b3146102ed5780630ce90ec21461030f575b600080fd5b34801561027457600080fd5b50610288610283366004613f45565b610725565b6040516102959190614300565b60405180910390f35b3480156102aa57600080fd5b506102b361079f565b604051610295919061430b565b3480156102cc57600080fd5b506102e06102db366004613fc3565b610831565b604051610295919061415f565b3480156102f957600080fd5b5061030d610308366004613f1c565b610880565b005b61030d61031d366004613fc3565b61091e565b34801561032e57600080fd5b50610337610a15565b6040516102959190614b15565b34801561035057600080fd5b5061030d61035f366004613e2e565b610a1b565b61030d610372366004613f7d565b610a56565b61030d610b0d565b34801561038b57600080fd5b5061030d61039a366004613e2e565b610b96565b3480156103ab57600080fd5b506103bf6103ba366004613de2565b610bb1565b60405161029591906141d3565b3480156103d857600080fd5b506103ec6103e7366004613fc3565b610e1c565b6040516102959c9b9a9998979695949392919061431e565b34801561041057600080fd5b5061030d61041f366004613fdb565b610f3e565b34801561043057600080fd5b506102e061043f366004613fc3565b611035565b34801561045057600080fd5b5061033761045f366004613de2565b61106d565b34801561047057600080fd5b5061030d6110b4565b34801561048557600080fd5b50610337611102565b34801561049a57600080fd5b506103bf6104a9366004613de2565b611108565b3480156104ba57600080fd5b5061030d6104c9366004613fc3565b61143f565b3480156104da57600080fd5b506102e0611486565b3480156104ef57600080fd5b5061030d6104fe366004613fc3565b611495565b34801561050f57600080fd5b506102b36114dc565b61030d610526366004614052565b6114eb565b34801561053757600080fd5b506103bf612039565b34801561054c57600080fd5b5061056061055b366004613fc3565b612325565b6040516102959190614b2c565b34801561057957600080fd5b5061030d610588366004613ee2565b612355565b34801561059957600080fd5b506103bf612426565b3480156105ae57600080fd5b5061030d6105bd366004614052565b6125bc565b3480156105ce57600080fd5b5061030d6105dd366004613e69565b61267c565b61030d6105f0366004614052565b6126b8565b34801561060157600080fd5b506102b3610610366004613fc3565b61279a565b34801561062157600080fd5b50610337612820565b34801561063657600080fd5b5061030d610645366004613fc3565b612826565b61030d610658366004613fc3565b6128c2565b34801561066957600080fd5b5061030d610678366004613e2e565b612a90565b34801561068957600080fd5b50610288610698366004613dfc565b612b50565b3480156106a957600080fd5b5061030d6106b8366004613de2565b612b7e565b3480156106c957600080fd5b506103376106d8366004613fc3565b612bf5565b3480156106e957600080fd5b5061030d6106f8366004613fc3565b612c07565b34801561070957600080fd5b506102e0612e8b565b61030d610720366004613f7d565b612e9a565b6000600160e060020a031982167f80ac58cd0000000000000000000000000000000000000000000000000000000014806107885750600160e060020a031982167f5b5e139f00000000000000000000000000000000000000000000000000000000145b80610797575061079782612f9d565b90505b919050565b6060600080546107ae90614d4b565b80601f01602080910402602001604051908101604052809291908181526020018280546107da90614d4b565b80156108275780601f106107fc57610100808354040283529160200191610827565b820191906000526020600020905b81548152906001019060200180831161080a57829003601f168201915b5050505050905090565b600061083c82612fcf565b6108645760405160e560020a62461bcd02815260040161085b906147e7565b60405180910390fd5b50600090815260046020526040902054600160a060020a031690565b600061088b82611035565b905080600160a060020a031683600160a060020a031614156108c25760405160e560020a62461bcd02815260040161085b90614990565b80600160a060020a03166108d4612fec565b600160a060020a031614806108f057506108f081610698612fec565b61090f5760405160e560020a62461bcd02815260040161085b90614606565b6109198383612ff0565b505050565b600b54341461092c57600080fd5b3361093682611035565b600160a060020a03161461094957600080fd5b60006013828154811061096f5760e060020a634e487b7102600052603260045260246000fd5b600091825260209091206007909102016003810154909150601460ff9091161061099857600080fd5b6005810154156109a757600080fd5b60038101805460ff169060006109bc83614da4565b825460ff9182166101009390930a928302919092021990911617905550600854600b54604051600160a060020a039092169181156108fc0291906000818181858888f19350505050158015610919573d6000803e3d6000fd5b600b5490565b610a2c610a26612fec565b8261305e565b610a4b5760405160e560020a62461bcd02815260040161085b90614a81565b6109198383836130e6565b33610a6057600080fd5b6000805b601354811015610aa75733610a7882611035565b600160a060020a03161415610a955781610a9181614d89565b9250505b80610a9f81614d89565b915050610a64565b5060028110610ab557600080fd5b6000610ac083613219565b90506000610ace6004613259565b610ad9606484614dc4565b610ae39084614d08565b610aed9190614b3d565b610af8906001614b3d565b9050610b0784826000806132ac565b50505050565b610b15612fec565b600160a060020a0316610b26611486565b600160a060020a031614610b4f5760405160e560020a62461bcd02815260040161085b906148a1565b6000610b59611486565b604051909150600160a060020a03821690303180156108fc02916000818181858888f19350505050158015610b92573d6000803e3d6000fd5b5050565b6109198383836040518060200160405280600081525061267c565b60606000610bbe8361106d565b67ffffffffffffffff811115610be75760e060020a634e487b7102600052604160045260246000fd5b604051908082528060200260200182016040528015610c2057816020015b610c0d613bea565b815260200190600190039081610c055790505b5090506000805b601354811015610e135784600160a060020a0316610c4482611035565b600160a060020a03161415610e015760138181548110610c775760e060020a634e487b7102600052603260045260246000fd5b906000526020600020906007020160405180610180016040529081600082018054610ca190614d4b565b80601f0160208091040260200160405190810160405280929190818152602001828054610ccd90614d4b565b8015610d1a5780601f10610cef57610100808354040283529160200191610d1a565b820191906000526020600020905b815481529060010190602001808311610cfd57829003601f168201915b50505091835250506001820154602082015260028201546040820152600382015460ff808216606084015261010080830482166080850152600160a060020a0362010000909304831660a0850152600485015492831660c085015263ffffffff60a060020a8404811660e086015260c060020a840483169185019190915260c860020a909204166101208301526005830154610140830152600690920154909116610160909101528351849084908110610de75760e060020a634e487b7102600052603260045260246000fd5b60200260200101819052508180610dfd90614d89565b9250505b80610e0b81614d89565b915050610c27565b50909392505050565b60138181548110610e2c57600080fd5b9060005260206000209060070201600091509050806000018054610e4f90614d4b565b80601f0160208091040260200160405190810160405280929190818152602001828054610e7b90614d4b565b8015610ec85780601f10610e9d57610100808354040283529160200191610ec8565b820191906000526020600020905b815481529060010190602001808311610eab57829003601f168201915b505050600184015460028501546003860154600487015460058801546006909801549697939692955060ff80831695506101008304811694600160a060020a03620100009094048416949383169363ffffffff60a060020a850481169460c060020a810485169460c860020a909104169291168c565b6002838160138281548110610f665760e060020a634e487b7102600052603260045260246000fd5b600091825260209091206003600790920201015460ff161015610f8857600080fd5b33610f9286611035565b600160a060020a031614610fa557600080fd5b600060138681548110610fcb5760e060020a634e487b7102600052603260045260246000fd5b906000526020600020906007020190508060050154600014610fec57600080fd5b8484601388815481106110125760e060020a634e487b7102600052603260045260246000fd5b6000918252602090912061102c9360079092020191613c4e565b50505050505050565b600081815260026020526040812054600160a060020a0316806107975760405160e560020a62461bcd02815260040161085b906146c0565b6000600160a060020a0382166110985760405160e560020a62461bcd02815260040161085b90614663565b50600160a060020a031660009081526003602052604090205490565b6110bc612fec565b600160a060020a03166110cd611486565b600160a060020a0316146110f65760405160e560020a62461bcd02815260040161085b906148a1565b6111006000613527565b565b600c5490565b606060008060005b60135481101561119d5784600160a060020a031661112d82611035565b600160a060020a031614801561117857506000601382815481106111645760e060020a634e487b7102600052603260045260246000fd5b906000526020600020906007020160050154115b1561118b57611188600183614b3d565b91505b8061119581614d89565b915050611110565b5060008167ffffffffffffffff8111156111ca5760e060020a634e487b7102600052604160045260246000fd5b60405190808252806020026020018201604052801561120357816020015b6111f0613bea565b8152602001906001900390816111e85790505b50905060005b6013548110156114365785600160a060020a031661122682611035565b600160a060020a0316148015611271575060006013828154811061125d5760e060020a634e487b7102600052603260045260246000fd5b906000526020600020906007020160050154115b15611424576013818154811061129a5760e060020a634e487b7102600052603260045260246000fd5b9060005260206000209060070201604051806101800160405290816000820180546112c490614d4b565b80601f01602080910402602001604051908101604052809291908181526020018280546112f090614d4b565b801561133d5780601f106113125761010080835404028352916020019161133d565b820191906000526020600020905b81548152906001019060200180831161132057829003601f168201915b50505091835250506001820154602082015260028201546040820152600382015460ff808216606084015261010080830482166080850152600160a060020a0362010000909304831660a0850152600485015492831660c085015263ffffffff60a060020a8404811660e086015260c060020a840483169185019190915260c860020a90920416610120830152600583015461014083015260069092015490911661016090910152825183908690811061140a5760e060020a634e487b7102600052603260045260246000fd5b6020026020010181905250838061142090614d89565b9450505b8061142e81614d89565b915050611209565b50949350505050565b611447612fec565b600160a060020a0316611458611486565b600160a060020a0316146114815760405160e560020a62461bcd02815260040161085b906148a1565b600b55565b600654600160a060020a031690565b61149d612fec565b600160a060020a03166114ae611486565b600160a060020a0316146114d75760405160e560020a62461bcd02815260040161085b906148a1565b600a55565b6060600180546107ae90614d4b565b600c5434146114f957600080fd5b60006013838154811061151f5760e060020a634e487b7102600052603260045260246000fd5b906000526020600020906007020190506000601383815481106115555760e060020a634e487b7102600052603260045260246000fd5b906000526020600020906007020190508284141561157257600080fd5b3361157c85611035565b600160a060020a03161461158f57600080fd5b3361159984611035565b600160a060020a0316146115ac57600080fd5b6115b582613579565b6115d45760405160e560020a62461bcd02815260040161085b9061471d565b6115dd81613579565b6115fc5760405160e560020a62461bcd02815260040161085b9061471d565b6005820154156116215760405160e560020a62461bcd02815260040161085b90614844565b6005810154156116465760405160e560020a62461bcd02815260040161085b90614844565b60018083015490820154600284015460009061166490606490614dc4565b90506000606485600201546116799190614dc4565b90506000600261168b8360ff16613259565b8360ff1661169b8660ff16613259565b6116a89060ff8816614b3d565b6116b29190614b3d565b6116bc9190614d08565b6116c69190614b88565b9050600060646116d783600f614cdf565b6116e19190614b88565b905060006116f0600a86614dd8565b60ff1690506000611702600a86614dd8565b60ff1690506000806117146064613259565b905060638860ff1610801561172c575060638760ff16105b61173557600080fd5b603c8860ff161115801561174d5750603c8760ff1611155b15611be157601e8860ff161115801561176a5750601e8760ff1611155b156118f05760328110611887578660ff168860ff1610611805576000611791856005614bf2565b61179c866004614bf2565b8d600201548f600201546117b09190614b3d565b6117ba9190614cc0565b6117c49190614b74565b90506117d0600a613259565b60ff8a166117df606484614dc4565b6117e99084614d08565b6117f39190614b3d565b6117fd9190614b3d565b925050611882565b6000611812846005614bf2565b61181d856004614bf2565b8d600201548f600201546118319190614b3d565b61183b9190614cc0565b6118459190614b74565b9050611851600a613259565b60ff8916611860606484614dc4565b61186a9084614d08565b6118749190614b3d565b61187e9190614b3d565b9250505b6118f0565b6000611894856005614bf2565b61189f866004614bf2565b8d600201548f600201546118b39190614b3d565b6118bd9190614cc0565b6118c79190614b74565b905060ff87166118d8606483614dc4565b6118e29083614d08565b6118ec9190614b3d565b9250505b601e8860ff161180156119065750601e8760ff16115b15611a9f5760378110611a23578660ff168860ff16106119a157600061192d856005614bf2565b611938866004614bf2565b8d600201548f6002015461194c9190614b3d565b6119569190614cc0565b6119609190614b74565b905061196c600a613259565b60ff8a1661197b606484614dc4565b6119859084614d08565b61198f9190614b3d565b6119999190614b3d565b925050611a1e565b60006119ae846005614bf2565b6119b9856004614bf2565b8d600201548f600201546119cd9190614b3d565b6119d79190614cc0565b6119e19190614b74565b90506119ed600a613259565b60ff89166119fc606484614dc4565b611a069084614d08565b611a109190614b3d565b611a1a9190614b3d565b9250505b611a9a565b6000611a30856005614bf2565b611a3b866004614bf2565b8d600201548f60020154611a4f9190614b3d565b611a599190614cc0565b611a639190614b74565b905060ff808716908816611a78606484614dc4565b611a829084614d08565b611a8c9190614b3d565b611a969190614b3d565b9250505b611be1565b603c8110611b6a578660ff168860ff1610611b0f576000611ac1856005614bf2565b611acc866004614bf2565b8d600201548f60020154611ae09190614b3d565b611aea9190614cc0565b611af49190614b74565b9050611b00600a613259565b60ff8a166119fc606484614dc4565b6000611b1c846005614bf2565b611b27856004614bf2565b8d600201548f60020154611b3b9190614b3d565b611b459190614cc0565b611b4f9190614b74565b9050611b5b600a613259565b60ff8916611a78606484614dc4565b6000611b77856005614bf2565b611b82866004614bf2565b8d600201548f60020154611b969190614b3d565b611ba09190614cc0565b611baa9190614b74565b905060ff808716908816611bbf606484614dc4565b611bc99084614d08565b611bd39190614b3d565b611bdd9190614b3d565b9250505b603c8860ff16118015611bf75750603c8760ff16115b15611d7d5760468110611d14578660ff168860ff1610611c92576000611c1e856005614bf2565b611c29866004614bf2565b8d600201548f60020154611c3d9190614b3d565b611c479190614cc0565b611c519190614b74565b9050611c5d6008613259565b60ff8a16611c6c606484614dc4565b611c769084614d08565b611c809190614b3d565b611c8a9190614b3d565b925050611d0f565b6000611c9f846005614bf2565b611caa856004614bf2565b8d600201548f60020154611cbe9190614b3d565b611cc89190614cc0565b611cd29190614b74565b9050611cde6008613259565b60ff8916611ced606484614dc4565b611cf79084614d08565b611d019190614b3d565b611d0b9190614b3d565b9250505b611d7d565b6000611d21856005614bf2565b611d2c866004614bf2565b8d600201548f60020154611d409190614b3d565b611d4a9190614cc0565b611d549190614b74565b905060ff8716611d65606483614dc4565b611d6f9083614d08565b611d799190614b3d565b9250505b603c8860ff16118015611d945750603c8760ff1611155b15611e8b5760508110611e22576000611dae856005614bf2565b611db9866004614bf2565b8d600201548f60020154611dcd9190614b3d565b611dd79190614cc0565b611de19190614b74565b9050611ded6007613259565b60ff8a16611dfc606484614dc4565b611e069084614d08565b611e109190614b3d565b611e1a9190614b3d565b925050611e8b565b6000611e2f856005614bf2565b611e3a866004614bf2565b8d600201548f60020154611e4e9190614b3d565b611e589190614cc0565b611e629190614b74565b905060ff8716611e73606483614dc4565b611e7d9083614d08565b611e879190614b3d565b9250505b603c8860ff1611158015611ea25750603c8760ff16115b15611f995760508110611f30576000611ebc846005614bf2565b611ec7856004614bf2565b8d600201548f60020154611edb9190614b3d565b611ee59190614cc0565b611eef9190614b74565b9050611efb6007613259565b60ff8916611f0a606484614dc4565b611f149084614d08565b611f1e9190614b3d565b611f289190614b3d565b925050611f99565b6000611f3d846005614bf2565b611f48856004614bf2565b8d600201548f60020154611f5c9190614b3d565b611f669190614cc0565b611f709190614b74565b905060ff8716611f81606483614dc4565b611f8b9083614d08565b611f959190614b3d565b9250505b611fda6040518060400160405280600b81526020017f4e65772054727566666c65000000000000000000000000000000000000000000815250838c8c6132ac565b611fe38c613591565b611fec8b613591565b600854600c54604051600160a060020a039092169181156108fc0291906000818181858888f19350505050158015612028573d6000803e3d6000fd5b505050505050505050505050505050565b606060008060005b6013548110156120a9576000601382815481106120715760e060020a634e487b7102600052603260045260246000fd5b906000526020600020906007020160050154111561209757612094600183614b3d565b91505b806120a181614d89565b915050612041565b5060008167ffffffffffffffff8111156120d65760e060020a634e487b7102600052604160045260246000fd5b60405190808252806020026020018201604052801561210f57816020015b6120fc613bea565b8152602001906001900390816120f45790505b50905060005b60135481101561231d576000601382815481106121455760e060020a634e487b7102600052603260045260246000fd5b906000526020600020906007020160050154111561230b57601381815481106121815760e060020a634e487b7102600052603260045260246000fd5b9060005260206000209060070201604051806101800160405290816000820180546121ab90614d4b565b80601f01602080910402602001604051908101604052809291908181526020018280546121d790614d4b565b80156122245780601f106121f957610100808354040283529160200191612224565b820191906000526020600020905b81548152906001019060200180831161220757829003601f168201915b50505091835250506001820154602082015260028201546040820152600382015460ff808216606084015261010080830482166080850152600160a060020a0362010000909304831660a0850152600485015492831660c085015263ffffffff60a060020a8404811660e086015260c060020a840483169185019190915260c860020a9092041661012083015260058301546101408301526006909201549091166101609091015282518390869081106122f15760e060020a634e487b7102600052603260045260246000fd5b6020026020010181905250838061230790614d89565b9450505b8061231581614d89565b915050612115565b509250505090565b6010816003811061233557600080fd5b60089182820401919006600402915054906101000a900463ffffffff1681565b61235d612fec565b600160a060020a031682600160a060020a031614156123915760405160e560020a62461bcd02815260040161085b90614572565b806005600061239e612fec565b600160a060020a03908116825260208083019390935260409182016000908120918716808252919093529120805460ff1916921515929092179091556123e2612fec565b600160a060020a03167f17307eab39ab6107e8899845ad3d59bd9653f200f220920489ca2b5937696c318360405161241a9190614300565b60405180910390a35050565b60606013805480602002602001604051908101604052809291908181526020016000905b828210156125b357838290600052602060002090600702016040518061018001604052908160008201805461247e90614d4b565b80601f01602080910402602001604051908101604052809291908181526020018280546124aa90614d4b565b80156124f75780601f106124cc576101008083540402835291602001916124f7565b820191906000526020600020905b8154815290600101906020018083116124da57829003601f168201915b505050918352505060018281015460208084019190915260028401546040840152600384015460ff808216606086015261010080830482166080870152600160a060020a0362010000909304831660a0870152600487015492831660c087015263ffffffff60a060020a8404811660e088015260c060020a840483169187019190915260c860020a909204166101208501526005850154610140850152600690940154909316610160909201919091529183529201910161244a565b50505050905090565b6125c582612fcf565b6125ce57600080fd5b600081116125f15760405160e560020a62461bcd02815260040161085b90614ade565b60006125fc83611035565b9050600160a060020a038116331461261357600080fd5b600083815260116020526040812083905560138054859081106126495760e060020a634e487b7102600052603260045260246000fd5b6000918252602090912060079091020160058101939093555050600601805463ffffffff19164263ffffffff1617905550565b61268d612687612fec565b8361305e565b6126ac5760405160e560020a62461bcd02815260040161085b90614a81565b610b0784848484613793565b6126c182611035565b600160a060020a031633600160a060020a0316146126f45760405160e560020a62461bcd02815260040161085b906149ed565b600d543410156127195760405160e560020a62461bcd02815260040161085b90614a24565b6000811161273c5760405160e560020a62461bcd02815260040161085b90614ade565b6000601383815481106127625760e060020a634e487b7102600052603260045260246000fd5b9060005260206000209060070201905061277b81613579565b6126135760405160e560020a62461bcd02815260040161085b906144de565b60606127a582612fcf565b6127c45760405160e560020a62461bcd02815260040161085b90614933565b60006127ce6137c9565b905060008151116127ee5760405180602001604052806000815250612819565b806127f8846137db565b6040516020016128099291906140bd565b6040516020818303038152906040525b9392505050565b600a5490565b61282f81611035565b600160a060020a031633600160a060020a0316146128625760405160e560020a62461bcd02815260040161085b906149ed565b600081815260116020526040812081905560138054839081106128985760e060020a634e487b7102600052603260045260246000fd5b600091825260208220600560079092020190810191909155600601805463ffffffff191690555050565b600081815260116020526040902054806128f15760405160e560020a62461bcd02815260040161085b90614413565b8034146129135760405160e560020a62461bcd02815260040161085b90614754565b600061291e83611035565b905061292b8133856130e6565b600083815260116020526040812081905560138054859081106129615760e060020a634e487b7102600052603260045260246000fd5b600091825260208220600560079092020190810182905560068101805463ffffffff19169055604051909250600160a060020a038416913480156108fc02929091818181858888f193505050501580156129bf573d6000803e3d6000fd5b50600854600d54604051600160a060020a039092169181156108fc0291906000818181858888f193505050501580156129fc573d6000803e3d6000fd5b5060038101805460048301805462010000808404600160a060020a0316600160a060020a03199092169190911790915575ffffffffffffffffffffffffffffffffffffffff00001990911633918202179091556040517f4dd2f31b4569bcf6afb5788e4dcfba199a9e2148b94d0dda6d5fed23041de4cd91612a82918591903490614173565b60405180910390a150505050565b612a9b8383836130e6565b60008181526011602052604081208190556013805483908110612ad15760e060020a634e487b7102600052603260045260246000fd5b60009182526020822060056007909202019081019190915560068101805463ffffffff1916905560038101805460049092018054600160a060020a031916600160a060020a0362010000808604821692909217909255951690940275ffffffffffffffffffffffffffffffffffffffff00001990911617909255505050565b600160a060020a03918216600090815260056020908152604080832093909416825291909152205460ff1690565b612b86612fec565b600160a060020a0316612b97611486565b600160a060020a031614612bc05760405160e560020a62461bcd02815260040161085b906148a1565b600160a060020a038116612be95760405160e560020a62461bcd02815260040161085b9061444a565b612bf281613527565b50565b60116020526000908152604090205481565b612c1081611035565b600160a060020a031633600160a060020a031614612c435760405160e560020a62461bcd02815260040161085b906149ed565b600060138281548110612c695760e060020a634e487b7102600052603260045260246000fd5b600091825260209091206007909102016003810154909150601460ff90911610612c9257600080fd5b600581015415612ca157600080fd5b612caa81613579565b612cb357600080fd5b600060648260020154612cc69190614dc4565b90506000612cd46064613259565b9050600a8260ff1611612d1d5760148111612d185760038301805460ff16906000612cfe83614da4565b91906101000a81548160ff021916908360ff160217905550505b612e44565b600a8260ff16118015612d345750601e8260ff1611155b15612d565760238111612d185760038301805460ff16906000612cfe83614da4565b601e8260ff16118015612d6d575060328260ff1611155b15612d8f5760288111612d185760038301805460ff16906000612cfe83614da4565b60328260ff16118015612da6575060468260ff1611155b15612dc857602d8111612d185760038301805460ff16906000612cfe83614da4565b60468260ff16118015612ddf5750605a8260ff1611155b15612e0157603c8111612d185760038301805460ff16906000612cfe83614da4565b605a8260ff161115612e445760468111612e445760038301805460ff16906000612e2a83614da4565b91906101000a81548160ff021916908360ff160217905550505b6004830154612e639060a060020a900463ffffffff1662015180614b55565b8360040160146101000a81548163ffffffff021916908363ffffffff16021790555050505050565b600854600160a060020a031681565b33612ea457600080fd5b600a54341015612eb357600080fd5b6000805b601354811015612efa5733612ecb82611035565b600160a060020a03161415612ee85781612ee481614d89565b9250505b80612ef281614d89565b915050612eb7565b5060048110612f0857600080fd5b6000612f1383613219565b90506000612f216014613259565b612f2c606484614dc4565b612f369084614d08565b612f409190614b3d565b612f4b90600a614b3d565b9050612f5a84826000806132ac565b600854600a54604051600160a060020a039092169181156108fc0291906000818181858888f19350505050158015612f96573d6000803e3d6000fd5b5050505050565b600160e060020a031981167f01ffc9a70000000000000000000000000000000000000000000000000000000014919050565b600090815260026020526040902054600160a060020a0316151590565b3390565b60008181526004602052604090208054600160a060020a031916600160a060020a038416908117909155819061302582611035565b600160a060020a03167f8c5be1e5ebec7d5bd14f71427d1e84f3dd0314c0f7b2291e5b200ac8c7c3b92560405160405180910390a45050565b600061306982612fcf565b6130885760405160e560020a62461bcd02815260040161085b906145a9565b600061309383611035565b905080600160a060020a031684600160a060020a031614806130ce575083600160a060020a03166130c384610831565b600160a060020a0316145b806130de57506130de8185612b50565b949350505050565b82600160a060020a03166130f982611035565b600160a060020a0316146131225760405160e560020a62461bcd02815260040161085b906148d6565b600160a060020a03821661314b5760405160e560020a62461bcd02815260040161085b90614515565b613156838383610919565b613161600082612ff0565b600160a060020a038316600090815260036020526040812080546001929061318a908490614d08565b9091555050600160a060020a03821660009081526003602052604081208054600192906131b8908490614b3d565b90915550506000818152600260205260408082208054600160a060020a031916600160a060020a0386811691821790925591518493918716917fddf252ad1be2c89b69c2b068fc378daa952ba7f163c4a11628f55a4df523b3ef91a4505050565b600080423384604051602001613231939291906140ec565b60408051601f1981840301815291905280516020909101206009549091506128199082614dc4565b600e80546000918261326a83614d89565b919050555060004233600e5460405160200161328893929190614131565b60408051601f19818403018152919052805160209091012090506128198382614dc4565b60006132b9606485614dc4565b905060006132c7600761394f565b6040805161018081018252888152602080820184905291810188905260006060820181905260ff86811660808401523360a084015260c0830182905263ffffffff421660e0840152888116610100840152871661012083015261014082018190526101608201819052601380546001810182559152815180519495509193849360079092027f66de8ffda797e3de9c05e8fc57b3bf0ec28a930d40b0d285d93c06501cf6a090019261337d928492910190613cd2565b5060208201516001820155604082015160028201556060820151600382018054608085015160a086015160ff1990921660ff9485161761ff00191661010091851682021775ffffffffffffffffffffffffffffffffffffffff0000191662010000600160a060020a03938416021790925560c085015160048501805460e088015194880151610120890151600160a060020a0319909216939094169290921777ffffffff0000000000000000000000000000000000000000191660a060020a63ffffffff958616021778ff000000000000000000000000000000000000000000000000191660c060020a938616939093029290921779ff00000000000000000000000000000000000000000000000000191660c860020a9190941602929092179091556101408301516005830155610160909201516006909101805463ffffffff1916919092161790556134d13383613953565b6134db600761396d565b33600160a060020a03167f589cd144bbd2fda6318230895eca43f6ea1a1b5b0464c4bc1221bdfc7fad884c8388604051613516929190614b1e565b60405180910390a250505050505050565b60068054600160a060020a03838116600160a060020a0319831681179093556040519116919082907f8be0079c531659141344cd1fd0a4f28419497f9722a3daafe3b4186f6b6457e090600090a35050565b600401544260a060020a90910463ffffffff16111590565b600381015460ff80821691604b610100909104909116106136315760005b60148160ff161161362f578160ff168160ff16141561361d578060ff16600f546135d99190614cc0565b6010546135ec9063ffffffff1642614b3d565b6135f69190614d08565b8360040160146101000a81548163ffffffff021916908363ffffffff16021790555061362f565b8061362781614da4565b9150506135af565b505b6003820154603261010090910460ff161080159061365c57506003820154604b61010090910460ff16105b156136ee5760005b60148160ff16116136ec578160ff168160ff1614156136da578060ff16600f5461368e9190614cc0565b6010546136a990640100000000900463ffffffff1642614b3d565b6136b39190614d08565b8360040160146101000a81548163ffffffff021916908363ffffffff1602179055506136ec565b806136e481614da4565b915050613664565b505b6003820154603261010090910460ff161015610b925760005b60148160ff1611610919578160ff168160ff161415613781578060ff16600f546137319190614cc0565b6010546137509068010000000000000000900463ffffffff1642614b3d565b61375a9190614d08565b8360040160146101000a81548163ffffffff021916908363ffffffff160217905550610919565b8061378b81614da4565b915050613707565b61379e8484846130e6565b6137aa84848484613976565b610b075760405160e560020a62461bcd02815260040161085b906143b6565b60408051602081019091526000815290565b60608161381c575060408051808201909152600181527f3000000000000000000000000000000000000000000000000000000000000000602082015261079a565b8160005b8115613846578061383081614d89565b915061383f9050600a83614b74565b9150613820565b60008167ffffffffffffffff8111156138725760e060020a634e487b7102600052604160045260246000fd5b6040519080825280601f01601f19166020018201604052801561389c576020820181803683370190505b5090505b84156130de576138b1600183614d08565b91506138be600a86614dc4565b6138c9906030614b3d565b7f01000000000000000000000000000000000000000000000000000000000000000281838151811061390e5760e060020a634e487b7102600052603260045260246000fd5b60200101907effffffffffffffffffffffffffffffffffffffffffffffffffffffffffffff1916908160001a905350613948600a86614b74565b94506138a0565b5490565b610b92828260405180602001604052806000815250613ac9565b80546001019055565b600061398a84600160a060020a0316613aff565b15613abe5783600160a060020a031663150b7a026139a6612fec565b8786866040518563ffffffff167c01000000000000000000000000000000000000000000000000000000000281526004016139e49493929190614197565b602060405180830381600087803b1580156139fe57600080fd5b505af1925050508015613a2e575060408051601f3d908101601f19168201909252613a2b91810190613f61565b60015b613a8b573d808015613a5c576040519150601f19603f3d011682016040523d82523d6000602084013e613a61565b606091505b508051613a835760405160e560020a62461bcd02815260040161085b906143b6565b805181602001fd5b600160e060020a0319167f150b7a02000000000000000000000000000000000000000000000000000000001490506130de565b506001949350505050565b613ad38383613b05565b613ae06000848484613976565b6109195760405160e560020a62461bcd02815260040161085b906143b6565b3b151590565b600160a060020a038216613b2e5760405160e560020a62461bcd02815260040161085b906147b2565b613b3781612fcf565b15613b575760405160e560020a62461bcd02815260040161085b906144a7565b613b6360008383610919565b600160a060020a0382166000908152600360205260408120805460019290613b8c908490614b3d565b90915550506000818152600260205260408082208054600160a060020a031916600160a060020a03861690811790915590518392907fddf252ad1be2c89b69c2b068fc378daa952ba7f163c4a11628f55a4df523b3ef908290a45050565b6040805161018081018252606080825260006020830181905292820183905281018290526080810182905260a0810182905260c0810182905260e0810182905261010081018290526101208101829052610140810182905261016081019190915290565b828054613c5a90614d4b565b90600052602060002090601f016020900481019282613c7c5760008555613cc2565b82601f10613c955782800160ff19823516178555613cc2565b82800160010185558215613cc2579182015b82811115613cc2578235825591602001919060010190613ca7565b50613cce929150613d46565b5090565b828054613cde90614d4b565b90600052602060002090601f016020900481019282613d005760008555613cc2565b82601f10613d1957805160ff1916838001178555613cc2565b82800160010185558215613cc2579182015b82811115613cc2578251825591602001919060010190613d2b565b5b80821115613cce5760008155600101613d47565b600067ffffffffffffffff80841115613d7657613d76614e2c565b604051601f8501601f191681016020018281118282101715613d9a57613d9a614e2c565b604052848152915081838501861015613db257600080fd5b8484602083013760006020868301015250509392505050565b8035600160a060020a038116811461079a57600080fd5b600060208284031215613df3578081fd5b61281982613dcb565b60008060408385031215613e0e578081fd5b613e1783613dcb565b9150613e2560208401613dcb565b90509250929050565b600080600060608486031215613e42578081fd5b613e4b84613dcb565b9250613e5960208501613dcb565b9150604084013590509250925092565b60008060008060808587031215613e7e578081fd5b613e8785613dcb565b9350613e9560208601613dcb565b925060408501359150606085013567ffffffffffffffff811115613eb7578182fd5b8501601f81018713613ec7578182fd5b613ed687823560208401613d5b565b91505092959194509250565b60008060408385031215613ef4578182fd5b613efd83613dcb565b915060208301358015158114613f11578182fd5b809150509250929050565b60008060408385031215613f2e578182fd5b613f3783613dcb565b946020939093013593505050565b600060208284031215613f56578081fd5b813561281981614e45565b600060208284031215613f72578081fd5b815161281981614e45565b600060208284031215613f8e578081fd5b813567ffffffffffffffff811115613fa4578182fd5b8201601f81018413613fb4578182fd5b6130de84823560208401613d5b565b600060208284031215613fd4578081fd5b5035919050565b600080600060408486031215613fef578283fd5b83359250602084013567ffffffffffffffff8082111561400d578384fd5b818601915086601f830112614020578384fd5b81358181111561402e578485fd5b87602082850101111561403f578485fd5b6020830194508093505050509250925092565b60008060408385031215614064578182fd5b50508035926020909101359150565b600160a060020a03169052565b60008151808452614098816020860160208601614d1f565b601f01601f19169290920160200192915050565b63ffffffff169052565b60ff169052565b600083516140cf818460208801614d1f565b8351908301906140e3818360208801614d1f565b01949350505050565b60008482526c01000000000000000000000000600160a060020a0385160260208301528251614122816034850160208701614d1f565b91909101603401949350505050565b928352600160a060020a03919091166c01000000000000000000000000026020830152603482015260540190565b600160a060020a0391909116815260200190565b600160a060020a039384168152919092166020820152604081019190915260600190565b6000600160a060020a038087168352808616602084015250836040830152608060608301526141c96080830184614080565b9695505050505050565b60208082528251828201819052600091906040908185019080840286018301878501865b838110156142f257603f198984030185528151610180815181865261421e82870182614080565b91505088820151898601528782015188860152606080830151614243828801826140b6565b5050608080830151614257828801826140b6565b505060a08083015161426b82880182614073565b505060c08083015161427f82880182614073565b505060e080830151614293828801826140ac565b5050610100808301516142a8828801826140b6565b5050610120808301516142bd828801826140b6565b5050610140828101519086015261016091820151916142de818701846140ac565b5095880195935050908601906001016141f7565b509098975050505050505050565b901515815260200190565b6000602082526128196020830184614080565b6000610180825261433361018083018f614080565b90508c60208301528b604083015260ff8b16606083015260ff8a166080830152600160a060020a03808a1660a084015280891660c08401525063ffffffff871660e083015260ff86166101008301526143906101208301866140b6565b836101408301526143a56101608301846140ac565b9d9c50505050505050505050505050565b60208082526032908201527f4552433732313a207472616e7366657220746f206e6f6e20455243373231526560408201527f63656976657220696d706c656d656e7465720000000000000000000000000000606082015260800190565b6020808252601a908201527f5468697320746f6b656e206973206e6f7420666f722073616c65000000000000604082015260600190565b60208082526026908201527f4f776e61626c653a206e6577206f776e657220697320746865207a65726f206160408201527f6464726573730000000000000000000000000000000000000000000000000000606082015260800190565b6020808252601c908201527f4552433732313a20746f6b656e20616c7265616479206d696e74656400000000604082015260600190565b6020808252600f908201527f4272656564206e6f742072656564790000000000000000000000000000000000604082015260600190565b60208082526024908201527f4552433732313a207472616e7366657220746f20746865207a65726f2061646460408201527f7265737300000000000000000000000000000000000000000000000000000000606082015260800190565b60208082526019908201527f4552433732313a20617070726f766520746f2063616c6c657200000000000000604082015260600190565b6020808252602c908201527f4552433732313a206f70657261746f7220717565727920666f72206e6f6e657860408201527f697374656e7420746f6b656e0000000000000000000000000000000000000000606082015260800190565b60208082526038908201527f4552433732313a20617070726f76652063616c6c6572206973206e6f74206f7760408201527f6e6572206e6f7220617070726f76656420666f7220616c6c0000000000000000606082015260800190565b6020808252602a908201527f4552433732313a2062616c616e636520717565727920666f7220746865207a6560408201527f726f206164647265737300000000000000000000000000000000000000000000606082015260800190565b60208082526029908201527f4552433732313a206f776e657220717565727920666f72206e6f6e657869737460408201527f656e7420746f6b656e0000000000000000000000000000000000000000000000606082015260800190565b60208082526011908201527f4272656564206e6f742072656164792021000000000000000000000000000000604082015260600190565b602080825260409082018190527f506c65617365207375626d6974207468652061736b696e672070726963652069908201527f6e206f7264657220746f20636f6d706c65746520746865207075726368617365606082015260800190565b6020808252818101527f4552433732313a206d696e7420746f20746865207a65726f2061646472657373604082015260600190565b6020808252602c908201527f4552433732313a20617070726f76656420717565727920666f72206e6f6e657860408201527f697374656e7420746f6b656e0000000000000000000000000000000000000000606082015260800190565b60208082526027908201527f5468652070726f64756374206265696e6720736f6c642063616e6e6f7420626560408201527f206d617465642100000000000000000000000000000000000000000000000000606082015260800190565b6020808252818101527f4f776e61626c653a2063616c6c6572206973206e6f7420746865206f776e6572604082015260600190565b60208082526029908201527f4552433732313a207472616e73666572206f6620746f6b656e2074686174206960408201527f73206e6f74206f776e0000000000000000000000000000000000000000000000606082015260800190565b6020808252602f908201527f4552433732314d657461646174613a2055524920717565727920666f72206e6f60408201527f6e6578697374656e7420746f6b656e0000000000000000000000000000000000606082015260800190565b60208082526021908201527f4552433732313a20617070726f76616c20746f2063757272656e74206f776e6560408201527f7200000000000000000000000000000000000000000000000000000000000000606082015260800190565b60208082526017908201527f4e6f74206f776e6572206f66207468697320746f6b656e000000000000000000604082015260600190565b60208082526024908201527f5072696365206d75737420626520657175616c20746f206c697374696e67207060408201527f7269636500000000000000000000000000000000000000000000000000000000606082015260800190565b60208082526031908201527f4552433732313a207472616e736665722063616c6c6572206973206e6f74206f60408201527f776e6572206e6f7220617070726f766564000000000000000000000000000000606082015260800190565b6020808252601c908201527f5072696365206d757374206265206174206c6561737420312077656900000000604082015260600190565b90815260200190565b918252602082015260400190565b63ffffffff91909116815260200190565b60008219821115614b5057614b50614dfa565b500190565b600063ffffffff8083168185168083038211156140e3576140e3614dfa565b600082614b8357614b83614e13565b500490565b600060ff831680614b9b57614b9b614e13565b8060ff84160491505092915050565b80825b6001808611614bbc5750614be9565b818704821115614bce57614bce614dfa565b80861615614bdb57918102915b506002909404938002614bad565b94509492505050565b60006128196000198484600082614c0b57506001612819565b81614c1857506000612819565b8160018114614c2e5760028114614c3857614c65565b6001915050612819565b60ff841115614c4957614c49614dfa565b8360020a915084821115614c5f57614c5f614dfa565b50612819565b5060208310610133831016604e8410600b8410161715614c98575081810a83811115614c9357614c93614dfa565b612819565b614ca58484846001614baa565b808604821115614cb757614cb7614dfa565b02949350505050565b6000816000190483118215151615614cda57614cda614dfa565b500290565b600060ff821660ff84168160ff0481118215151615614d0057614d00614dfa565b029392505050565b600082821015614d1a57614d1a614dfa565b500390565b60005b83811015614d3a578181015183820152602001614d22565b83811115610b075750506000910152565b600281046001821680614d5f57607f821691505b60208210811415614d835760e060020a634e487b7102600052602260045260246000fd5b50919050565b6000600019821415614d9d57614d9d614dfa565b5060010190565b600060ff821660ff811415614dbb57614dbb614dfa565b60010192915050565b600082614dd357614dd3614e13565b500690565b600060ff831680614deb57614deb614e13565b8060ff84160691505092915050565b60e060020a634e487b7102600052601160045260246000fd5b60e060020a634e487b7102600052601260045260246000fd5b60e060020a634e487b7102600052604160045260246000fd5b600160e060020a031981168114612bf257600080fdfea2646970667358221220e3e05ef5170c5207b2f7ec5c9c38dad3fe3150c1fa822907d6fc066bd8003c1564736f6c63430008000033",
  "immutableReferences": {},
  "source": "// SPDX-License-Identifier: MIT\r\n\r\npragma solidity ^0.8.0;\r\n\r\nimport \"@openzeppelin/contracts/token/ERC721/ERC721.sol\";\r\nimport \"@openzeppelin/contracts/access/Ownable.sol\";\r\nimport \"@openzeppelin/contracts/utils/Counters.sol\";\r\n\r\ncontract TruffleFactory is ERC721, Ownable {\r\n    using Counters for Counters.Counter;\r\n    using Strings for uint256;\r\n    Counters.Counter _tokenIds;\r\n\r\n    address public admin;\r\n    uint256 DNA_MOD = 10**16;\r\n    uint256 fee = 0.025 ether;\r\n    uint256 levelUpFee = 0.001 ether;\r\n    uint256 breedFee = 0.01 ether;\r\n    uint256 sellFee = 0.001 ether;\r\n    uint256 randNonce = 0;\r\n    uint256 lostTime = 30 minutes;\r\n    uint32[3] public cooldowns = [\r\n        uint32(12 hours),\r\n        uint32(18 hours),\r\n        uint32(1 days)\r\n    ];\r\n\r\n    mapping(uint256 => uint256) public tokenIdToPrice;\r\n    mapping(uint256 => string) _tokenURIs;\r\n\r\n    constructor() ERC721(\"Truffle\", \"TFT\") {\r\n        admin = msg.sender;\r\n    }\r\n\r\n    struct Truffle {\r\n        string name;\r\n        uint256 id;\r\n        uint256 dna;\r\n        uint8 level;\r\n        uint8 rarity;\r\n        address currentOwner;\r\n        address previousOwner;\r\n        uint32 readyTime;\r\n        uint8 dadId;\r\n        uint8 mumId;\r\n        uint256 sell;\r\n        uint32 sellTime;\r\n    }\r\n\r\n    Truffle[] public truffles;\r\n\r\n    event NewTruffle(address indexed owner, uint256 id, uint256 dna);\r\n    event BuyTruffle(address _seller, address _buyer, uint256 _price);\r\n\r\n    function getFee() public view returns (uint256) {\r\n        return fee;\r\n    }\r\n\r\n    function FreeLeveUp() public view returns (uint256) {\r\n        return levelUpFee;\r\n    }\r\n\r\n    function getFeeBreed() public view returns (uint256) {\r\n        return breedFee;\r\n    }\r\n\r\n    function _setTokenURI(uint256 tokenId, string memory _tokenURI) internal {\r\n        _tokenURIs[tokenId] = _tokenURI;\r\n    }\r\n\r\n    function _createRandomDna(string memory _mod)\r\n        internal\r\n        view\r\n        returns (uint256)\r\n    {\r\n        uint256 randomNum = uint256(\r\n            keccak256(abi.encodePacked(block.timestamp, msg.sender, _mod))\r\n        );\r\n        return randomNum % DNA_MOD;\r\n    }\r\n\r\n    function _createTruffle(\r\n        string memory _name,\r\n        uint256 _dna,\r\n        uint8 dadId,\r\n        uint8 mumId\r\n    ) internal {\r\n        uint8 randRarity = uint8(_dna % 100);\r\n\r\n        uint256 newId = _tokenIds.current();\r\n\r\n        Truffle memory newTruffle = Truffle(\r\n            _name,\r\n            newId,\r\n            _dna,\r\n            0,\r\n            randRarity,\r\n            msg.sender,\r\n            address(0),\r\n            uint32(block.timestamp),\r\n            dadId,\r\n            mumId,\r\n            0,\r\n            0\r\n        );\r\n        truffles.push(newTruffle);\r\n        _safeMint(msg.sender, newId);\r\n        _tokenIds.increment();\r\n\r\n        emit NewTruffle(msg.sender, newId, _dna);\r\n    }\r\n\r\n    function createRandomTruffleFree(string memory _name) public payable {\r\n        require(msg.sender != address(0));\r\n        uint256 counter = 0;\r\n        for (uint256 i = 0; i < truffles.length; i++) {\r\n            if (ownerOf(i) == msg.sender) {\r\n                counter++;\r\n            }\r\n        }\r\n        require(counter < 2);\r\n        uint256 randDna = _createRandomDna(_name);\r\n        uint256 newDna = randDna - (randDna % 100) + randMod(4) + 1;\r\n        _createTruffle(_name, newDna, 0, 0);\r\n    }\r\n\r\n    function createRandomTruffle(string memory _name) public payable{\r\n        require(msg.sender != address(0));\r\n        require(msg.value >= fee);\r\n        uint256 counter = 0;\r\n        for (uint256 i = 0; i < truffles.length; i++) {\r\n            if (ownerOf(i) == msg.sender) {\r\n                counter++;\r\n            }\r\n        }\r\n        require(counter < 4);\r\n        uint256 randDna = _createRandomDna(_name);\r\n        uint256 newDna = randDna - randDna % 100 + randMod(20) + 10;\r\n        _createTruffle(_name, newDna, 0, 0);\r\n        payable(admin).transfer(fee);\r\n    }\r\n\r\n    function getTruffle() public view returns (Truffle[] memory) {\r\n        return truffles;\r\n    }\r\n\r\n    function getOwnerTruffles(address _owner)\r\n        public\r\n        view\r\n        returns (Truffle[] memory)\r\n    {\r\n        Truffle[] memory result = new Truffle[](balanceOf(_owner));\r\n        uint256 counter = 0;\r\n        for (uint256 i = 0; i < truffles.length; i++) {\r\n            if (ownerOf(i) == _owner) {\r\n                result[counter] = truffles[i];\r\n                counter++;\r\n            }\r\n        }\r\n        return result;\r\n    }\r\n\r\n    function randMod(uint256 _modulus) internal returns (uint256) {\r\n        randNonce++;\r\n        uint256 randomNum2 = uint256(\r\n            keccak256(abi.encodePacked(block.timestamp, msg.sender, randNonce))\r\n        );\r\n        return randomNum2 % _modulus;\r\n    }\r\n\r\n    function updateFee(uint256 _fee) external onlyOwner {\r\n        fee = _fee;\r\n    }\r\n\r\n    function updateFeeLevelUp(uint256 _feeLevelUp) external onlyOwner {\r\n        levelUpFee = _feeLevelUp;\r\n    }\r\n\r\n    function withdraw() external payable onlyOwner {\r\n        address payable _owner = payable(owner());\r\n        _owner.transfer(address(this).balance);\r\n    }\r\n\r\n    modifier aboveLevel(uint256 _level, uint256 _TruffleId) {\r\n        require(truffles[_TruffleId].level >= _level);\r\n        _;\r\n    }\r\n\r\n    function levelUp(uint256 _TruffleId) external payable {\r\n        require(msg.value == levelUpFee);\r\n        require(ownerOf(_TruffleId) == msg.sender);\r\n        Truffle storage truffle = truffles[_TruffleId];\r\n        require(truffle.level < 20);\r\n        require(truffle.sell == 0);\r\n        truffle.level++;\r\n        payable(admin).transfer(levelUpFee); \r\n    }\r\n\r\n    function updateName(uint256 _TruffleId, string calldata _newName)\r\n        external\r\n        aboveLevel(2, _TruffleId)\r\n    {\r\n        require(ownerOf(_TruffleId) == msg.sender);\r\n        Truffle storage truffle = truffles[_TruffleId];\r\n        require(truffle.sell == 0);\r\n        truffles[_TruffleId].name = _newName;\r\n    }\r\n\r\n    function _triggerCooldown(Truffle storage _truffle) internal {\r\n        //hm kich hoat cooldown\r\n        uint8 levels = _truffle.level;\r\n        if (_truffle.rarity >= 75) {\r\n            for (uint8 i = 0; i <= 20; i++) {\r\n                if (i == levels) {\r\n                    _truffle.readyTime = uint32(\r\n                        block.timestamp + cooldowns[0] - (lostTime * i)\r\n                    );\r\n                    break;\r\n                }\r\n            }\r\n        }\r\n        if (_truffle.rarity >= 50 && _truffle.rarity < 75) {\r\n            for (uint8 i = 0; i <= 20; i++) {\r\n                if (i == levels) {\r\n                    _truffle.readyTime = uint32(\r\n                        block.timestamp + cooldowns[1] - (lostTime * i)\r\n                    );\r\n                    break;\r\n                }\r\n            }\r\n        }\r\n        if (_truffle.rarity < 50) {\r\n            for (uint8 i = 0; i <= 20; i++) {\r\n                if (i == levels) {\r\n                    _truffle.readyTime = uint32(\r\n                        block.timestamp + cooldowns[2] - (lostTime * i)\r\n                    );\r\n                    break;\r\n                }\r\n            }\r\n        }\r\n    }\r\n\r\n    function _isReady(Truffle storage _truffle) internal view returns (bool) {\r\n        return (_truffle.readyTime <= block.timestamp);\r\n    }\r\n\r\n    function BreedAndMultiply(uint256 _truffleId, uint256 _targetDna)\r\n        public\r\n        payable\r\n    {\r\n        require(msg.value == breedFee);\r\n        Truffle storage myTruffle = truffles[_truffleId];\r\n        Truffle storage myTargetDna = truffles[_targetDna];\r\n        require(_truffleId != _targetDna);\r\n        require(ownerOf(_truffleId) == msg.sender);\r\n        require(ownerOf(_targetDna) == msg.sender);\r\n        require(_isReady(myTruffle),\"Breed not ready !\");\r\n        require(_isReady(myTargetDna),\"Breed not ready !\");\r\n        require(myTruffle.sell == 0,\"The product being sold cannot be mated!\");\r\n        require(myTargetDna.sell == 0, \"The product being sold cannot be mated!\");\r\n        \r\n        uint8 dadId = uint8(myTruffle.id);\r\n        uint8 mumId = uint8(myTargetDna.id);\r\n\r\n        uint8 valueRarity = uint8(myTruffle.dna % 100);\r\n        uint8 valueRarity2 = uint8(myTargetDna.dna % 100);\r\n        uint8 valueRarity3 = uint8(\r\n            valueRarity +\r\n                randMod(valueRarity) +\r\n                valueRarity2 -\r\n                randMod(valueRarity2)\r\n        ) / 2;\r\n        uint8 valueRarity4 = uint8((valueRarity3 * 15) / 100);\r\n\r\n        uint256 number = valueRarity % 10;\r\n        uint256 number2 = valueRarity2 % 10;\r\n        uint256 newDna;\r\n        uint256 rand = randMod(100);\r\n        require(valueRarity < 99 && valueRarity2 < 99);\r\n        if(valueRarity <= 60 && valueRarity2 <= 60){\r\n            if(valueRarity <= 30 && valueRarity2 <= 30){\r\n                if(rand >= 50){\r\n                    if(valueRarity>= valueRarity2){\r\n                        uint algorithm = (myTruffle.dna + myTargetDna.dna)*(4**number)/(5**number);\r\n                        newDna = algorithm - algorithm % 100 + valueRarity + randMod(10);\r\n                    }else{\r\n                        uint algorithm = (myTruffle.dna + myTargetDna.dna)*(4**number2)/(5**number2);\r\n                        newDna = algorithm - algorithm % 100 + valueRarity2 + randMod(10);\r\n                    }\r\n                }else{\r\n                    uint algorithm = (myTruffle.dna + myTargetDna.dna)*(4**number)/(5**number);\r\n                    newDna = algorithm - algorithm % 100 + valueRarity3;\r\n                }\r\n            }if(valueRarity > 30 && valueRarity2 > 30){\r\n                if(rand >= 55){\r\n                    if(valueRarity>= valueRarity2){\r\n                        uint algorithm = (myTruffle.dna + myTargetDna.dna)*(4**number)/(5**number);\r\n                        newDna = algorithm - algorithm % 100 + valueRarity + randMod(10);\r\n                    }else{\r\n                        uint algorithm = (myTruffle.dna + myTargetDna.dna)*(4**number2)/(5**number2);\r\n                        newDna = algorithm - algorithm % 100 + valueRarity2 + randMod(10);\r\n                    }\r\n                }else{\r\n                    uint algorithm = (myTruffle.dna + myTargetDna.dna)*(4**number)/(5**number);\r\n                    newDna = algorithm - algorithm % 100 + valueRarity3 + valueRarity4;\r\n                }\r\n            }else{\r\n                if(rand >= 60){\r\n                    if(valueRarity>= valueRarity2){\r\n                        uint algorithm = (myTruffle.dna + myTargetDna.dna)*(4**number)/(5**number);\r\n                        newDna = algorithm - algorithm % 100 + valueRarity + randMod(10);\r\n                    }else{\r\n                        uint algorithm = (myTruffle.dna + myTargetDna.dna)*(4**number2)/(5**number2);\r\n                        newDna = algorithm - algorithm % 100 + valueRarity2 + randMod(10);\r\n                    }\r\n                }else{\r\n                    uint algorithm = (myTruffle.dna + myTargetDna.dna)*(4**number)/(5**number);\r\n                    newDna = algorithm - algorithm % 100 + valueRarity3 + valueRarity4;\r\n                }\r\n            }\r\n        }if(valueRarity > 60 && valueRarity2 > 60){\r\n            if(rand >= 70){\r\n                if(valueRarity>= valueRarity2){\r\n                    uint algorithm = (myTruffle.dna + myTargetDna.dna)*(4**number)/(5**number);\r\n                    newDna = algorithm - algorithm % 100 + valueRarity + randMod(8);\r\n                }else{\r\n                    uint algorithm = (myTruffle.dna + myTargetDna.dna)*(4**number2)/(5**number2);\r\n                    newDna = algorithm - algorithm % 100 + valueRarity2 + randMod(8);\r\n                }\r\n            }else{\r\n                uint algorithm = (myTruffle.dna + myTargetDna.dna)*(4**number)/(5**number);\r\n                newDna = algorithm - algorithm % 100 + valueRarity3;\r\n            }\r\n        }if(valueRarity > 60 && valueRarity2 <= 60){\r\n            if(rand >= 80){\r\n                uint algorithm = (myTruffle.dna + myTargetDna.dna)*(4**number)/(5**number);\r\n                newDna = algorithm - algorithm % 100 + valueRarity + randMod(7);\r\n            }else{\r\n                uint algorithm = (myTruffle.dna + myTargetDna.dna)*(4**number)/(5**number);\r\n                newDna = algorithm - algorithm % 100 + valueRarity3;\r\n            }\r\n        }if(valueRarity <= 60 && valueRarity2 > 60){\r\n            if(rand >= 80){\r\n                uint algorithm = (myTruffle.dna + myTargetDna.dna)*(4**number2)/(5**number2);\r\n                newDna = algorithm - algorithm % 100 + valueRarity2 + randMod(7);\r\n            }else{\r\n                uint algorithm = (myTruffle.dna + myTargetDna.dna)*(4**number2)/(5**number2);\r\n                newDna = algorithm - algorithm % 100 + valueRarity3;\r\n            }\r\n        }\r\n\r\n        _createTruffle(\"New Truffle\", newDna, dadId, mumId);\r\n        _triggerCooldown(myTruffle);\r\n        _triggerCooldown(myTargetDna);\r\n        payable(admin).transfer(breedFee); \r\n    }\r\n    function GiftToken(address _from, address _to, uint256 _tokenId) external {\r\n        _transfer(_from, _to, _tokenId);\r\n        tokenIdToPrice[_tokenId] = 0; // not for sale anymore\r\n        Truffle storage myTruffle = truffles[_tokenId];\r\n        myTruffle.sell = 0;\r\n        myTruffle.sellTime = 0;\r\n        // update the token's previous owner\r\n        myTruffle.previousOwner = myTruffle.currentOwner;\r\n        // update the token's current owner\r\n        myTruffle.currentOwner = _to;\r\n    }\r\n\r\n    function allowBuy(uint256 _tokenId, uint256 _price) external payable {\r\n        require(msg.sender == ownerOf(_tokenId), \"Not owner of this token\");\r\n        require(msg.value >= sellFee,\"Price must be equal to listing price\");\r\n        require(_price > 0, \"Price must be at least 1 wei\");\r\n        Truffle storage myTokenID = truffles[_tokenId];\r\n        require(_isReady(myTokenID), \"Breed not reedy\");\r\n        tokenIdToPrice[_tokenId] = _price;\r\n        Truffle storage myTruffle = truffles[_tokenId];\r\n        myTruffle.sell = _price;\r\n        myTruffle.sellTime = uint32(block.timestamp);\r\n    }\r\n\r\n    function disallowBuy(uint256 _tokenId) external {\r\n        require(msg.sender == ownerOf(_tokenId), \"Not owner of this token\");\r\n        tokenIdToPrice[_tokenId] = 0;\r\n        Truffle storage myTruffle = truffles[_tokenId];\r\n        myTruffle.sell = 0;\r\n        myTruffle.sellTime = 0;\r\n    }\r\n\r\n    function buy(uint256 _tokenId) external payable {\r\n        uint256 price = tokenIdToPrice[_tokenId];\r\n        require(price > 0, \"This token is not for sale\");\r\n        require(\r\n            msg.value == price,\r\n            \"Please submit the asking price in order to complete the purchase\"\r\n        );\r\n\r\n        address seller = ownerOf(_tokenId);\r\n\r\n        _transfer(seller, msg.sender, _tokenId);\r\n        tokenIdToPrice[_tokenId] = 0; // not for sale anymore\r\n        Truffle storage myTruffle = truffles[_tokenId];\r\n        myTruffle.sell = 0;\r\n        myTruffle.sellTime = 0;\r\n        payable(seller).transfer(msg.value); // send the ETH to the seller\r\n        payable(admin).transfer(sellFee); \r\n        // update the token's previous owner\r\n        myTruffle.previousOwner = myTruffle.currentOwner;\r\n        // update the token's current owner\r\n        myTruffle.currentOwner = msg.sender;\r\n\r\n        emit BuyTruffle(seller, msg.sender, msg.value);\r\n    }\r\n\r\n    function changePrice(uint256 _tokenId, uint256 _newPrice) external {\r\n        require(_exists(_tokenId));\r\n        require(_newPrice > 0, \"Price must be at least 1 wei\");\r\n        address seller = ownerOf(_tokenId);\r\n        require(seller == msg.sender);\r\n        tokenIdToPrice[_tokenId] = _newPrice;\r\n        Truffle storage myTruffle = truffles[_tokenId];\r\n        myTruffle.sell = _newPrice;\r\n        myTruffle.sellTime = uint32(block.timestamp);\r\n    }\r\n\r\n    function getAllTruffleSell() public view returns (Truffle[] memory) {\r\n        uint256 counter = 0;\r\n        uint256 itemCount = 0;\r\n        for (uint256 i = 0; i < truffles.length; i++) {\r\n            if (truffles[i].sell > 0) {\r\n                itemCount += 1;\r\n            }\r\n        }\r\n        Truffle[] memory truffleSell = new Truffle[](itemCount);\r\n        for (uint256 i = 0; i < truffles.length; i++) {\r\n            if (truffles[i].sell > 0) {\r\n                truffleSell[counter] = truffles[i];\r\n                counter++;\r\n            }\r\n        }\r\n        return truffleSell;\r\n    }\r\n\r\n    function getOwnerTrufflesSell(address _owner) public view returns (Truffle[] memory) {\r\n        uint256 counter = 0;\r\n        uint itemCount = 0;\r\n        for (uint i = 0; i < truffles.length; i++) {\r\n          if (ownerOf(i) == _owner && truffles[i].sell > 0) {\r\n                itemCount += 1;\r\n            }\r\n        }\r\n        Truffle[] memory result = new Truffle[](itemCount);\r\n        for (uint256 i = 0; i < truffles.length; i++) {\r\n            if (ownerOf(i) == _owner && truffles[i].sell > 0) {\r\n                result[counter] = truffles[i];\r\n                counter++;\r\n            }\r\n        }\r\n        return result;\r\n    }\r\n\r\n    function dailyMission(uint256 _tokenId ) external {\r\n        require(msg.sender == ownerOf(_tokenId), \"Not owner of this token\");\r\n        Truffle storage myTruffle = truffles[_tokenId];\r\n        require(myTruffle.level < 20);\r\n        require(myTruffle.sell == 0);\r\n        require(_isReady(myTruffle));\r\n        uint8 valueRarity = uint8(myTruffle.dna % 100);\r\n        uint rand = randMod(100);\r\n        if(valueRarity <= 10){\r\n            if(rand <= 20)\r\n                myTruffle.level++;\r\n        }else if(valueRarity > 10 && valueRarity <= 30){\r\n            if(rand <= 35)\r\n                myTruffle.level++;\r\n        }else if(valueRarity > 30 && valueRarity <= 50){\r\n            if(rand <= 40)\r\n                myTruffle.level++;\r\n        }else if(valueRarity > 50 && valueRarity <= 70){\r\n            if(rand <= 45)\r\n                myTruffle.level++;\r\n        }\r\n        else if(valueRarity > 70 && valueRarity <= 90){\r\n            if(rand <= 60)\r\n                myTruffle.level++;\r\n        }\r\n        else if(valueRarity > 90){\r\n            if(rand <= 70)\r\n                myTruffle.level++;\r\n        }\r\n\r\n        myTruffle.readyTime = uint32(myTruffle.readyTime + 1 days);\r\n    }\r\n}",
  "sourcePath": "D:\\DAPP\\project-game\\project-game-truffle\\contracts\\TruffleFactory.sol",
  "compiler": {
    "name": "solc",
    "version": "0.8.0+commit.c7dfd78e.Emscripten.clang"
  },
  "schemaVersion": "3.4.3",
  "updatedAt": "2021-12-10T02:47:37.967Z",
  "networkType": "ethereum",
  "devdoc": {
    "kind": "dev",
    "methods": {
      "approve(address,uint256)": {
        "details": "See {IERC721-approve}."
      },
      "balanceOf(address)": {
        "details": "See {IERC721-balanceOf}."
      },
      "getApproved(uint256)": {
        "details": "See {IERC721-getApproved}."
      },
      "isApprovedForAll(address,address)": {
        "details": "See {IERC721-isApprovedForAll}."
      },
      "name()": {
        "details": "See {IERC721Metadata-name}."
      },
      "owner()": {
        "details": "Returns the address of the current owner."
      },
      "ownerOf(uint256)": {
        "details": "See {IERC721-ownerOf}."
      },
      "renounceOwnership()": {
        "details": "Leaves the contract without owner. It will not be possible to call `onlyOwner` functions anymore. Can only be called by the current owner. NOTE: Renouncing ownership will leave the contract without an owner, thereby removing any functionality that is only available to the owner."
      },
      "safeTransferFrom(address,address,uint256)": {
        "details": "See {IERC721-safeTransferFrom}."
      },
      "safeTransferFrom(address,address,uint256,bytes)": {
        "details": "See {IERC721-safeTransferFrom}."
      },
      "setApprovalForAll(address,bool)": {
        "details": "See {IERC721-setApprovalForAll}."
      },
      "supportsInterface(bytes4)": {
        "details": "See {IERC165-supportsInterface}."
      },
      "symbol()": {
        "details": "See {IERC721Metadata-symbol}."
      },
      "tokenURI(uint256)": {
        "details": "See {IERC721Metadata-tokenURI}."
      },
      "transferFrom(address,address,uint256)": {
        "details": "See {IERC721-transferFrom}."
      },
      "transferOwnership(address)": {
        "details": "Transfers ownership of the contract to a new account (`newOwner`). Can only be called by the current owner."
      }
    },
    "version": 1
  },
  "userdoc": {
    "kind": "user",
    "methods": {},
    "version": 1
  }
}