{
  "contractName": "TruffleFactory",
  "abi": [
    {
      "inputs": [],
      "stateMutability": "nonpayable",
      "type": "constructor"
    },
    {
      "anonymous": false,
      "inputs": [
        {
          "indexed": true,
          "internalType": "address",
          "name": "owner",
          "type": "address"
        },
        {
          "indexed": true,
          "internalType": "address",
          "name": "approved",
          "type": "address"
        },
        {
          "indexed": true,
          "internalType": "uint256",
          "name": "tokenId",
          "type": "uint256"
        }
      ],
      "name": "Approval",
      "type": "event"
    },
    {
      "anonymous": false,
      "inputs": [
        {
          "indexed": true,
          "internalType": "address",
          "name": "owner",
          "type": "address"
        },
        {
          "indexed": true,
          "internalType": "address",
          "name": "operator",
          "type": "address"
        },
        {
          "indexed": false,
          "internalType": "bool",
          "name": "approved",
          "type": "bool"
        }
      ],
      "name": "ApprovalForAll",
      "type": "event"
    },
    {
      "anonymous": false,
      "inputs": [
        {
          "indexed": false,
          "internalType": "address",
          "name": "_seller",
          "type": "address"
        },
        {
          "indexed": false,
          "internalType": "address",
          "name": "_buyer",
          "type": "address"
        },
        {
          "indexed": false,
          "internalType": "uint256",
          "name": "_price",
          "type": "uint256"
        }
      ],
      "name": "BuyTruffle",
      "type": "event"
    },
    {
      "anonymous": false,
      "inputs": [
        {
          "indexed": true,
          "internalType": "address",
          "name": "owner",
          "type": "address"
        },
        {
          "indexed": false,
          "internalType": "uint256",
          "name": "id",
          "type": "uint256"
        },
        {
          "indexed": false,
          "internalType": "uint256",
          "name": "dna",
          "type": "uint256"
        }
      ],
      "name": "NewTruffle",
      "type": "event"
    },
    {
      "anonymous": false,
      "inputs": [
        {
          "indexed": true,
          "internalType": "address",
          "name": "previousOwner",
          "type": "address"
        },
        {
          "indexed": true,
          "internalType": "address",
          "name": "newOwner",
          "type": "address"
        }
      ],
      "name": "OwnershipTransferred",
      "type": "event"
    },
    {
      "anonymous": false,
      "inputs": [
        {
          "indexed": true,
          "internalType": "address",
          "name": "from",
          "type": "address"
        },
        {
          "indexed": true,
          "internalType": "address",
          "name": "to",
          "type": "address"
        },
        {
          "indexed": true,
          "internalType": "uint256",
          "name": "tokenId",
          "type": "uint256"
        }
      ],
      "name": "Transfer",
      "type": "event"
    },
    {
      "inputs": [],
      "name": "admin",
      "outputs": [
        {
          "internalType": "address",
          "name": "",
          "type": "address"
        }
      ],
      "stateMutability": "view",
      "type": "function",
      "constant": true
    },
    {
      "inputs": [
        {
          "internalType": "address",
          "name": "to",
          "type": "address"
        },
        {
          "internalType": "uint256",
          "name": "tokenId",
          "type": "uint256"
        }
      ],
      "name": "approve",
      "outputs": [],
      "stateMutability": "nonpayable",
      "type": "function"
    },
    {
      "inputs": [
        {
          "internalType": "address",
          "name": "owner",
          "type": "address"
        }
      ],
      "name": "balanceOf",
      "outputs": [
        {
          "internalType": "uint256",
          "name": "",
          "type": "uint256"
        }
      ],
      "stateMutability": "view",
      "type": "function",
      "constant": true
    },
    {
      "inputs": [
        {
          "internalType": "uint256",
          "name": "",
          "type": "uint256"
        }
      ],
      "name": "cooldowns",
      "outputs": [
        {
          "internalType": "uint32",
          "name": "",
          "type": "uint32"
        }
      ],
      "stateMutability": "view",
      "type": "function",
      "constant": true
    },
    {
      "inputs": [
        {
          "internalType": "uint256",
          "name": "tokenId",
          "type": "uint256"
        }
      ],
      "name": "getApproved",
      "outputs": [
        {
          "internalType": "address",
          "name": "",
          "type": "address"
        }
      ],
      "stateMutability": "view",
      "type": "function",
      "constant": true
    },
    {
      "inputs": [
        {
          "internalType": "address",
          "name": "owner",
          "type": "address"
        },
        {
          "internalType": "address",
          "name": "operator",
          "type": "address"
        }
      ],
      "name": "isApprovedForAll",
      "outputs": [
        {
          "internalType": "bool",
          "name": "",
          "type": "bool"
        }
      ],
      "stateMutability": "view",
      "type": "function",
      "constant": true
    },
    {
      "inputs": [],
      "name": "name",
      "outputs": [
        {
          "internalType": "string",
          "name": "",
          "type": "string"
        }
      ],
      "stateMutability": "view",
      "type": "function",
      "constant": true
    },
    {
      "inputs": [],
      "name": "owner",
      "outputs": [
        {
          "internalType": "address",
          "name": "",
          "type": "address"
        }
      ],
      "stateMutability": "view",
      "type": "function",
      "constant": true
    },
    {
      "inputs": [
        {
          "internalType": "uint256",
          "name": "tokenId",
          "type": "uint256"
        }
      ],
      "name": "ownerOf",
      "outputs": [
        {
          "internalType": "address",
          "name": "",
          "type": "address"
        }
      ],
      "stateMutability": "view",
      "type": "function",
      "constant": true
    },
    {
      "inputs": [],
      "name": "renounceOwnership",
      "outputs": [],
      "stateMutability": "nonpayable",
      "type": "function"
    },
    {
      "inputs": [
        {
          "internalType": "address",
          "name": "from",
          "type": "address"
        },
        {
          "internalType": "address",
          "name": "to",
          "type": "address"
        },
        {
          "internalType": "uint256",
          "name": "tokenId",
          "type": "uint256"
        }
      ],
      "name": "safeTransferFrom",
      "outputs": [],
      "stateMutability": "nonpayable",
      "type": "function"
    },
    {
      "inputs": [
        {
          "internalType": "address",
          "name": "from",
          "type": "address"
        },
        {
          "internalType": "address",
          "name": "to",
          "type": "address"
        },
        {
          "internalType": "uint256",
          "name": "tokenId",
          "type": "uint256"
        },
        {
          "internalType": "bytes",
          "name": "_data",
          "type": "bytes"
        }
      ],
      "name": "safeTransferFrom",
      "outputs": [],
      "stateMutability": "nonpayable",
      "type": "function"
    },
    {
      "inputs": [
        {
          "internalType": "address",
          "name": "operator",
          "type": "address"
        },
        {
          "internalType": "bool",
          "name": "approved",
          "type": "bool"
        }
      ],
      "name": "setApprovalForAll",
      "outputs": [],
      "stateMutability": "nonpayable",
      "type": "function"
    },
    {
      "inputs": [
        {
          "internalType": "bytes4",
          "name": "interfaceId",
          "type": "bytes4"
        }
      ],
      "name": "supportsInterface",
      "outputs": [
        {
          "internalType": "bool",
          "name": "",
          "type": "bool"
        }
      ],
      "stateMutability": "view",
      "type": "function",
      "constant": true
    },
    {
      "inputs": [],
      "name": "symbol",
      "outputs": [
        {
          "internalType": "string",
          "name": "",
          "type": "string"
        }
      ],
      "stateMutability": "view",
      "type": "function",
      "constant": true
    },
    {
      "inputs": [
        {
          "internalType": "uint256",
          "name": "",
          "type": "uint256"
        }
      ],
      "name": "tokenIdToPrice",
      "outputs": [
        {
          "internalType": "uint256",
          "name": "",
          "type": "uint256"
        }
      ],
      "stateMutability": "view",
      "type": "function",
      "constant": true
    },
    {
      "inputs": [
        {
          "internalType": "uint256",
          "name": "tokenId",
          "type": "uint256"
        }
      ],
      "name": "tokenURI",
      "outputs": [
        {
          "internalType": "string",
          "name": "",
          "type": "string"
        }
      ],
      "stateMutability": "view",
      "type": "function",
      "constant": true
    },
    {
      "inputs": [
        {
          "internalType": "address",
          "name": "from",
          "type": "address"
        },
        {
          "internalType": "address",
          "name": "to",
          "type": "address"
        },
        {
          "internalType": "uint256",
          "name": "tokenId",
          "type": "uint256"
        }
      ],
      "name": "transferFrom",
      "outputs": [],
      "stateMutability": "nonpayable",
      "type": "function"
    },
    {
      "inputs": [
        {
          "internalType": "address",
          "name": "newOwner",
          "type": "address"
        }
      ],
      "name": "transferOwnership",
      "outputs": [],
      "stateMutability": "nonpayable",
      "type": "function"
    },
    {
      "inputs": [
        {
          "internalType": "uint256",
          "name": "",
          "type": "uint256"
        }
      ],
      "name": "truffles",
      "outputs": [
        {
          "internalType": "string",
          "name": "name",
          "type": "string"
        },
        {
          "internalType": "uint256",
          "name": "id",
          "type": "uint256"
        },
        {
          "internalType": "uint256",
          "name": "dna",
          "type": "uint256"
        },
        {
          "internalType": "uint8",
          "name": "level",
          "type": "uint8"
        },
        {
          "internalType": "uint8",
          "name": "rarity",
          "type": "uint8"
        },
        {
          "internalType": "address",
          "name": "currentOwner",
          "type": "address"
        },
        {
          "internalType": "uint32",
          "name": "readyTime",
          "type": "uint32"
        },
        {
          "internalType": "uint8",
          "name": "dadId",
          "type": "uint8"
        },
        {
          "internalType": "uint8",
          "name": "mumId",
          "type": "uint8"
        },
        {
          "internalType": "uint256",
          "name": "sell",
          "type": "uint256"
        },
        {
          "internalType": "uint32",
          "name": "sellTime",
          "type": "uint32"
        },
        {
          "internalType": "uint256",
          "name": "gen0",
          "type": "uint256"
        }
      ],
      "stateMutability": "view",
      "type": "function",
      "constant": true
    },
    {
      "inputs": [],
      "name": "getFee",
      "outputs": [
        {
          "internalType": "uint256",
          "name": "",
          "type": "uint256"
        }
      ],
      "stateMutability": "view",
      "type": "function",
      "constant": true
    },
    {
      "inputs": [],
      "name": "getleveUpFee",
      "outputs": [
        {
          "internalType": "uint256",
          "name": "",
          "type": "uint256"
        }
      ],
      "stateMutability": "view",
      "type": "function",
      "constant": true
    },
    {
      "inputs": [],
      "name": "getFeeBreed",
      "outputs": [
        {
          "internalType": "uint256",
          "name": "",
          "type": "uint256"
        }
      ],
      "stateMutability": "view",
      "type": "function",
      "constant": true
    },
    {
      "inputs": [],
      "name": "getFeeSell",
      "outputs": [
        {
          "internalType": "uint256",
          "name": "",
          "type": "uint256"
        }
      ],
      "stateMutability": "view",
      "type": "function",
      "constant": true
    },
    {
      "inputs": [
        {
          "internalType": "string",
          "name": "_name",
          "type": "string"
        }
      ],
      "name": "createRandomTruffleFree",
      "outputs": [],
      "stateMutability": "nonpayable",
      "type": "function"
    },
    {
      "inputs": [
        {
          "internalType": "string",
          "name": "_name",
          "type": "string"
        }
      ],
      "name": "createRandomTruffle",
      "outputs": [],
      "stateMutability": "payable",
      "type": "function",
      "payable": true
    },
    {
      "inputs": [],
      "name": "getTruffle",
      "outputs": [
        {
          "components": [
            {
              "internalType": "string",
              "name": "name",
              "type": "string"
            },
            {
              "internalType": "uint256",
              "name": "id",
              "type": "uint256"
            },
            {
              "internalType": "uint256",
              "name": "dna",
              "type": "uint256"
            },
            {
              "internalType": "uint8",
              "name": "level",
              "type": "uint8"
            },
            {
              "internalType": "uint8",
              "name": "rarity",
              "type": "uint8"
            },
            {
              "internalType": "address",
              "name": "currentOwner",
              "type": "address"
            },
            {
              "internalType": "uint32",
              "name": "readyTime",
              "type": "uint32"
            },
            {
              "internalType": "uint8",
              "name": "dadId",
              "type": "uint8"
            },
            {
              "internalType": "uint8",
              "name": "mumId",
              "type": "uint8"
            },
            {
              "internalType": "uint256",
              "name": "sell",
              "type": "uint256"
            },
            {
              "internalType": "uint32",
              "name": "sellTime",
              "type": "uint32"
            },
            {
              "internalType": "uint256",
              "name": "gen0",
              "type": "uint256"
            }
          ],
          "internalType": "struct TruffleFactory.Truffle[]",
          "name": "",
          "type": "tuple[]"
        }
      ],
      "stateMutability": "view",
      "type": "function",
      "constant": true
    },
    {
      "inputs": [
        {
          "internalType": "address",
          "name": "_owner",
          "type": "address"
        }
      ],
      "name": "getOwnerTruffles",
      "outputs": [
        {
          "components": [
            {
              "internalType": "string",
              "name": "name",
              "type": "string"
            },
            {
              "internalType": "uint256",
              "name": "id",
              "type": "uint256"
            },
            {
              "internalType": "uint256",
              "name": "dna",
              "type": "uint256"
            },
            {
              "internalType": "uint8",
              "name": "level",
              "type": "uint8"
            },
            {
              "internalType": "uint8",
              "name": "rarity",
              "type": "uint8"
            },
            {
              "internalType": "address",
              "name": "currentOwner",
              "type": "address"
            },
            {
              "internalType": "uint32",
              "name": "readyTime",
              "type": "uint32"
            },
            {
              "internalType": "uint8",
              "name": "dadId",
              "type": "uint8"
            },
            {
              "internalType": "uint8",
              "name": "mumId",
              "type": "uint8"
            },
            {
              "internalType": "uint256",
              "name": "sell",
              "type": "uint256"
            },
            {
              "internalType": "uint32",
              "name": "sellTime",
              "type": "uint32"
            },
            {
              "internalType": "uint256",
              "name": "gen0",
              "type": "uint256"
            }
          ],
          "internalType": "struct TruffleFactory.Truffle[]",
          "name": "",
          "type": "tuple[]"
        }
      ],
      "stateMutability": "view",
      "type": "function",
      "constant": true
    },
    {
      "inputs": [
        {
          "internalType": "uint256",
          "name": "_fee",
          "type": "uint256"
        }
      ],
      "name": "updateFee",
      "outputs": [],
      "stateMutability": "nonpayable",
      "type": "function"
    },
    {
      "inputs": [
        {
          "internalType": "uint256",
          "name": "_feeLevelUp",
          "type": "uint256"
        }
      ],
      "name": "updateFeeLevelUp",
      "outputs": [],
      "stateMutability": "nonpayable",
      "type": "function"
    },
    {
      "inputs": [
        {
          "internalType": "uint256",
          "name": "_feeBreed",
          "type": "uint256"
        }
      ],
      "name": "updateFeeBreed",
      "outputs": [],
      "stateMutability": "nonpayable",
      "type": "function"
    },
    {
      "inputs": [
        {
          "internalType": "uint256",
          "name": "_feeSell",
          "type": "uint256"
        }
      ],
      "name": "updateFeeSell",
      "outputs": [],
      "stateMutability": "nonpayable",
      "type": "function"
    },
    {
      "inputs": [],
      "name": "withdraw",
      "outputs": [],
      "stateMutability": "payable",
      "type": "function",
      "payable": true
    },
    {
      "inputs": [
        {
          "internalType": "uint256",
          "name": "_TruffleId",
          "type": "uint256"
        }
      ],
      "name": "levelUp",
      "outputs": [],
      "stateMutability": "payable",
      "type": "function",
      "payable": true
    },
    {
      "inputs": [
        {
          "internalType": "uint256",
          "name": "_TruffleId",
          "type": "uint256"
        },
        {
          "internalType": "string",
          "name": "_newName",
          "type": "string"
        }
      ],
      "name": "updateName",
      "outputs": [],
      "stateMutability": "nonpayable",
      "type": "function"
    },
    {
      "inputs": [
        {
          "internalType": "uint256",
          "name": "_truffleId",
          "type": "uint256"
        },
        {
          "internalType": "uint256",
          "name": "_targetDna",
          "type": "uint256"
        }
      ],
      "name": "BreedAndMultiply",
      "outputs": [],
      "stateMutability": "payable",
      "type": "function",
      "payable": true
    },
    {
      "inputs": [
        {
          "internalType": "address",
          "name": "_from",
          "type": "address"
        },
        {
          "internalType": "address",
          "name": "_to",
          "type": "address"
        },
        {
          "internalType": "uint256",
          "name": "_tokenId",
          "type": "uint256"
        }
      ],
      "name": "GiftToken",
      "outputs": [],
      "stateMutability": "nonpayable",
      "type": "function"
    },
    {
      "inputs": [
        {
          "internalType": "uint256",
          "name": "_tokenId",
          "type": "uint256"
        },
        {
          "internalType": "uint256",
          "name": "_price",
          "type": "uint256"
        }
      ],
      "name": "allowBuy",
      "outputs": [],
      "stateMutability": "payable",
      "type": "function",
      "payable": true
    },
    {
      "inputs": [
        {
          "internalType": "uint256",
          "name": "_tokenId",
          "type": "uint256"
        }
      ],
      "name": "disallowBuy",
      "outputs": [],
      "stateMutability": "nonpayable",
      "type": "function"
    },
    {
      "inputs": [
        {
          "internalType": "uint256",
          "name": "_tokenId",
          "type": "uint256"
        }
      ],
      "name": "buy",
      "outputs": [],
      "stateMutability": "payable",
      "type": "function",
      "payable": true
    },
    {
      "inputs": [
        {
          "internalType": "uint256",
          "name": "_tokenId",
          "type": "uint256"
        },
        {
          "internalType": "uint256",
          "name": "_newPrice",
          "type": "uint256"
        }
      ],
      "name": "changePrice",
      "outputs": [],
      "stateMutability": "nonpayable",
      "type": "function"
    },
    {
      "inputs": [],
      "name": "getAllTruffleSell",
      "outputs": [
        {
          "components": [
            {
              "internalType": "string",
              "name": "name",
              "type": "string"
            },
            {
              "internalType": "uint256",
              "name": "id",
              "type": "uint256"
            },
            {
              "internalType": "uint256",
              "name": "dna",
              "type": "uint256"
            },
            {
              "internalType": "uint8",
              "name": "level",
              "type": "uint8"
            },
            {
              "internalType": "uint8",
              "name": "rarity",
              "type": "uint8"
            },
            {
              "internalType": "address",
              "name": "currentOwner",
              "type": "address"
            },
            {
              "internalType": "uint32",
              "name": "readyTime",
              "type": "uint32"
            },
            {
              "internalType": "uint8",
              "name": "dadId",
              "type": "uint8"
            },
            {
              "internalType": "uint8",
              "name": "mumId",
              "type": "uint8"
            },
            {
              "internalType": "uint256",
              "name": "sell",
              "type": "uint256"
            },
            {
              "internalType": "uint32",
              "name": "sellTime",
              "type": "uint32"
            },
            {
              "internalType": "uint256",
              "name": "gen0",
              "type": "uint256"
            }
          ],
          "internalType": "struct TruffleFactory.Truffle[]",
          "name": "",
          "type": "tuple[]"
        }
      ],
      "stateMutability": "view",
      "type": "function",
      "constant": true
    },
    {
      "inputs": [
        {
          "internalType": "uint256",
          "name": "_tokenId",
          "type": "uint256"
        }
      ],
      "name": "dailyMission",
      "outputs": [],
      "stateMutability": "nonpayable",
      "type": "function"
    }
  ],
  "bytecode": "0x662386f26fc1000060098190556658d15e17628000600a5566038d7ea4c68000600b819055600c91909155600d556000600e55610708600f5561010060405261a8c0608090815261fd2060a0526201518060c0526202a30060e0526200006a906011906004620001a6565b503480156200007857600080fd5b50604080518082018252600781527f54727566666c650000000000000000000000000000000000000000000000000060208083019182528351808501909452600384527f5446540000000000000000000000000000000000000000000000000000000000908401528151919291620000f39160009162000249565b5080516200010990600190602084019062000249565b505050620001386200012962000150640100000000026401000000009004565b64010000000062000154810204565b60088054600160a060020a0319163317905562000333565b3390565b60068054600160a060020a03838116600160a060020a0319831681179093556040519116919082907f8be0079c531659141344cd1fd0a4f28419497f9722a3daafe3b4186f6b6457e090600090a35050565b600183019183908215620002375791602002820160005b838211156200020357835183826101000a81548163ffffffff021916908363ffffffff1602179055509260200192600401602081600301049283019260010302620001bd565b8015620002355782816101000a81549063ffffffff021916905560040160208160030104928301926001030262000203565b505b5062000245929150620002c6565b5090565b8280546200025790620002dd565b90600052602060002090601f0160209004810192826200027b576000855562000237565b82601f106200029657805160ff191683800117855562000237565b8280016001018555821562000237579182015b8281111562000237578251825591602001919060010190620002a9565b5b80821115620002455760008155600101620002c7565b600281046001821680620002f257607f821691505b602082108114156200032d577f4e487b7100000000000000000000000000000000000000000000000000000000600052602260045260246000fd5b50919050565b614d2580620003436000396000f3fe608060405260043610610279576000357c010000000000000000000000000000000000000000000000000000000090048063962a8ba311610161578063ced72f87116100d3578063e985e9c511610097578063e985e9c5146106d5578063f2fde38b146106f5578063f4812eb914610715578063f628d6d114610735578063f851a44014610755578063ff5df90a1461076a57610279565b8063ced72f871461064d578063d499131214610662578063d96a094a14610682578063deb4022f14610695578063e41296a7146106b557610279565b8063a22cb46511610125578063a22cb465146105a5578063b1569412146105c5578063b3de019c146105da578063b88d4fde146105fa578063bbb5e8d31461061a578063c87b56dd1461062d57610279565b8063962a8ba31461051b5780639d678a9c1461052e5780639d6fac6f14610543578063a01ce40814610570578063a22cb3931461059057610279565b80634cc37fc0116101fa578063715018a6116101be578063715018a614610487578063778532181461049c578063884a326e146104b15780638da5cb5b146104d15780639012c4a8146104e657806395d89b411461050657610279565b80634cc37fc0146103cd57806353e76f2c146104055780636352211e14610425578063658cff5b1461044557806370a082311461046757610279565b806323b872dd1161024157806323b872dd1461033857806325a5c16c146103585780633ccfd60b1461037857806342842e0e1461038057806344b17626146103a057610279565b806301ffc9a71461027e57806306fdde03146102b4578063081812fc146102d6578063095ea7b3146103035780630ce90ec214610325575b600080fd5b34801561028a57600080fd5b5061029e610299366004613f0a565b61077d565b6040516102ab91906142bc565b60405180910390f35b3480156102c057600080fd5b506102c96107f7565b6040516102ab91906142c7565b3480156102e257600080fd5b506102f66102f1366004613f88565b610889565b6040516102ab9190614124565b34801561030f57600080fd5b5061032361031e366004613ee1565b6108d8565b005b610323610333366004613f88565b610976565b34801561034457600080fd5b50610323610353366004613df3565b610a6d565b34801561036457600080fd5b50610323610373366004613f42565b610aa8565b610323610b7d565b34801561038c57600080fd5b5061032361039b366004613df3565b610c06565b3480156103ac57600080fd5b506103c06103bb366004613da7565b610c21565b6040516102ab9190614198565b3480156103d957600080fd5b506103ed6103e8366004613f88565b610e84565b6040516102ab9c9b9a999897969594939291906142da565b34801561041157600080fd5b50610323610420366004613fa0565b610fa3565b34801561043157600080fd5b506102f6610440366004613f88565b61109a565b34801561045157600080fd5b5061045a6110d2565b6040516102ab9190614a35565b34801561047357600080fd5b5061045a610482366004613da7565b6110d8565b34801561049357600080fd5b5061032361111f565b3480156104a857600080fd5b5061045a61116d565b3480156104bd57600080fd5b506103236104cc366004613f88565b611173565b3480156104dd57600080fd5b506102f66111ba565b3480156104f257600080fd5b50610323610501366004613f88565b6111c9565b34801561051257600080fd5b506102c9611210565b610323610529366004614017565b61121f565b34801561053a57600080fd5b506103c0611ef6565b34801561054f57600080fd5b5061056361055e366004613f88565b6121da565b6040516102ab9190614a4c565b34801561057c57600080fd5b5061032361058b366004613f88565b61220a565b34801561059c57600080fd5b5061045a612251565b3480156105b157600080fd5b506103236105c0366004613ea7565b612257565b3480156105d157600080fd5b506103c0612328565b3480156105e657600080fd5b506103236105f5366004614017565b6124b6565b34801561060657600080fd5b50610323610615366004613e2e565b612576565b610323610628366004614017565b6125b2565b34801561063957600080fd5b506102c9610648366004613f88565b612694565b34801561065957600080fd5b5061045a61271a565b34801561066e57600080fd5b5061032361067d366004613f88565b612720565b610323610690366004613f88565b6127bc565b3480156106a157600080fd5b506103236106b0366004613f88565b612965565b3480156106c157600080fd5b506103236106d0366004613df3565b6129ac565b3480156106e157600080fd5b5061029e6106f0366004613dc1565b612a50565b34801561070157600080fd5b50610323610710366004613da7565b612a80565b34801561072157600080fd5b5061045a610730366004613f88565b612af7565b34801561074157600080fd5b50610323610750366004613f88565b612b09565b34801561076157600080fd5b506102f6612d7b565b610323610778366004613f42565b612d8a565b6000600160e060020a031982167f80ac58cd0000000000000000000000000000000000000000000000000000000014806107e05750600160e060020a031982167f5b5e139f00000000000000000000000000000000000000000000000000000000145b806107ef57506107ef82612e4f565b90505b919050565b60606000805461080690614c01565b80601f016020809104026020016040519081016040528092919081815260200182805461083290614c01565b801561087f5780601f106108545761010080835404028352916020019161087f565b820191906000526020600020905b81548152906001019060200180831161086257829003601f168201915b5050505050905090565b600061089482612e81565b6108bc5760405160e560020a62461bcd0281526004016108b390614764565b60405180910390fd5b50600090815260046020526040902054600160a060020a031690565b60006108e38261109a565b905080600160a060020a031683600160a060020a0316141561091a5760405160e560020a62461bcd0281526004016108b3906148b0565b80600160a060020a031661092c612e9e565b600160a060020a031614806109485750610948816106f0612e9e565b6109675760405160e560020a62461bcd0281526004016108b3906145ba565b6109718383612ea2565b505050565b600b54341461098457600080fd5b3361098e8261109a565b600160a060020a0316146109a157600080fd5b6000601482815481106109c75760e060020a634e487b7102600052603260045260246000fd5b600091825260209091206007909102016003810154909150601460ff909116106109f057600080fd5b6004810154156109ff57600080fd5b60038101805460ff16906000610a1483614c5a565b825460ff9182166101009390930a928302919092021990911617905550600854600b54604051600160a060020a039092169181156108fc0291906000818181858888f19350505050158015610971573d6000803e3d6000fd5b610a7e610a78612e9e565b82612f1d565b610a9d5760405160e560020a62461bcd0281526004016108b3906149a1565b610971838383612fa5565b33610ab257600080fd5b6000805b601454811015610af95733610aca8261109a565b600160a060020a03161415610ae75781610ae381614c3f565b9250505b80610af181614c3f565b915050610ab6565b5060028110610b0757600080fd5b610b1160076130e5565b60108190556103e811610b2357600080fd5b6000610b2e836130e9565b90506000610b3c6005613129565b610b47606484614c7a565b610b519084614bbe565b610b5b9190614a5d565b610b66906001614a5d565b9050610b778482600080600061317c565b50505050565b610b85612e9e565b600160a060020a0316610b966111ba565b600160a060020a031614610bbf5760405160e560020a62461bcd0281526004016108b3906147c1565b6000610bc96111ba565b604051909150600160a060020a03821690303180156108fc02916000818181858888f19350505050158015610c02573d6000803e3d6000fd5b5050565b61097183838360405180602001604052806000815250612576565b60606000610c2e836110d8565b67ffffffffffffffff811115610c575760e060020a634e487b7102600052604160045260246000fd5b604051908082528060200260200182016040528015610c9057816020015b610c7d613baf565b815260200190600190039081610c755790505b5090506000805b601454811015610e7b5784600160a060020a0316610cb48261109a565b600160a060020a03161415610e695760148181548110610ce75760e060020a634e487b7102600052603260045260246000fd5b906000526020600020906007020160405180610180016040529081600082018054610d1190614c01565b80601f0160208091040260200160405190810160405280929190818152602001828054610d3d90614c01565b8015610d8a5780601f10610d5f57610100808354040283529160200191610d8a565b820191906000526020600020905b815481529060010190602001808311610d6d57829003601f168201915b50505091835250506001820154602082015260028201546040820152600382015460ff808216606084015261010080830482166080850152600160a060020a036201000084041660a085015263ffffffff60b060020a8404811660c086015260d060020a8404831660e086015260d860020a909304909116908301526004830154610120830152600583015416610140820152600690910154610160909101528351849084908110610e4f5760e060020a634e487b7102600052603260045260246000fd5b60200260200101819052508180610e6590614c3f565b9250505b80610e7381614c3f565b915050610c97565b50909392505050565b60148181548110610e9457600080fd5b9060005260206000209060070201600091509050806000018054610eb790614c01565b80601f0160208091040260200160405190810160405280929190818152602001828054610ee390614c01565b8015610f305780601f10610f0557610100808354040283529160200191610f30565b820191906000526020600020905b815481529060010190602001808311610f1357829003601f168201915b505050600184015460028501546003860154600487015460058801546006909801549697939692955060ff80831695506101008304811694600160a060020a03620100008504169463ffffffff60b060020a860481169560d060020a810485169560d860020a909104909416939216908c565b6002838160148281548110610fcb5760e060020a634e487b7102600052603260045260246000fd5b600091825260209091206003600790920201015460ff161015610fed57600080fd5b33610ff78661109a565b600160a060020a03161461100a57600080fd5b6000601486815481106110305760e060020a634e487b7102600052603260045260246000fd5b90600052602060002090600702019050806004015460001461105157600080fd5b8484601488815481106110775760e060020a634e487b7102600052603260045260246000fd5b600091825260209091206110919360079092020191613c13565b50505050505050565b600081815260026020526040812054600160a060020a0316806107ef5760405160e560020a62461bcd0281526004016108b390614674565b600b5490565b6000600160a060020a0382166111035760405160e560020a62461bcd0281526004016108b390614617565b50600160a060020a031660009081526003602052604090205490565b611127612e9e565b600160a060020a03166111386111ba565b600160a060020a0316146111615760405160e560020a62461bcd0281526004016108b3906147c1565b61116b60006133f0565b565b600c5490565b61117b612e9e565b600160a060020a031661118c6111ba565b600160a060020a0316146111b55760405160e560020a62461bcd0281526004016108b3906147c1565b600b55565b600654600160a060020a031690565b6111d1612e9e565b600160a060020a03166111e26111ba565b600160a060020a03161461120b5760405160e560020a62461bcd0281526004016108b3906147c1565b600a55565b60606001805461080690614c01565b600c54341461122d57600080fd5b6000601483815481106112535760e060020a634e487b7102600052603260045260246000fd5b906000526020600020906007020190506000601483815481106112895760e060020a634e487b7102600052603260045260246000fd5b90600052602060002090600702019050828414156112a657600080fd5b336112b08561109a565b600160a060020a0316146112c357600080fd5b336112cd8461109a565b600160a060020a0316146112e057600080fd5b6112e98261344f565b6112f257600080fd5b6112fb8161344f565b61130457600080fd5b60048201541561131357600080fd5b60048101541561132257600080fd5b600180830154908201546003808501549084015460ff61010092839004811692909104166000600261135383613129565b8361135d86613129565b6113679087614a5d565b6113719190614a5d565b61137b9190614bbe565b6113859190614a75565b90506000606461139683600f614b9f565b6113a09190614a75565b905060006113af600a86614c7a565b905060006113be600a86614c7a565b90506000806113cd6064613129565b90506063881080156113df5750606387105b6113e857600080fd5b603c88111580156113fa5750603c8711155b1561184f57601e88111580156114115750601e8711155b156115885760328110611522578688106114a3576000611432856005614ad1565b61143d866004614ad1565b8d600201548f600201546114519190614a5d565b61145b9190614b9f565b6114659190614a75565b9050611471600a613129565b8961147d606484614c7a565b6114879084614bbe565b6114919190614a5d565b61149b9190614a5d565b92505061151d565b60006114b0846005614ad1565b6114bb856004614ad1565b8d600201548f600201546114cf9190614a5d565b6114d99190614b9f565b6114e39190614a75565b90506114ef600a613129565b886114fb606484614c7a565b6115059084614bbe565b61150f9190614a5d565b6115199190614a5d565b9250505b611588565b600061152f856005614ad1565b61153a866004614ad1565b8d600201548f6002015461154e9190614a5d565b6115589190614b9f565b6115629190614a75565b905086611570606483614c7a565b61157a9083614bbe565b6115849190614a5d565b9250505b601e881180156115985750601e87115b1561171f57603781106116a95786881061162a5760006115b9856005614ad1565b6115c4866004614ad1565b8d600201548f600201546115d89190614a5d565b6115e29190614b9f565b6115ec9190614a75565b90506115f8600a613129565b89611604606484614c7a565b61160e9084614bbe565b6116189190614a5d565b6116229190614a5d565b9250506116a4565b6000611637846005614ad1565b611642856004614ad1565b8d600201548f600201546116569190614a5d565b6116609190614b9f565b61166a9190614a75565b9050611676600a613129565b88611682606484614c7a565b61168c9084614bbe565b6116969190614a5d565b6116a09190614a5d565b9250505b61171a565b60006116b6856005614ad1565b6116c1866004614ad1565b8d600201548f600201546116d59190614a5d565b6116df9190614b9f565b6116e99190614a75565b905085876116f8606484614c7a565b6117029084614bbe565b61170c9190614a5d565b6117169190614a5d565b9250505b61184f565b603c81106117de5786881061178657600061173b856005614ad1565b611746866004614ad1565b8d600201548f6002015461175a9190614a5d565b6117649190614b9f565b61176e9190614a75565b905061177a600a613129565b89611682606484614c7a565b6000611793846005614ad1565b61179e856004614ad1565b8d600201548f600201546117b29190614a5d565b6117bc9190614b9f565b6117c69190614a75565b90506117d2600a613129565b886116f8606484614c7a565b60006117eb856005614ad1565b6117f6866004614ad1565b8d600201548f6002015461180a9190614a5d565b6118149190614b9f565b61181e9190614a75565b9050858761182d606484614c7a565b6118379084614bbe565b6118419190614a5d565b61184b9190614a5d565b9250505b603c8811801561185f5750603c87115b156119d65760468110611970578688106118f1576000611880856005614ad1565b61188b866004614ad1565b8d600201548f6002015461189f9190614a5d565b6118a99190614b9f565b6118b39190614a75565b90506118bf6008613129565b896118cb606484614c7a565b6118d59084614bbe565b6118df9190614a5d565b6118e99190614a5d565b92505061196b565b60006118fe846005614ad1565b611909856004614ad1565b8d600201548f6002015461191d9190614a5d565b6119279190614b9f565b6119319190614a75565b905061193d6008613129565b88611949606484614c7a565b6119539084614bbe565b61195d9190614a5d565b6119679190614a5d565b9250505b6119d6565b600061197d856005614ad1565b611988866004614ad1565b8d600201548f6002015461199c9190614a5d565b6119a69190614b9f565b6119b09190614a75565b9050866119be606483614c7a565b6119c89083614bbe565b6119d29190614a5d565b9250505b603c881180156119e75750603c8711155b15611ad85760508110611a72576000611a01856005614ad1565b611a0c866004614ad1565b8d600201548f60020154611a209190614a5d565b611a2a9190614b9f565b611a349190614a75565b9050611a406007613129565b89611a4c606484614c7a565b611a569084614bbe565b611a609190614a5d565b611a6a9190614a5d565b925050611ad8565b6000611a7f856005614ad1565b611a8a866004614ad1565b8d600201548f60020154611a9e9190614a5d565b611aa89190614b9f565b611ab29190614a75565b905086611ac0606483614c7a565b611aca9083614bbe565b611ad49190614a5d565b9250505b603c8811158015611ae95750603c87115b15611bda5760508110611b74576000611b03846005614ad1565b611b0e856004614ad1565b8d600201548f60020154611b229190614a5d565b611b2c9190614b9f565b611b369190614a75565b9050611b426007613129565b88611b4e606484614c7a565b611b589084614bbe565b611b629190614a5d565b611b6c9190614a5d565b925050611bda565b6000611b81846005614ad1565b611b8c856004614ad1565b8d600201548f60020154611ba09190614a5d565b611baa9190614b9f565b611bb49190614a75565b905086611bc2606483614c7a565b611bcc9083614bbe565b611bd69190614a5d565b9250505b6000611e528d60405180610180016040529081600082018054611bfc90614c01565b80601f0160208091040260200160405190810160405280929190818152602001828054611c2890614c01565b8015611c755780601f10611c4a57610100808354040283529160200191611c75565b820191906000526020600020905b815481529060010190602001808311611c5857829003601f168201915b5050509183525050600182015460208201526002820154604080830191909152600383015460ff808216606085015261010080830482166080860152600160a060020a036201000084041660a086015263ffffffff60b060020a8404811660c087015260d060020a8404831660e087015260d860020a90930490911690840152600484015461012084015260058401541661014083015260069092015461016090910152805161018081019091528e548f9082908290611d3490614c01565b80601f0160208091040260200160405190810160405280929190818152602001828054611d6090614c01565b8015611dad5780601f10611d8257610100808354040283529160200191611dad565b820191906000526020600020905b815481529060010190602001808311611d9057829003601f168201915b50505091835250506001820154602082015260028201546040820152600382015460ff808216606084015261010080830482166080850152600160a060020a036201000084041660a085015263ffffffff60b060020a8404811660c086015260d060020a8404831660e086015260d860020a90930490911690830152600483015461012083015260058301541661014082015260069091015461016090910152613467565b9050611e966040518060400160405280600b81526020017f4e65772054727566666c65000000000000000000000000000000000000000000815250848d8d8561317c565b611e9f8d6134bc565b611ea88c6134bc565b600854600c54604051600160a060020a039092169181156108fc0291906000818181858888f19350505050158015611ee4573d6000803e3d6000fd5b50505050505050505050505050505050565b606060008060005b601454811015611f6657600060148281548110611f2e5760e060020a634e487b7102600052603260045260246000fd5b9060005260206000209060070201600401541115611f5457611f51600183614a5d565b91505b80611f5e81614c3f565b915050611efe565b5060008167ffffffffffffffff811115611f935760e060020a634e487b7102600052604160045260246000fd5b604051908082528060200260200182016040528015611fcc57816020015b611fb9613baf565b815260200190600190039081611fb15790505b50905060005b6014548110156121d2576000601482815481106120025760e060020a634e487b7102600052603260045260246000fd5b90600052602060002090600702016004015411156121c0576014818154811061203e5760e060020a634e487b7102600052603260045260246000fd5b90600052602060002090600702016040518061018001604052908160008201805461206890614c01565b80601f016020809104026020016040519081016040528092919081815260200182805461209490614c01565b80156120e15780601f106120b6576101008083540402835291602001916120e1565b820191906000526020600020905b8154815290600101906020018083116120c457829003601f168201915b50505091835250506001820154602082015260028201546040820152600382015460ff808216606084015261010080830482166080850152600160a060020a036201000084041660a085015263ffffffff60b060020a8404811660c086015260d060020a8404831660e086015260d860020a9093049091169083015260048301546101208301526005830154166101408201526006909101546101609091015282518390869081106121a65760e060020a634e487b7102600052603260045260246000fd5b602002602001018190525083806121bc90614c3f565b9450505b806121ca81614c3f565b915050611fd2565b509250505090565b601181600481106121ea57600080fd5b60089182820401919006600402915054906101000a900463ffffffff1681565b612212612e9e565b600160a060020a03166122236111ba565b600160a060020a03161461224c5760405160e560020a62461bcd0281526004016108b3906147c1565b600d55565b600d5490565b61225f612e9e565b600160a060020a031682600160a060020a031614156122935760405160e560020a62461bcd0281526004016108b390614526565b80600560006122a0612e9e565b600160a060020a03908116825260208083019390935260409182016000908120918716808252919093529120805460ff1916921515929092179091556122e4612e9e565b600160a060020a03167f17307eab39ab6107e8899845ad3d59bd9653f200f220920489ca2b5937696c318360405161231c91906142bc565b60405180910390a35050565b60606014805480602002602001604051908101604052809291908181526020016000905b828210156124ad57838290600052602060002090600702016040518061018001604052908160008201805461238090614c01565b80601f01602080910402602001604051908101604052809291908181526020018280546123ac90614c01565b80156123f95780601f106123ce576101008083540402835291602001916123f9565b820191906000526020600020905b8154815290600101906020018083116123dc57829003601f168201915b505050918352505060018281015460208084019190915260028401546040840152600384015460ff808216606086015261010080830482166080870152600160a060020a036201000084041660a087015263ffffffff60b060020a8404811660c088015260d060020a8404831660e088015260d860020a909304909116908501526004850154610120850152600585015416610140840152600690930154610160909201919091529183529201910161234c565b50505050905090565b6124bf82612e81565b6124c857600080fd5b600081116124eb5760405160e560020a62461bcd0281526004016108b3906149fe565b60006124f68361109a565b9050600160a060020a038116331461250d57600080fd5b600083815260126020526040812083905560148054859081106125435760e060020a634e487b7102600052603260045260246000fd5b6000918252602090912060079091020160048101939093555050600501805463ffffffff19164263ffffffff1617905550565b612587612581612e9e565b83612f1d565b6125a65760405160e560020a62461bcd0281526004016108b3906149a1565b610b778484848461374f565b6125bb8261109a565b600160a060020a031633600160a060020a0316146125ee5760405160e560020a62461bcd0281526004016108b39061490d565b600d543410156126135760405160e560020a62461bcd0281526004016108b390614944565b600081116126365760405160e560020a62461bcd0281526004016108b3906149fe565b60006014838154811061265c5760e060020a634e487b7102600052603260045260246000fd5b906000526020600020906007020190506126758161344f565b61250d5760405160e560020a62461bcd0281526004016108b390614492565b606061269f82612e81565b6126be5760405160e560020a62461bcd0281526004016108b390614853565b60006126c8613785565b905060008151116126e85760405180602001604052806000815250612713565b806126f284613797565b604051602001612703929190614082565b6040516020818303038152906040525b9392505050565b600a5490565b6127298161109a565b600160a060020a031633600160a060020a03161461275c5760405160e560020a62461bcd0281526004016108b39061490d565b600081815260126020526040812081905560148054839081106127925760e060020a634e487b7102600052603260045260246000fd5b600091825260208220600460079092020190810191909155600501805463ffffffff191690555050565b600081815260126020526040902054806127eb5760405160e560020a62461bcd0281526004016108b3906143c7565b80341461280d5760405160e560020a62461bcd0281526004016108b3906146d1565b60006128188361109a565b9050612825813385612fa5565b6000838152601260205260408120819055601480548590811061285b5760e060020a634e487b7102600052603260045260246000fd5b600091825260208220600460079092020190810182905560058101805463ffffffff19169055604051909250600160a060020a038416913480156108fc02929091818181858888f193505050501580156128b9573d6000803e3d6000fd5b50600854600d54604051600160a060020a039092169181156108fc0291906000818181858888f193505050501580156128f6573d6000803e3d6000fd5b5060038101805475ffffffffffffffffffffffffffffffffffffffff0000191633620100008102919091179091556040517f4dd2f31b4569bcf6afb5788e4dcfba199a9e2148b94d0dda6d5fed23041de4cd91612957918591903490614138565b60405180910390a150505050565b61296d612e9e565b600160a060020a031661297e6111ba565b600160a060020a0316146129a75760405160e560020a62461bcd0281526004016108b3906147c1565b600c55565b6129b7838383612fa5565b600081815260126020526040812081905560148054839081106129ed5760e060020a634e487b7102600052603260045260246000fd5b60009182526020822060046007909202019081019190915560058101805463ffffffff191690556003018054600160a060020a03909416620100000275ffffffffffffffffffffffffffffffffffffffff00001990941693909317909255505050565b600160a060020a0380831660009081526005602090815260408083209385168352929052205460ff165b92915050565b612a88612e9e565b600160a060020a0316612a996111ba565b600160a060020a031614612ac25760405160e560020a62461bcd0281526004016108b3906147c1565b600160a060020a038116612aeb5760405160e560020a62461bcd0281526004016108b3906143fe565b612af4816133f0565b50565b60126020526000908152604090205481565b612b128161109a565b600160a060020a031633600160a060020a031614612b455760405160e560020a62461bcd0281526004016108b39061490d565b600060148281548110612b6b5760e060020a634e487b7102600052603260045260246000fd5b600091825260209091206007909102016003810154909150601460ff90911610612b9457600080fd5b600481015415612ba357600080fd5b612bac8161344f565b612bb557600080fd5b600060648260020154612bc89190614c7a565b90506000612bd66064613129565b9050600a8260ff1611612c1f5760148111612c1a5760038301805460ff16906000612c0083614c5a565b91906101000a81548160ff021916908360ff160217905550505b612d46565b600a8260ff16118015612c365750601e8260ff1611155b15612c585760238111612c1a5760038301805460ff16906000612c0083614c5a565b601e8260ff16118015612c6f575060328260ff1611155b15612c915760288111612c1a5760038301805460ff16906000612c0083614c5a565b60328260ff16118015612ca8575060468260ff1611155b15612cca57602d8111612c1a5760038301805460ff16906000612c0083614c5a565b60468260ff16118015612ce15750605a8260ff1611155b15612d0357603c8111612c1a5760038301805460ff16906000612c0083614c5a565b605a8260ff161115612d465760468111612d465760038301805460ff16906000612d2c83614c5a565b91906101000a81548160ff021916908360ff160217905550505b612d534262015180614a5d565b8360030160166101000a81548163ffffffff021916908363ffffffff16021790555050505050565b600854600160a060020a031681565b33612d9457600080fd5b600a54341015612da357600080fd5b612dad60076130e5565b60108190556103e811612dbf57600080fd5b6000612dca826130e9565b90506000612dd86014613129565b612de3606484614c7a565b612ded9084614bbe565b612df79190614a5d565b612e0290600a614a5d565b9050612e138382600080600061317c565b600854600a54604051600160a060020a039092169181156108fc0291906000818181858888f19350505050158015610b77573d6000803e3d6000fd5b600160e060020a031981167f01ffc9a70000000000000000000000000000000000000000000000000000000014919050565b600090815260026020526040902054600160a060020a0316151590565b3390565b6000818152600460205260409020805473ffffffffffffffffffffffffffffffffffffffff1916600160a060020a0384169081179091558190612ee48261109a565b600160a060020a03167f8c5be1e5ebec7d5bd14f71427d1e84f3dd0314c0f7b2291e5b200ac8c7c3b92560405160405180910390a45050565b6000612f2882612e81565b612f475760405160e560020a62461bcd0281526004016108b39061455d565b6000612f528361109a565b905080600160a060020a031684600160a060020a03161480612f8d575083600160a060020a0316612f8284610889565b600160a060020a0316145b80612f9d5750612f9d8185612a50565b949350505050565b82600160a060020a0316612fb88261109a565b600160a060020a031614612fe15760405160e560020a62461bcd0281526004016108b3906147f6565b600160a060020a03821661300a5760405160e560020a62461bcd0281526004016108b3906144c9565b613015838383610971565b613020600082612ea2565b600160a060020a0383166000908152600360205260408120805460019290613049908490614bbe565b9091555050600160a060020a0382166000908152600360205260408120805460019290613077908490614a5d565b9091555050600081815260026020526040808220805473ffffffffffffffffffffffffffffffffffffffff1916600160a060020a0386811691821790925591518493918716917fddf252ad1be2c89b69c2b068fc378daa952ba7f163c4a11628f55a4df523b3ef91a4505050565b5490565b600080423384604051602001613101939291906140b1565b60408051601f1981840301815291905280516020909101206009549091506127139082614c7a565b600e80546000918261313a83614c3f565b919050555060004233600e54604051602001613158939291906140f6565b60408051601f19818403018152919052805160209091012090506127138382614c7a565b6000613189606486614c7a565b9050600061319760076130e5565b6040805161018081018252898152602080820184905291810189905260006060820181905260ff86811660808401523360a084015263ffffffff421660c084015289811660e08401528816610100830152610120820181905261014082018190526101608201879052601480546001810182559152815180519495509193849360079092027fce6d7b5282bd9a3661ae061feed1dbda4e52ab073b1f9285be6e155d9c38d4ec019261324d928492910190613c97565b5060208201516001820155604082015160028201556060820151600382018054608085015160a086015160c087015160e0880151610100808a015160ff1990961660ff9889161761ff001916948816029390931775ffffffffffffffffffffffffffffffffffffffff0000191662010000600160a060020a03909316929092029190911779ffffffff00000000000000000000000000000000000000000000191660b060020a63ffffffff92831602177aff0000000000000000000000000000000000000000000000000000191660d060020a92861692909202919091177fffffffff00ffffffffffffffffffffffffffffffffffffffffffffffffffffff1660d860020a9490921693909302179055610120830151600483015561014083015160058301805463ffffffff19169190921617905561016090910151600690910155613399338361390b565b6133a36007613925565b33600160a060020a03167f589cd144bbd2fda6318230895eca43f6ea1a1b5b0464c4bc1221bdfc7fad884c83896040516133de929190614a3e565b60405180910390a25050505050505050565b60068054600160a060020a0383811673ffffffffffffffffffffffffffffffffffffffff19831681179093556040519116919082907f8be0079c531659141344cd1fd0a4f28419497f9722a3daafe3b4186f6b6457e090600090a35050565b600301544260b060020a90910463ffffffff16111590565b6000816101600151836101600151111561349c576001836101600181815161348f9190614a5d565b9150818152509050612a7a565b600182610160018181516134b09190614a5d565b90819052949350505050565b6003810154600682015460ff909116906135555760005b60148160ff1611613553578160ff168160ff161415613541578060ff16600f546134fd9190614b9f565b6011546135109063ffffffff1642614a5d565b61351a9190614bbe565b8360030160166101000a81548163ffffffff021916908363ffffffff160217905550613553565b8061354b81614c5a565b9150506134d3565b505b6000826006015411801561356e57506005826006015411155b156136005760005b60148160ff16116135fe578160ff168160ff1614156135ec578060ff16600f546135a09190614b9f565b6011546135bb90640100000000900463ffffffff1642614a5d565b6135c59190614bbe565b8360030160166101000a81548163ffffffff021916908363ffffffff1602179055506135fe565b806135f681614c5a565b915050613576565b505b600582600601541180156136195750600a826006015411155b156136af5760005b60148160ff16116136ad578160ff168160ff16141561369b578060ff16600f5461364b9190614b9f565b60115461366a9068010000000000000000900463ffffffff1642614a5d565b6136749190614bbe565b8360030160166101000a81548163ffffffff021916908363ffffffff1602179055506136ad565b806136a581614c5a565b915050613621565b505b600a82600601541115610c025760005b60148160ff1611610971578160ff168160ff16141561373d578060ff16600f546136e99190614b9f565b60115461370c906c01000000000000000000000000900463ffffffff1642614a5d565b6137169190614bbe565b8360030160166101000a81548163ffffffff021916908363ffffffff160217905550610971565b8061374781614c5a565b9150506136bf565b61375a848484612fa5565b6137668484848461392e565b610b775760405160e560020a62461bcd0281526004016108b39061436a565b60408051602081019091526000815290565b6060816137d8575060408051808201909152600181527f300000000000000000000000000000000000000000000000000000000000000060208201526107f2565b8160005b811561380257806137ec81614c3f565b91506137fb9050600a83614a75565b91506137dc565b60008167ffffffffffffffff81111561382e5760e060020a634e487b7102600052604160045260246000fd5b6040519080825280601f01601f191660200182016040528015613858576020820181803683370190505b5090505b8415612f9d5761386d600183614bbe565b915061387a600a86614c7a565b613885906030614a5d565b7f0100000000000000000000000000000000000000000000000000000000000000028183815181106138ca5760e060020a634e487b7102600052603260045260246000fd5b60200101907effffffffffffffffffffffffffffffffffffffffffffffffffffffffffffff1916908160001a905350613904600a86614a75565b945061385c565b610c02828260405180602001604052806000815250613a81565b80546001019055565b600061394284600160a060020a0316613ab7565b15613a765783600160a060020a031663150b7a0261395e612e9e565b8786866040518563ffffffff167c010000000000000000000000000000000000000000000000000000000002815260040161399c949392919061415c565b602060405180830381600087803b1580156139b657600080fd5b505af19250505080156139e6575060408051601f3d908101601f191682019092526139e391810190613f26565b60015b613a43573d808015613a14576040519150601f19603f3d011682016040523d82523d6000602084013e613a19565b606091505b508051613a3b5760405160e560020a62461bcd0281526004016108b39061436a565b805181602001fd5b600160e060020a0319167f150b7a0200000000000000000000000000000000000000000000000000000000149050612f9d565b506001949350505050565b613a8b8383613abd565b613a98600084848461392e565b6109715760405160e560020a62461bcd0281526004016108b39061436a565b3b151590565b600160a060020a038216613ae65760405160e560020a62461bcd0281526004016108b39061472f565b613aef81612e81565b15613b0f5760405160e560020a62461bcd0281526004016108b39061445b565b613b1b60008383610971565b600160a060020a0382166000908152600360205260408120805460019290613b44908490614a5d565b9091555050600081815260026020526040808220805473ffffffffffffffffffffffffffffffffffffffff1916600160a060020a03861690811790915590518392907fddf252ad1be2c89b69c2b068fc378daa952ba7f163c4a11628f55a4df523b3ef908290a45050565b6040805161018081018252606080825260006020830181905292820183905281018290526080810182905260a0810182905260c0810182905260e0810182905261010081018290526101208101829052610140810182905261016081019190915290565b828054613c1f90614c01565b90600052602060002090601f016020900481019282613c415760008555613c87565b82601f10613c5a5782800160ff19823516178555613c87565b82800160010185558215613c87579182015b82811115613c87578235825591602001919060010190613c6c565b50613c93929150613d0b565b5090565b828054613ca390614c01565b90600052602060002090601f016020900481019282613cc55760008555613c87565b82601f10613cde57805160ff1916838001178555613c87565b82800160010185558215613c87579182015b82811115613c87578251825591602001919060010190613cf0565b5b80821115613c935760008155600101613d0c565b600067ffffffffffffffff80841115613d3b57613d3b614cc0565b604051601f8501601f191681016020018281118282101715613d5f57613d5f614cc0565b604052848152915081838501861015613d7757600080fd5b8484602083013760006020868301015250509392505050565b8035600160a060020a03811681146107f257600080fd5b600060208284031215613db8578081fd5b61271382613d90565b60008060408385031215613dd3578081fd5b613ddc83613d90565b9150613dea60208401613d90565b90509250929050565b600080600060608486031215613e07578081fd5b613e1084613d90565b9250613e1e60208501613d90565b9150604084013590509250925092565b60008060008060808587031215613e43578081fd5b613e4c85613d90565b9350613e5a60208601613d90565b925060408501359150606085013567ffffffffffffffff811115613e7c578182fd5b8501601f81018713613e8c578182fd5b613e9b87823560208401613d20565b91505092959194509250565b60008060408385031215613eb9578182fd5b613ec283613d90565b915060208301358015158114613ed6578182fd5b809150509250929050565b60008060408385031215613ef3578182fd5b613efc83613d90565b946020939093013593505050565b600060208284031215613f1b578081fd5b813561271381614cd9565b600060208284031215613f37578081fd5b815161271381614cd9565b600060208284031215613f53578081fd5b813567ffffffffffffffff811115613f69578182fd5b8201601f81018413613f79578182fd5b612f9d84823560208401613d20565b600060208284031215613f99578081fd5b5035919050565b600080600060408486031215613fb4578283fd5b83359250602084013567ffffffffffffffff80821115613fd2578384fd5b818601915086601f830112613fe5578384fd5b813581811115613ff3578485fd5b876020828501011115614004578485fd5b6020830194508093505050509250925092565b60008060408385031215614029578182fd5b50508035926020909101359150565b600160a060020a03169052565b6000815180845261405d816020860160208601614bd5565b601f01601f19169290920160200192915050565b63ffffffff169052565b60ff169052565b60008351614094818460208801614bd5565b8351908301906140a8818360208801614bd5565b01949350505050565b60008482526c01000000000000000000000000600160a060020a03851602602083015282516140e7816034850160208701614bd5565b91909101603401949350505050565b928352600160a060020a03919091166c01000000000000000000000000026020830152603482015260540190565b600160a060020a0391909116815260200190565b600160a060020a039384168152919092166020820152604081019190915260600190565b6000600160a060020a0380871683528086166020840152508360408301526080606083015261418e6080830184614045565b9695505050505050565b60208082528251828201819052600091906040908185019080840286018301878501865b838110156142ae57603f19898403018552815161018081518186526141e382870182614045565b915050888201518986015287820151888601526060808301516142088288018261407b565b505060808083015161421c8288018261407b565b505060a08083015161423082880182614038565b505060c08083015161424482880182614071565b505060e0808301516142588288018261407b565b50506101008083015161426d8288018261407b565b505061012082810151908601526101408083015161428d82880182614071565b505061016091820151949091019390935293860193908601906001016141bc565b509098975050505050505050565b901515815260200190565b6000602082526127136020830184614045565b600061018082526142ef61018083018f614045565b90508c60208301528b604083015260ff8b16606083015260ff8a166080830152600160a060020a03891660a083015263ffffffff881660c083015260ff871660e083015260ff861661010083015284610120830152614352610140830185614071565b826101608301529d9c50505050505050505050505050565b60208082526032908201527f4552433732313a207472616e7366657220746f206e6f6e20455243373231526560408201527f63656976657220696d706c656d656e7465720000000000000000000000000000606082015260800190565b6020808252601a908201527f5468697320746f6b656e206973206e6f7420666f722073616c65000000000000604082015260600190565b60208082526026908201527f4f776e61626c653a206e6577206f776e657220697320746865207a65726f206160408201527f6464726573730000000000000000000000000000000000000000000000000000606082015260800190565b6020808252601c908201527f4552433732313a20746f6b656e20616c7265616479206d696e74656400000000604082015260600190565b6020808252600f908201527f4272656564206e6f742072656564790000000000000000000000000000000000604082015260600190565b60208082526024908201527f4552433732313a207472616e7366657220746f20746865207a65726f2061646460408201527f7265737300000000000000000000000000000000000000000000000000000000606082015260800190565b60208082526019908201527f4552433732313a20617070726f766520746f2063616c6c657200000000000000604082015260600190565b6020808252602c908201527f4552433732313a206f70657261746f7220717565727920666f72206e6f6e657860408201527f697374656e7420746f6b656e0000000000000000000000000000000000000000606082015260800190565b60208082526038908201527f4552433732313a20617070726f76652063616c6c6572206973206e6f74206f7760408201527f6e6572206e6f7220617070726f76656420666f7220616c6c0000000000000000606082015260800190565b6020808252602a908201527f4552433732313a2062616c616e636520717565727920666f7220746865207a6560408201527f726f206164647265737300000000000000000000000000000000000000000000606082015260800190565b60208082526029908201527f4552433732313a206f776e657220717565727920666f72206e6f6e657869737460408201527f656e7420746f6b656e0000000000000000000000000000000000000000000000606082015260800190565b602080825260409082018190527f506c65617365207375626d6974207468652061736b696e672070726963652069908201527f6e206f7264657220746f20636f6d706c65746520746865207075726368617365606082015260800190565b6020808252818101527f4552433732313a206d696e7420746f20746865207a65726f2061646472657373604082015260600190565b6020808252602c908201527f4552433732313a20617070726f76656420717565727920666f72206e6f6e657860408201527f697374656e7420746f6b656e0000000000000000000000000000000000000000606082015260800190565b6020808252818101527f4f776e61626c653a2063616c6c6572206973206e6f7420746865206f776e6572604082015260600190565b60208082526029908201527f4552433732313a207472616e73666572206f6620746f6b656e2074686174206960408201527f73206e6f74206f776e0000000000000000000000000000000000000000000000606082015260800190565b6020808252602f908201527f4552433732314d657461646174613a2055524920717565727920666f72206e6f60408201527f6e6578697374656e7420746f6b656e0000000000000000000000000000000000606082015260800190565b60208082526021908201527f4552433732313a20617070726f76616c20746f2063757272656e74206f776e6560408201527f7200000000000000000000000000000000000000000000000000000000000000606082015260800190565b60208082526017908201527f4e6f74206f776e6572206f66207468697320746f6b656e000000000000000000604082015260600190565b60208082526024908201527f5072696365206d75737420626520657175616c20746f206c697374696e67207060408201527f7269636500000000000000000000000000000000000000000000000000000000606082015260800190565b60208082526031908201527f4552433732313a207472616e736665722063616c6c6572206973206e6f74206f60408201527f776e6572206e6f7220617070726f766564000000000000000000000000000000606082015260800190565b6020808252601c908201527f5072696365206d757374206265206174206c6561737420312077656900000000604082015260600190565b90815260200190565b918252602082015260400190565b63ffffffff91909116815260200190565b60008219821115614a7057614a70614c8e565b500190565b600082614a8457614a84614ca7565b500490565b80825b6001808611614a9b5750614ac8565b818704821115614aad57614aad614c8e565b80861615614aba57918102915b506002909404938002614a8c565b94509492505050565b60006127136000198484600082614aea57506001612713565b81614af757506000612713565b8160018114614b0d5760028114614b1757614b44565b6001915050612713565b60ff841115614b2857614b28614c8e565b8360020a915084821115614b3e57614b3e614c8e565b50612713565b5060208310610133831016604e8410600b8410161715614b77575081810a83811115614b7257614b72614c8e565b612713565b614b848484846001614a89565b808604821115614b9657614b96614c8e565b02949350505050565b6000816000190483118215151615614bb957614bb9614c8e565b500290565b600082821015614bd057614bd0614c8e565b500390565b60005b83811015614bf0578181015183820152602001614bd8565b83811115610b775750506000910152565b600281046001821680614c1557607f821691505b60208210811415614c395760e060020a634e487b7102600052602260045260246000fd5b50919050565b6000600019821415614c5357614c53614c8e565b5060010190565b600060ff821660ff811415614c7157614c71614c8e565b60010192915050565b600082614c8957614c89614ca7565b500690565b60e060020a634e487b7102600052601160045260246000fd5b60e060020a634e487b7102600052601260045260246000fd5b60e060020a634e487b7102600052604160045260246000fd5b600160e060020a031981168114612af457600080fdfea2646970667358221220155fbcee4b15d1fe928275c6055aefc36f9290e4ce81360f0c597cef11daa8d264736f6c63430008000033",
  "immutableReferences": {},
  "source": "// SPDX-License-Identifier: MIT\r\n\r\npragma solidity ^0.8.0;\r\n\r\nimport \"@openzeppelin/contracts/token/ERC721/ERC721.sol\";\r\nimport \"@openzeppelin/contracts/access/Ownable.sol\";\r\nimport \"@openzeppelin/contracts/utils/Counters.sol\";\r\n\r\ncontract TruffleFactory is ERC721, Ownable {\r\n    using Counters for Counters.Counter;\r\n    using Strings for uint256;\r\n    Counters.Counter _tokenIds;\r\n\r\n    address public admin;\r\n    uint256 DNA_MOD = 10**16;\r\n    uint256 fee = 0.025 ether;\r\n    uint256 levelUpFee = 0.001 ether;\r\n    uint256 breedFee = 0.01 ether;\r\n    uint256 sellFee = 0.001 ether;\r\n    uint256 randNonce = 0;\r\n    uint256 lostTime = 30 minutes;\r\n    uint256 quantilyLimit;\r\n    uint32[4] public cooldowns = [\r\n        uint32(12 hours),\r\n        uint32(18 hours),\r\n        uint32(24 hours),\r\n        uint32(48 hours)\r\n    ];\r\n\r\n    mapping(uint256 => uint256) public tokenIdToPrice;\r\n    mapping(uint256 => string) _tokenURIs;\r\n\r\n    constructor() ERC721(\"Truffle\", \"TFT\") {\r\n        admin = msg.sender;\r\n    }\r\n\r\n    struct Truffle {\r\n        string name;\r\n        uint256 id;\r\n        uint256 dna;\r\n        uint8 level;\r\n        uint8 rarity;\r\n        address currentOwner;\r\n        uint32 readyTime;\r\n        uint8 dadId;\r\n        uint8 mumId;\r\n        uint256 sell;\r\n        uint32 sellTime;\r\n        uint256 gen0;\r\n    }\r\n\r\n    Truffle[] public truffles;\r\n\r\n    event NewTruffle(address indexed owner, uint256 id, uint256 dna);\r\n    event BuyTruffle(address _seller, address _buyer, uint256 _price);\r\n\r\n    function getFee() public view returns (uint256) {\r\n        return fee;\r\n    }\r\n\r\n    function getleveUpFee() public view returns (uint256) {\r\n        return levelUpFee;\r\n    }\r\n\r\n    function getFeeBreed() public view returns (uint256) {\r\n        return breedFee;\r\n    }\r\n\r\n    function getFeeSell() public view returns (uint256) {\r\n        return sellFee;\r\n    }\r\n\r\n    // function _setTokenURI(uint256 tokenId, string memory _tokenURI) internal {\r\n    //     _tokenURIs[tokenId] = _tokenURI;\r\n    // }\r\n\r\n    function _createRandomDna(string memory _mod)\r\n        internal\r\n        view\r\n        returns (uint256)\r\n    {\r\n        uint256 randomNum = uint256(\r\n            keccak256(abi.encodePacked(block.timestamp, msg.sender, _mod))\r\n        );\r\n        return randomNum % DNA_MOD;\r\n    }\r\n\r\n    function _createTruffle(\r\n        string memory _name,\r\n        uint256 _dna,\r\n        uint8 _dadId,\r\n        uint8 _mumId,\r\n        uint256 _gen0\r\n    ) internal {\r\n        uint8 randRarity = uint8(_dna % 100);\r\n\r\n        uint256 newId = _tokenIds.current();\r\n\r\n        Truffle memory newTruffle = Truffle(\r\n            _name,\r\n            newId,\r\n            _dna,\r\n            0,\r\n            randRarity,\r\n            msg.sender,\r\n            uint32(block.timestamp),\r\n            _dadId,\r\n            _mumId,\r\n            0,\r\n            0,\r\n            _gen0\r\n        );\r\n        truffles.push(newTruffle);\r\n        _safeMint(msg.sender, newId);\r\n        _tokenIds.increment();\r\n\r\n        emit NewTruffle(msg.sender, newId, _dna);\r\n    }\r\n\r\n    function createRandomTruffleFree(string memory _name) public {\r\n        require(msg.sender != address(0));\r\n        uint256 counter = 0;\r\n        for (uint256 i = 0; i < truffles.length; i++) {\r\n            if (ownerOf(i) == msg.sender) {\r\n                counter++;\r\n            }\r\n        }\r\n        require(counter < 2);\r\n        quantilyLimit = _tokenIds.current();\r\n        require(quantilyLimit < 1000);\r\n        uint256 randDna = _createRandomDna(_name);\r\n        uint256 newDna = randDna - (randDna % 100) + randMod(5) + 1;\r\n        _createTruffle(_name, newDna, 0, 0, 0);\r\n    }\r\n\r\n    function createRandomTruffle(string memory _name) public payable {\r\n        require(msg.sender != address(0));\r\n        require(msg.value >= fee);\r\n        quantilyLimit = _tokenIds.current();\r\n        require(quantilyLimit < 1000);\r\n        uint256 randDna = _createRandomDna(_name);\r\n        uint256 newDna = randDna - (randDna % 100) + randMod(20) + 10;\r\n        _createTruffle(_name, newDna, 0, 0, 0);\r\n        payable(admin).transfer(fee);\r\n    }\r\n\r\n    function getTruffle() public view returns (Truffle[] memory) {\r\n        return truffles;\r\n    }\r\n\r\n    function getOwnerTruffles(address _owner)\r\n        public\r\n        view\r\n        returns (Truffle[] memory)\r\n    {\r\n        Truffle[] memory result = new Truffle[](balanceOf(_owner));\r\n        uint256 counter = 0;\r\n        for (uint256 i = 0; i < truffles.length; i++) {\r\n            if (ownerOf(i) == _owner) {\r\n                result[counter] = truffles[i];\r\n                counter++;\r\n            }\r\n        }\r\n        return result;\r\n    }\r\n\r\n    function randMod(uint256 _modulus) internal returns (uint256) {\r\n        randNonce++;\r\n        uint256 randomNum2 = uint256(\r\n            keccak256(abi.encodePacked(block.timestamp, msg.sender, randNonce))\r\n        );\r\n        return randomNum2 % _modulus;\r\n    }\r\n\r\n    function updateFee(uint256 _fee) external onlyOwner {\r\n        fee = _fee;\r\n    }\r\n\r\n    function updateFeeLevelUp(uint256 _feeLevelUp) external onlyOwner {\r\n        levelUpFee = _feeLevelUp;\r\n    }\r\n\r\n    function updateFeeBreed(uint256 _feeBreed) external onlyOwner {\r\n        breedFee = _feeBreed;\r\n    }\r\n\r\n    function updateFeeSell(uint256 _feeSell) external onlyOwner {\r\n        sellFee = _feeSell;\r\n    }\r\n\r\n    function withdraw() external payable onlyOwner {\r\n        address payable _owner = payable(owner());\r\n        _owner.transfer(address(this).balance);\r\n    }\r\n\r\n    modifier aboveLevel(uint256 _level, uint256 _TruffleId) {\r\n        require(truffles[_TruffleId].level >= _level);\r\n        _;\r\n    }\r\n\r\n    function levelUp(uint256 _TruffleId) external payable {\r\n        require(msg.value == levelUpFee);\r\n        require(ownerOf(_TruffleId) == msg.sender);\r\n        Truffle storage truffle = truffles[_TruffleId];\r\n        require(truffle.level < 20);\r\n        require(truffle.sell == 0);\r\n        truffle.level++;\r\n        payable(admin).transfer(levelUpFee);\r\n    }\r\n\r\n    function updateName(uint256 _TruffleId, string calldata _newName)\r\n        external\r\n        aboveLevel(2, _TruffleId)\r\n    {\r\n        require(ownerOf(_TruffleId) == msg.sender);\r\n        Truffle storage truffle = truffles[_TruffleId];\r\n        require(truffle.sell == 0);\r\n        truffles[_TruffleId].name = _newName;\r\n    }\r\n\r\n    function _triggerCooldown(Truffle storage _truffle) internal {\r\n        //hm kich hoat cooldown\r\n        uint8 levels = _truffle.level;\r\n        if (_truffle.gen0 == 0) {\r\n            for (uint8 i = 0; i <= 20; i++) {\r\n                if (i == levels) {\r\n                    _truffle.readyTime = uint32(\r\n                        block.timestamp + cooldowns[0] - (lostTime * i)\r\n                    );\r\n                    break;\r\n                }\r\n            }\r\n        }\r\n        if (_truffle.gen0 > 0 && _truffle.gen0 <= 5) {\r\n            for (uint8 i = 0; i <= 20; i++) {\r\n                if (i == levels) {\r\n                    _truffle.readyTime = uint32(\r\n                        block.timestamp + cooldowns[1] - (lostTime * i)\r\n                    );\r\n                    break;\r\n                }\r\n            }\r\n        }\r\n        if (_truffle.gen0 > 5 && _truffle.gen0 <= 10) {\r\n            for (uint8 i = 0; i <= 20; i++) {\r\n                if (i == levels) {\r\n                    _truffle.readyTime = uint32(\r\n                        block.timestamp + cooldowns[2] - (lostTime * i)\r\n                    );\r\n                    break;\r\n                }\r\n            }\r\n        }\r\n\r\n        if (_truffle.gen0 > 10) {\r\n            for (uint8 i = 0; i <= 20; i++) {\r\n                if (i == levels) {\r\n                    _truffle.readyTime = uint32(\r\n                        block.timestamp + cooldowns[3] - (lostTime * i)\r\n                    );\r\n                    break;\r\n                }\r\n            }\r\n        }\r\n    }\r\n\r\n    function _getTruffleGen(Truffle memory _dadId, Truffle memory _mumId)\r\n        internal\r\n        view\r\n        returns (uint256)\r\n    {\r\n        if (_dadId.gen0 > _mumId.gen0) {\r\n            return _dadId.gen0 += 1;\r\n        }\r\n        return _mumId.gen0 += 1;\r\n    }\r\n\r\n    function _isReady(Truffle storage _truffle) internal view returns (bool) {\r\n        return (_truffle.readyTime <= block.timestamp);\r\n    }\r\n\r\n    function BreedAndMultiply(uint256 _truffleId, uint256 _targetDna)\r\n        public\r\n        payable\r\n    {\r\n        require(msg.value == breedFee);\r\n        Truffle storage myTruffle = truffles[_truffleId];\r\n        Truffle storage myTargetDna = truffles[_targetDna];\r\n        require(_truffleId != _targetDna);\r\n        require(ownerOf(_truffleId) == msg.sender);\r\n        require(ownerOf(_targetDna) == msg.sender);\r\n        require(_isReady(myTruffle));\r\n        require(_isReady(myTargetDna));\r\n        require(myTruffle.sell == 0);\r\n        require(myTargetDna.sell == 0);\r\n\r\n        uint8 dadId = uint8(myTruffle.id);\r\n        uint8 mumId = uint8(myTargetDna.id);\r\n\r\n        uint valueRarity = uint(myTruffle.rarity);\r\n        uint valueRarity2 = uint(myTargetDna.rarity);\r\n        uint valueRarity3 = uint(\r\n            valueRarity +\r\n                randMod(valueRarity) +\r\n                valueRarity2 -\r\n                randMod(valueRarity2)\r\n        ) / 2;\r\n        uint valueRarity4 = uint((valueRarity3 * 15) / 100);\r\n\r\n        uint number = valueRarity % 10;\r\n        uint number2 = valueRarity2 % 10;\r\n        uint newDna;\r\n        uint rand = randMod(100);\r\n        require(valueRarity < 99 && valueRarity2 < 99);\r\n        if (valueRarity <= 60 && valueRarity2 <= 60) {\r\n            if (valueRarity <= 30 && valueRarity2 <= 30) {\r\n                if (rand >= 50) {\r\n                    if (valueRarity >= valueRarity2) {\r\n                        uint algorithm = ((myTruffle.dna + myTargetDna.dna) *\r\n                            (4**number)) / (5**number);\r\n                        newDna =\r\n                            algorithm -\r\n                            (algorithm % 100) +\r\n                            valueRarity +\r\n                            randMod(10);\r\n                    } else {\r\n                        uint algorithm = ((myTruffle.dna + myTargetDna.dna) *\r\n                            (4**number2)) / (5**number2);\r\n                        newDna =\r\n                            algorithm -\r\n                            (algorithm % 100) +\r\n                            valueRarity2 +\r\n                            randMod(10);\r\n                    }\r\n                } else {\r\n                    uint algorithm = ((myTruffle.dna + myTargetDna.dna) *\r\n                        (4**number)) / (5**number);\r\n                    newDna = algorithm - (algorithm % 100) + valueRarity3;\r\n                }\r\n            }\r\n            if (valueRarity > 30 && valueRarity2 > 30) {\r\n                if (rand >= 55) {\r\n                    if (valueRarity >= valueRarity2) {\r\n                        uint algorithm = ((myTruffle.dna + myTargetDna.dna) *\r\n                            (4**number)) / (5**number);\r\n                        newDna =\r\n                            algorithm -\r\n                            (algorithm % 100) +\r\n                            valueRarity +\r\n                            randMod(10);\r\n                    } else {\r\n                        uint algorithm = ((myTruffle.dna + myTargetDna.dna) *\r\n                            (4**number2)) / (5**number2);\r\n                        newDna =\r\n                            algorithm -\r\n                            (algorithm % 100) +\r\n                            valueRarity2 +\r\n                            randMod(10);\r\n                    }\r\n                } else {\r\n                    uint algorithm = ((myTruffle.dna + myTargetDna.dna) *\r\n                        (4**number)) / (5**number);\r\n                    newDna =\r\n                        algorithm -\r\n                        (algorithm % 100) +\r\n                        valueRarity3 +\r\n                        valueRarity4;\r\n                }\r\n            } else {\r\n                if (rand >= 60) {\r\n                    if (valueRarity >= valueRarity2) {\r\n                        uint algorithm = ((myTruffle.dna + myTargetDna.dna) *\r\n                            (4**number)) / (5**number);\r\n                        newDna =\r\n                            algorithm -\r\n                            (algorithm % 100) +\r\n                            valueRarity +\r\n                            randMod(10);\r\n                    } else {\r\n                        uint algorithm = ((myTruffle.dna + myTargetDna.dna) *\r\n                            (4**number2)) / (5**number2);\r\n                        newDna =\r\n                            algorithm -\r\n                            (algorithm % 100) +\r\n                            valueRarity2 +\r\n                            randMod(10);\r\n                    }\r\n                } else {\r\n                    uint algorithm = ((myTruffle.dna + myTargetDna.dna) *\r\n                        (4**number)) / (5**number);\r\n                    newDna =\r\n                        algorithm -\r\n                        (algorithm % 100) +\r\n                        valueRarity3 +\r\n                        valueRarity4;\r\n                }\r\n            }\r\n        }\r\n        if (valueRarity > 60 && valueRarity2 > 60) {\r\n            if (rand >= 70) {\r\n                if (valueRarity >= valueRarity2) {\r\n                    uint algorithm = ((myTruffle.dna + myTargetDna.dna) *\r\n                        (4**number)) / (5**number);\r\n                    newDna =\r\n                        algorithm -\r\n                        (algorithm % 100) +\r\n                        valueRarity +\r\n                        randMod(8);\r\n                } else {\r\n                    uint algorithm = ((myTruffle.dna + myTargetDna.dna) *\r\n                        (4**number2)) / (5**number2);\r\n                    newDna =\r\n                        algorithm -\r\n                        (algorithm % 100) +\r\n                        valueRarity2 +\r\n                        randMod(8);\r\n                }\r\n            } else {\r\n                uint algorithm = ((myTruffle.dna + myTargetDna.dna) *\r\n                    (4**number)) / (5**number);\r\n                newDna = algorithm - (algorithm % 100) + valueRarity3;\r\n            }\r\n        }\r\n        if (valueRarity > 60 && valueRarity2 <= 60) {\r\n            if (rand >= 80) {\r\n                uint algorithm = ((myTruffle.dna + myTargetDna.dna) *\r\n                    (4**number)) / (5**number);\r\n                newDna =\r\n                    algorithm -\r\n                    (algorithm % 100) +\r\n                    valueRarity +\r\n                    randMod(7);\r\n            } else {\r\n                uint algorithm = ((myTruffle.dna + myTargetDna.dna) *\r\n                    (4**number)) / (5**number);\r\n                newDna = algorithm - (algorithm % 100) + valueRarity3;\r\n            }\r\n        }\r\n        if (valueRarity <= 60 && valueRarity2 > 60) {\r\n            if (rand >= 80) {\r\n                uint algorithm = ((myTruffle.dna + myTargetDna.dna) *\r\n                    (4**number2)) / (5**number2);\r\n                newDna =\r\n                    algorithm -\r\n                    (algorithm % 100) +\r\n                    valueRarity2 +\r\n                    randMod(7);\r\n            } else {\r\n                uint algorithm = ((myTruffle.dna + myTargetDna.dna) *\r\n                    (4**number2)) / (5**number2);\r\n                newDna = algorithm - (algorithm % 100) + valueRarity3;\r\n            }\r\n        }\r\n        uint256 newGen = _getTruffleGen(myTruffle, myTargetDna);\r\n\r\n        _createTruffle(\"New Truffle\", newDna, dadId, mumId, newGen);\r\n        _triggerCooldown(myTruffle);\r\n        _triggerCooldown(myTargetDna);\r\n        payable(admin).transfer(breedFee);\r\n    }\r\n\r\n    function GiftToken(\r\n        address _from,\r\n        address _to,\r\n        uint256 _tokenId\r\n    ) external {\r\n        _transfer(_from, _to, _tokenId);\r\n        tokenIdToPrice[_tokenId] = 0; // not for sale anymore\r\n        Truffle storage myTruffle = truffles[_tokenId];\r\n        myTruffle.sell = 0;\r\n        myTruffle.sellTime = 0;\r\n        // update the token's previous owner\r\n        // update the token's current owner\r\n        myTruffle.currentOwner = _to;\r\n    }\r\n\r\n    function allowBuy(uint256 _tokenId, uint256 _price) external payable {\r\n        require(msg.sender == ownerOf(_tokenId), \"Not owner of this token\");\r\n        require(msg.value >= sellFee, \"Price must be equal to listing price\");\r\n        require(_price > 0, \"Price must be at least 1 wei\");\r\n        Truffle storage myTokenID = truffles[_tokenId];\r\n        require(_isReady(myTokenID), \"Breed not reedy\");\r\n        tokenIdToPrice[_tokenId] = _price;\r\n        Truffle storage myTruffle = truffles[_tokenId];\r\n        myTruffle.sell = _price;\r\n        myTruffle.sellTime = uint32(block.timestamp);\r\n    }\r\n\r\n    function disallowBuy(uint256 _tokenId) external {\r\n        require(msg.sender == ownerOf(_tokenId), \"Not owner of this token\");\r\n        tokenIdToPrice[_tokenId] = 0;\r\n        Truffle storage myTruffle = truffles[_tokenId];\r\n        myTruffle.sell = 0;\r\n        myTruffle.sellTime = 0;\r\n    }\r\n\r\n    function buy(uint256 _tokenId) external payable {\r\n        uint256 price = tokenIdToPrice[_tokenId];\r\n        require(price > 0, \"This token is not for sale\");\r\n        require(\r\n            msg.value == price,\r\n            \"Please submit the asking price in order to complete the purchase\"\r\n        );\r\n\r\n        address seller = ownerOf(_tokenId);\r\n\r\n        _transfer(seller, msg.sender, _tokenId);\r\n        tokenIdToPrice[_tokenId] = 0; // not for sale anymore\r\n        Truffle storage myTruffle = truffles[_tokenId];\r\n        myTruffle.sell = 0;\r\n        myTruffle.sellTime = 0;\r\n        payable(seller).transfer(msg.value); // send the ETH to the seller\r\n        payable(admin).transfer(sellFee);\r\n        // update the token's current owner\r\n        myTruffle.currentOwner = msg.sender;\r\n\r\n        emit BuyTruffle(seller, msg.sender, msg.value);\r\n    }\r\n\r\n    function changePrice(uint256 _tokenId, uint256 _newPrice) external {\r\n        require(_exists(_tokenId));\r\n        require(_newPrice > 0, \"Price must be at least 1 wei\");\r\n        address seller = ownerOf(_tokenId);\r\n        require(seller == msg.sender);\r\n        tokenIdToPrice[_tokenId] = _newPrice;\r\n        Truffle storage myTruffle = truffles[_tokenId];\r\n        myTruffle.sell = _newPrice;\r\n        myTruffle.sellTime = uint32(block.timestamp);\r\n    }\r\n\r\n    function getAllTruffleSell() public view returns (Truffle[] memory) {\r\n        uint256 counter = 0;\r\n        uint256 itemCount = 0;\r\n        for (uint256 i = 0; i < truffles.length; i++) {\r\n            if (truffles[i].sell > 0) {\r\n                itemCount += 1;\r\n            }\r\n        }\r\n        Truffle[] memory truffleSell = new Truffle[](itemCount);\r\n        for (uint256 i = 0; i < truffles.length; i++) {\r\n            if (truffles[i].sell > 0) {\r\n                truffleSell[counter] = truffles[i];\r\n                counter++;\r\n            }\r\n        }\r\n        return truffleSell;\r\n    }\r\n\r\n    // function getOwnerTrufflesSell(address _owner) public view returns (Truffle[] memory) {\r\n    //     uint256 counter = 0;\r\n    //     uint itemCount = 0;\r\n    //     for (uint i = 0; i < truffles.length; i++) {\r\n    //       if (ownerOf(i) == _owner && truffles[i].sell > 0) {\r\n    //             itemCount += 1;\r\n    //         }\r\n    //     }\r\n    //     Truffle[] memory result = new Truffle[](itemCount);\r\n    //     for (uint256 i = 0; i < truffles.length; i++) {\r\n    //         if (ownerOf(i) == _owner && truffles[i].sell > 0) {\r\n    //             result[counter] = truffles[i];\r\n    //             counter++;\r\n    //         }\r\n    //     }\r\n    //     return result;\r\n    // }\r\n\r\n    function dailyMission(uint256 _tokenId) external {\r\n        require(msg.sender == ownerOf(_tokenId), \"Not owner of this token\");\r\n        Truffle storage myTruffle = truffles[_tokenId];\r\n        require(myTruffle.level < 20);\r\n        require(myTruffle.sell == 0);\r\n        require(_isReady(myTruffle));\r\n        uint8 valueRarity = uint8(myTruffle.dna % 100);\r\n        uint256 rand = randMod(100);\r\n        if (valueRarity <= 10) {\r\n            if (rand <= 20) myTruffle.level++;\r\n        } else if (valueRarity > 10 && valueRarity <= 30) {\r\n            if (rand <= 35) myTruffle.level++;\r\n        } else if (valueRarity > 30 && valueRarity <= 50) {\r\n            if (rand <= 40) myTruffle.level++;\r\n        } else if (valueRarity > 50 && valueRarity <= 70) {\r\n            if (rand <= 45) myTruffle.level++;\r\n        } else if (valueRarity > 70 && valueRarity <= 90) {\r\n            if (rand <= 60) myTruffle.level++;\r\n        } else if (valueRarity > 90) {\r\n            if (rand <= 70) myTruffle.level++;\r\n        }\r\n\r\n        myTruffle.readyTime = uint32(block.timestamp + 1 days);\r\n    }\r\n}\r\n",
  "sourcePath": "C:\\Users\\XuanVinh\\OneDrive\\My tnh\\project-game-truffle-dapp\\contracts\\TruffleFactory.sol",
  "compiler": {
    "name": "solc",
    "version": "0.8.0+commit.c7dfd78e.Emscripten.clang"
  },
  "schemaVersion": "3.4.3",
  "updatedAt": "2022-01-04T16:22:59.489Z",
  "networkType": "ethereum",
  "devdoc": {
    "kind": "dev",
    "methods": {
      "approve(address,uint256)": {
        "details": "See {IERC721-approve}."
      },
      "balanceOf(address)": {
        "details": "See {IERC721-balanceOf}."
      },
      "getApproved(uint256)": {
        "details": "See {IERC721-getApproved}."
      },
      "isApprovedForAll(address,address)": {
        "details": "See {IERC721-isApprovedForAll}."
      },
      "name()": {
        "details": "See {IERC721Metadata-name}."
      },
      "owner()": {
        "details": "Returns the address of the current owner."
      },
      "ownerOf(uint256)": {
        "details": "See {IERC721-ownerOf}."
      },
      "renounceOwnership()": {
        "details": "Leaves the contract without owner. It will not be possible to call `onlyOwner` functions anymore. Can only be called by the current owner. NOTE: Renouncing ownership will leave the contract without an owner, thereby removing any functionality that is only available to the owner."
      },
      "safeTransferFrom(address,address,uint256)": {
        "details": "See {IERC721-safeTransferFrom}."
      },
      "safeTransferFrom(address,address,uint256,bytes)": {
        "details": "See {IERC721-safeTransferFrom}."
      },
      "setApprovalForAll(address,bool)": {
        "details": "See {IERC721-setApprovalForAll}."
      },
      "supportsInterface(bytes4)": {
        "details": "See {IERC165-supportsInterface}."
      },
      "symbol()": {
        "details": "See {IERC721Metadata-symbol}."
      },
      "tokenURI(uint256)": {
        "details": "See {IERC721Metadata-tokenURI}."
      },
      "transferFrom(address,address,uint256)": {
        "details": "See {IERC721-transferFrom}."
      },
      "transferOwnership(address)": {
        "details": "Transfers ownership of the contract to a new account (`newOwner`). Can only be called by the current owner."
      }
    },
    "version": 1
  },
  "userdoc": {
    "kind": "user",
    "methods": {},
    "version": 1
  }
}