{
  "contractName": "TruffleFactory",
  "abi": [
    {
      "inputs": [],
      "stateMutability": "nonpayable",
      "type": "constructor"
    },
    {
      "anonymous": false,
      "inputs": [
        {
          "indexed": true,
          "internalType": "address",
          "name": "owner",
          "type": "address"
        },
        {
          "indexed": true,
          "internalType": "address",
          "name": "approved",
          "type": "address"
        },
        {
          "indexed": true,
          "internalType": "uint256",
          "name": "tokenId",
          "type": "uint256"
        }
      ],
      "name": "Approval",
      "type": "event"
    },
    {
      "anonymous": false,
      "inputs": [
        {
          "indexed": true,
          "internalType": "address",
          "name": "owner",
          "type": "address"
        },
        {
          "indexed": true,
          "internalType": "address",
          "name": "operator",
          "type": "address"
        },
        {
          "indexed": false,
          "internalType": "bool",
          "name": "approved",
          "type": "bool"
        }
      ],
      "name": "ApprovalForAll",
      "type": "event"
    },
    {
      "anonymous": false,
      "inputs": [
        {
          "indexed": false,
          "internalType": "address",
          "name": "_seller",
          "type": "address"
        },
        {
          "indexed": false,
          "internalType": "address",
          "name": "_buyer",
          "type": "address"
        },
        {
          "indexed": false,
          "internalType": "uint256",
          "name": "_price",
          "type": "uint256"
        }
      ],
      "name": "BuyTruffle",
      "type": "event"
    },
    {
      "anonymous": false,
      "inputs": [
        {
          "indexed": true,
          "internalType": "address",
          "name": "owner",
          "type": "address"
        },
        {
          "indexed": false,
          "internalType": "uint256",
          "name": "id",
          "type": "uint256"
        },
        {
          "indexed": false,
          "internalType": "uint256",
          "name": "dna",
          "type": "uint256"
        }
      ],
      "name": "NewTruffle",
      "type": "event"
    },
    {
      "anonymous": false,
      "inputs": [
        {
          "indexed": true,
          "internalType": "address",
          "name": "previousOwner",
          "type": "address"
        },
        {
          "indexed": true,
          "internalType": "address",
          "name": "newOwner",
          "type": "address"
        }
      ],
      "name": "OwnershipTransferred",
      "type": "event"
    },
    {
      "anonymous": false,
      "inputs": [
        {
          "indexed": true,
          "internalType": "address",
          "name": "from",
          "type": "address"
        },
        {
          "indexed": true,
          "internalType": "address",
          "name": "to",
          "type": "address"
        },
        {
          "indexed": true,
          "internalType": "uint256",
          "name": "tokenId",
          "type": "uint256"
        }
      ],
      "name": "Transfer",
      "type": "event"
    },
    {
      "inputs": [],
      "name": "admin",
      "outputs": [
        {
          "internalType": "address",
          "name": "",
          "type": "address"
        }
      ],
      "stateMutability": "view",
      "type": "function",
      "constant": true
    },
    {
      "inputs": [
        {
          "internalType": "address",
          "name": "to",
          "type": "address"
        },
        {
          "internalType": "uint256",
          "name": "tokenId",
          "type": "uint256"
        }
      ],
      "name": "approve",
      "outputs": [],
      "stateMutability": "nonpayable",
      "type": "function"
    },
    {
      "inputs": [
        {
          "internalType": "address",
          "name": "owner",
          "type": "address"
        }
      ],
      "name": "balanceOf",
      "outputs": [
        {
          "internalType": "uint256",
          "name": "",
          "type": "uint256"
        }
      ],
      "stateMutability": "view",
      "type": "function",
      "constant": true
    },
    {
      "inputs": [
        {
          "internalType": "uint256",
          "name": "",
          "type": "uint256"
        }
      ],
      "name": "cooldowns",
      "outputs": [
        {
          "internalType": "uint32",
          "name": "",
          "type": "uint32"
        }
      ],
      "stateMutability": "view",
      "type": "function",
      "constant": true
    },
    {
      "inputs": [
        {
          "internalType": "uint256",
          "name": "tokenId",
          "type": "uint256"
        }
      ],
      "name": "getApproved",
      "outputs": [
        {
          "internalType": "address",
          "name": "",
          "type": "address"
        }
      ],
      "stateMutability": "view",
      "type": "function",
      "constant": true
    },
    {
      "inputs": [
        {
          "internalType": "address",
          "name": "owner",
          "type": "address"
        },
        {
          "internalType": "address",
          "name": "operator",
          "type": "address"
        }
      ],
      "name": "isApprovedForAll",
      "outputs": [
        {
          "internalType": "bool",
          "name": "",
          "type": "bool"
        }
      ],
      "stateMutability": "view",
      "type": "function",
      "constant": true
    },
    {
      "inputs": [],
      "name": "name",
      "outputs": [
        {
          "internalType": "string",
          "name": "",
          "type": "string"
        }
      ],
      "stateMutability": "view",
      "type": "function",
      "constant": true
    },
    {
      "inputs": [],
      "name": "owner",
      "outputs": [
        {
          "internalType": "address",
          "name": "",
          "type": "address"
        }
      ],
      "stateMutability": "view",
      "type": "function",
      "constant": true
    },
    {
      "inputs": [
        {
          "internalType": "uint256",
          "name": "tokenId",
          "type": "uint256"
        }
      ],
      "name": "ownerOf",
      "outputs": [
        {
          "internalType": "address",
          "name": "",
          "type": "address"
        }
      ],
      "stateMutability": "view",
      "type": "function",
      "constant": true
    },
    {
      "inputs": [],
      "name": "renounceOwnership",
      "outputs": [],
      "stateMutability": "nonpayable",
      "type": "function"
    },
    {
      "inputs": [
        {
          "internalType": "address",
          "name": "from",
          "type": "address"
        },
        {
          "internalType": "address",
          "name": "to",
          "type": "address"
        },
        {
          "internalType": "uint256",
          "name": "tokenId",
          "type": "uint256"
        }
      ],
      "name": "safeTransferFrom",
      "outputs": [],
      "stateMutability": "nonpayable",
      "type": "function"
    },
    {
      "inputs": [
        {
          "internalType": "address",
          "name": "from",
          "type": "address"
        },
        {
          "internalType": "address",
          "name": "to",
          "type": "address"
        },
        {
          "internalType": "uint256",
          "name": "tokenId",
          "type": "uint256"
        },
        {
          "internalType": "bytes",
          "name": "_data",
          "type": "bytes"
        }
      ],
      "name": "safeTransferFrom",
      "outputs": [],
      "stateMutability": "nonpayable",
      "type": "function"
    },
    {
      "inputs": [
        {
          "internalType": "address",
          "name": "operator",
          "type": "address"
        },
        {
          "internalType": "bool",
          "name": "approved",
          "type": "bool"
        }
      ],
      "name": "setApprovalForAll",
      "outputs": [],
      "stateMutability": "nonpayable",
      "type": "function"
    },
    {
      "inputs": [
        {
          "internalType": "bytes4",
          "name": "interfaceId",
          "type": "bytes4"
        }
      ],
      "name": "supportsInterface",
      "outputs": [
        {
          "internalType": "bool",
          "name": "",
          "type": "bool"
        }
      ],
      "stateMutability": "view",
      "type": "function",
      "constant": true
    },
    {
      "inputs": [],
      "name": "symbol",
      "outputs": [
        {
          "internalType": "string",
          "name": "",
          "type": "string"
        }
      ],
      "stateMutability": "view",
      "type": "function",
      "constant": true
    },
    {
      "inputs": [
        {
          "internalType": "uint256",
          "name": "",
          "type": "uint256"
        }
      ],
      "name": "tokenIdToPrice",
      "outputs": [
        {
          "internalType": "uint256",
          "name": "",
          "type": "uint256"
        }
      ],
      "stateMutability": "view",
      "type": "function",
      "constant": true
    },
    {
      "inputs": [
        {
          "internalType": "uint256",
          "name": "tokenId",
          "type": "uint256"
        }
      ],
      "name": "tokenURI",
      "outputs": [
        {
          "internalType": "string",
          "name": "",
          "type": "string"
        }
      ],
      "stateMutability": "view",
      "type": "function",
      "constant": true
    },
    {
      "inputs": [
        {
          "internalType": "address",
          "name": "from",
          "type": "address"
        },
        {
          "internalType": "address",
          "name": "to",
          "type": "address"
        },
        {
          "internalType": "uint256",
          "name": "tokenId",
          "type": "uint256"
        }
      ],
      "name": "transferFrom",
      "outputs": [],
      "stateMutability": "nonpayable",
      "type": "function"
    },
    {
      "inputs": [
        {
          "internalType": "address",
          "name": "newOwner",
          "type": "address"
        }
      ],
      "name": "transferOwnership",
      "outputs": [],
      "stateMutability": "nonpayable",
      "type": "function"
    },
    {
      "inputs": [
        {
          "internalType": "uint256",
          "name": "",
          "type": "uint256"
        }
      ],
      "name": "truffles",
      "outputs": [
        {
          "internalType": "string",
          "name": "name",
          "type": "string"
        },
        {
          "internalType": "uint256",
          "name": "id",
          "type": "uint256"
        },
        {
          "internalType": "uint256",
          "name": "dna",
          "type": "uint256"
        },
        {
          "internalType": "uint8",
          "name": "level",
          "type": "uint8"
        },
        {
          "internalType": "uint8",
          "name": "rarity",
          "type": "uint8"
        },
        {
          "internalType": "address",
          "name": "currentOwner",
          "type": "address"
        },
        {
          "internalType": "uint32",
          "name": "readyTime",
          "type": "uint32"
        },
        {
          "internalType": "uint8",
          "name": "dadId",
          "type": "uint8"
        },
        {
          "internalType": "uint8",
          "name": "mumId",
          "type": "uint8"
        },
        {
          "internalType": "uint256",
          "name": "sell",
          "type": "uint256"
        },
        {
          "internalType": "uint32",
          "name": "sellTime",
          "type": "uint32"
        },
        {
          "internalType": "uint256",
          "name": "gen0",
          "type": "uint256"
        }
      ],
      "stateMutability": "view",
      "type": "function",
      "constant": true
    },
    {
      "inputs": [],
      "name": "getFee",
      "outputs": [
        {
          "internalType": "uint256",
          "name": "",
          "type": "uint256"
        }
      ],
      "stateMutability": "view",
      "type": "function",
      "constant": true
    },
    {
      "inputs": [],
      "name": "getleveUpFee",
      "outputs": [
        {
          "internalType": "uint256",
          "name": "",
          "type": "uint256"
        }
      ],
      "stateMutability": "view",
      "type": "function",
      "constant": true
    },
    {
      "inputs": [],
      "name": "getFeeBreed",
      "outputs": [
        {
          "internalType": "uint256",
          "name": "",
          "type": "uint256"
        }
      ],
      "stateMutability": "view",
      "type": "function",
      "constant": true
    },
    {
      "inputs": [],
      "name": "getFeeSell",
      "outputs": [
        {
          "internalType": "uint256",
          "name": "",
          "type": "uint256"
        }
      ],
      "stateMutability": "view",
      "type": "function",
      "constant": true
    },
    {
      "inputs": [
        {
          "internalType": "string",
          "name": "_name",
          "type": "string"
        }
      ],
      "name": "createRandomTruffleFree",
      "outputs": [],
      "stateMutability": "payable",
      "type": "function",
      "payable": true
    },
    {
      "inputs": [
        {
          "internalType": "string",
          "name": "_name",
          "type": "string"
        }
      ],
      "name": "createRandomTruffle",
      "outputs": [],
      "stateMutability": "payable",
      "type": "function",
      "payable": true
    },
    {
      "inputs": [],
      "name": "getTruffle",
      "outputs": [
        {
          "components": [
            {
              "internalType": "string",
              "name": "name",
              "type": "string"
            },
            {
              "internalType": "uint256",
              "name": "id",
              "type": "uint256"
            },
            {
              "internalType": "uint256",
              "name": "dna",
              "type": "uint256"
            },
            {
              "internalType": "uint8",
              "name": "level",
              "type": "uint8"
            },
            {
              "internalType": "uint8",
              "name": "rarity",
              "type": "uint8"
            },
            {
              "internalType": "address",
              "name": "currentOwner",
              "type": "address"
            },
            {
              "internalType": "uint32",
              "name": "readyTime",
              "type": "uint32"
            },
            {
              "internalType": "uint8",
              "name": "dadId",
              "type": "uint8"
            },
            {
              "internalType": "uint8",
              "name": "mumId",
              "type": "uint8"
            },
            {
              "internalType": "uint256",
              "name": "sell",
              "type": "uint256"
            },
            {
              "internalType": "uint32",
              "name": "sellTime",
              "type": "uint32"
            },
            {
              "internalType": "uint256",
              "name": "gen0",
              "type": "uint256"
            }
          ],
          "internalType": "struct TruffleFactory.Truffle[]",
          "name": "",
          "type": "tuple[]"
        }
      ],
      "stateMutability": "view",
      "type": "function",
      "constant": true
    },
    {
      "inputs": [
        {
          "internalType": "address",
          "name": "_owner",
          "type": "address"
        }
      ],
      "name": "getOwnerTruffles",
      "outputs": [
        {
          "components": [
            {
              "internalType": "string",
              "name": "name",
              "type": "string"
            },
            {
              "internalType": "uint256",
              "name": "id",
              "type": "uint256"
            },
            {
              "internalType": "uint256",
              "name": "dna",
              "type": "uint256"
            },
            {
              "internalType": "uint8",
              "name": "level",
              "type": "uint8"
            },
            {
              "internalType": "uint8",
              "name": "rarity",
              "type": "uint8"
            },
            {
              "internalType": "address",
              "name": "currentOwner",
              "type": "address"
            },
            {
              "internalType": "uint32",
              "name": "readyTime",
              "type": "uint32"
            },
            {
              "internalType": "uint8",
              "name": "dadId",
              "type": "uint8"
            },
            {
              "internalType": "uint8",
              "name": "mumId",
              "type": "uint8"
            },
            {
              "internalType": "uint256",
              "name": "sell",
              "type": "uint256"
            },
            {
              "internalType": "uint32",
              "name": "sellTime",
              "type": "uint32"
            },
            {
              "internalType": "uint256",
              "name": "gen0",
              "type": "uint256"
            }
          ],
          "internalType": "struct TruffleFactory.Truffle[]",
          "name": "",
          "type": "tuple[]"
        }
      ],
      "stateMutability": "view",
      "type": "function",
      "constant": true
    },
    {
      "inputs": [
        {
          "internalType": "uint256",
          "name": "_fee",
          "type": "uint256"
        }
      ],
      "name": "updateFee",
      "outputs": [],
      "stateMutability": "nonpayable",
      "type": "function"
    },
    {
      "inputs": [
        {
          "internalType": "uint256",
          "name": "_feeLevelUp",
          "type": "uint256"
        }
      ],
      "name": "updateFeeLevelUp",
      "outputs": [],
      "stateMutability": "nonpayable",
      "type": "function"
    },
    {
      "inputs": [
        {
          "internalType": "uint256",
          "name": "_feeBreed",
          "type": "uint256"
        }
      ],
      "name": "updateFeeBreed",
      "outputs": [],
      "stateMutability": "nonpayable",
      "type": "function"
    },
    {
      "inputs": [
        {
          "internalType": "uint256",
          "name": "_feeSell",
          "type": "uint256"
        }
      ],
      "name": "updateFeeSell",
      "outputs": [],
      "stateMutability": "nonpayable",
      "type": "function"
    },
    {
      "inputs": [],
      "name": "withdraw",
      "outputs": [],
      "stateMutability": "payable",
      "type": "function",
      "payable": true
    },
    {
      "inputs": [
        {
          "internalType": "uint256",
          "name": "_TruffleId",
          "type": "uint256"
        }
      ],
      "name": "levelUp",
      "outputs": [],
      "stateMutability": "payable",
      "type": "function",
      "payable": true
    },
    {
      "inputs": [
        {
          "internalType": "uint256",
          "name": "_TruffleId",
          "type": "uint256"
        },
        {
          "internalType": "string",
          "name": "_newName",
          "type": "string"
        }
      ],
      "name": "updateName",
      "outputs": [],
      "stateMutability": "nonpayable",
      "type": "function"
    },
    {
      "inputs": [
        {
          "internalType": "uint256",
          "name": "_truffleId",
          "type": "uint256"
        },
        {
          "internalType": "uint256",
          "name": "_targetDna",
          "type": "uint256"
        }
      ],
      "name": "BreedAndMultiply",
      "outputs": [],
      "stateMutability": "payable",
      "type": "function",
      "payable": true
    },
    {
      "inputs": [
        {
          "internalType": "address",
          "name": "_from",
          "type": "address"
        },
        {
          "internalType": "address",
          "name": "_to",
          "type": "address"
        },
        {
          "internalType": "uint256",
          "name": "_tokenId",
          "type": "uint256"
        }
      ],
      "name": "GiftToken",
      "outputs": [],
      "stateMutability": "nonpayable",
      "type": "function"
    },
    {
      "inputs": [
        {
          "internalType": "uint256",
          "name": "_tokenId",
          "type": "uint256"
        },
        {
          "internalType": "uint256",
          "name": "_price",
          "type": "uint256"
        }
      ],
      "name": "allowBuy",
      "outputs": [],
      "stateMutability": "payable",
      "type": "function",
      "payable": true
    },
    {
      "inputs": [
        {
          "internalType": "uint256",
          "name": "_tokenId",
          "type": "uint256"
        }
      ],
      "name": "disallowBuy",
      "outputs": [],
      "stateMutability": "nonpayable",
      "type": "function"
    },
    {
      "inputs": [
        {
          "internalType": "uint256",
          "name": "_tokenId",
          "type": "uint256"
        }
      ],
      "name": "buy",
      "outputs": [],
      "stateMutability": "payable",
      "type": "function",
      "payable": true
    },
    {
      "inputs": [
        {
          "internalType": "uint256",
          "name": "_tokenId",
          "type": "uint256"
        },
        {
          "internalType": "uint256",
          "name": "_newPrice",
          "type": "uint256"
        }
      ],
      "name": "changePrice",
      "outputs": [],
      "stateMutability": "nonpayable",
      "type": "function"
    },
    {
      "inputs": [],
      "name": "getAllTruffleSell",
      "outputs": [
        {
          "components": [
            {
              "internalType": "string",
              "name": "name",
              "type": "string"
            },
            {
              "internalType": "uint256",
              "name": "id",
              "type": "uint256"
            },
            {
              "internalType": "uint256",
              "name": "dna",
              "type": "uint256"
            },
            {
              "internalType": "uint8",
              "name": "level",
              "type": "uint8"
            },
            {
              "internalType": "uint8",
              "name": "rarity",
              "type": "uint8"
            },
            {
              "internalType": "address",
              "name": "currentOwner",
              "type": "address"
            },
            {
              "internalType": "uint32",
              "name": "readyTime",
              "type": "uint32"
            },
            {
              "internalType": "uint8",
              "name": "dadId",
              "type": "uint8"
            },
            {
              "internalType": "uint8",
              "name": "mumId",
              "type": "uint8"
            },
            {
              "internalType": "uint256",
              "name": "sell",
              "type": "uint256"
            },
            {
              "internalType": "uint32",
              "name": "sellTime",
              "type": "uint32"
            },
            {
              "internalType": "uint256",
              "name": "gen0",
              "type": "uint256"
            }
          ],
          "internalType": "struct TruffleFactory.Truffle[]",
          "name": "",
          "type": "tuple[]"
        }
      ],
      "stateMutability": "view",
      "type": "function",
      "constant": true
    },
    {
      "inputs": [
        {
          "internalType": "address",
          "name": "_owner",
          "type": "address"
        }
      ],
      "name": "getOwnerTrufflesSell",
      "outputs": [
        {
          "components": [
            {
              "internalType": "string",
              "name": "name",
              "type": "string"
            },
            {
              "internalType": "uint256",
              "name": "id",
              "type": "uint256"
            },
            {
              "internalType": "uint256",
              "name": "dna",
              "type": "uint256"
            },
            {
              "internalType": "uint8",
              "name": "level",
              "type": "uint8"
            },
            {
              "internalType": "uint8",
              "name": "rarity",
              "type": "uint8"
            },
            {
              "internalType": "address",
              "name": "currentOwner",
              "type": "address"
            },
            {
              "internalType": "uint32",
              "name": "readyTime",
              "type": "uint32"
            },
            {
              "internalType": "uint8",
              "name": "dadId",
              "type": "uint8"
            },
            {
              "internalType": "uint8",
              "name": "mumId",
              "type": "uint8"
            },
            {
              "internalType": "uint256",
              "name": "sell",
              "type": "uint256"
            },
            {
              "internalType": "uint32",
              "name": "sellTime",
              "type": "uint32"
            },
            {
              "internalType": "uint256",
              "name": "gen0",
              "type": "uint256"
            }
          ],
          "internalType": "struct TruffleFactory.Truffle[]",
          "name": "",
          "type": "tuple[]"
        }
      ],
      "stateMutability": "view",
      "type": "function",
      "constant": true
    },
    {
      "inputs": [
        {
          "internalType": "uint256",
          "name": "_tokenId",
          "type": "uint256"
        }
      ],
      "name": "dailyMission",
      "outputs": [],
      "stateMutability": "nonpayable",
      "type": "function"
    }
  ],
  "bytecode": "0x662386f26fc1000060098190556658d15e17628000600a5566038d7ea4c68000600b819055600c91909155600d556000600e55610708600f55610100604052617080608090815261a8c060a0526201518060c0526202a30060e0526200006a906011906004620001a6565b503480156200007857600080fd5b50604080518082018252600781527f54727566666c650000000000000000000000000000000000000000000000000060208083019182528351808501909452600384527f5446540000000000000000000000000000000000000000000000000000000000908401528151919291620000f39160009162000249565b5080516200010990600190602084019062000249565b505050620001386200012962000150640100000000026401000000009004565b64010000000062000154810204565b60088054600160a060020a0319163317905562000333565b3390565b60068054600160a060020a03838116600160a060020a0319831681179093556040519116919082907f8be0079c531659141344cd1fd0a4f28419497f9722a3daafe3b4186f6b6457e090600090a35050565b600183019183908215620002375791602002820160005b838211156200020357835183826101000a81548163ffffffff021916908363ffffffff1602179055509260200192600401602081600301049283019260010302620001bd565b8015620002355782816101000a81549063ffffffff021916905560040160208160030104928301926001030262000203565b505b5062000245929150620002c6565b5090565b8280546200025790620002dd565b90600052602060002090601f0160209004810192826200027b576000855562000237565b82601f106200029657805160ff191683800117855562000237565b8280016001018555821562000237579182015b8281111562000237578251825591602001919060010190620002a9565b5b80821115620002455760008155600101620002c7565b600281046001821680620002f257607f821691505b602082108114156200032d577f4e487b7100000000000000000000000000000000000000000000000000000000600052602260045260246000fd5b50919050565b61525280620003436000396000f3fe608060405260043610610284576000357c010000000000000000000000000000000000000000000000000000000090048063962a8ba311610161578063ced72f87116100d3578063e985e9c511610097578063e985e9c5146106f3578063f2fde38b14610713578063f4812eb914610733578063f628d6d114610753578063f851a44014610773578063ff5df90a1461078857610284565b8063ced72f871461066b578063d499131214610680578063d96a094a146106a0578063deb4022f146106b3578063e41296a7146106d357610284565b8063a22cb46511610125578063a22cb465146105c3578063b1569412146105e3578063b3de019c146105f8578063b88d4fde14610618578063bbb5e8d314610638578063c87b56dd1461064b57610284565b8063962a8ba3146105395780639d678a9c1461054c5780639d6fac6f14610561578063a01ce4081461058e578063a22cb393146105ae57610284565b806353e76f2c116101fa57806377853218116101be578063778532181461049a57806377e00c31146104af578063884a326e146104cf5780638da5cb5b146104ef5780639012c4a81461050457806395d89b411461052457610284565b806353e76f2c146104035780636352211e14610423578063658cff5b1461044357806370a0823114610465578063715018a61461048557610284565b806323b872dd1161024c57806323b872dd1461034357806325a5c16c146103635780633ccfd60b1461037657806342842e0e1461037e57806344b176261461039e5780634cc37fc0146103cb57610284565b806301ffc9a71461028957806306fdde03146102bf578063081812fc146102e1578063095ea7b31461030e5780630ce90ec214610330575b600080fd5b34801561029557600080fd5b506102a96102a4366004614336565b61079b565b6040516102b691906146e8565b60405180910390f35b3480156102cb57600080fd5b506102d4610815565b6040516102b691906146f3565b3480156102ed57600080fd5b506103016102fc3660046143b4565b6108a7565b6040516102b69190614550565b34801561031a57600080fd5b5061032e61032936600461430d565b6108f6565b005b61032e61033e3660046143b4565b610994565b34801561034f57600080fd5b5061032e61035e36600461421f565b610a8b565b61032e61037136600461436e565b610ac6565b61032e610b9b565b34801561038a57600080fd5b5061032e61039936600461421f565b610c24565b3480156103aa57600080fd5b506103be6103b93660046141d3565b610c3f565b6040516102b691906145c4565b3480156103d757600080fd5b506103eb6103e63660046143b4565b610ea2565b6040516102b69c9b9a99989796959493929190614706565b34801561040f57600080fd5b5061032e61041e3660046143cc565b610fc1565b34801561042f57600080fd5b5061030161043e3660046143b4565b6110b8565b34801561044f57600080fd5b506104586110f0565b6040516102b69190614ef5565b34801561047157600080fd5b506104586104803660046141d3565b6110f6565b34801561049157600080fd5b5061032e61113d565b3480156104a657600080fd5b5061045861118b565b3480156104bb57600080fd5b506103be6104ca3660046141d3565b611191565b3480156104db57600080fd5b5061032e6104ea3660046143b4565b6114c0565b3480156104fb57600080fd5b50610301611507565b34801561051057600080fd5b5061032e61051f3660046143b4565b611516565b34801561053057600080fd5b506102d461155d565b61032e610547366004614443565b61156c565b34801561055857600080fd5b506103be612322565b34801561056d57600080fd5b5061058161057c3660046143b4565b612606565b6040516102b69190614f0c565b34801561059a57600080fd5b5061032e6105a93660046143b4565b612636565b3480156105ba57600080fd5b5061045861267d565b3480156105cf57600080fd5b5061032e6105de3660046142d3565b612683565b3480156105ef57600080fd5b506103be612754565b34801561060457600080fd5b5061032e610613366004614443565b6128e2565b34801561062457600080fd5b5061032e61063336600461425a565b6129a2565b61032e610646366004614443565b6129de565b34801561065757600080fd5b506102d46106663660046143b4565b612ac0565b34801561067757600080fd5b50610458612b46565b34801561068c57600080fd5b5061032e61069b3660046143b4565b612b4c565b61032e6106ae3660046143b4565b612be8565b3480156106bf57600080fd5b5061032e6106ce3660046143b4565b612d91565b3480156106df57600080fd5b5061032e6106ee36600461421f565b612dd8565b3480156106ff57600080fd5b506102a961070e3660046141ed565b612e7c565b34801561071f57600080fd5b5061032e61072e3660046141d3565b612eac565b34801561073f57600080fd5b5061045861074e3660046143b4565b612f23565b34801561075f57600080fd5b5061032e61076e3660046143b4565b612f35565b34801561077f57600080fd5b506103016131a7565b61032e61079636600461436e565b6131b6565b6000600160e060020a031982167f80ac58cd0000000000000000000000000000000000000000000000000000000014806107fe5750600160e060020a031982167f5b5e139f00000000000000000000000000000000000000000000000000000000145b8061080d575061080d8261327b565b90505b919050565b6060600080546108249061510c565b80601f01602080910402602001604051908101604052809291908181526020018280546108509061510c565b801561089d5780601f106108725761010080835404028352916020019161089d565b820191906000526020600020905b81548152906001019060200180831161088057829003601f168201915b5050505050905090565b60006108b2826132ad565b6108da5760405160e560020a62461bcd0281526004016108d190614bc7565b60405180910390fd5b50600090815260046020526040902054600160a060020a031690565b6000610901826110b8565b905080600160a060020a031683600160a060020a031614156109385760405160e560020a62461bcd0281526004016108d190614d70565b80600160a060020a031661094a6132ca565b600160a060020a0316148061096657506109668161070e6132ca565b6109855760405160e560020a62461bcd0281526004016108d1906149e6565b61098f83836132ce565b505050565b600b5434146109a257600080fd5b336109ac826110b8565b600160a060020a0316146109bf57600080fd5b6000601482815481106109e55760e060020a634e487b7102600052603260045260246000fd5b600091825260209091206007909102016003810154909150601460ff90911610610a0e57600080fd5b600481015415610a1d57600080fd5b60038101805460ff16906000610a3283615165565b825460ff9182166101009390930a928302919092021990911617905550600854600b54604051600160a060020a039092169181156108fc0291906000818181858888f1935050505015801561098f573d6000803e3d6000fd5b610a9c610a966132ca565b82613349565b610abb5760405160e560020a62461bcd0281526004016108d190614e61565b61098f8383836133d1565b33610ad057600080fd5b6000805b601454811015610b175733610ae8826110b8565b600160a060020a03161415610b055781610b018161514a565b9250505b80610b0f8161514a565b915050610ad4565b5060028110610b2557600080fd5b610b2f6007613511565b60108190556103e811610b4157600080fd5b6000610b4c83613515565b90506000610b5a6005613555565b610b65606484615185565b610b6f90846150c9565b610b799190614f1d565b610b84906001614f1d565b9050610b95848260008060006135a8565b50505050565b610ba36132ca565b600160a060020a0316610bb4611507565b600160a060020a031614610bdd5760405160e560020a62461bcd0281526004016108d190614c81565b6000610be7611507565b604051909150600160a060020a03821690303180156108fc02916000818181858888f19350505050158015610c20573d6000803e3d6000fd5b5050565b61098f838383604051806020016040528060008152506129a2565b60606000610c4c836110f6565b67ffffffffffffffff811115610c755760e060020a634e487b7102600052604160045260246000fd5b604051908082528060200260200182016040528015610cae57816020015b610c9b613fdb565b815260200190600190039081610c935790505b5090506000805b601454811015610e995784600160a060020a0316610cd2826110b8565b600160a060020a03161415610e875760148181548110610d055760e060020a634e487b7102600052603260045260246000fd5b906000526020600020906007020160405180610180016040529081600082018054610d2f9061510c565b80601f0160208091040260200160405190810160405280929190818152602001828054610d5b9061510c565b8015610da85780601f10610d7d57610100808354040283529160200191610da8565b820191906000526020600020905b815481529060010190602001808311610d8b57829003601f168201915b50505091835250506001820154602082015260028201546040820152600382015460ff808216606084015261010080830482166080850152600160a060020a036201000084041660a085015263ffffffff60b060020a8404811660c086015260d060020a8404831660e086015260d860020a909304909116908301526004830154610120830152600583015416610140820152600690910154610160909101528351849084908110610e6d5760e060020a634e487b7102600052603260045260246000fd5b60200260200101819052508180610e839061514a565b9250505b80610e918161514a565b915050610cb5565b50909392505050565b60148181548110610eb257600080fd5b9060005260206000209060070201600091509050806000018054610ed59061510c565b80601f0160208091040260200160405190810160405280929190818152602001828054610f019061510c565b8015610f4e5780601f10610f2357610100808354040283529160200191610f4e565b820191906000526020600020905b815481529060010190602001808311610f3157829003601f168201915b505050600184015460028501546003860154600487015460058801546006909801549697939692955060ff80831695506101008304811694600160a060020a03620100008504169463ffffffff60b060020a860481169560d060020a810485169560d860020a909104909416939216908c565b6002838160148281548110610fe95760e060020a634e487b7102600052603260045260246000fd5b600091825260209091206003600790920201015460ff16101561100b57600080fd5b33611015866110b8565b600160a060020a03161461102857600080fd5b60006014868154811061104e5760e060020a634e487b7102600052603260045260246000fd5b90600052602060002090600702019050806004015460001461106f57600080fd5b8484601488815481106110955760e060020a634e487b7102600052603260045260246000fd5b600091825260209091206110af936007909202019161403f565b50505050505050565b600081815260026020526040812054600160a060020a03168061080d5760405160e560020a62461bcd0281526004016108d190614aa0565b600b5490565b6000600160a060020a0382166111215760405160e560020a62461bcd0281526004016108d190614a43565b50600160a060020a031660009081526003602052604090205490565b6111456132ca565b600160a060020a0316611156611507565b600160a060020a03161461117f5760405160e560020a62461bcd0281526004016108d190614c81565b611189600061381c565b565b600c5490565b606060008060005b6014548110156112265784600160a060020a03166111b6826110b8565b600160a060020a031614801561120157506000601482815481106111ed5760e060020a634e487b7102600052603260045260246000fd5b906000526020600020906007020160040154115b1561121457611211600183614f1d565b91505b8061121e8161514a565b915050611199565b5060008167ffffffffffffffff8111156112535760e060020a634e487b7102600052604160045260246000fd5b60405190808252806020026020018201604052801561128c57816020015b611279613fdb565b8152602001906001900390816112715790505b50905060005b6014548110156114b75785600160a060020a03166112af826110b8565b600160a060020a03161480156112fa57506000601482815481106112e65760e060020a634e487b7102600052603260045260246000fd5b906000526020600020906007020160040154115b156114a557601481815481106113235760e060020a634e487b7102600052603260045260246000fd5b90600052602060002090600702016040518061018001604052908160008201805461134d9061510c565b80601f01602080910402602001604051908101604052809291908181526020018280546113799061510c565b80156113c65780601f1061139b576101008083540402835291602001916113c6565b820191906000526020600020905b8154815290600101906020018083116113a957829003601f168201915b50505091835250506001820154602082015260028201546040820152600382015460ff808216606084015261010080830482166080850152600160a060020a036201000084041660a085015263ffffffff60b060020a8404811660c086015260d060020a8404831660e086015260d860020a90930490911690830152600483015461012083015260058301541661014082015260069091015461016090910152825183908690811061148b5760e060020a634e487b7102600052603260045260246000fd5b602002602001018190525083806114a19061514a565b9450505b806114af8161514a565b915050611292565b50949350505050565b6114c86132ca565b600160a060020a03166114d9611507565b600160a060020a0316146115025760405160e560020a62461bcd0281526004016108d190614c81565b600b55565b600654600160a060020a031690565b61151e6132ca565b600160a060020a031661152f611507565b600160a060020a0316146115585760405160e560020a62461bcd0281526004016108d190614c81565b600a55565b6060600180546108249061510c565b600c54341461157a57600080fd5b6000601483815481106115a05760e060020a634e487b7102600052603260045260246000fd5b906000526020600020906007020190506000601483815481106115d65760e060020a634e487b7102600052603260045260246000fd5b90600052602060002090600702019050828414156115f357600080fd5b336115fd856110b8565b600160a060020a03161461161057600080fd5b3361161a846110b8565b600160a060020a03161461162d57600080fd5b6116368261387b565b6116555760405160e560020a62461bcd0281526004016108d190614afd565b61165e8161387b565b61167d5760405160e560020a62461bcd0281526004016108d190614afd565b6004820154156116a25760405160e560020a62461bcd0281526004016108d190614c24565b6004810154156116c75760405160e560020a62461bcd0281526004016108d190614c24565b600180830154908201546003808501549084015460ff6101009283900481169290910416600060026116f883613555565b8360ff166117088660ff16613555565b6117159060ff8816614f1d565b61171f9190614f1d565b61172991906150c9565b6117339190614f49565b90506000606461174483600f6150a0565b61174e9190614f49565b9050600061175d600a86615199565b60ff169050600061176f600a86615199565b60ff1690506000806117816064613555565b905060638860ff16108015611799575060638760ff16105b6117a257600080fd5b603c8860ff16111580156117ba5750603c8760ff1611155b15611c4e57601e8860ff16111580156117d75750601e8760ff1611155b1561195d57603281106118f4578660ff168860ff16106118725760006117fe856005614fb3565b611809866004614fb3565b8d600201548f6002015461181d9190614f1d565b6118279190615081565b6118319190614f35565b905061183d600a613555565b60ff8a1661184c606484615185565b61185690846150c9565b6118609190614f1d565b61186a9190614f1d565b9250506118ef565b600061187f846005614fb3565b61188a856004614fb3565b8d600201548f6002015461189e9190614f1d565b6118a89190615081565b6118b29190614f35565b90506118be600a613555565b60ff89166118cd606484615185565b6118d790846150c9565b6118e19190614f1d565b6118eb9190614f1d565b9250505b61195d565b6000611901856005614fb3565b61190c866004614fb3565b8d600201548f600201546119209190614f1d565b61192a9190615081565b6119349190614f35565b905060ff8716611945606483615185565b61194f90836150c9565b6119599190614f1d565b9250505b601e8860ff161180156119735750601e8760ff16115b15611b0c5760378110611a90578660ff168860ff1610611a0e57600061199a856005614fb3565b6119a5866004614fb3565b8d600201548f600201546119b99190614f1d565b6119c39190615081565b6119cd9190614f35565b90506119d9600a613555565b60ff8a166119e8606484615185565b6119f290846150c9565b6119fc9190614f1d565b611a069190614f1d565b925050611a8b565b6000611a1b846005614fb3565b611a26856004614fb3565b8d600201548f60020154611a3a9190614f1d565b611a449190615081565b611a4e9190614f35565b9050611a5a600a613555565b60ff8916611a69606484615185565b611a7390846150c9565b611a7d9190614f1d565b611a879190614f1d565b9250505b611b07565b6000611a9d856005614fb3565b611aa8866004614fb3565b8d600201548f60020154611abc9190614f1d565b611ac69190615081565b611ad09190614f35565b905060ff808716908816611ae5606484615185565b611aef90846150c9565b611af99190614f1d565b611b039190614f1d565b9250505b611c4e565b603c8110611bd7578660ff168860ff1610611b7c576000611b2e856005614fb3565b611b39866004614fb3565b8d600201548f60020154611b4d9190614f1d565b611b579190615081565b611b619190614f35565b9050611b6d600a613555565b60ff8a16611a69606484615185565b6000611b89846005614fb3565b611b94856004614fb3565b8d600201548f60020154611ba89190614f1d565b611bb29190615081565b611bbc9190614f35565b9050611bc8600a613555565b60ff8916611ae5606484615185565b6000611be4856005614fb3565b611bef866004614fb3565b8d600201548f60020154611c039190614f1d565b611c0d9190615081565b611c179190614f35565b905060ff808716908816611c2c606484615185565b611c3690846150c9565b611c409190614f1d565b611c4a9190614f1d565b9250505b603c8860ff16118015611c645750603c8760ff16115b15611dea5760468110611d81578660ff168860ff1610611cff576000611c8b856005614fb3565b611c96866004614fb3565b8d600201548f60020154611caa9190614f1d565b611cb49190615081565b611cbe9190614f35565b9050611cca6008613555565b60ff8a16611cd9606484615185565b611ce390846150c9565b611ced9190614f1d565b611cf79190614f1d565b925050611d7c565b6000611d0c846005614fb3565b611d17856004614fb3565b8d600201548f60020154611d2b9190614f1d565b611d359190615081565b611d3f9190614f35565b9050611d4b6008613555565b60ff8916611d5a606484615185565b611d6490846150c9565b611d6e9190614f1d565b611d789190614f1d565b9250505b611dea565b6000611d8e856005614fb3565b611d99866004614fb3565b8d600201548f60020154611dad9190614f1d565b611db79190615081565b611dc19190614f35565b905060ff8716611dd2606483615185565b611ddc90836150c9565b611de69190614f1d565b9250505b603c8860ff16118015611e015750603c8760ff1611155b15611ef85760508110611e8f576000611e1b856005614fb3565b611e26866004614fb3565b8d600201548f60020154611e3a9190614f1d565b611e449190615081565b611e4e9190614f35565b9050611e5a6007613555565b60ff8a16611e69606484615185565b611e7390846150c9565b611e7d9190614f1d565b611e879190614f1d565b925050611ef8565b6000611e9c856005614fb3565b611ea7866004614fb3565b8d600201548f60020154611ebb9190614f1d565b611ec59190615081565b611ecf9190614f35565b905060ff8716611ee0606483615185565b611eea90836150c9565b611ef49190614f1d565b9250505b603c8860ff1611158015611f0f5750603c8760ff16115b156120065760508110611f9d576000611f29846005614fb3565b611f34856004614fb3565b8d600201548f60020154611f489190614f1d565b611f529190615081565b611f5c9190614f35565b9050611f686007613555565b60ff8916611f77606484615185565b611f8190846150c9565b611f8b9190614f1d565b611f959190614f1d565b925050612006565b6000611faa846005614fb3565b611fb5856004614fb3565b8d600201548f60020154611fc99190614f1d565b611fd39190615081565b611fdd9190614f35565b905060ff8716611fee606483615185565b611ff890836150c9565b6120029190614f1d565b9250505b600061227e8d604051806101800160405290816000820180546120289061510c565b80601f01602080910402602001604051908101604052809291908181526020018280546120549061510c565b80156120a15780601f10612076576101008083540402835291602001916120a1565b820191906000526020600020905b81548152906001019060200180831161208457829003601f168201915b5050509183525050600182015460208201526002820154604080830191909152600383015460ff808216606085015261010080830482166080860152600160a060020a036201000084041660a086015263ffffffff60b060020a8404811660c087015260d060020a8404831660e087015260d860020a90930490911690840152600484015461012084015260058401541661014083015260069092015461016090910152805161018081019091528e548f90829082906121609061510c565b80601f016020809104026020016040519081016040528092919081815260200182805461218c9061510c565b80156121d95780601f106121ae576101008083540402835291602001916121d9565b820191906000526020600020905b8154815290600101906020018083116121bc57829003601f168201915b50505091835250506001820154602082015260028201546040820152600382015460ff808216606084015261010080830482166080850152600160a060020a036201000084041660a085015263ffffffff60b060020a8404811660c086015260d060020a8404831660e086015260d860020a90930490911690830152600483015461012083015260058301541661014082015260069091015461016090910152613893565b90506122c26040518060400160405280600b81526020017f4e65772054727566666c65000000000000000000000000000000000000000000815250848d8d856135a8565b6122cb8d6138e8565b6122d48c6138e8565b600854600c54604051600160a060020a039092169181156108fc0291906000818181858888f19350505050158015612310573d6000803e3d6000fd5b50505050505050505050505050505050565b606060008060005b6014548110156123925760006014828154811061235a5760e060020a634e487b7102600052603260045260246000fd5b90600052602060002090600702016004015411156123805761237d600183614f1d565b91505b8061238a8161514a565b91505061232a565b5060008167ffffffffffffffff8111156123bf5760e060020a634e487b7102600052604160045260246000fd5b6040519080825280602002602001820160405280156123f857816020015b6123e5613fdb565b8152602001906001900390816123dd5790505b50905060005b6014548110156125fe5760006014828154811061242e5760e060020a634e487b7102600052603260045260246000fd5b90600052602060002090600702016004015411156125ec576014818154811061246a5760e060020a634e487b7102600052603260045260246000fd5b9060005260206000209060070201604051806101800160405290816000820180546124949061510c565b80601f01602080910402602001604051908101604052809291908181526020018280546124c09061510c565b801561250d5780601f106124e25761010080835404028352916020019161250d565b820191906000526020600020905b8154815290600101906020018083116124f057829003601f168201915b50505091835250506001820154602082015260028201546040820152600382015460ff808216606084015261010080830482166080850152600160a060020a036201000084041660a085015263ffffffff60b060020a8404811660c086015260d060020a8404831660e086015260d860020a9093049091169083015260048301546101208301526005830154166101408201526006909101546101609091015282518390869081106125d25760e060020a634e487b7102600052603260045260246000fd5b602002602001018190525083806125e89061514a565b9450505b806125f68161514a565b9150506123fe565b509250505090565b6011816004811061261657600080fd5b60089182820401919006600402915054906101000a900463ffffffff1681565b61263e6132ca565b600160a060020a031661264f611507565b600160a060020a0316146126785760405160e560020a62461bcd0281526004016108d190614c81565b600d55565b600d5490565b61268b6132ca565b600160a060020a031682600160a060020a031614156126bf5760405160e560020a62461bcd0281526004016108d190614952565b80600560006126cc6132ca565b600160a060020a03908116825260208083019390935260409182016000908120918716808252919093529120805460ff1916921515929092179091556127106132ca565b600160a060020a03167f17307eab39ab6107e8899845ad3d59bd9653f200f220920489ca2b5937696c318360405161274891906146e8565b60405180910390a35050565b60606014805480602002602001604051908101604052809291908181526020016000905b828210156128d95783829060005260206000209060070201604051806101800160405290816000820180546127ac9061510c565b80601f01602080910402602001604051908101604052809291908181526020018280546127d89061510c565b80156128255780601f106127fa57610100808354040283529160200191612825565b820191906000526020600020905b81548152906001019060200180831161280857829003601f168201915b505050918352505060018281015460208084019190915260028401546040840152600384015460ff808216606086015261010080830482166080870152600160a060020a036201000084041660a087015263ffffffff60b060020a8404811660c088015260d060020a8404831660e088015260d860020a9093049091169085015260048501546101208501526005850154166101408401526006909301546101609092019190915291835292019101612778565b50505050905090565b6128eb826132ad565b6128f457600080fd5b600081116129175760405160e560020a62461bcd0281526004016108d190614ebe565b6000612922836110b8565b9050600160a060020a038116331461293957600080fd5b6000838152601260205260408120839055601480548590811061296f5760e060020a634e487b7102600052603260045260246000fd5b6000918252602090912060079091020160048101939093555050600501805463ffffffff19164263ffffffff1617905550565b6129b36129ad6132ca565b83613349565b6129d25760405160e560020a62461bcd0281526004016108d190614e61565b610b9584848484613b7b565b6129e7826110b8565b600160a060020a031633600160a060020a031614612a1a5760405160e560020a62461bcd0281526004016108d190614dcd565b600d54341015612a3f5760405160e560020a62461bcd0281526004016108d190614e04565b60008111612a625760405160e560020a62461bcd0281526004016108d190614ebe565b600060148381548110612a885760e060020a634e487b7102600052603260045260246000fd5b90600052602060002090600702019050612aa18161387b565b6129395760405160e560020a62461bcd0281526004016108d1906148be565b6060612acb826132ad565b612aea5760405160e560020a62461bcd0281526004016108d190614d13565b6000612af4613bb1565b90506000815111612b145760405180602001604052806000815250612b3f565b80612b1e84613bc3565b604051602001612b2f9291906144ae565b6040516020818303038152906040525b9392505050565b600a5490565b612b55816110b8565b600160a060020a031633600160a060020a031614612b885760405160e560020a62461bcd0281526004016108d190614dcd565b60008181526012602052604081208190556014805483908110612bbe5760e060020a634e487b7102600052603260045260246000fd5b600091825260208220600460079092020190810191909155600501805463ffffffff191690555050565b60008181526012602052604090205480612c175760405160e560020a62461bcd0281526004016108d1906147f3565b803414612c395760405160e560020a62461bcd0281526004016108d190614b34565b6000612c44836110b8565b9050612c518133856133d1565b60008381526012602052604081208190556014805485908110612c875760e060020a634e487b7102600052603260045260246000fd5b600091825260208220600460079092020190810182905560058101805463ffffffff19169055604051909250600160a060020a038416913480156108fc02929091818181858888f19350505050158015612ce5573d6000803e3d6000fd5b50600854600d54604051600160a060020a039092169181156108fc0291906000818181858888f19350505050158015612d22573d6000803e3d6000fd5b5060038101805475ffffffffffffffffffffffffffffffffffffffff0000191633620100008102919091179091556040517f4dd2f31b4569bcf6afb5788e4dcfba199a9e2148b94d0dda6d5fed23041de4cd91612d83918591903490614564565b60405180910390a150505050565b612d996132ca565b600160a060020a0316612daa611507565b600160a060020a031614612dd35760405160e560020a62461bcd0281526004016108d190614c81565b600c55565b612de38383836133d1565b60008181526012602052604081208190556014805483908110612e195760e060020a634e487b7102600052603260045260246000fd5b60009182526020822060046007909202019081019190915560058101805463ffffffff191690556003018054600160a060020a03909416620100000275ffffffffffffffffffffffffffffffffffffffff00001990941693909317909255505050565b600160a060020a0380831660009081526005602090815260408083209385168352929052205460ff165b92915050565b612eb46132ca565b600160a060020a0316612ec5611507565b600160a060020a031614612eee5760405160e560020a62461bcd0281526004016108d190614c81565b600160a060020a038116612f175760405160e560020a62461bcd0281526004016108d19061482a565b612f208161381c565b50565b60126020526000908152604090205481565b612f3e816110b8565b600160a060020a031633600160a060020a031614612f715760405160e560020a62461bcd0281526004016108d190614dcd565b600060148281548110612f975760e060020a634e487b7102600052603260045260246000fd5b600091825260209091206007909102016003810154909150601460ff90911610612fc057600080fd5b600481015415612fcf57600080fd5b612fd88161387b565b612fe157600080fd5b600060648260020154612ff49190615185565b905060006130026064613555565b9050600a8260ff161161304b57601481116130465760038301805460ff1690600061302c83615165565b91906101000a81548160ff021916908360ff160217905550505b613172565b600a8260ff161180156130625750601e8260ff1611155b1561308457602381116130465760038301805460ff1690600061302c83615165565b601e8260ff1611801561309b575060328260ff1611155b156130bd57602881116130465760038301805460ff1690600061302c83615165565b60328260ff161180156130d4575060468260ff1611155b156130f657602d81116130465760038301805460ff1690600061302c83615165565b60468260ff1611801561310d5750605a8260ff1611155b1561312f57603c81116130465760038301805460ff1690600061302c83615165565b605a8260ff16111561317257604681116131725760038301805460ff1690600061315883615165565b91906101000a81548160ff021916908360ff160217905550505b61317f4262015180614f1d565b8360030160166101000a81548163ffffffff021916908363ffffffff16021790555050505050565b600854600160a060020a031681565b336131c057600080fd5b600a543410156131cf57600080fd5b6131d96007613511565b60108190556103e8116131eb57600080fd5b60006131f682613515565b905060006132046014613555565b61320f606484615185565b61321990846150c9565b6132239190614f1d565b61322e90600a614f1d565b905061323f838260008060006135a8565b600854600a54604051600160a060020a039092169181156108fc0291906000818181858888f19350505050158015610b95573d6000803e3d6000fd5b600160e060020a031981167f01ffc9a70000000000000000000000000000000000000000000000000000000014919050565b600090815260026020526040902054600160a060020a0316151590565b3390565b6000818152600460205260409020805473ffffffffffffffffffffffffffffffffffffffff1916600160a060020a0384169081179091558190613310826110b8565b600160a060020a03167f8c5be1e5ebec7d5bd14f71427d1e84f3dd0314c0f7b2291e5b200ac8c7c3b92560405160405180910390a45050565b6000613354826132ad565b6133735760405160e560020a62461bcd0281526004016108d190614989565b600061337e836110b8565b905080600160a060020a031684600160a060020a031614806133b9575083600160a060020a03166133ae846108a7565b600160a060020a0316145b806133c957506133c98185612e7c565b949350505050565b82600160a060020a03166133e4826110b8565b600160a060020a03161461340d5760405160e560020a62461bcd0281526004016108d190614cb6565b600160a060020a0382166134365760405160e560020a62461bcd0281526004016108d1906148f5565b61344183838361098f565b61344c6000826132ce565b600160a060020a03831660009081526003602052604081208054600192906134759084906150c9565b9091555050600160a060020a03821660009081526003602052604081208054600192906134a3908490614f1d565b9091555050600081815260026020526040808220805473ffffffffffffffffffffffffffffffffffffffff1916600160a060020a0386811691821790925591518493918716917fddf252ad1be2c89b69c2b068fc378daa952ba7f163c4a11628f55a4df523b3ef91a4505050565b5490565b60008042338460405160200161352d939291906144dd565b60408051601f198184030181529190528051602090910120600954909150612b3f9082615185565b600e8054600091826135668361514a565b919050555060004233600e5460405160200161358493929190614522565b60408051601f1981840301815291905280516020909101209050612b3f8382615185565b60006135b5606486615185565b905060006135c36007613511565b6040805161018081018252898152602080820184905291810189905260006060820181905260ff86811660808401523360a084015263ffffffff421660c084015289811660e08401528816610100830152610120820181905261014082018190526101608201879052601480546001810182559152815180519495509193849360079092027fce6d7b5282bd9a3661ae061feed1dbda4e52ab073b1f9285be6e155d9c38d4ec01926136799284929101906140c3565b5060208201516001820155604082015160028201556060820151600382018054608085015160a086015160c087015160e0880151610100808a015160ff1990961660ff9889161761ff001916948816029390931775ffffffffffffffffffffffffffffffffffffffff0000191662010000600160a060020a03909316929092029190911779ffffffff00000000000000000000000000000000000000000000191660b060020a63ffffffff92831602177aff0000000000000000000000000000000000000000000000000000191660d060020a92861692909202919091177fffffffff00ffffffffffffffffffffffffffffffffffffffffffffffffffffff1660d860020a9490921693909302179055610120830151600483015561014083015160058301805463ffffffff191691909216179055610160909101516006909101556137c53383613d37565b6137cf6007613d51565b33600160a060020a03167f589cd144bbd2fda6318230895eca43f6ea1a1b5b0464c4bc1221bdfc7fad884c838960405161380a929190614efe565b60405180910390a25050505050505050565b60068054600160a060020a0383811673ffffffffffffffffffffffffffffffffffffffff19831681179093556040519116919082907f8be0079c531659141344cd1fd0a4f28419497f9722a3daafe3b4186f6b6457e090600090a35050565b600301544260b060020a90910463ffffffff16111590565b600081610160015183610160015111156138c857600183610160018181516138bb9190614f1d565b9150818152509050612ea6565b600182610160018181516138dc9190614f1d565b90819052949350505050565b6003810154600682015460ff909116906139815760005b60148160ff161161397f578160ff168160ff16141561396d578060ff16600f546139299190615081565b60115461393c9063ffffffff1642614f1d565b61394691906150c9565b8360030160166101000a81548163ffffffff021916908363ffffffff16021790555061397f565b8061397781615165565b9150506138ff565b505b6000826006015411801561399a57506005826006015411155b15613a2c5760005b60148160ff1611613a2a578160ff168160ff161415613a18578060ff16600f546139cc9190615081565b6011546139e790640100000000900463ffffffff1642614f1d565b6139f191906150c9565b8360030160166101000a81548163ffffffff021916908363ffffffff160217905550613a2a565b80613a2281615165565b9150506139a2565b505b60058260060154118015613a455750600a826006015411155b15613adb5760005b60148160ff1611613ad9578160ff168160ff161415613ac7578060ff16600f54613a779190615081565b601154613a969068010000000000000000900463ffffffff1642614f1d565b613aa091906150c9565b8360030160166101000a81548163ffffffff021916908363ffffffff160217905550613ad9565b80613ad181615165565b915050613a4d565b505b600a82600601541115610c205760005b60148160ff161161098f578160ff168160ff161415613b69578060ff16600f54613b159190615081565b601154613b38906c01000000000000000000000000900463ffffffff1642614f1d565b613b4291906150c9565b8360030160166101000a81548163ffffffff021916908363ffffffff16021790555061098f565b80613b7381615165565b915050613aeb565b613b868484846133d1565b613b9284848484613d5a565b610b955760405160e560020a62461bcd0281526004016108d190614796565b60408051602081019091526000815290565b606081613c04575060408051808201909152600181527f30000000000000000000000000000000000000000000000000000000000000006020820152610810565b8160005b8115613c2e5780613c188161514a565b9150613c279050600a83614f35565b9150613c08565b60008167ffffffffffffffff811115613c5a5760e060020a634e487b7102600052604160045260246000fd5b6040519080825280601f01601f191660200182016040528015613c84576020820181803683370190505b5090505b84156133c957613c996001836150c9565b9150613ca6600a86615185565b613cb1906030614f1d565b7f010000000000000000000000000000000000000000000000000000000000000002818381518110613cf65760e060020a634e487b7102600052603260045260246000fd5b60200101907effffffffffffffffffffffffffffffffffffffffffffffffffffffffffffff1916908160001a905350613d30600a86614f35565b9450613c88565b610c20828260405180602001604052806000815250613ead565b80546001019055565b6000613d6e84600160a060020a0316613ee3565b15613ea25783600160a060020a031663150b7a02613d8a6132ca565b8786866040518563ffffffff167c0100000000000000000000000000000000000000000000000000000000028152600401613dc89493929190614588565b602060405180830381600087803b158015613de257600080fd5b505af1925050508015613e12575060408051601f3d908101601f19168201909252613e0f91810190614352565b60015b613e6f573d808015613e40576040519150601f19603f3d011682016040523d82523d6000602084013e613e45565b606091505b508051613e675760405160e560020a62461bcd0281526004016108d190614796565b805181602001fd5b600160e060020a0319167f150b7a02000000000000000000000000000000000000000000000000000000001490506133c9565b506001949350505050565b613eb78383613ee9565b613ec46000848484613d5a565b61098f5760405160e560020a62461bcd0281526004016108d190614796565b3b151590565b600160a060020a038216613f125760405160e560020a62461bcd0281526004016108d190614b92565b613f1b816132ad565b15613f3b5760405160e560020a62461bcd0281526004016108d190614887565b613f476000838361098f565b600160a060020a0382166000908152600360205260408120805460019290613f70908490614f1d565b9091555050600081815260026020526040808220805473ffffffffffffffffffffffffffffffffffffffff1916600160a060020a03861690811790915590518392907fddf252ad1be2c89b69c2b068fc378daa952ba7f163c4a11628f55a4df523b3ef908290a45050565b6040805161018081018252606080825260006020830181905292820183905281018290526080810182905260a0810182905260c0810182905260e0810182905261010081018290526101208101829052610140810182905261016081019190915290565b82805461404b9061510c565b90600052602060002090601f01602090048101928261406d57600085556140b3565b82601f106140865782800160ff198235161785556140b3565b828001600101855582156140b3579182015b828111156140b3578235825591602001919060010190614098565b506140bf929150614137565b5090565b8280546140cf9061510c565b90600052602060002090601f0160209004810192826140f157600085556140b3565b82601f1061410a57805160ff19168380011785556140b3565b828001600101855582156140b3579182015b828111156140b357825182559160200191906001019061411c565b5b808211156140bf5760008155600101614138565b600067ffffffffffffffff80841115614167576141676151ed565b604051601f8501601f19168101602001828111828210171561418b5761418b6151ed565b6040528481529150818385018610156141a357600080fd5b8484602083013760006020868301015250509392505050565b8035600160a060020a038116811461081057600080fd5b6000602082840312156141e4578081fd5b612b3f826141bc565b600080604083850312156141ff578081fd5b614208836141bc565b9150614216602084016141bc565b90509250929050565b600080600060608486031215614233578081fd5b61423c846141bc565b925061424a602085016141bc565b9150604084013590509250925092565b6000806000806080858703121561426f578081fd5b614278856141bc565b9350614286602086016141bc565b925060408501359150606085013567ffffffffffffffff8111156142a8578182fd5b8501601f810187136142b8578182fd5b6142c78782356020840161414c565b91505092959194509250565b600080604083850312156142e5578182fd5b6142ee836141bc565b915060208301358015158114614302578182fd5b809150509250929050565b6000806040838503121561431f578182fd5b614328836141bc565b946020939093013593505050565b600060208284031215614347578081fd5b8135612b3f81615206565b600060208284031215614363578081fd5b8151612b3f81615206565b60006020828403121561437f578081fd5b813567ffffffffffffffff811115614395578182fd5b8201601f810184136143a5578182fd5b6133c98482356020840161414c565b6000602082840312156143c5578081fd5b5035919050565b6000806000604084860312156143e0578283fd5b83359250602084013567ffffffffffffffff808211156143fe578384fd5b818601915086601f830112614411578384fd5b81358181111561441f578485fd5b876020828501011115614430578485fd5b6020830194508093505050509250925092565b60008060408385031215614455578182fd5b50508035926020909101359150565b600160a060020a03169052565b600081518084526144898160208601602086016150e0565b601f01601f19169290920160200192915050565b63ffffffff169052565b60ff169052565b600083516144c08184602088016150e0565b8351908301906144d48183602088016150e0565b01949350505050565b60008482526c01000000000000000000000000600160a060020a03851602602083015282516145138160348501602087016150e0565b91909101603401949350505050565b928352600160a060020a03919091166c01000000000000000000000000026020830152603482015260540190565b600160a060020a0391909116815260200190565b600160a060020a039384168152919092166020820152604081019190915260600190565b6000600160a060020a038087168352808616602084015250836040830152608060608301526145ba6080830184614471565b9695505050505050565b60208082528251828201819052600091906040908185019080840286018301878501865b838110156146da57603f198984030185528151610180815181865261460f82870182614471565b91505088820151898601528782015188860152606080830151614634828801826144a7565b5050608080830151614648828801826144a7565b505060a08083015161465c82880182614464565b505060c0808301516146708288018261449d565b505060e080830151614684828801826144a7565b505061010080830151614699828801826144a7565b50506101208281015190860152610140808301516146b98288018261449d565b505061016091820151949091019390935293860193908601906001016145e8565b509098975050505050505050565b901515815260200190565b600060208252612b3f6020830184614471565b6000610180825261471b61018083018f614471565b90508c60208301528b604083015260ff8b16606083015260ff8a166080830152600160a060020a03891660a083015263ffffffff881660c083015260ff871660e083015260ff86166101008301528461012083015261477e61014083018561449d565b826101608301529d9c50505050505050505050505050565b60208082526032908201527f4552433732313a207472616e7366657220746f206e6f6e20455243373231526560408201527f63656976657220696d706c656d656e7465720000000000000000000000000000606082015260800190565b6020808252601a908201527f5468697320746f6b656e206973206e6f7420666f722073616c65000000000000604082015260600190565b60208082526026908201527f4f776e61626c653a206e6577206f776e657220697320746865207a65726f206160408201527f6464726573730000000000000000000000000000000000000000000000000000606082015260800190565b6020808252601c908201527f4552433732313a20746f6b656e20616c7265616479206d696e74656400000000604082015260600190565b6020808252600f908201527f4272656564206e6f742072656564790000000000000000000000000000000000604082015260600190565b60208082526024908201527f4552433732313a207472616e7366657220746f20746865207a65726f2061646460408201527f7265737300000000000000000000000000000000000000000000000000000000606082015260800190565b60208082526019908201527f4552433732313a20617070726f766520746f2063616c6c657200000000000000604082015260600190565b6020808252602c908201527f4552433732313a206f70657261746f7220717565727920666f72206e6f6e657860408201527f697374656e7420746f6b656e0000000000000000000000000000000000000000606082015260800190565b60208082526038908201527f4552433732313a20617070726f76652063616c6c6572206973206e6f74206f7760408201527f6e6572206e6f7220617070726f76656420666f7220616c6c0000000000000000606082015260800190565b6020808252602a908201527f4552433732313a2062616c616e636520717565727920666f7220746865207a6560408201527f726f206164647265737300000000000000000000000000000000000000000000606082015260800190565b60208082526029908201527f4552433732313a206f776e657220717565727920666f72206e6f6e657869737460408201527f656e7420746f6b656e0000000000000000000000000000000000000000000000606082015260800190565b60208082526011908201527f4272656564206e6f742072656164792021000000000000000000000000000000604082015260600190565b602080825260409082018190527f506c65617365207375626d6974207468652061736b696e672070726963652069908201527f6e206f7264657220746f20636f6d706c65746520746865207075726368617365606082015260800190565b6020808252818101527f4552433732313a206d696e7420746f20746865207a65726f2061646472657373604082015260600190565b6020808252602c908201527f4552433732313a20617070726f76656420717565727920666f72206e6f6e657860408201527f697374656e7420746f6b656e0000000000000000000000000000000000000000606082015260800190565b60208082526027908201527f5468652070726f64756374206265696e6720736f6c642063616e6e6f7420626560408201527f206d617465642100000000000000000000000000000000000000000000000000606082015260800190565b6020808252818101527f4f776e61626c653a2063616c6c6572206973206e6f7420746865206f776e6572604082015260600190565b60208082526029908201527f4552433732313a207472616e73666572206f6620746f6b656e2074686174206960408201527f73206e6f74206f776e0000000000000000000000000000000000000000000000606082015260800190565b6020808252602f908201527f4552433732314d657461646174613a2055524920717565727920666f72206e6f60408201527f6e6578697374656e7420746f6b656e0000000000000000000000000000000000606082015260800190565b60208082526021908201527f4552433732313a20617070726f76616c20746f2063757272656e74206f776e6560408201527f7200000000000000000000000000000000000000000000000000000000000000606082015260800190565b60208082526017908201527f4e6f74206f776e6572206f66207468697320746f6b656e000000000000000000604082015260600190565b60208082526024908201527f5072696365206d75737420626520657175616c20746f206c697374696e67207060408201527f7269636500000000000000000000000000000000000000000000000000000000606082015260800190565b60208082526031908201527f4552433732313a207472616e736665722063616c6c6572206973206e6f74206f60408201527f776e6572206e6f7220617070726f766564000000000000000000000000000000606082015260800190565b6020808252601c908201527f5072696365206d757374206265206174206c6561737420312077656900000000604082015260600190565b90815260200190565b918252602082015260400190565b63ffffffff91909116815260200190565b60008219821115614f3057614f306151bb565b500190565b600082614f4457614f446151d4565b500490565b600060ff831680614f5c57614f5c6151d4565b8060ff84160491505092915050565b80825b6001808611614f7d5750614faa565b818704821115614f8f57614f8f6151bb565b80861615614f9c57918102915b506002909404938002614f6e565b94509492505050565b6000612b3f6000198484600082614fcc57506001612b3f565b81614fd957506000612b3f565b8160018114614fef5760028114614ff957615026565b6001915050612b3f565b60ff84111561500a5761500a6151bb565b8360020a915084821115615020576150206151bb565b50612b3f565b5060208310610133831016604e8410600b8410161715615059575081810a83811115615054576150546151bb565b612b3f565b6150668484846001614f6b565b808604821115615078576150786151bb565b02949350505050565b600081600019048311821515161561509b5761509b6151bb565b500290565b600060ff821660ff84168160ff04811182151516156150c1576150c16151bb565b029392505050565b6000828210156150db576150db6151bb565b500390565b60005b838110156150fb5781810151838201526020016150e3565b83811115610b955750506000910152565b60028104600182168061512057607f821691505b602082108114156151445760e060020a634e487b7102600052602260045260246000fd5b50919050565b600060001982141561515e5761515e6151bb565b5060010190565b600060ff821660ff81141561517c5761517c6151bb565b60010192915050565b600082615194576151946151d4565b500690565b600060ff8316806151ac576151ac6151d4565b8060ff84160691505092915050565b60e060020a634e487b7102600052601160045260246000fd5b60e060020a634e487b7102600052601260045260246000fd5b60e060020a634e487b7102600052604160045260246000fd5b600160e060020a031981168114612f2057600080fdfea26469706673582212201832f4d1914f046686fa63533c8b4ee2f219ac53c89e867553a65dfc91523d3c64736f6c63430008000033",
  "immutableReferences": {},
  "source": "// SPDX-License-Identifier: MIT\r\n\r\npragma solidity ^0.8.0;\r\n\r\nimport \"@openzeppelin/contracts/token/ERC721/ERC721.sol\";\r\nimport \"@openzeppelin/contracts/access/Ownable.sol\";\r\nimport \"@openzeppelin/contracts/utils/Counters.sol\";\r\n\r\ncontract TruffleFactory is ERC721, Ownable {\r\n    using Counters for Counters.Counter;\r\n    using Strings for uint256;\r\n    Counters.Counter _tokenIds;\r\n\r\n    address public admin;\r\n    uint256 DNA_MOD = 10**16;\r\n    uint256 fee = 0.025 ether;\r\n    uint256 levelUpFee = 0.001 ether;\r\n    uint256 breedFee = 0.01 ether;\r\n    uint256 sellFee = 0.001 ether;\r\n    uint256 randNonce = 0;\r\n    uint256 lostTime = 30 minutes;\r\n    uint256 quantilyLimit;\r\n    uint32[4] public cooldowns = [\r\n        uint32(8 hours),\r\n        uint32(12 hours),\r\n        uint32(1 days),\r\n        uint32(2 days)\r\n    ];\r\n\r\n    mapping(uint256 => uint256) public tokenIdToPrice;\r\n    mapping(uint256 => string) _tokenURIs;\r\n\r\n    constructor() ERC721(\"Truffle\", \"TFT\") {\r\n        admin = msg.sender;\r\n    }\r\n\r\n    struct Truffle {\r\n        string name;\r\n        uint256 id;\r\n        uint256 dna;\r\n        uint8 level;\r\n        uint8 rarity;\r\n        address currentOwner;\r\n        uint32 readyTime;\r\n        uint8 dadId;\r\n        uint8 mumId;\r\n        uint256 sell;\r\n        uint32 sellTime;\r\n        uint gen0;\r\n    }\r\n\r\n    Truffle[] public truffles;\r\n\r\n    event NewTruffle(address indexed owner, uint256 id, uint256 dna);\r\n    event BuyTruffle(address _seller, address _buyer, uint256 _price);\r\n\r\n    function getFee() public view returns (uint256) {\r\n        return fee;\r\n    }\r\n\r\n    function getleveUpFee() public view returns (uint256) {\r\n        return levelUpFee;\r\n    }\r\n\r\n    function getFeeBreed() public view returns (uint256) {\r\n        return breedFee;\r\n    }\r\n\r\n    function getFeeSell() public view returns (uint256) {\r\n        return sellFee;\r\n    }\r\n\r\n    function _setTokenURI(uint256 tokenId, string memory _tokenURI) internal {\r\n        _tokenURIs[tokenId] = _tokenURI;\r\n    }\r\n\r\n    function _createRandomDna(string memory _mod)\r\n        internal\r\n        view\r\n        returns (uint256)\r\n    {\r\n        uint256 randomNum = uint256(\r\n            keccak256(abi.encodePacked(block.timestamp, msg.sender, _mod))\r\n        );\r\n        return randomNum % DNA_MOD;\r\n    }\r\n\r\n    function _createTruffle(\r\n        string memory _name,\r\n        uint256 _dna,\r\n        uint8 _dadId,\r\n        uint8 _mumId,\r\n        uint _gen0\r\n    ) internal {\r\n        uint8 randRarity = uint8(_dna % 100);\r\n\r\n        uint256 newId = _tokenIds.current();\r\n\r\n        Truffle memory newTruffle = Truffle(\r\n            _name,\r\n            newId,\r\n            _dna,\r\n            0,\r\n            randRarity,\r\n            msg.sender,\r\n            uint32(block.timestamp),\r\n            _dadId,\r\n            _mumId,\r\n            0,\r\n            0,\r\n            _gen0\r\n        );\r\n        truffles.push(newTruffle);\r\n        _safeMint(msg.sender, newId);\r\n        _tokenIds.increment();\r\n\r\n        emit NewTruffle(msg.sender, newId, _dna);\r\n    }\r\n\r\n    function createRandomTruffleFree(string memory _name) public payable {\r\n        require(msg.sender != address(0));\r\n        uint256 counter = 0;\r\n        for (uint256 i = 0; i < truffles.length; i++) {\r\n            if (ownerOf(i) == msg.sender) {\r\n                counter++;\r\n            }\r\n        }\r\n        require(counter < 2);\r\n        quantilyLimit = _tokenIds.current();\r\n        require(quantilyLimit < 1000);\r\n        uint256 randDna = _createRandomDna(_name);\r\n        uint256 newDna = randDna - (randDna % 100) + randMod(5) + 1;\r\n        _createTruffle(_name, newDna, 0, 0, 0);\r\n    }\r\n\r\n    function createRandomTruffle(string memory _name) public payable{\r\n        require(msg.sender != address(0));\r\n        require(msg.value >= fee);\r\n        quantilyLimit = _tokenIds.current();\r\n        require(quantilyLimit < 1000);\r\n        uint256 randDna = _createRandomDna(_name);\r\n        uint256 newDna = randDna - randDna % 100 + randMod(20) + 10;\r\n        _createTruffle(_name, newDna, 0, 0, 0);\r\n        payable(admin).transfer(fee);\r\n    }\r\n\r\n    function getTruffle() public view returns (Truffle[] memory) {\r\n        return truffles;\r\n    }\r\n\r\n    function getOwnerTruffles(address _owner)\r\n        public\r\n        view\r\n        returns (Truffle[] memory)\r\n    {\r\n        Truffle[] memory result = new Truffle[](balanceOf(_owner));\r\n        uint256 counter = 0;\r\n        for (uint256 i = 0; i < truffles.length; i++) {\r\n            if (ownerOf(i) == _owner) {\r\n                result[counter] = truffles[i];\r\n                counter++;\r\n            }\r\n        }\r\n        return result;\r\n    }\r\n\r\n    function randMod(uint256 _modulus) internal returns (uint256) {\r\n        randNonce++;\r\n        uint256 randomNum2 = uint256(\r\n            keccak256(abi.encodePacked(block.timestamp, msg.sender, randNonce))\r\n        );\r\n        return randomNum2 % _modulus;\r\n    }\r\n\r\n    function updateFee(uint256 _fee) external onlyOwner{\r\n        fee = _fee;\r\n    }\r\n\r\n    function updateFeeLevelUp(uint256 _feeLevelUp) external onlyOwner{\r\n        levelUpFee = _feeLevelUp;\r\n    }\r\n\r\n    function updateFeeBreed(uint256 _feeBreed) external onlyOwner{\r\n        breedFee = _feeBreed;\r\n    }\r\n\r\n    function updateFeeSell(uint256 _feeSell) external onlyOwner{\r\n        sellFee = _feeSell;\r\n    }\r\n\r\n    function withdraw() external payable onlyOwner {\r\n        address payable _owner = payable(owner());\r\n        _owner.transfer(address(this).balance);\r\n    }\r\n\r\n    modifier aboveLevel(uint256 _level, uint256 _TruffleId) {\r\n        require(truffles[_TruffleId].level >= _level);\r\n        _;\r\n    }\r\n\r\n    function levelUp(uint256 _TruffleId) external payable {\r\n        require(msg.value == levelUpFee);\r\n        require(ownerOf(_TruffleId) == msg.sender);\r\n        Truffle storage truffle = truffles[_TruffleId];\r\n        require(truffle.level < 20);\r\n        require(truffle.sell == 0);\r\n        truffle.level++;\r\n        payable(admin).transfer(levelUpFee); \r\n    }\r\n\r\n    function updateName(uint256 _TruffleId, string calldata _newName)\r\n        external\r\n        aboveLevel(2, _TruffleId)\r\n    {\r\n        require(ownerOf(_TruffleId) == msg.sender);\r\n        Truffle storage truffle = truffles[_TruffleId];\r\n        require(truffle.sell == 0);\r\n        truffles[_TruffleId].name = _newName;\r\n    }\r\n\r\n    function _triggerCooldown(Truffle storage _truffle) internal {\r\n        //hm kich hoat cooldown\r\n        uint8 levels = _truffle.level;\r\n        if (_truffle.gen0 == 0) {\r\n            for (uint8 i = 0; i <= 20; i++) {\r\n                if (i == levels) {\r\n                    _truffle.readyTime = uint32(\r\n                        block.timestamp + cooldowns[0] - (lostTime * i)\r\n                    );\r\n                    break;\r\n                }\r\n            }\r\n        }\r\n        if (_truffle.gen0 > 0 && _truffle.gen0 <= 5) {\r\n            for (uint8 i = 0; i <= 20; i++) {\r\n                if (i == levels) {\r\n                    _truffle.readyTime = uint32(\r\n                        block.timestamp + cooldowns[1] - (lostTime * i)\r\n                    );\r\n                    break;\r\n                }\r\n            }\r\n        }\r\n        if (_truffle.gen0 > 5 && _truffle.gen0 <= 10) {\r\n            for (uint8 i = 0; i <= 20; i++) {\r\n                if (i == levels) {\r\n                    _truffle.readyTime = uint32(\r\n                        block.timestamp + cooldowns[2] - (lostTime * i)\r\n                    );\r\n                    break;\r\n                }\r\n            }\r\n        }\r\n\r\n        if (_truffle.gen0 > 10) {\r\n            for (uint8 i = 0; i <= 20; i++) {\r\n                if (i == levels) {\r\n                    _truffle.readyTime = uint32(\r\n                        block.timestamp + cooldowns[3] - (lostTime * i)\r\n                    );\r\n                    break;\r\n                }\r\n            }\r\n        }\r\n    }\r\n\r\n    function _getTruffleGen(Truffle memory _dadId, Truffle memory _mumId)\r\n        internal\r\n        view\r\n        returns (uint)\r\n    {\r\n        if(_dadId.gen0 > _mumId.gen0){\r\n            return _dadId.gen0 += 1;\r\n        }\r\n        return _mumId.gen0 += 1;\r\n    }\r\n\r\n    function _isReady(Truffle storage _truffle) internal view returns (bool) {\r\n        return (_truffle.readyTime <= block.timestamp);\r\n    }\r\n\r\n    function BreedAndMultiply(uint256 _truffleId, uint256 _targetDna)\r\n        public\r\n        payable\r\n    {\r\n        require(msg.value == breedFee);\r\n        Truffle storage myTruffle = truffles[_truffleId];\r\n        Truffle storage myTargetDna = truffles[_targetDna];\r\n        require(_truffleId != _targetDna);\r\n        require(ownerOf(_truffleId) == msg.sender);\r\n        require(ownerOf(_targetDna) == msg.sender);\r\n        require(_isReady(myTruffle),\"Breed not ready !\");\r\n        require(_isReady(myTargetDna),\"Breed not ready !\");\r\n        require(myTruffle.sell == 0,\"The product being sold cannot be mated!\");\r\n        require(myTargetDna.sell == 0, \"The product being sold cannot be mated!\");\r\n        \r\n        uint8 dadId = uint8(myTruffle.id);\r\n        uint8 mumId = uint8(myTargetDna.id);\r\n\r\n        uint8 valueRarity = uint8(myTruffle.rarity);\r\n        uint8 valueRarity2 = uint8(myTargetDna.rarity);\r\n        uint8 valueRarity3 = uint8(\r\n            valueRarity +\r\n                randMod(valueRarity) +\r\n                valueRarity2 -\r\n                randMod(valueRarity2)\r\n        ) / 2;\r\n        uint8 valueRarity4 = uint8((valueRarity3 * 15) / 100);\r\n\r\n        uint256 number = valueRarity % 10;\r\n        uint256 number2 = valueRarity2 % 10;\r\n        uint256 newDna;\r\n        uint256 rand = randMod(100);\r\n        require(valueRarity < 99 && valueRarity2 < 99);\r\n        if(valueRarity <= 60 && valueRarity2 <= 60){\r\n            if(valueRarity <= 30 && valueRarity2 <= 30){\r\n                if(rand >= 50){\r\n                    if(valueRarity>= valueRarity2){\r\n                        uint algorithm = (myTruffle.dna + myTargetDna.dna)*(4**number)/(5**number);\r\n                        newDna = algorithm - algorithm % 100 + valueRarity + randMod(10);\r\n                    }else{\r\n                        uint algorithm = (myTruffle.dna + myTargetDna.dna)*(4**number2)/(5**number2);\r\n                        newDna = algorithm - algorithm % 100 + valueRarity2 + randMod(10);\r\n                    }\r\n                }else{\r\n                    uint algorithm = (myTruffle.dna + myTargetDna.dna)*(4**number)/(5**number);\r\n                    newDna = algorithm - algorithm % 100 + valueRarity3;\r\n                }\r\n            }if(valueRarity > 30 && valueRarity2 > 30){\r\n                if(rand >= 55){\r\n                    if(valueRarity>= valueRarity2){\r\n                        uint algorithm = (myTruffle.dna + myTargetDna.dna)*(4**number)/(5**number);\r\n                        newDna = algorithm - algorithm % 100 + valueRarity + randMod(10);\r\n                    }else{\r\n                        uint algorithm = (myTruffle.dna + myTargetDna.dna)*(4**number2)/(5**number2);\r\n                        newDna = algorithm - algorithm % 100 + valueRarity2 + randMod(10);\r\n                    }\r\n                }else{\r\n                    uint algorithm = (myTruffle.dna + myTargetDna.dna)*(4**number)/(5**number);\r\n                    newDna = algorithm - algorithm % 100 + valueRarity3 + valueRarity4;\r\n                }\r\n            }else{\r\n                if(rand >= 60){\r\n                    if(valueRarity>= valueRarity2){\r\n                        uint algorithm = (myTruffle.dna + myTargetDna.dna)*(4**number)/(5**number);\r\n                        newDna = algorithm - algorithm % 100 + valueRarity + randMod(10);\r\n                    }else{\r\n                        uint algorithm = (myTruffle.dna + myTargetDna.dna)*(4**number2)/(5**number2);\r\n                        newDna = algorithm - algorithm % 100 + valueRarity2 + randMod(10);\r\n                    }\r\n                }else{\r\n                    uint algorithm = (myTruffle.dna + myTargetDna.dna)*(4**number)/(5**number);\r\n                    newDna = algorithm - algorithm % 100 + valueRarity3 + valueRarity4;\r\n                }\r\n            }\r\n        }if(valueRarity > 60 && valueRarity2 > 60){\r\n            if(rand >= 70){\r\n                if(valueRarity>= valueRarity2){\r\n                    uint algorithm = (myTruffle.dna + myTargetDna.dna)*(4**number)/(5**number);\r\n                    newDna = algorithm - algorithm % 100 + valueRarity + randMod(8);\r\n                }else{\r\n                    uint algorithm = (myTruffle.dna + myTargetDna.dna)*(4**number2)/(5**number2);\r\n                    newDna = algorithm - algorithm % 100 + valueRarity2 + randMod(8);\r\n                }\r\n            }else{\r\n                uint algorithm = (myTruffle.dna + myTargetDna.dna)*(4**number)/(5**number);\r\n                newDna = algorithm - algorithm % 100 + valueRarity3;\r\n            }\r\n        }if(valueRarity > 60 && valueRarity2 <= 60){\r\n            if(rand >= 80){\r\n                uint algorithm = (myTruffle.dna + myTargetDna.dna)*(4**number)/(5**number);\r\n                newDna = algorithm - algorithm % 100 + valueRarity + randMod(7);\r\n            }else{\r\n                uint algorithm = (myTruffle.dna + myTargetDna.dna)*(4**number)/(5**number);\r\n                newDna = algorithm - algorithm % 100 + valueRarity3;\r\n            }\r\n        }if(valueRarity <= 60 && valueRarity2 > 60){\r\n            if(rand >= 80){\r\n                uint algorithm = (myTruffle.dna + myTargetDna.dna)*(4**number2)/(5**number2);\r\n                newDna = algorithm - algorithm % 100 + valueRarity2 + randMod(7);\r\n            }else{\r\n                uint algorithm = (myTruffle.dna + myTargetDna.dna)*(4**number2)/(5**number2);\r\n                newDna = algorithm - algorithm % 100 + valueRarity3;\r\n            }\r\n        }\r\n        uint newGen = _getTruffleGen(myTruffle, myTargetDna);\r\n\r\n        _createTruffle(\"New Truffle\", newDna, dadId, mumId, newGen);\r\n        _triggerCooldown(myTruffle);\r\n        _triggerCooldown(myTargetDna);\r\n        payable(admin).transfer(breedFee); \r\n    }\r\n    function GiftToken(address _from, address _to, uint256 _tokenId) external {\r\n        _transfer(_from, _to, _tokenId);\r\n        tokenIdToPrice[_tokenId] = 0; // not for sale anymore\r\n        Truffle storage myTruffle = truffles[_tokenId];\r\n        myTruffle.sell = 0;\r\n        myTruffle.sellTime = 0;\r\n        // update the token's previous owner\r\n        // update the token's current owner\r\n        myTruffle.currentOwner = _to;\r\n    }\r\n\r\n    function allowBuy(uint256 _tokenId, uint256 _price) external payable {\r\n        require(msg.sender == ownerOf(_tokenId), \"Not owner of this token\");\r\n        require(msg.value >= sellFee,\"Price must be equal to listing price\");\r\n        require(_price > 0, \"Price must be at least 1 wei\");\r\n        Truffle storage myTokenID = truffles[_tokenId];\r\n        require(_isReady(myTokenID), \"Breed not reedy\");\r\n        tokenIdToPrice[_tokenId] = _price;\r\n        Truffle storage myTruffle = truffles[_tokenId];\r\n        myTruffle.sell = _price;\r\n        myTruffle.sellTime = uint32(block.timestamp);\r\n    }\r\n\r\n    function disallowBuy(uint256 _tokenId) external {\r\n        require(msg.sender == ownerOf(_tokenId), \"Not owner of this token\");\r\n        tokenIdToPrice[_tokenId] = 0;\r\n        Truffle storage myTruffle = truffles[_tokenId];\r\n        myTruffle.sell = 0;\r\n        myTruffle.sellTime = 0;\r\n    }\r\n\r\n    function buy(uint256 _tokenId) external payable {\r\n        uint256 price = tokenIdToPrice[_tokenId];\r\n        require(price > 0, \"This token is not for sale\");\r\n        require(\r\n            msg.value == price,\r\n            \"Please submit the asking price in order to complete the purchase\"\r\n        );\r\n\r\n        address seller = ownerOf(_tokenId);\r\n\r\n        _transfer(seller, msg.sender, _tokenId);\r\n        tokenIdToPrice[_tokenId] = 0; // not for sale anymore\r\n        Truffle storage myTruffle = truffles[_tokenId];\r\n        myTruffle.sell = 0;\r\n        myTruffle.sellTime = 0;\r\n        payable(seller).transfer(msg.value); // send the ETH to the seller\r\n        payable(admin).transfer(sellFee); \r\n        // update the token's current owner\r\n        myTruffle.currentOwner = msg.sender;\r\n\r\n        emit BuyTruffle(seller, msg.sender, msg.value);\r\n    }\r\n\r\n    function changePrice(uint256 _tokenId, uint256 _newPrice) external {\r\n        require(_exists(_tokenId));\r\n        require(_newPrice > 0, \"Price must be at least 1 wei\");\r\n        address seller = ownerOf(_tokenId);\r\n        require(seller == msg.sender);\r\n        tokenIdToPrice[_tokenId] = _newPrice;\r\n        Truffle storage myTruffle = truffles[_tokenId];\r\n        myTruffle.sell = _newPrice;\r\n        myTruffle.sellTime = uint32(block.timestamp);\r\n    }\r\n\r\n    function getAllTruffleSell() public view returns (Truffle[] memory) {\r\n        uint256 counter = 0;\r\n        uint256 itemCount = 0;\r\n        for (uint256 i = 0; i < truffles.length; i++) {\r\n            if (truffles[i].sell > 0) {\r\n                itemCount += 1;\r\n            }\r\n        }\r\n        Truffle[] memory truffleSell = new Truffle[](itemCount);\r\n        for (uint256 i = 0; i < truffles.length; i++) {\r\n            if (truffles[i].sell > 0) {\r\n                truffleSell[counter] = truffles[i];\r\n                counter++;\r\n            }\r\n        }\r\n        return truffleSell;\r\n    }\r\n\r\n    function getOwnerTrufflesSell(address _owner) public view returns (Truffle[] memory) {\r\n        uint256 counter = 0;\r\n        uint itemCount = 0;\r\n        for (uint i = 0; i < truffles.length; i++) {\r\n          if (ownerOf(i) == _owner && truffles[i].sell > 0) {\r\n                itemCount += 1;\r\n            }\r\n        }\r\n        Truffle[] memory result = new Truffle[](itemCount);\r\n        for (uint256 i = 0; i < truffles.length; i++) {\r\n            if (ownerOf(i) == _owner && truffles[i].sell > 0) {\r\n                result[counter] = truffles[i];\r\n                counter++;\r\n            }\r\n        }\r\n        return result;\r\n    }\r\n\r\n    function dailyMission(uint256 _tokenId ) external {\r\n        require(msg.sender == ownerOf(_tokenId), \"Not owner of this token\");\r\n        Truffle storage myTruffle = truffles[_tokenId];\r\n        require(myTruffle.level < 20);\r\n        require(myTruffle.sell == 0);\r\n        require(_isReady(myTruffle));\r\n        uint8 valueRarity = uint8(myTruffle.dna % 100);\r\n        uint rand = randMod(100);\r\n        if(valueRarity <= 10){\r\n            if(rand <= 20)\r\n                myTruffle.level++;\r\n        }else if(valueRarity > 10 && valueRarity <= 30){\r\n            if(rand <= 35)\r\n                myTruffle.level++;\r\n        }else if(valueRarity > 30 && valueRarity <= 50){\r\n            if(rand <= 40)\r\n                myTruffle.level++;\r\n        }else if(valueRarity > 50 && valueRarity <= 70){\r\n            if(rand <= 45)\r\n                myTruffle.level++;\r\n        }\r\n        else if(valueRarity > 70 && valueRarity <= 90){\r\n            if(rand <= 60)\r\n                myTruffle.level++;\r\n        }\r\n        else if(valueRarity > 90){\r\n            if(rand <= 70)\r\n                myTruffle.level++;\r\n        }\r\n\r\n        myTruffle.readyTime = uint32(block.timestamp + 1 days);\r\n    }\r\n}",
  "sourcePath": "D:\\Code\\project-game-truffle-dapp\\contracts\\TruffleFactory.sol",
  "compiler": {
    "name": "solc",
    "version": "0.8.0+commit.c7dfd78e.Emscripten.clang"
  },
  "schemaVersion": "3.4.4",
  "updatedAt": "2021-12-27T16:16:26.391Z",
  "networkType": "ethereum",
  "devdoc": {
    "kind": "dev",
    "methods": {
      "approve(address,uint256)": {
        "details": "See {IERC721-approve}."
      },
      "balanceOf(address)": {
        "details": "See {IERC721-balanceOf}."
      },
      "getApproved(uint256)": {
        "details": "See {IERC721-getApproved}."
      },
      "isApprovedForAll(address,address)": {
        "details": "See {IERC721-isApprovedForAll}."
      },
      "name()": {
        "details": "See {IERC721Metadata-name}."
      },
      "owner()": {
        "details": "Returns the address of the current owner."
      },
      "ownerOf(uint256)": {
        "details": "See {IERC721-ownerOf}."
      },
      "renounceOwnership()": {
        "details": "Leaves the contract without owner. It will not be possible to call `onlyOwner` functions anymore. Can only be called by the current owner. NOTE: Renouncing ownership will leave the contract without an owner, thereby removing any functionality that is only available to the owner."
      },
      "safeTransferFrom(address,address,uint256)": {
        "details": "See {IERC721-safeTransferFrom}."
      },
      "safeTransferFrom(address,address,uint256,bytes)": {
        "details": "See {IERC721-safeTransferFrom}."
      },
      "setApprovalForAll(address,bool)": {
        "details": "See {IERC721-setApprovalForAll}."
      },
      "supportsInterface(bytes4)": {
        "details": "See {IERC165-supportsInterface}."
      },
      "symbol()": {
        "details": "See {IERC721Metadata-symbol}."
      },
      "tokenURI(uint256)": {
        "details": "See {IERC721Metadata-tokenURI}."
      },
      "transferFrom(address,address,uint256)": {
        "details": "See {IERC721-transferFrom}."
      },
      "transferOwnership(address)": {
        "details": "Transfers ownership of the contract to a new account (`newOwner`). Can only be called by the current owner."
      }
    },
    "version": 1
  },
  "userdoc": {
    "kind": "user",
    "methods": {},
    "version": 1
  }
}