{
  "contractName": "TruffleFactory",
  "abi": [
    {
      "inputs": [],
      "stateMutability": "nonpayable",
      "type": "constructor"
    },
    {
      "anonymous": false,
      "inputs": [
        {
          "indexed": true,
          "internalType": "address",
          "name": "owner",
          "type": "address"
        },
        {
          "indexed": true,
          "internalType": "address",
          "name": "approved",
          "type": "address"
        },
        {
          "indexed": true,
          "internalType": "uint256",
          "name": "tokenId",
          "type": "uint256"
        }
      ],
      "name": "Approval",
      "type": "event"
    },
    {
      "anonymous": false,
      "inputs": [
        {
          "indexed": true,
          "internalType": "address",
          "name": "owner",
          "type": "address"
        },
        {
          "indexed": true,
          "internalType": "address",
          "name": "operator",
          "type": "address"
        },
        {
          "indexed": false,
          "internalType": "bool",
          "name": "approved",
          "type": "bool"
        }
      ],
      "name": "ApprovalForAll",
      "type": "event"
    },
    {
      "anonymous": false,
      "inputs": [
        {
          "indexed": false,
          "internalType": "address",
          "name": "_seller",
          "type": "address"
        },
        {
          "indexed": false,
          "internalType": "address",
          "name": "_buyer",
          "type": "address"
        },
        {
          "indexed": false,
          "internalType": "uint256",
          "name": "_price",
          "type": "uint256"
        }
      ],
      "name": "BuyTruffle",
      "type": "event"
    },
    {
      "anonymous": false,
      "inputs": [
        {
          "indexed": true,
          "internalType": "address",
          "name": "owner",
          "type": "address"
        },
        {
          "indexed": false,
          "internalType": "uint256",
          "name": "id",
          "type": "uint256"
        },
        {
          "indexed": false,
          "internalType": "uint256",
          "name": "dna",
          "type": "uint256"
        }
      ],
      "name": "NewTruffle",
      "type": "event"
    },
    {
      "anonymous": false,
      "inputs": [
        {
          "indexed": true,
          "internalType": "address",
          "name": "previousOwner",
          "type": "address"
        },
        {
          "indexed": true,
          "internalType": "address",
          "name": "newOwner",
          "type": "address"
        }
      ],
      "name": "OwnershipTransferred",
      "type": "event"
    },
    {
      "anonymous": false,
      "inputs": [
        {
          "indexed": true,
          "internalType": "address",
          "name": "from",
          "type": "address"
        },
        {
          "indexed": true,
          "internalType": "address",
          "name": "to",
          "type": "address"
        },
        {
          "indexed": true,
          "internalType": "uint256",
          "name": "tokenId",
          "type": "uint256"
        }
      ],
      "name": "Transfer",
      "type": "event"
    },
    {
      "inputs": [],
      "name": "admin",
      "outputs": [
        {
          "internalType": "address",
          "name": "",
          "type": "address"
        }
      ],
      "stateMutability": "view",
      "type": "function",
      "constant": true
    },
    {
      "inputs": [
        {
          "internalType": "address",
          "name": "to",
          "type": "address"
        },
        {
          "internalType": "uint256",
          "name": "tokenId",
          "type": "uint256"
        }
      ],
      "name": "approve",
      "outputs": [],
      "stateMutability": "nonpayable",
      "type": "function"
    },
    {
      "inputs": [
        {
          "internalType": "address",
          "name": "owner",
          "type": "address"
        }
      ],
      "name": "balanceOf",
      "outputs": [
        {
          "internalType": "uint256",
          "name": "",
          "type": "uint256"
        }
      ],
      "stateMutability": "view",
      "type": "function",
      "constant": true
    },
    {
      "inputs": [
        {
          "internalType": "uint256",
          "name": "",
          "type": "uint256"
        }
      ],
      "name": "cooldowns",
      "outputs": [
        {
          "internalType": "uint32",
          "name": "",
          "type": "uint32"
        }
      ],
      "stateMutability": "view",
      "type": "function",
      "constant": true
    },
    {
      "inputs": [
        {
          "internalType": "uint256",
          "name": "tokenId",
          "type": "uint256"
        }
      ],
      "name": "getApproved",
      "outputs": [
        {
          "internalType": "address",
          "name": "",
          "type": "address"
        }
      ],
      "stateMutability": "view",
      "type": "function",
      "constant": true
    },
    {
      "inputs": [
        {
          "internalType": "address",
          "name": "owner",
          "type": "address"
        },
        {
          "internalType": "address",
          "name": "operator",
          "type": "address"
        }
      ],
      "name": "isApprovedForAll",
      "outputs": [
        {
          "internalType": "bool",
          "name": "",
          "type": "bool"
        }
      ],
      "stateMutability": "view",
      "type": "function",
      "constant": true
    },
    {
      "inputs": [],
      "name": "name",
      "outputs": [
        {
          "internalType": "string",
          "name": "",
          "type": "string"
        }
      ],
      "stateMutability": "view",
      "type": "function",
      "constant": true
    },
    {
      "inputs": [],
      "name": "owner",
      "outputs": [
        {
          "internalType": "address",
          "name": "",
          "type": "address"
        }
      ],
      "stateMutability": "view",
      "type": "function",
      "constant": true
    },
    {
      "inputs": [
        {
          "internalType": "uint256",
          "name": "tokenId",
          "type": "uint256"
        }
      ],
      "name": "ownerOf",
      "outputs": [
        {
          "internalType": "address",
          "name": "",
          "type": "address"
        }
      ],
      "stateMutability": "view",
      "type": "function",
      "constant": true
    },
    {
      "inputs": [],
      "name": "renounceOwnership",
      "outputs": [],
      "stateMutability": "nonpayable",
      "type": "function"
    },
    {
      "inputs": [
        {
          "internalType": "address",
          "name": "from",
          "type": "address"
        },
        {
          "internalType": "address",
          "name": "to",
          "type": "address"
        },
        {
          "internalType": "uint256",
          "name": "tokenId",
          "type": "uint256"
        }
      ],
      "name": "safeTransferFrom",
      "outputs": [],
      "stateMutability": "nonpayable",
      "type": "function"
    },
    {
      "inputs": [
        {
          "internalType": "address",
          "name": "from",
          "type": "address"
        },
        {
          "internalType": "address",
          "name": "to",
          "type": "address"
        },
        {
          "internalType": "uint256",
          "name": "tokenId",
          "type": "uint256"
        },
        {
          "internalType": "bytes",
          "name": "_data",
          "type": "bytes"
        }
      ],
      "name": "safeTransferFrom",
      "outputs": [],
      "stateMutability": "nonpayable",
      "type": "function"
    },
    {
      "inputs": [
        {
          "internalType": "address",
          "name": "operator",
          "type": "address"
        },
        {
          "internalType": "bool",
          "name": "approved",
          "type": "bool"
        }
      ],
      "name": "setApprovalForAll",
      "outputs": [],
      "stateMutability": "nonpayable",
      "type": "function"
    },
    {
      "inputs": [
        {
          "internalType": "bytes4",
          "name": "interfaceId",
          "type": "bytes4"
        }
      ],
      "name": "supportsInterface",
      "outputs": [
        {
          "internalType": "bool",
          "name": "",
          "type": "bool"
        }
      ],
      "stateMutability": "view",
      "type": "function",
      "constant": true
    },
    {
      "inputs": [],
      "name": "symbol",
      "outputs": [
        {
          "internalType": "string",
          "name": "",
          "type": "string"
        }
      ],
      "stateMutability": "view",
      "type": "function",
      "constant": true
    },
    {
      "inputs": [
        {
          "internalType": "uint256",
          "name": "",
          "type": "uint256"
        }
      ],
      "name": "tokenIdToPrice",
      "outputs": [
        {
          "internalType": "uint256",
          "name": "",
          "type": "uint256"
        }
      ],
      "stateMutability": "view",
      "type": "function",
      "constant": true
    },
    {
      "inputs": [
        {
          "internalType": "uint256",
          "name": "tokenId",
          "type": "uint256"
        }
      ],
      "name": "tokenURI",
      "outputs": [
        {
          "internalType": "string",
          "name": "",
          "type": "string"
        }
      ],
      "stateMutability": "view",
      "type": "function",
      "constant": true
    },
    {
      "inputs": [
        {
          "internalType": "address",
          "name": "from",
          "type": "address"
        },
        {
          "internalType": "address",
          "name": "to",
          "type": "address"
        },
        {
          "internalType": "uint256",
          "name": "tokenId",
          "type": "uint256"
        }
      ],
      "name": "transferFrom",
      "outputs": [],
      "stateMutability": "nonpayable",
      "type": "function"
    },
    {
      "inputs": [
        {
          "internalType": "address",
          "name": "newOwner",
          "type": "address"
        }
      ],
      "name": "transferOwnership",
      "outputs": [],
      "stateMutability": "nonpayable",
      "type": "function"
    },
    {
      "inputs": [
        {
          "internalType": "uint256",
          "name": "",
          "type": "uint256"
        }
      ],
      "name": "truffles",
      "outputs": [
        {
          "internalType": "string",
          "name": "name",
          "type": "string"
        },
        {
          "internalType": "uint256",
          "name": "id",
          "type": "uint256"
        },
        {
          "internalType": "uint256",
          "name": "dna",
          "type": "uint256"
        },
        {
          "internalType": "uint8",
          "name": "level",
          "type": "uint8"
        },
        {
          "internalType": "uint8",
          "name": "rarity",
          "type": "uint8"
        },
        {
          "internalType": "address",
          "name": "currentOwner",
          "type": "address"
        },
        {
          "internalType": "uint32",
          "name": "readyTime",
          "type": "uint32"
        },
        {
          "internalType": "uint8",
          "name": "dadId",
          "type": "uint8"
        },
        {
          "internalType": "uint8",
          "name": "mumId",
          "type": "uint8"
        },
        {
          "internalType": "uint256",
          "name": "sell",
          "type": "uint256"
        },
        {
          "internalType": "uint32",
          "name": "sellTime",
          "type": "uint32"
        },
        {
          "internalType": "uint256",
          "name": "gen0",
          "type": "uint256"
        }
      ],
      "stateMutability": "view",
      "type": "function",
      "constant": true
    },
    {
      "inputs": [],
      "name": "getFee",
      "outputs": [
        {
          "internalType": "uint256",
          "name": "",
          "type": "uint256"
        }
      ],
      "stateMutability": "view",
      "type": "function",
      "constant": true
    },
    {
      "inputs": [],
      "name": "getleveUpFee",
      "outputs": [
        {
          "internalType": "uint256",
          "name": "",
          "type": "uint256"
        }
      ],
      "stateMutability": "view",
      "type": "function",
      "constant": true
    },
    {
      "inputs": [],
      "name": "getFeeBreed",
      "outputs": [
        {
          "internalType": "uint256",
          "name": "",
          "type": "uint256"
        }
      ],
      "stateMutability": "view",
      "type": "function",
      "constant": true
    },
    {
      "inputs": [],
      "name": "getFeeSell",
      "outputs": [
        {
          "internalType": "uint256",
          "name": "",
          "type": "uint256"
        }
      ],
      "stateMutability": "view",
      "type": "function",
      "constant": true
    },
    {
      "inputs": [
        {
          "internalType": "string",
          "name": "_name",
          "type": "string"
        }
      ],
      "name": "createRandomTruffleFree",
      "outputs": [],
      "stateMutability": "nonpayable",
      "type": "function"
    },
    {
      "inputs": [
        {
          "internalType": "string",
          "name": "_name",
          "type": "string"
        }
      ],
      "name": "createRandomTruffle",
      "outputs": [],
      "stateMutability": "payable",
      "type": "function",
      "payable": true
    },
    {
      "inputs": [],
      "name": "getTruffle",
      "outputs": [
        {
          "components": [
            {
              "internalType": "string",
              "name": "name",
              "type": "string"
            },
            {
              "internalType": "uint256",
              "name": "id",
              "type": "uint256"
            },
            {
              "internalType": "uint256",
              "name": "dna",
              "type": "uint256"
            },
            {
              "internalType": "uint8",
              "name": "level",
              "type": "uint8"
            },
            {
              "internalType": "uint8",
              "name": "rarity",
              "type": "uint8"
            },
            {
              "internalType": "address",
              "name": "currentOwner",
              "type": "address"
            },
            {
              "internalType": "uint32",
              "name": "readyTime",
              "type": "uint32"
            },
            {
              "internalType": "uint8",
              "name": "dadId",
              "type": "uint8"
            },
            {
              "internalType": "uint8",
              "name": "mumId",
              "type": "uint8"
            },
            {
              "internalType": "uint256",
              "name": "sell",
              "type": "uint256"
            },
            {
              "internalType": "uint32",
              "name": "sellTime",
              "type": "uint32"
            },
            {
              "internalType": "uint256",
              "name": "gen0",
              "type": "uint256"
            }
          ],
          "internalType": "struct TruffleFactory.Truffle[]",
          "name": "",
          "type": "tuple[]"
        }
      ],
      "stateMutability": "view",
      "type": "function",
      "constant": true
    },
    {
      "inputs": [
        {
          "internalType": "address",
          "name": "_owner",
          "type": "address"
        }
      ],
      "name": "getOwnerTruffles",
      "outputs": [
        {
          "components": [
            {
              "internalType": "string",
              "name": "name",
              "type": "string"
            },
            {
              "internalType": "uint256",
              "name": "id",
              "type": "uint256"
            },
            {
              "internalType": "uint256",
              "name": "dna",
              "type": "uint256"
            },
            {
              "internalType": "uint8",
              "name": "level",
              "type": "uint8"
            },
            {
              "internalType": "uint8",
              "name": "rarity",
              "type": "uint8"
            },
            {
              "internalType": "address",
              "name": "currentOwner",
              "type": "address"
            },
            {
              "internalType": "uint32",
              "name": "readyTime",
              "type": "uint32"
            },
            {
              "internalType": "uint8",
              "name": "dadId",
              "type": "uint8"
            },
            {
              "internalType": "uint8",
              "name": "mumId",
              "type": "uint8"
            },
            {
              "internalType": "uint256",
              "name": "sell",
              "type": "uint256"
            },
            {
              "internalType": "uint32",
              "name": "sellTime",
              "type": "uint32"
            },
            {
              "internalType": "uint256",
              "name": "gen0",
              "type": "uint256"
            }
          ],
          "internalType": "struct TruffleFactory.Truffle[]",
          "name": "",
          "type": "tuple[]"
        }
      ],
      "stateMutability": "view",
      "type": "function",
      "constant": true
    },
    {
      "inputs": [
        {
          "internalType": "uint256",
          "name": "_fee",
          "type": "uint256"
        }
      ],
      "name": "updateFee",
      "outputs": [],
      "stateMutability": "nonpayable",
      "type": "function"
    },
    {
      "inputs": [
        {
          "internalType": "uint256",
          "name": "_feeLevelUp",
          "type": "uint256"
        }
      ],
      "name": "updateFeeLevelUp",
      "outputs": [],
      "stateMutability": "nonpayable",
      "type": "function"
    },
    {
      "inputs": [
        {
          "internalType": "uint256",
          "name": "_feeBreed",
          "type": "uint256"
        }
      ],
      "name": "updateFeeBreed",
      "outputs": [],
      "stateMutability": "nonpayable",
      "type": "function"
    },
    {
      "inputs": [
        {
          "internalType": "uint256",
          "name": "_feeSell",
          "type": "uint256"
        }
      ],
      "name": "updateFeeSell",
      "outputs": [],
      "stateMutability": "nonpayable",
      "type": "function"
    },
    {
      "inputs": [],
      "name": "withdraw",
      "outputs": [],
      "stateMutability": "payable",
      "type": "function",
      "payable": true
    },
    {
      "inputs": [
        {
          "internalType": "uint256",
          "name": "_TruffleId",
          "type": "uint256"
        }
      ],
      "name": "levelUp",
      "outputs": [],
      "stateMutability": "payable",
      "type": "function",
      "payable": true
    },
    {
      "inputs": [
        {
          "internalType": "uint256",
          "name": "_TruffleId",
          "type": "uint256"
        },
        {
          "internalType": "string",
          "name": "_newName",
          "type": "string"
        }
      ],
      "name": "updateName",
      "outputs": [],
      "stateMutability": "nonpayable",
      "type": "function"
    },
    {
      "inputs": [
        {
          "internalType": "uint256",
          "name": "_truffleId",
          "type": "uint256"
        },
        {
          "internalType": "uint256",
          "name": "_targetDna",
          "type": "uint256"
        }
      ],
      "name": "BreedAndMultiply",
      "outputs": [],
      "stateMutability": "payable",
      "type": "function",
      "payable": true
    },
    {
      "inputs": [
        {
          "internalType": "address",
          "name": "_from",
          "type": "address"
        },
        {
          "internalType": "address",
          "name": "_to",
          "type": "address"
        },
        {
          "internalType": "uint256",
          "name": "_tokenId",
          "type": "uint256"
        }
      ],
      "name": "GiftToken",
      "outputs": [],
      "stateMutability": "nonpayable",
      "type": "function"
    },
    {
      "inputs": [
        {
          "internalType": "uint256",
          "name": "_tokenId",
          "type": "uint256"
        },
        {
          "internalType": "uint256",
          "name": "_price",
          "type": "uint256"
        }
      ],
      "name": "allowBuy",
      "outputs": [],
      "stateMutability": "payable",
      "type": "function",
      "payable": true
    },
    {
      "inputs": [
        {
          "internalType": "uint256",
          "name": "_tokenId",
          "type": "uint256"
        }
      ],
      "name": "disallowBuy",
      "outputs": [],
      "stateMutability": "nonpayable",
      "type": "function"
    },
    {
      "inputs": [
        {
          "internalType": "uint256",
          "name": "_tokenId",
          "type": "uint256"
        }
      ],
      "name": "buy",
      "outputs": [],
      "stateMutability": "payable",
      "type": "function",
      "payable": true
    },
    {
      "inputs": [
        {
          "internalType": "uint256",
          "name": "_tokenId",
          "type": "uint256"
        },
        {
          "internalType": "uint256",
          "name": "_newPrice",
          "type": "uint256"
        }
      ],
      "name": "changePrice",
      "outputs": [],
      "stateMutability": "nonpayable",
      "type": "function"
    },
    {
      "inputs": [],
      "name": "getAllTruffleSell",
      "outputs": [
        {
          "components": [
            {
              "internalType": "string",
              "name": "name",
              "type": "string"
            },
            {
              "internalType": "uint256",
              "name": "id",
              "type": "uint256"
            },
            {
              "internalType": "uint256",
              "name": "dna",
              "type": "uint256"
            },
            {
              "internalType": "uint8",
              "name": "level",
              "type": "uint8"
            },
            {
              "internalType": "uint8",
              "name": "rarity",
              "type": "uint8"
            },
            {
              "internalType": "address",
              "name": "currentOwner",
              "type": "address"
            },
            {
              "internalType": "uint32",
              "name": "readyTime",
              "type": "uint32"
            },
            {
              "internalType": "uint8",
              "name": "dadId",
              "type": "uint8"
            },
            {
              "internalType": "uint8",
              "name": "mumId",
              "type": "uint8"
            },
            {
              "internalType": "uint256",
              "name": "sell",
              "type": "uint256"
            },
            {
              "internalType": "uint32",
              "name": "sellTime",
              "type": "uint32"
            },
            {
              "internalType": "uint256",
              "name": "gen0",
              "type": "uint256"
            }
          ],
          "internalType": "struct TruffleFactory.Truffle[]",
          "name": "",
          "type": "tuple[]"
        }
      ],
      "stateMutability": "view",
      "type": "function",
      "constant": true
    },
    {
      "inputs": [
        {
          "internalType": "address",
          "name": "_owner",
          "type": "address"
        }
      ],
      "name": "getOwnerTrufflesSell",
      "outputs": [
        {
          "components": [
            {
              "internalType": "string",
              "name": "name",
              "type": "string"
            },
            {
              "internalType": "uint256",
              "name": "id",
              "type": "uint256"
            },
            {
              "internalType": "uint256",
              "name": "dna",
              "type": "uint256"
            },
            {
              "internalType": "uint8",
              "name": "level",
              "type": "uint8"
            },
            {
              "internalType": "uint8",
              "name": "rarity",
              "type": "uint8"
            },
            {
              "internalType": "address",
              "name": "currentOwner",
              "type": "address"
            },
            {
              "internalType": "uint32",
              "name": "readyTime",
              "type": "uint32"
            },
            {
              "internalType": "uint8",
              "name": "dadId",
              "type": "uint8"
            },
            {
              "internalType": "uint8",
              "name": "mumId",
              "type": "uint8"
            },
            {
              "internalType": "uint256",
              "name": "sell",
              "type": "uint256"
            },
            {
              "internalType": "uint32",
              "name": "sellTime",
              "type": "uint32"
            },
            {
              "internalType": "uint256",
              "name": "gen0",
              "type": "uint256"
            }
          ],
          "internalType": "struct TruffleFactory.Truffle[]",
          "name": "",
          "type": "tuple[]"
        }
      ],
      "stateMutability": "view",
      "type": "function",
      "constant": true
    },
    {
      "inputs": [
        {
          "internalType": "uint256",
          "name": "_tokenId",
          "type": "uint256"
        }
      ],
      "name": "dailyMission",
      "outputs": [],
      "stateMutability": "nonpayable",
      "type": "function"
    }
  ],
  "bytecode": "0x662386f26fc1000060098190556658d15e17628000600a5566038d7ea4c68000600b819055600c91909155600d556000600e55610708600f55610100604052617080608090815261a8c060a0526201518060c0526202a30060e0526200006a906011906004620001a6565b503480156200007857600080fd5b50604080518082018252600781527f54727566666c650000000000000000000000000000000000000000000000000060208083019182528351808501909452600384527f5446540000000000000000000000000000000000000000000000000000000000908401528151919291620000f39160009162000249565b5080516200010990600190602084019062000249565b505050620001386200012962000150640100000000026401000000009004565b64010000000062000154810204565b60088054600160a060020a0319163317905562000333565b3390565b60068054600160a060020a03838116600160a060020a0319831681179093556040519116919082907f8be0079c531659141344cd1fd0a4f28419497f9722a3daafe3b4186f6b6457e090600090a35050565b600183019183908215620002375791602002820160005b838211156200020357835183826101000a81548163ffffffff021916908363ffffffff1602179055509260200192600401602081600301049283019260010302620001bd565b8015620002355782816101000a81549063ffffffff021916905560040160208160030104928301926001030262000203565b505b5062000245929150620002c6565b5090565b8280546200025790620002dd565b90600052602060002090601f0160209004810192826200027b576000855562000237565b82601f106200029657805160ff191683800117855562000237565b8280016001018555821562000237579182015b8281111562000237578251825591602001919060010190620002a9565b5b80821115620002455760008155600101620002c7565b600281046001821680620002f257607f821691505b602082108114156200032d577f4e487b7100000000000000000000000000000000000000000000000000000000600052602260045260246000fd5b50919050565b61525780620003436000396000f3fe608060405260043610610284576000357c010000000000000000000000000000000000000000000000000000000090048063962a8ba311610161578063ced72f87116100d3578063e985e9c511610097578063e985e9c514610700578063f2fde38b14610720578063f4812eb914610740578063f628d6d114610760578063f851a44014610780578063ff5df90a1461079557610284565b8063ced72f8714610678578063d49913121461068d578063d96a094a146106ad578063deb4022f146106c0578063e41296a7146106e057610284565b8063a22cb46511610125578063a22cb465146105d0578063b1569412146105f0578063b3de019c14610605578063b88d4fde14610625578063bbb5e8d314610645578063c87b56dd1461065857610284565b8063962a8ba3146105465780639d678a9c146105595780639d6fac6f1461056e578063a01ce4081461059b578063a22cb393146105bb57610284565b806353e76f2c116101fa57806377853218116101be57806377853218146104a757806377e00c31146104bc578063884a326e146104dc5780638da5cb5b146104fc5780639012c4a81461051157806395d89b411461053157610284565b806353e76f2c146104105780636352211e14610430578063658cff5b1461045057806370a0823114610472578063715018a61461049257610284565b806323b872dd1161024c57806323b872dd1461034357806325a5c16c146103635780633ccfd60b1461038357806342842e0e1461038b57806344b17626146103ab5780634cc37fc0146103d857610284565b806301ffc9a71461028957806306fdde03146102bf578063081812fc146102e1578063095ea7b31461030e5780630ce90ec214610330575b600080fd5b34801561029557600080fd5b506102a96102a436600461433b565b6107a8565b6040516102b691906146ed565b60405180910390f35b3480156102cb57600080fd5b506102d4610822565b6040516102b691906146f8565b3480156102ed57600080fd5b506103016102fc3660046143b9565b6108b4565b6040516102b69190614555565b34801561031a57600080fd5b5061032e610329366004614312565b610903565b005b61032e61033e3660046143b9565b6109a1565b34801561034f57600080fd5b5061032e61035e366004614224565b610a98565b34801561036f57600080fd5b5061032e61037e366004614373565b610ad3565b61032e610ba8565b34801561039757600080fd5b5061032e6103a6366004614224565b610c31565b3480156103b757600080fd5b506103cb6103c63660046141d8565b610c4c565b6040516102b691906145c9565b3480156103e457600080fd5b506103f86103f33660046143b9565b610eaf565b6040516102b69c9b9a9998979695949392919061470b565b34801561041c57600080fd5b5061032e61042b3660046143d1565b610fce565b34801561043c57600080fd5b5061030161044b3660046143b9565b6110c5565b34801561045c57600080fd5b506104656110fd565b6040516102b69190614efa565b34801561047e57600080fd5b5061046561048d3660046141d8565b611103565b34801561049e57600080fd5b5061032e61114a565b3480156104b357600080fd5b50610465611198565b3480156104c857600080fd5b506103cb6104d73660046141d8565b61119e565b3480156104e857600080fd5b5061032e6104f73660046143b9565b6114cd565b34801561050857600080fd5b50610301611514565b34801561051d57600080fd5b5061032e61052c3660046143b9565b611523565b34801561053d57600080fd5b506102d461156a565b61032e610554366004614448565b611579565b34801561056557600080fd5b506103cb61232f565b34801561057a57600080fd5b5061058e6105893660046143b9565b612613565b6040516102b69190614f11565b3480156105a757600080fd5b5061032e6105b63660046143b9565b612643565b3480156105c757600080fd5b5061046561268a565b3480156105dc57600080fd5b5061032e6105eb3660046142d8565b612690565b3480156105fc57600080fd5b506103cb612761565b34801561061157600080fd5b5061032e610620366004614448565b6128ef565b34801561063157600080fd5b5061032e61064036600461425f565b6129af565b61032e610653366004614448565b6129eb565b34801561066457600080fd5b506102d46106733660046143b9565b612acd565b34801561068457600080fd5b50610465612b53565b34801561069957600080fd5b5061032e6106a83660046143b9565b612b59565b61032e6106bb3660046143b9565b612bf5565b3480156106cc57600080fd5b5061032e6106db3660046143b9565b612d9e565b3480156106ec57600080fd5b5061032e6106fb366004614224565b612de5565b34801561070c57600080fd5b506102a961071b3660046141f2565b612e89565b34801561072c57600080fd5b5061032e61073b3660046141d8565b612eb9565b34801561074c57600080fd5b5061046561075b3660046143b9565b612f30565b34801561076c57600080fd5b5061032e61077b3660046143b9565b612f42565b34801561078c57600080fd5b506103016131ac565b61032e6107a3366004614373565b6131bb565b6000600160e060020a031982167f80ac58cd00000000000000000000000000000000000000000000000000000000148061080b5750600160e060020a031982167f5b5e139f00000000000000000000000000000000000000000000000000000000145b8061081a575061081a82613280565b90505b919050565b60606000805461083190615111565b80601f016020809104026020016040519081016040528092919081815260200182805461085d90615111565b80156108aa5780601f1061087f576101008083540402835291602001916108aa565b820191906000526020600020905b81548152906001019060200180831161088d57829003601f168201915b5050505050905090565b60006108bf826132b2565b6108e75760405160e560020a62461bcd0281526004016108de90614bcc565b60405180910390fd5b50600090815260046020526040902054600160a060020a031690565b600061090e826110c5565b905080600160a060020a031683600160a060020a031614156109455760405160e560020a62461bcd0281526004016108de90614d75565b80600160a060020a03166109576132cf565b600160a060020a0316148061097357506109738161071b6132cf565b6109925760405160e560020a62461bcd0281526004016108de906149eb565b61099c83836132d3565b505050565b600b5434146109af57600080fd5b336109b9826110c5565b600160a060020a0316146109cc57600080fd5b6000601482815481106109f25760e060020a634e487b7102600052603260045260246000fd5b600091825260209091206007909102016003810154909150601460ff90911610610a1b57600080fd5b600481015415610a2a57600080fd5b60038101805460ff16906000610a3f8361516a565b825460ff9182166101009390930a928302919092021990911617905550600854600b54604051600160a060020a039092169181156108fc0291906000818181858888f1935050505015801561099c573d6000803e3d6000fd5b610aa9610aa36132cf565b8261334e565b610ac85760405160e560020a62461bcd0281526004016108de90614e66565b61099c8383836133d6565b33610add57600080fd5b6000805b601454811015610b245733610af5826110c5565b600160a060020a03161415610b125781610b0e8161514f565b9250505b80610b1c8161514f565b915050610ae1565b5060028110610b3257600080fd5b610b3c6007613516565b60108190556103e811610b4e57600080fd5b6000610b598361351a565b90506000610b67600561355a565b610b7260648461518a565b610b7c90846150ce565b610b869190614f22565b610b91906001614f22565b9050610ba2848260008060006135ad565b50505050565b610bb06132cf565b600160a060020a0316610bc1611514565b600160a060020a031614610bea5760405160e560020a62461bcd0281526004016108de90614c86565b6000610bf4611514565b604051909150600160a060020a03821690303180156108fc02916000818181858888f19350505050158015610c2d573d6000803e3d6000fd5b5050565b61099c838383604051806020016040528060008152506129af565b60606000610c5983611103565b67ffffffffffffffff811115610c825760e060020a634e487b7102600052604160045260246000fd5b604051908082528060200260200182016040528015610cbb57816020015b610ca8613fe0565b815260200190600190039081610ca05790505b5090506000805b601454811015610ea65784600160a060020a0316610cdf826110c5565b600160a060020a03161415610e945760148181548110610d125760e060020a634e487b7102600052603260045260246000fd5b906000526020600020906007020160405180610180016040529081600082018054610d3c90615111565b80601f0160208091040260200160405190810160405280929190818152602001828054610d6890615111565b8015610db55780601f10610d8a57610100808354040283529160200191610db5565b820191906000526020600020905b815481529060010190602001808311610d9857829003601f168201915b50505091835250506001820154602082015260028201546040820152600382015460ff808216606084015261010080830482166080850152600160a060020a036201000084041660a085015263ffffffff60b060020a8404811660c086015260d060020a8404831660e086015260d860020a909304909116908301526004830154610120830152600583015416610140820152600690910154610160909101528351849084908110610e7a5760e060020a634e487b7102600052603260045260246000fd5b60200260200101819052508180610e909061514f565b9250505b80610e9e8161514f565b915050610cc2565b50909392505050565b60148181548110610ebf57600080fd5b9060005260206000209060070201600091509050806000018054610ee290615111565b80601f0160208091040260200160405190810160405280929190818152602001828054610f0e90615111565b8015610f5b5780601f10610f3057610100808354040283529160200191610f5b565b820191906000526020600020905b815481529060010190602001808311610f3e57829003601f168201915b505050600184015460028501546003860154600487015460058801546006909801549697939692955060ff80831695506101008304811694600160a060020a03620100008504169463ffffffff60b060020a860481169560d060020a810485169560d860020a909104909416939216908c565b6002838160148281548110610ff65760e060020a634e487b7102600052603260045260246000fd5b600091825260209091206003600790920201015460ff16101561101857600080fd5b33611022866110c5565b600160a060020a03161461103557600080fd5b60006014868154811061105b5760e060020a634e487b7102600052603260045260246000fd5b90600052602060002090600702019050806004015460001461107c57600080fd5b8484601488815481106110a25760e060020a634e487b7102600052603260045260246000fd5b600091825260209091206110bc9360079092020191614044565b50505050505050565b600081815260026020526040812054600160a060020a03168061081a5760405160e560020a62461bcd0281526004016108de90614aa5565b600b5490565b6000600160a060020a03821661112e5760405160e560020a62461bcd0281526004016108de90614a48565b50600160a060020a031660009081526003602052604090205490565b6111526132cf565b600160a060020a0316611163611514565b600160a060020a03161461118c5760405160e560020a62461bcd0281526004016108de90614c86565b6111966000613821565b565b600c5490565b606060008060005b6014548110156112335784600160a060020a03166111c3826110c5565b600160a060020a031614801561120e57506000601482815481106111fa5760e060020a634e487b7102600052603260045260246000fd5b906000526020600020906007020160040154115b156112215761121e600183614f22565b91505b8061122b8161514f565b9150506111a6565b5060008167ffffffffffffffff8111156112605760e060020a634e487b7102600052604160045260246000fd5b60405190808252806020026020018201604052801561129957816020015b611286613fe0565b81526020019060019003908161127e5790505b50905060005b6014548110156114c45785600160a060020a03166112bc826110c5565b600160a060020a031614801561130757506000601482815481106112f35760e060020a634e487b7102600052603260045260246000fd5b906000526020600020906007020160040154115b156114b257601481815481106113305760e060020a634e487b7102600052603260045260246000fd5b90600052602060002090600702016040518061018001604052908160008201805461135a90615111565b80601f016020809104026020016040519081016040528092919081815260200182805461138690615111565b80156113d35780601f106113a8576101008083540402835291602001916113d3565b820191906000526020600020905b8154815290600101906020018083116113b657829003601f168201915b50505091835250506001820154602082015260028201546040820152600382015460ff808216606084015261010080830482166080850152600160a060020a036201000084041660a085015263ffffffff60b060020a8404811660c086015260d060020a8404831660e086015260d860020a9093049091169083015260048301546101208301526005830154166101408201526006909101546101609091015282518390869081106114985760e060020a634e487b7102600052603260045260246000fd5b602002602001018190525083806114ae9061514f565b9450505b806114bc8161514f565b91505061129f565b50949350505050565b6114d56132cf565b600160a060020a03166114e6611514565b600160a060020a03161461150f5760405160e560020a62461bcd0281526004016108de90614c86565b600b55565b600654600160a060020a031690565b61152b6132cf565b600160a060020a031661153c611514565b600160a060020a0316146115655760405160e560020a62461bcd0281526004016108de90614c86565b600a55565b60606001805461083190615111565b600c54341461158757600080fd5b6000601483815481106115ad5760e060020a634e487b7102600052603260045260246000fd5b906000526020600020906007020190506000601483815481106115e35760e060020a634e487b7102600052603260045260246000fd5b906000526020600020906007020190508284141561160057600080fd5b3361160a856110c5565b600160a060020a03161461161d57600080fd5b33611627846110c5565b600160a060020a03161461163a57600080fd5b61164382613880565b6116625760405160e560020a62461bcd0281526004016108de90614b02565b61166b81613880565b61168a5760405160e560020a62461bcd0281526004016108de90614b02565b6004820154156116af5760405160e560020a62461bcd0281526004016108de90614c29565b6004810154156116d45760405160e560020a62461bcd0281526004016108de90614c29565b600180830154908201546003808501549084015460ff6101009283900481169290910416600060026117058361355a565b8360ff166117158660ff1661355a565b6117229060ff8816614f22565b61172c9190614f22565b61173691906150ce565b6117409190614f4e565b90506000606461175183600f6150a5565b61175b9190614f4e565b9050600061176a600a8661519e565b60ff169050600061177c600a8661519e565b60ff16905060008061178e606461355a565b905060638860ff161080156117a6575060638760ff16105b6117af57600080fd5b603c8860ff16111580156117c75750603c8760ff1611155b15611c5b57601e8860ff16111580156117e45750601e8760ff1611155b1561196a5760328110611901578660ff168860ff161061187f57600061180b856005614fb8565b611816866004614fb8565b8d600201548f6002015461182a9190614f22565b6118349190615086565b61183e9190614f3a565b905061184a600a61355a565b60ff8a1661185960648461518a565b61186390846150ce565b61186d9190614f22565b6118779190614f22565b9250506118fc565b600061188c846005614fb8565b611897856004614fb8565b8d600201548f600201546118ab9190614f22565b6118b59190615086565b6118bf9190614f3a565b90506118cb600a61355a565b60ff89166118da60648461518a565b6118e490846150ce565b6118ee9190614f22565b6118f89190614f22565b9250505b61196a565b600061190e856005614fb8565b611919866004614fb8565b8d600201548f6002015461192d9190614f22565b6119379190615086565b6119419190614f3a565b905060ff871661195260648361518a565b61195c90836150ce565b6119669190614f22565b9250505b601e8860ff161180156119805750601e8760ff16115b15611b195760378110611a9d578660ff168860ff1610611a1b5760006119a7856005614fb8565b6119b2866004614fb8565b8d600201548f600201546119c69190614f22565b6119d09190615086565b6119da9190614f3a565b90506119e6600a61355a565b60ff8a166119f560648461518a565b6119ff90846150ce565b611a099190614f22565b611a139190614f22565b925050611a98565b6000611a28846005614fb8565b611a33856004614fb8565b8d600201548f60020154611a479190614f22565b611a519190615086565b611a5b9190614f3a565b9050611a67600a61355a565b60ff8916611a7660648461518a565b611a8090846150ce565b611a8a9190614f22565b611a949190614f22565b9250505b611b14565b6000611aaa856005614fb8565b611ab5866004614fb8565b8d600201548f60020154611ac99190614f22565b611ad39190615086565b611add9190614f3a565b905060ff808716908816611af260648461518a565b611afc90846150ce565b611b069190614f22565b611b109190614f22565b9250505b611c5b565b603c8110611be4578660ff168860ff1610611b89576000611b3b856005614fb8565b611b46866004614fb8565b8d600201548f60020154611b5a9190614f22565b611b649190615086565b611b6e9190614f3a565b9050611b7a600a61355a565b60ff8a16611a7660648461518a565b6000611b96846005614fb8565b611ba1856004614fb8565b8d600201548f60020154611bb59190614f22565b611bbf9190615086565b611bc99190614f3a565b9050611bd5600a61355a565b60ff8916611af260648461518a565b6000611bf1856005614fb8565b611bfc866004614fb8565b8d600201548f60020154611c109190614f22565b611c1a9190615086565b611c249190614f3a565b905060ff808716908816611c3960648461518a565b611c4390846150ce565b611c4d9190614f22565b611c579190614f22565b9250505b603c8860ff16118015611c715750603c8760ff16115b15611df75760468110611d8e578660ff168860ff1610611d0c576000611c98856005614fb8565b611ca3866004614fb8565b8d600201548f60020154611cb79190614f22565b611cc19190615086565b611ccb9190614f3a565b9050611cd7600861355a565b60ff8a16611ce660648461518a565b611cf090846150ce565b611cfa9190614f22565b611d049190614f22565b925050611d89565b6000611d19846005614fb8565b611d24856004614fb8565b8d600201548f60020154611d389190614f22565b611d429190615086565b611d4c9190614f3a565b9050611d58600861355a565b60ff8916611d6760648461518a565b611d7190846150ce565b611d7b9190614f22565b611d859190614f22565b9250505b611df7565b6000611d9b856005614fb8565b611da6866004614fb8565b8d600201548f60020154611dba9190614f22565b611dc49190615086565b611dce9190614f3a565b905060ff8716611ddf60648361518a565b611de990836150ce565b611df39190614f22565b9250505b603c8860ff16118015611e0e5750603c8760ff1611155b15611f055760508110611e9c576000611e28856005614fb8565b611e33866004614fb8565b8d600201548f60020154611e479190614f22565b611e519190615086565b611e5b9190614f3a565b9050611e67600761355a565b60ff8a16611e7660648461518a565b611e8090846150ce565b611e8a9190614f22565b611e949190614f22565b925050611f05565b6000611ea9856005614fb8565b611eb4866004614fb8565b8d600201548f60020154611ec89190614f22565b611ed29190615086565b611edc9190614f3a565b905060ff8716611eed60648361518a565b611ef790836150ce565b611f019190614f22565b9250505b603c8860ff1611158015611f1c5750603c8760ff16115b156120135760508110611faa576000611f36846005614fb8565b611f41856004614fb8565b8d600201548f60020154611f559190614f22565b611f5f9190615086565b611f699190614f3a565b9050611f75600761355a565b60ff8916611f8460648461518a565b611f8e90846150ce565b611f989190614f22565b611fa29190614f22565b925050612013565b6000611fb7846005614fb8565b611fc2856004614fb8565b8d600201548f60020154611fd69190614f22565b611fe09190615086565b611fea9190614f3a565b905060ff8716611ffb60648361518a565b61200590836150ce565b61200f9190614f22565b9250505b600061228b8d6040518061018001604052908160008201805461203590615111565b80601f016020809104026020016040519081016040528092919081815260200182805461206190615111565b80156120ae5780601f10612083576101008083540402835291602001916120ae565b820191906000526020600020905b81548152906001019060200180831161209157829003601f168201915b5050509183525050600182015460208201526002820154604080830191909152600383015460ff808216606085015261010080830482166080860152600160a060020a036201000084041660a086015263ffffffff60b060020a8404811660c087015260d060020a8404831660e087015260d860020a90930490911690840152600484015461012084015260058401541661014083015260069092015461016090910152805161018081019091528e548f908290829061216d90615111565b80601f016020809104026020016040519081016040528092919081815260200182805461219990615111565b80156121e65780601f106121bb576101008083540402835291602001916121e6565b820191906000526020600020905b8154815290600101906020018083116121c957829003601f168201915b50505091835250506001820154602082015260028201546040820152600382015460ff808216606084015261010080830482166080850152600160a060020a036201000084041660a085015263ffffffff60b060020a8404811660c086015260d060020a8404831660e086015260d860020a90930490911690830152600483015461012083015260058301541661014082015260069091015461016090910152613898565b90506122cf6040518060400160405280600b81526020017f4e65772054727566666c65000000000000000000000000000000000000000000815250848d8d856135ad565b6122d88d6138ed565b6122e18c6138ed565b600854600c54604051600160a060020a039092169181156108fc0291906000818181858888f1935050505015801561231d573d6000803e3d6000fd5b50505050505050505050505050505050565b606060008060005b60145481101561239f576000601482815481106123675760e060020a634e487b7102600052603260045260246000fd5b906000526020600020906007020160040154111561238d5761238a600183614f22565b91505b806123978161514f565b915050612337565b5060008167ffffffffffffffff8111156123cc5760e060020a634e487b7102600052604160045260246000fd5b60405190808252806020026020018201604052801561240557816020015b6123f2613fe0565b8152602001906001900390816123ea5790505b50905060005b60145481101561260b5760006014828154811061243b5760e060020a634e487b7102600052603260045260246000fd5b90600052602060002090600702016004015411156125f957601481815481106124775760e060020a634e487b7102600052603260045260246000fd5b9060005260206000209060070201604051806101800160405290816000820180546124a190615111565b80601f01602080910402602001604051908101604052809291908181526020018280546124cd90615111565b801561251a5780601f106124ef5761010080835404028352916020019161251a565b820191906000526020600020905b8154815290600101906020018083116124fd57829003601f168201915b50505091835250506001820154602082015260028201546040820152600382015460ff808216606084015261010080830482166080850152600160a060020a036201000084041660a085015263ffffffff60b060020a8404811660c086015260d060020a8404831660e086015260d860020a9093049091169083015260048301546101208301526005830154166101408201526006909101546101609091015282518390869081106125df5760e060020a634e487b7102600052603260045260246000fd5b602002602001018190525083806125f59061514f565b9450505b806126038161514f565b91505061240b565b509250505090565b6011816004811061262357600080fd5b60089182820401919006600402915054906101000a900463ffffffff1681565b61264b6132cf565b600160a060020a031661265c611514565b600160a060020a0316146126855760405160e560020a62461bcd0281526004016108de90614c86565b600d55565b600d5490565b6126986132cf565b600160a060020a031682600160a060020a031614156126cc5760405160e560020a62461bcd0281526004016108de90614957565b80600560006126d96132cf565b600160a060020a03908116825260208083019390935260409182016000908120918716808252919093529120805460ff19169215159290921790915561271d6132cf565b600160a060020a03167f17307eab39ab6107e8899845ad3d59bd9653f200f220920489ca2b5937696c318360405161275591906146ed565b60405180910390a35050565b60606014805480602002602001604051908101604052809291908181526020016000905b828210156128e65783829060005260206000209060070201604051806101800160405290816000820180546127b990615111565b80601f01602080910402602001604051908101604052809291908181526020018280546127e590615111565b80156128325780601f1061280757610100808354040283529160200191612832565b820191906000526020600020905b81548152906001019060200180831161281557829003601f168201915b505050918352505060018281015460208084019190915260028401546040840152600384015460ff808216606086015261010080830482166080870152600160a060020a036201000084041660a087015263ffffffff60b060020a8404811660c088015260d060020a8404831660e088015260d860020a9093049091169085015260048501546101208501526005850154166101408401526006909301546101609092019190915291835292019101612785565b50505050905090565b6128f8826132b2565b61290157600080fd5b600081116129245760405160e560020a62461bcd0281526004016108de90614ec3565b600061292f836110c5565b9050600160a060020a038116331461294657600080fd5b6000838152601260205260408120839055601480548590811061297c5760e060020a634e487b7102600052603260045260246000fd5b6000918252602090912060079091020160048101939093555050600501805463ffffffff19164263ffffffff1617905550565b6129c06129ba6132cf565b8361334e565b6129df5760405160e560020a62461bcd0281526004016108de90614e66565b610ba284848484613b80565b6129f4826110c5565b600160a060020a031633600160a060020a031614612a275760405160e560020a62461bcd0281526004016108de90614dd2565b600d54341015612a4c5760405160e560020a62461bcd0281526004016108de90614e09565b60008111612a6f5760405160e560020a62461bcd0281526004016108de90614ec3565b600060148381548110612a955760e060020a634e487b7102600052603260045260246000fd5b90600052602060002090600702019050612aae81613880565b6129465760405160e560020a62461bcd0281526004016108de906148c3565b6060612ad8826132b2565b612af75760405160e560020a62461bcd0281526004016108de90614d18565b6000612b01613bb6565b90506000815111612b215760405180602001604052806000815250612b4c565b80612b2b84613bc8565b604051602001612b3c9291906144b3565b6040516020818303038152906040525b9392505050565b600a5490565b612b62816110c5565b600160a060020a031633600160a060020a031614612b955760405160e560020a62461bcd0281526004016108de90614dd2565b60008181526012602052604081208190556014805483908110612bcb5760e060020a634e487b7102600052603260045260246000fd5b600091825260208220600460079092020190810191909155600501805463ffffffff191690555050565b60008181526012602052604090205480612c245760405160e560020a62461bcd0281526004016108de906147f8565b803414612c465760405160e560020a62461bcd0281526004016108de90614b39565b6000612c51836110c5565b9050612c5e8133856133d6565b60008381526012602052604081208190556014805485908110612c945760e060020a634e487b7102600052603260045260246000fd5b600091825260208220600460079092020190810182905560058101805463ffffffff19169055604051909250600160a060020a038416913480156108fc02929091818181858888f19350505050158015612cf2573d6000803e3d6000fd5b50600854600d54604051600160a060020a039092169181156108fc0291906000818181858888f19350505050158015612d2f573d6000803e3d6000fd5b5060038101805475ffffffffffffffffffffffffffffffffffffffff0000191633620100008102919091179091556040517f4dd2f31b4569bcf6afb5788e4dcfba199a9e2148b94d0dda6d5fed23041de4cd91612d90918591903490614569565b60405180910390a150505050565b612da66132cf565b600160a060020a0316612db7611514565b600160a060020a031614612de05760405160e560020a62461bcd0281526004016108de90614c86565b600c55565b612df08383836133d6565b60008181526012602052604081208190556014805483908110612e265760e060020a634e487b7102600052603260045260246000fd5b60009182526020822060046007909202019081019190915560058101805463ffffffff191690556003018054600160a060020a03909416620100000275ffffffffffffffffffffffffffffffffffffffff00001990941693909317909255505050565b600160a060020a0380831660009081526005602090815260408083209385168352929052205460ff165b92915050565b612ec16132cf565b600160a060020a0316612ed2611514565b600160a060020a031614612efb5760405160e560020a62461bcd0281526004016108de90614c86565b600160a060020a038116612f245760405160e560020a62461bcd0281526004016108de9061482f565b612f2d81613821565b50565b60126020526000908152604090205481565b612f4b816110c5565b600160a060020a031633600160a060020a031614612f7e5760405160e560020a62461bcd0281526004016108de90614dd2565b600060148281548110612fa45760e060020a634e487b7102600052603260045260246000fd5b600091825260209091206007909102016003810154909150601460ff90911610612fcd57600080fd5b600481015415612fdc57600080fd5b612fe581613880565b612fee57600080fd5b6003810154610100900460ff166000613007606461355a565b9050600a8260ff1611613050576014811161304b5760038301805460ff169060006130318361516a565b91906101000a81548160ff021916908360ff160217905550505b613177565b600a8260ff161180156130675750601e8260ff1611155b15613089576023811161304b5760038301805460ff169060006130318361516a565b601e8260ff161180156130a0575060328260ff1611155b156130c2576028811161304b5760038301805460ff169060006130318361516a565b60328260ff161180156130d9575060468260ff1611155b156130fb57602d811161304b5760038301805460ff169060006130318361516a565b60468260ff161180156131125750605a8260ff1611155b1561313457603c811161304b5760038301805460ff169060006130318361516a565b605a8260ff16111561317757604681116131775760038301805460ff1690600061315d8361516a565b91906101000a81548160ff021916908360ff160217905550505b6131844262015180614f22565b8360030160166101000a81548163ffffffff021916908363ffffffff16021790555050505050565b600854600160a060020a031681565b336131c557600080fd5b600a543410156131d457600080fd5b6131de6007613516565b60108190556103e8116131f057600080fd5b60006131fb8261351a565b90506000613209601461355a565b61321460648461518a565b61321e90846150ce565b6132289190614f22565b61323390600a614f22565b9050613244838260008060006135ad565b600854600a54604051600160a060020a039092169181156108fc0291906000818181858888f19350505050158015610ba2573d6000803e3d6000fd5b600160e060020a031981167f01ffc9a70000000000000000000000000000000000000000000000000000000014919050565b600090815260026020526040902054600160a060020a0316151590565b3390565b6000818152600460205260409020805473ffffffffffffffffffffffffffffffffffffffff1916600160a060020a0384169081179091558190613315826110c5565b600160a060020a03167f8c5be1e5ebec7d5bd14f71427d1e84f3dd0314c0f7b2291e5b200ac8c7c3b92560405160405180910390a45050565b6000613359826132b2565b6133785760405160e560020a62461bcd0281526004016108de9061498e565b6000613383836110c5565b905080600160a060020a031684600160a060020a031614806133be575083600160a060020a03166133b3846108b4565b600160a060020a0316145b806133ce57506133ce8185612e89565b949350505050565b82600160a060020a03166133e9826110c5565b600160a060020a0316146134125760405160e560020a62461bcd0281526004016108de90614cbb565b600160a060020a03821661343b5760405160e560020a62461bcd0281526004016108de906148fa565b61344683838361099c565b6134516000826132d3565b600160a060020a038316600090815260036020526040812080546001929061347a9084906150ce565b9091555050600160a060020a03821660009081526003602052604081208054600192906134a8908490614f22565b9091555050600081815260026020526040808220805473ffffffffffffffffffffffffffffffffffffffff1916600160a060020a0386811691821790925591518493918716917fddf252ad1be2c89b69c2b068fc378daa952ba7f163c4a11628f55a4df523b3ef91a4505050565b5490565b600080423384604051602001613532939291906144e2565b60408051601f198184030181529190528051602090910120600954909150612b4c908261518a565b600e80546000918261356b8361514f565b919050555060004233600e5460405160200161358993929190614527565b60408051601f1981840301815291905280516020909101209050612b4c838261518a565b60006135ba60648661518a565b905060006135c86007613516565b6040805161018081018252898152602080820184905291810189905260006060820181905260ff86811660808401523360a084015263ffffffff421660c084015289811660e08401528816610100830152610120820181905261014082018190526101608201879052601480546001810182559152815180519495509193849360079092027fce6d7b5282bd9a3661ae061feed1dbda4e52ab073b1f9285be6e155d9c38d4ec019261367e9284929101906140c8565b5060208201516001820155604082015160028201556060820151600382018054608085015160a086015160c087015160e0880151610100808a015160ff1990961660ff9889161761ff001916948816029390931775ffffffffffffffffffffffffffffffffffffffff0000191662010000600160a060020a03909316929092029190911779ffffffff00000000000000000000000000000000000000000000191660b060020a63ffffffff92831602177aff0000000000000000000000000000000000000000000000000000191660d060020a92861692909202919091177fffffffff00ffffffffffffffffffffffffffffffffffffffffffffffffffffff1660d860020a9490921693909302179055610120830151600483015561014083015160058301805463ffffffff191691909216179055610160909101516006909101556137ca3383613d3c565b6137d46007613d56565b33600160a060020a03167f589cd144bbd2fda6318230895eca43f6ea1a1b5b0464c4bc1221bdfc7fad884c838960405161380f929190614f03565b60405180910390a25050505050505050565b60068054600160a060020a0383811673ffffffffffffffffffffffffffffffffffffffff19831681179093556040519116919082907f8be0079c531659141344cd1fd0a4f28419497f9722a3daafe3b4186f6b6457e090600090a35050565b600301544260b060020a90910463ffffffff16111590565b600081610160015183610160015111156138cd57600183610160018181516138c09190614f22565b9150818152509050612eb3565b600182610160018181516138e19190614f22565b90819052949350505050565b6003810154600682015460ff909116906139865760005b60148160ff1611613984578160ff168160ff161415613972578060ff16600f5461392e9190615086565b6011546139419063ffffffff1642614f22565b61394b91906150ce565b8360030160166101000a81548163ffffffff021916908363ffffffff160217905550613984565b8061397c8161516a565b915050613904565b505b6000826006015411801561399f57506005826006015411155b15613a315760005b60148160ff1611613a2f578160ff168160ff161415613a1d578060ff16600f546139d19190615086565b6011546139ec90640100000000900463ffffffff1642614f22565b6139f691906150ce565b8360030160166101000a81548163ffffffff021916908363ffffffff160217905550613a2f565b80613a278161516a565b9150506139a7565b505b60058260060154118015613a4a5750600a826006015411155b15613ae05760005b60148160ff1611613ade578160ff168160ff161415613acc578060ff16600f54613a7c9190615086565b601154613a9b9068010000000000000000900463ffffffff1642614f22565b613aa591906150ce565b8360030160166101000a81548163ffffffff021916908363ffffffff160217905550613ade565b80613ad68161516a565b915050613a52565b505b600a82600601541115610c2d5760005b60148160ff161161099c578160ff168160ff161415613b6e578060ff16600f54613b1a9190615086565b601154613b3d906c01000000000000000000000000900463ffffffff1642614f22565b613b4791906150ce565b8360030160166101000a81548163ffffffff021916908363ffffffff16021790555061099c565b80613b788161516a565b915050613af0565b613b8b8484846133d6565b613b9784848484613d5f565b610ba25760405160e560020a62461bcd0281526004016108de9061479b565b60408051602081019091526000815290565b606081613c09575060408051808201909152600181527f3000000000000000000000000000000000000000000000000000000000000000602082015261081d565b8160005b8115613c335780613c1d8161514f565b9150613c2c9050600a83614f3a565b9150613c0d565b60008167ffffffffffffffff811115613c5f5760e060020a634e487b7102600052604160045260246000fd5b6040519080825280601f01601f191660200182016040528015613c89576020820181803683370190505b5090505b84156133ce57613c9e6001836150ce565b9150613cab600a8661518a565b613cb6906030614f22565b7f010000000000000000000000000000000000000000000000000000000000000002818381518110613cfb5760e060020a634e487b7102600052603260045260246000fd5b60200101907effffffffffffffffffffffffffffffffffffffffffffffffffffffffffffff1916908160001a905350613d35600a86614f3a565b9450613c8d565b610c2d828260405180602001604052806000815250613eb2565b80546001019055565b6000613d7384600160a060020a0316613ee8565b15613ea75783600160a060020a031663150b7a02613d8f6132cf565b8786866040518563ffffffff167c0100000000000000000000000000000000000000000000000000000000028152600401613dcd949392919061458d565b602060405180830381600087803b158015613de757600080fd5b505af1925050508015613e17575060408051601f3d908101601f19168201909252613e1491810190614357565b60015b613e74573d808015613e45576040519150601f19603f3d011682016040523d82523d6000602084013e613e4a565b606091505b508051613e6c5760405160e560020a62461bcd0281526004016108de9061479b565b805181602001fd5b600160e060020a0319167f150b7a02000000000000000000000000000000000000000000000000000000001490506133ce565b506001949350505050565b613ebc8383613eee565b613ec96000848484613d5f565b61099c5760405160e560020a62461bcd0281526004016108de9061479b565b3b151590565b600160a060020a038216613f175760405160e560020a62461bcd0281526004016108de90614b97565b613f20816132b2565b15613f405760405160e560020a62461bcd0281526004016108de9061488c565b613f4c6000838361099c565b600160a060020a0382166000908152600360205260408120805460019290613f75908490614f22565b9091555050600081815260026020526040808220805473ffffffffffffffffffffffffffffffffffffffff1916600160a060020a03861690811790915590518392907fddf252ad1be2c89b69c2b068fc378daa952ba7f163c4a11628f55a4df523b3ef908290a45050565b6040805161018081018252606080825260006020830181905292820183905281018290526080810182905260a0810182905260c0810182905260e0810182905261010081018290526101208101829052610140810182905261016081019190915290565b82805461405090615111565b90600052602060002090601f01602090048101928261407257600085556140b8565b82601f1061408b5782800160ff198235161785556140b8565b828001600101855582156140b8579182015b828111156140b857823582559160200191906001019061409d565b506140c492915061413c565b5090565b8280546140d490615111565b90600052602060002090601f0160209004810192826140f657600085556140b8565b82601f1061410f57805160ff19168380011785556140b8565b828001600101855582156140b8579182015b828111156140b8578251825591602001919060010190614121565b5b808211156140c4576000815560010161413d565b600067ffffffffffffffff8084111561416c5761416c6151f2565b604051601f8501601f191681016020018281118282101715614190576141906151f2565b6040528481529150818385018610156141a857600080fd5b8484602083013760006020868301015250509392505050565b8035600160a060020a038116811461081d57600080fd5b6000602082840312156141e9578081fd5b612b4c826141c1565b60008060408385031215614204578081fd5b61420d836141c1565b915061421b602084016141c1565b90509250929050565b600080600060608486031215614238578081fd5b614241846141c1565b925061424f602085016141c1565b9150604084013590509250925092565b60008060008060808587031215614274578081fd5b61427d856141c1565b935061428b602086016141c1565b925060408501359150606085013567ffffffffffffffff8111156142ad578182fd5b8501601f810187136142bd578182fd5b6142cc87823560208401614151565b91505092959194509250565b600080604083850312156142ea578182fd5b6142f3836141c1565b915060208301358015158114614307578182fd5b809150509250929050565b60008060408385031215614324578182fd5b61432d836141c1565b946020939093013593505050565b60006020828403121561434c578081fd5b8135612b4c8161520b565b600060208284031215614368578081fd5b8151612b4c8161520b565b600060208284031215614384578081fd5b813567ffffffffffffffff81111561439a578182fd5b8201601f810184136143aa578182fd5b6133ce84823560208401614151565b6000602082840312156143ca578081fd5b5035919050565b6000806000604084860312156143e5578283fd5b83359250602084013567ffffffffffffffff80821115614403578384fd5b818601915086601f830112614416578384fd5b813581811115614424578485fd5b876020828501011115614435578485fd5b6020830194508093505050509250925092565b6000806040838503121561445a578182fd5b50508035926020909101359150565b600160a060020a03169052565b6000815180845261448e8160208601602086016150e5565b601f01601f19169290920160200192915050565b63ffffffff169052565b60ff169052565b600083516144c58184602088016150e5565b8351908301906144d98183602088016150e5565b01949350505050565b60008482526c01000000000000000000000000600160a060020a03851602602083015282516145188160348501602087016150e5565b91909101603401949350505050565b928352600160a060020a03919091166c01000000000000000000000000026020830152603482015260540190565b600160a060020a0391909116815260200190565b600160a060020a039384168152919092166020820152604081019190915260600190565b6000600160a060020a038087168352808616602084015250836040830152608060608301526145bf6080830184614476565b9695505050505050565b60208082528251828201819052600091906040908185019080840286018301878501865b838110156146df57603f198984030185528151610180815181865261461482870182614476565b91505088820151898601528782015188860152606080830151614639828801826144ac565b505060808083015161464d828801826144ac565b505060a08083015161466182880182614469565b505060c080830151614675828801826144a2565b505060e080830151614689828801826144ac565b50506101008083015161469e828801826144ac565b50506101208281015190860152610140808301516146be828801826144a2565b505061016091820151949091019390935293860193908601906001016145ed565b509098975050505050505050565b901515815260200190565b600060208252612b4c6020830184614476565b6000610180825261472061018083018f614476565b90508c60208301528b604083015260ff8b16606083015260ff8a166080830152600160a060020a03891660a083015263ffffffff881660c083015260ff871660e083015260ff8616610100830152846101208301526147836101408301856144a2565b826101608301529d9c50505050505050505050505050565b60208082526032908201527f4552433732313a207472616e7366657220746f206e6f6e20455243373231526560408201527f63656976657220696d706c656d656e7465720000000000000000000000000000606082015260800190565b6020808252601a908201527f5468697320746f6b656e206973206e6f7420666f722073616c65000000000000604082015260600190565b60208082526026908201527f4f776e61626c653a206e6577206f776e657220697320746865207a65726f206160408201527f6464726573730000000000000000000000000000000000000000000000000000606082015260800190565b6020808252601c908201527f4552433732313a20746f6b656e20616c7265616479206d696e74656400000000604082015260600190565b6020808252600f908201527f4272656564206e6f742072656564790000000000000000000000000000000000604082015260600190565b60208082526024908201527f4552433732313a207472616e7366657220746f20746865207a65726f2061646460408201527f7265737300000000000000000000000000000000000000000000000000000000606082015260800190565b60208082526019908201527f4552433732313a20617070726f766520746f2063616c6c657200000000000000604082015260600190565b6020808252602c908201527f4552433732313a206f70657261746f7220717565727920666f72206e6f6e657860408201527f697374656e7420746f6b656e0000000000000000000000000000000000000000606082015260800190565b60208082526038908201527f4552433732313a20617070726f76652063616c6c6572206973206e6f74206f7760408201527f6e6572206e6f7220617070726f76656420666f7220616c6c0000000000000000606082015260800190565b6020808252602a908201527f4552433732313a2062616c616e636520717565727920666f7220746865207a6560408201527f726f206164647265737300000000000000000000000000000000000000000000606082015260800190565b60208082526029908201527f4552433732313a206f776e657220717565727920666f72206e6f6e657869737460408201527f656e7420746f6b656e0000000000000000000000000000000000000000000000606082015260800190565b60208082526011908201527f4272656564206e6f742072656164792021000000000000000000000000000000604082015260600190565b602080825260409082018190527f506c65617365207375626d6974207468652061736b696e672070726963652069908201527f6e206f7264657220746f20636f6d706c65746520746865207075726368617365606082015260800190565b6020808252818101527f4552433732313a206d696e7420746f20746865207a65726f2061646472657373604082015260600190565b6020808252602c908201527f4552433732313a20617070726f76656420717565727920666f72206e6f6e657860408201527f697374656e7420746f6b656e0000000000000000000000000000000000000000606082015260800190565b60208082526027908201527f5468652070726f64756374206265696e6720736f6c642063616e6e6f7420626560408201527f206d617465642100000000000000000000000000000000000000000000000000606082015260800190565b6020808252818101527f4f776e61626c653a2063616c6c6572206973206e6f7420746865206f776e6572604082015260600190565b60208082526029908201527f4552433732313a207472616e73666572206f6620746f6b656e2074686174206960408201527f73206e6f74206f776e0000000000000000000000000000000000000000000000606082015260800190565b6020808252602f908201527f4552433732314d657461646174613a2055524920717565727920666f72206e6f60408201527f6e6578697374656e7420746f6b656e0000000000000000000000000000000000606082015260800190565b60208082526021908201527f4552433732313a20617070726f76616c20746f2063757272656e74206f776e6560408201527f7200000000000000000000000000000000000000000000000000000000000000606082015260800190565b60208082526017908201527f4e6f74206f776e6572206f66207468697320746f6b656e000000000000000000604082015260600190565b60208082526024908201527f5072696365206d75737420626520657175616c20746f206c697374696e67207060408201527f7269636500000000000000000000000000000000000000000000000000000000606082015260800190565b60208082526031908201527f4552433732313a207472616e736665722063616c6c6572206973206e6f74206f60408201527f776e6572206e6f7220617070726f766564000000000000000000000000000000606082015260800190565b6020808252601c908201527f5072696365206d757374206265206174206c6561737420312077656900000000604082015260600190565b90815260200190565b918252602082015260400190565b63ffffffff91909116815260200190565b60008219821115614f3557614f356151c0565b500190565b600082614f4957614f496151d9565b500490565b600060ff831680614f6157614f616151d9565b8060ff84160491505092915050565b80825b6001808611614f825750614faf565b818704821115614f9457614f946151c0565b80861615614fa157918102915b506002909404938002614f73565b94509492505050565b6000612b4c6000198484600082614fd157506001612b4c565b81614fde57506000612b4c565b8160018114614ff45760028114614ffe5761502b565b6001915050612b4c565b60ff84111561500f5761500f6151c0565b8360020a915084821115615025576150256151c0565b50612b4c565b5060208310610133831016604e8410600b841016171561505e575081810a83811115615059576150596151c0565b612b4c565b61506b8484846001614f70565b80860482111561507d5761507d6151c0565b02949350505050565b60008160001904831182151516156150a0576150a06151c0565b500290565b600060ff821660ff84168160ff04811182151516156150c6576150c66151c0565b029392505050565b6000828210156150e0576150e06151c0565b500390565b60005b838110156151005781810151838201526020016150e8565b83811115610ba25750506000910152565b60028104600182168061512557607f821691505b602082108114156151495760e060020a634e487b7102600052602260045260246000fd5b50919050565b6000600019821415615163576151636151c0565b5060010190565b600060ff821660ff811415615181576151816151c0565b60010192915050565b600082615199576151996151d9565b500690565b600060ff8316806151b1576151b16151d9565b8060ff84160691505092915050565b60e060020a634e487b7102600052601160045260246000fd5b60e060020a634e487b7102600052601260045260246000fd5b60e060020a634e487b7102600052604160045260246000fd5b600160e060020a031981168114612f2d57600080fdfea264697066735822122069e4bbffd04b8ba7f1b1636048b6106d1825b64ed33dc34c8c73e94109ef1edc64736f6c63430008000033",
  "immutableReferences": {},
  "source": "// SPDX-License-Identifier: MIT\r\n\r\npragma solidity ^0.8.0;\r\n\r\nimport \"@openzeppelin/contracts/token/ERC721/ERC721.sol\";\r\nimport \"@openzeppelin/contracts/access/Ownable.sol\";\r\nimport \"@openzeppelin/contracts/utils/Counters.sol\";\r\n\r\ncontract TruffleFactory is ERC721, Ownable {\r\n    using Counters for Counters.Counter;\r\n    using Strings for uint256;\r\n    Counters.Counter _tokenIds;\r\n\r\n    address public admin;\r\n    uint256 DNA_MOD = 10**16;\r\n    uint256 fee = 0.025 ether;\r\n    uint256 levelUpFee = 0.001 ether;\r\n    uint256 breedFee = 0.01 ether;\r\n    uint256 sellFee = 0.001 ether;\r\n    uint256 randNonce = 0;\r\n    uint256 lostTime = 30 minutes;\r\n    uint256 quantilyLimit;\r\n    uint32[4] public cooldowns = [\r\n        uint32(8 hours),\r\n        uint32(12 hours),\r\n        uint32(1 days),\r\n        uint32(2 days)\r\n    ];\r\n\r\n    mapping(uint256 => uint256) public tokenIdToPrice;\r\n    mapping(uint256 => string) _tokenURIs;\r\n\r\n    constructor() ERC721(\"Truffle\", \"TFT\") {\r\n        admin = msg.sender;\r\n    }\r\n\r\n    struct Truffle {\r\n        string name;\r\n        uint256 id;\r\n        uint256 dna;\r\n        uint8 level;\r\n        uint8 rarity;\r\n        address currentOwner;\r\n        uint32 readyTime;\r\n        uint8 dadId;\r\n        uint8 mumId;\r\n        uint256 sell;\r\n        uint32 sellTime;\r\n        uint gen0;\r\n    }\r\n\r\n    Truffle[] public truffles;\r\n\r\n    event NewTruffle(address indexed owner, uint256 id, uint256 dna);\r\n    event BuyTruffle(address _seller, address _buyer, uint256 _price);\r\n\r\n    function getFee() public view returns (uint256) {\r\n        return fee;\r\n    }\r\n\r\n    function getleveUpFee() public view returns (uint256) {\r\n        return levelUpFee;\r\n    }\r\n\r\n    function getFeeBreed() public view returns (uint256) {\r\n        return breedFee;\r\n    }\r\n\r\n    function getFeeSell() public view returns (uint256) {\r\n        return sellFee;\r\n    }\r\n\r\n    function _setTokenURI(uint256 tokenId, string memory _tokenURI) internal {\r\n        _tokenURIs[tokenId] = _tokenURI;\r\n    }\r\n\r\n    function _createRandomDna(string memory _mod)\r\n        internal\r\n        view\r\n        returns (uint256)\r\n    {\r\n        uint256 randomNum = uint256(\r\n            keccak256(abi.encodePacked(block.timestamp, msg.sender, _mod))\r\n        );\r\n        return randomNum % DNA_MOD;\r\n    }\r\n\r\n    function _createTruffle(\r\n        string memory _name,\r\n        uint256 _dna,\r\n        uint8 _dadId,\r\n        uint8 _mumId,\r\n        uint _gen0\r\n    ) internal {\r\n        uint8 randRarity = uint8(_dna % 100);\r\n\r\n        uint256 newId = _tokenIds.current();\r\n\r\n        Truffle memory newTruffle = Truffle(\r\n            _name,\r\n            newId,\r\n            _dna,\r\n            0,\r\n            randRarity,\r\n            msg.sender,\r\n            uint32(block.timestamp),\r\n            _dadId,\r\n            _mumId,\r\n            0,\r\n            0,\r\n            _gen0\r\n        );\r\n        truffles.push(newTruffle);\r\n        _safeMint(msg.sender, newId);\r\n        _tokenIds.increment();\r\n\r\n        emit NewTruffle(msg.sender, newId, _dna);\r\n    }\r\n\r\n    function createRandomTruffleFree(string memory _name) public {\r\n        require(msg.sender != address(0));\r\n        uint256 counter = 0;\r\n        for (uint256 i = 0; i < truffles.length; i++) {\r\n            if (ownerOf(i) == msg.sender) {\r\n                counter++;\r\n            }\r\n        }\r\n        require(counter < 2);\r\n        quantilyLimit = _tokenIds.current();\r\n        require(quantilyLimit < 1000);\r\n        uint256 randDna = _createRandomDna(_name);\r\n        uint256 newDna = randDna - (randDna % 100) + randMod(5) + 1;\r\n        _createTruffle(_name, newDna, 0, 0, 0);\r\n    }\r\n\r\n    function createRandomTruffle(string memory _name) public payable{\r\n        require(msg.sender != address(0));\r\n        require(msg.value >= fee);\r\n        quantilyLimit = _tokenIds.current();\r\n        require(quantilyLimit < 1000);\r\n        uint256 randDna = _createRandomDna(_name);\r\n        uint256 newDna = randDna - randDna % 100 + randMod(20) + 10;\r\n        _createTruffle(_name, newDna, 0, 0, 0);\r\n        payable(admin).transfer(fee);\r\n    }\r\n\r\n    function getTruffle() public view returns (Truffle[] memory) {\r\n        return truffles;\r\n    }\r\n\r\n    function getOwnerTruffles(address _owner)\r\n        public\r\n        view\r\n        returns (Truffle[] memory)\r\n    {\r\n        Truffle[] memory result = new Truffle[](balanceOf(_owner));\r\n        uint256 counter = 0;\r\n        for (uint256 i = 0; i < truffles.length; i++) {\r\n            if (ownerOf(i) == _owner) {\r\n                result[counter] = truffles[i];\r\n                counter++;\r\n            }\r\n        }\r\n        return result;\r\n    }\r\n\r\n    function randMod(uint256 _modulus) internal returns (uint256) {\r\n        randNonce++;\r\n        uint256 randomNum2 = uint256(\r\n            keccak256(abi.encodePacked(block.timestamp, msg.sender, randNonce))\r\n        );\r\n        return randomNum2 % _modulus;\r\n    }\r\n\r\n    function updateFee(uint256 _fee) external onlyOwner{\r\n        fee = _fee;\r\n    }\r\n\r\n    function updateFeeLevelUp(uint256 _feeLevelUp) external onlyOwner{\r\n        levelUpFee = _feeLevelUp;\r\n    }\r\n\r\n    function updateFeeBreed(uint256 _feeBreed) external onlyOwner{\r\n        breedFee = _feeBreed;\r\n    }\r\n\r\n    function updateFeeSell(uint256 _feeSell) external onlyOwner{\r\n        sellFee = _feeSell;\r\n    }\r\n\r\n    function withdraw() external payable onlyOwner {\r\n        address payable _owner = payable(owner());\r\n        _owner.transfer(address(this).balance);\r\n    }\r\n\r\n    modifier aboveLevel(uint256 _level, uint256 _TruffleId) {\r\n        require(truffles[_TruffleId].level >= _level);\r\n        _;\r\n    }\r\n\r\n    function levelUp(uint256 _TruffleId) external payable {\r\n        require(msg.value == levelUpFee);\r\n        require(ownerOf(_TruffleId) == msg.sender);\r\n        Truffle storage truffle = truffles[_TruffleId];\r\n        require(truffle.level < 20);\r\n        require(truffle.sell == 0);\r\n        truffle.level++;\r\n        payable(admin).transfer(levelUpFee); \r\n    }\r\n\r\n    function updateName(uint256 _TruffleId, string calldata _newName)\r\n        external\r\n        aboveLevel(2, _TruffleId)\r\n    {\r\n        require(ownerOf(_TruffleId) == msg.sender);\r\n        Truffle storage truffle = truffles[_TruffleId];\r\n        require(truffle.sell == 0);\r\n        truffles[_TruffleId].name = _newName;\r\n    }\r\n\r\n    function _triggerCooldown(Truffle storage _truffle) internal {\r\n        //hm kich hoat cooldown\r\n        uint8 levels = _truffle.level;\r\n        if (_truffle.gen0 == 0) {\r\n            for (uint8 i = 0; i <= 20; i++) {\r\n                if (i == levels) {\r\n                    _truffle.readyTime = uint32(\r\n                        block.timestamp + cooldowns[0] - (lostTime * i)\r\n                    );\r\n                    break;\r\n                }\r\n            }\r\n        }\r\n        if (_truffle.gen0 > 0 && _truffle.gen0 <= 5) {\r\n            for (uint8 i = 0; i <= 20; i++) {\r\n                if (i == levels) {\r\n                    _truffle.readyTime = uint32(\r\n                        block.timestamp + cooldowns[1] - (lostTime * i)\r\n                    );\r\n                    break;\r\n                }\r\n            }\r\n        }\r\n        if (_truffle.gen0 > 5 && _truffle.gen0 <= 10) {\r\n            for (uint8 i = 0; i <= 20; i++) {\r\n                if (i == levels) {\r\n                    _truffle.readyTime = uint32(\r\n                        block.timestamp + cooldowns[2] - (lostTime * i)\r\n                    );\r\n                    break;\r\n                }\r\n            }\r\n        }\r\n\r\n        if (_truffle.gen0 > 10) {\r\n            for (uint8 i = 0; i <= 20; i++) {\r\n                if (i == levels) {\r\n                    _truffle.readyTime = uint32(\r\n                        block.timestamp + cooldowns[3] - (lostTime * i)\r\n                    );\r\n                    break;\r\n                }\r\n            }\r\n        }\r\n    }\r\n\r\n    function _getTruffleGen(Truffle memory _dadId, Truffle memory _mumId)\r\n        internal\r\n        view\r\n        returns (uint)\r\n    {\r\n        if(_dadId.gen0 > _mumId.gen0){\r\n            return _dadId.gen0 += 1;\r\n        }\r\n        return _mumId.gen0 += 1;\r\n    }\r\n\r\n    function _isReady(Truffle storage _truffle) internal view returns (bool) {\r\n        return (_truffle.readyTime <= block.timestamp);\r\n    }\r\n\r\n    function BreedAndMultiply(uint256 _truffleId, uint256 _targetDna)\r\n        public\r\n        payable\r\n    {\r\n        require(msg.value == breedFee);\r\n        Truffle storage myTruffle = truffles[_truffleId];\r\n        Truffle storage myTargetDna = truffles[_targetDna];\r\n        require(_truffleId != _targetDna);\r\n        require(ownerOf(_truffleId) == msg.sender);\r\n        require(ownerOf(_targetDna) == msg.sender);\r\n        require(_isReady(myTruffle),\"Breed not ready !\");\r\n        require(_isReady(myTargetDna),\"Breed not ready !\");\r\n        require(myTruffle.sell == 0,\"The product being sold cannot be mated!\");\r\n        require(myTargetDna.sell == 0, \"The product being sold cannot be mated!\");\r\n        \r\n        uint8 dadId = uint8(myTruffle.id);\r\n        uint8 mumId = uint8(myTargetDna.id);\r\n\r\n        uint8 valueRarity = uint8(myTruffle.rarity);\r\n        uint8 valueRarity2 = uint8(myTargetDna.rarity);\r\n        uint8 valueRarity3 = uint8(\r\n            valueRarity +\r\n                randMod(valueRarity) +\r\n                valueRarity2 -\r\n                randMod(valueRarity2)\r\n        ) / 2;\r\n        uint8 valueRarity4 = uint8((valueRarity3 * 15) / 100);\r\n\r\n        uint256 number = valueRarity % 10;\r\n        uint256 number2 = valueRarity2 % 10;\r\n        uint256 newDna;\r\n        uint256 rand = randMod(100);\r\n        require(valueRarity < 99 && valueRarity2 < 99);\r\n        if(valueRarity <= 60 && valueRarity2 <= 60){\r\n            if(valueRarity <= 30 && valueRarity2 <= 30){\r\n                if(rand >= 50){\r\n                    if(valueRarity>= valueRarity2){\r\n                        uint algorithm = (myTruffle.dna + myTargetDna.dna)*(4**number)/(5**number);\r\n                        newDna = algorithm - algorithm % 100 + valueRarity + randMod(10);\r\n                    }else{\r\n                        uint algorithm = (myTruffle.dna + myTargetDna.dna)*(4**number2)/(5**number2);\r\n                        newDna = algorithm - algorithm % 100 + valueRarity2 + randMod(10);\r\n                    }\r\n                }else{\r\n                    uint algorithm = (myTruffle.dna + myTargetDna.dna)*(4**number)/(5**number);\r\n                    newDna = algorithm - algorithm % 100 + valueRarity3;\r\n                }\r\n            }if(valueRarity > 30 && valueRarity2 > 30){\r\n                if(rand >= 55){\r\n                    if(valueRarity>= valueRarity2){\r\n                        uint algorithm = (myTruffle.dna + myTargetDna.dna)*(4**number)/(5**number);\r\n                        newDna = algorithm - algorithm % 100 + valueRarity + randMod(10);\r\n                    }else{\r\n                        uint algorithm = (myTruffle.dna + myTargetDna.dna)*(4**number2)/(5**number2);\r\n                        newDna = algorithm - algorithm % 100 + valueRarity2 + randMod(10);\r\n                    }\r\n                }else{\r\n                    uint algorithm = (myTruffle.dna + myTargetDna.dna)*(4**number)/(5**number);\r\n                    newDna = algorithm - algorithm % 100 + valueRarity3 + valueRarity4;\r\n                }\r\n            }else{\r\n                if(rand >= 60){\r\n                    if(valueRarity>= valueRarity2){\r\n                        uint algorithm = (myTruffle.dna + myTargetDna.dna)*(4**number)/(5**number);\r\n                        newDna = algorithm - algorithm % 100 + valueRarity + randMod(10);\r\n                    }else{\r\n                        uint algorithm = (myTruffle.dna + myTargetDna.dna)*(4**number2)/(5**number2);\r\n                        newDna = algorithm - algorithm % 100 + valueRarity2 + randMod(10);\r\n                    }\r\n                }else{\r\n                    uint algorithm = (myTruffle.dna + myTargetDna.dna)*(4**number)/(5**number);\r\n                    newDna = algorithm - algorithm % 100 + valueRarity3 + valueRarity4;\r\n                }\r\n            }\r\n        }if(valueRarity > 60 && valueRarity2 > 60){\r\n            if(rand >= 70){\r\n                if(valueRarity>= valueRarity2){\r\n                    uint algorithm = (myTruffle.dna + myTargetDna.dna)*(4**number)/(5**number);\r\n                    newDna = algorithm - algorithm % 100 + valueRarity + randMod(8);\r\n                }else{\r\n                    uint algorithm = (myTruffle.dna + myTargetDna.dna)*(4**number2)/(5**number2);\r\n                    newDna = algorithm - algorithm % 100 + valueRarity2 + randMod(8);\r\n                }\r\n            }else{\r\n                uint algorithm = (myTruffle.dna + myTargetDna.dna)*(4**number)/(5**number);\r\n                newDna = algorithm - algorithm % 100 + valueRarity3;\r\n            }\r\n        }if(valueRarity > 60 && valueRarity2 <= 60){\r\n            if(rand >= 80){\r\n                uint algorithm = (myTruffle.dna + myTargetDna.dna)*(4**number)/(5**number);\r\n                newDna = algorithm - algorithm % 100 + valueRarity + randMod(7);\r\n            }else{\r\n                uint algorithm = (myTruffle.dna + myTargetDna.dna)*(4**number)/(5**number);\r\n                newDna = algorithm - algorithm % 100 + valueRarity3;\r\n            }\r\n        }if(valueRarity <= 60 && valueRarity2 > 60){\r\n            if(rand >= 80){\r\n                uint algorithm = (myTruffle.dna + myTargetDna.dna)*(4**number2)/(5**number2);\r\n                newDna = algorithm - algorithm % 100 + valueRarity2 + randMod(7);\r\n            }else{\r\n                uint algorithm = (myTruffle.dna + myTargetDna.dna)*(4**number2)/(5**number2);\r\n                newDna = algorithm - algorithm % 100 + valueRarity3;\r\n            }\r\n        }\r\n        uint newGen = _getTruffleGen(myTruffle, myTargetDna);\r\n\r\n        _createTruffle(\"New Truffle\", newDna, dadId, mumId, newGen);\r\n        _triggerCooldown(myTruffle);\r\n        _triggerCooldown(myTargetDna);\r\n        payable(admin).transfer(breedFee); \r\n    }\r\n    function GiftToken(address _from, address _to, uint256 _tokenId) external {\r\n        _transfer(_from, _to, _tokenId);\r\n        tokenIdToPrice[_tokenId] = 0; // not for sale anymore\r\n        Truffle storage myTruffle = truffles[_tokenId];\r\n        myTruffle.sell = 0;\r\n        myTruffle.sellTime = 0;\r\n        // update the token's previous owner\r\n        // update the token's current owner\r\n        myTruffle.currentOwner = _to;\r\n    }\r\n\r\n    function allowBuy(uint256 _tokenId, uint256 _price) external payable {\r\n        require(msg.sender == ownerOf(_tokenId), \"Not owner of this token\");\r\n        require(msg.value >= sellFee,\"Price must be equal to listing price\");\r\n        require(_price > 0, \"Price must be at least 1 wei\");\r\n        Truffle storage myTokenID = truffles[_tokenId];\r\n        require(_isReady(myTokenID), \"Breed not reedy\");\r\n        tokenIdToPrice[_tokenId] = _price;\r\n        Truffle storage myTruffle = truffles[_tokenId];\r\n        myTruffle.sell = _price;\r\n        myTruffle.sellTime = uint32(block.timestamp);\r\n    }\r\n\r\n    function disallowBuy(uint256 _tokenId) external {\r\n        require(msg.sender == ownerOf(_tokenId), \"Not owner of this token\");\r\n        tokenIdToPrice[_tokenId] = 0;\r\n        Truffle storage myTruffle = truffles[_tokenId];\r\n        myTruffle.sell = 0;\r\n        myTruffle.sellTime = 0;\r\n    }\r\n\r\n    function buy(uint256 _tokenId) external payable {\r\n        uint256 price = tokenIdToPrice[_tokenId];\r\n        require(price > 0, \"This token is not for sale\");\r\n        require(\r\n            msg.value == price,\r\n            \"Please submit the asking price in order to complete the purchase\"\r\n        );\r\n\r\n        address seller = ownerOf(_tokenId);\r\n\r\n        _transfer(seller, msg.sender, _tokenId);\r\n        tokenIdToPrice[_tokenId] = 0; // not for sale anymore\r\n        Truffle storage myTruffle = truffles[_tokenId];\r\n        myTruffle.sell = 0;\r\n        myTruffle.sellTime = 0;\r\n        payable(seller).transfer(msg.value); // send the ETH to the seller\r\n        payable(admin).transfer(sellFee); \r\n        // update the token's current owner\r\n        myTruffle.currentOwner = msg.sender;\r\n\r\n        emit BuyTruffle(seller, msg.sender, msg.value);\r\n    }\r\n\r\n    function changePrice(uint256 _tokenId, uint256 _newPrice) external {\r\n        require(_exists(_tokenId));\r\n        require(_newPrice > 0, \"Price must be at least 1 wei\");\r\n        address seller = ownerOf(_tokenId);\r\n        require(seller == msg.sender);\r\n        tokenIdToPrice[_tokenId] = _newPrice;\r\n        Truffle storage myTruffle = truffles[_tokenId];\r\n        myTruffle.sell = _newPrice;\r\n        myTruffle.sellTime = uint32(block.timestamp);\r\n    }\r\n\r\n    function getAllTruffleSell() public view returns (Truffle[] memory) {\r\n        uint256 counter = 0;\r\n        uint256 itemCount = 0;\r\n        for (uint256 i = 0; i < truffles.length; i++) {\r\n            if (truffles[i].sell > 0) {\r\n                itemCount += 1;\r\n            }\r\n        }\r\n        Truffle[] memory truffleSell = new Truffle[](itemCount);\r\n        for (uint256 i = 0; i < truffles.length; i++) {\r\n            if (truffles[i].sell > 0) {\r\n                truffleSell[counter] = truffles[i];\r\n                counter++;\r\n            }\r\n        }\r\n        return truffleSell;\r\n    }\r\n\r\n    function getOwnerTrufflesSell(address _owner) public view returns (Truffle[] memory) {\r\n        uint256 counter = 0;\r\n        uint itemCount = 0;\r\n        for (uint i = 0; i < truffles.length; i++) {\r\n          if (ownerOf(i) == _owner && truffles[i].sell > 0) {\r\n                itemCount += 1;\r\n            }\r\n        }\r\n        Truffle[] memory result = new Truffle[](itemCount);\r\n        for (uint256 i = 0; i < truffles.length; i++) {\r\n            if (ownerOf(i) == _owner && truffles[i].sell > 0) {\r\n                result[counter] = truffles[i];\r\n                counter++;\r\n            }\r\n        }\r\n        return result;\r\n    }\r\n\r\n    function dailyMission(uint256 _tokenId ) external {\r\n        require(msg.sender == ownerOf(_tokenId), \"Not owner of this token\");\r\n        Truffle storage myTruffle = truffles[_tokenId];\r\n        require(myTruffle.level < 20);\r\n        require(myTruffle.sell == 0);\r\n        require(_isReady(myTruffle));\r\n        uint8 valueRarity = uint8(myTruffle.rarity);\r\n        uint rand = randMod(100);\r\n        if(valueRarity <= 10){\r\n            if(rand <= 20)\r\n                myTruffle.level++;\r\n        }else if(valueRarity > 10 && valueRarity <= 30){\r\n            if(rand <= 35)\r\n                myTruffle.level++;\r\n        }else if(valueRarity > 30 && valueRarity <= 50){\r\n            if(rand <= 40)\r\n                myTruffle.level++;\r\n        }else if(valueRarity > 50 && valueRarity <= 70){\r\n            if(rand <= 45)\r\n                myTruffle.level++;\r\n        }\r\n        else if(valueRarity > 70 && valueRarity <= 90){\r\n            if(rand <= 60)\r\n                myTruffle.level++;\r\n        }\r\n        else if(valueRarity > 90){\r\n            if(rand <= 70)\r\n                myTruffle.level++;\r\n        }\r\n        myTruffle.readyTime = uint32(block.timestamp + 1 days);\r\n    }\r\n}",
  "sourcePath": "C:\\Users\\XuanVinh\\OneDrive\\My tnh\\project-game-truffle-dapp\\contracts\\TruffleFactory.sol",
  "compiler": {
    "name": "solc",
    "version": "0.8.0+commit.c7dfd78e.Emscripten.clang"
  },
  "schemaVersion": "3.4.3",
  "updatedAt": "2022-01-02T12:24:39.986Z",
  "networkType": "ethereum",
  "devdoc": {
    "kind": "dev",
    "methods": {
      "approve(address,uint256)": {
        "details": "See {IERC721-approve}."
      },
      "balanceOf(address)": {
        "details": "See {IERC721-balanceOf}."
      },
      "getApproved(uint256)": {
        "details": "See {IERC721-getApproved}."
      },
      "isApprovedForAll(address,address)": {
        "details": "See {IERC721-isApprovedForAll}."
      },
      "name()": {
        "details": "See {IERC721Metadata-name}."
      },
      "owner()": {
        "details": "Returns the address of the current owner."
      },
      "ownerOf(uint256)": {
        "details": "See {IERC721-ownerOf}."
      },
      "renounceOwnership()": {
        "details": "Leaves the contract without owner. It will not be possible to call `onlyOwner` functions anymore. Can only be called by the current owner. NOTE: Renouncing ownership will leave the contract without an owner, thereby removing any functionality that is only available to the owner."
      },
      "safeTransferFrom(address,address,uint256)": {
        "details": "See {IERC721-safeTransferFrom}."
      },
      "safeTransferFrom(address,address,uint256,bytes)": {
        "details": "See {IERC721-safeTransferFrom}."
      },
      "setApprovalForAll(address,bool)": {
        "details": "See {IERC721-setApprovalForAll}."
      },
      "supportsInterface(bytes4)": {
        "details": "See {IERC165-supportsInterface}."
      },
      "symbol()": {
        "details": "See {IERC721Metadata-symbol}."
      },
      "tokenURI(uint256)": {
        "details": "See {IERC721Metadata-tokenURI}."
      },
      "transferFrom(address,address,uint256)": {
        "details": "See {IERC721-transferFrom}."
      },
      "transferOwnership(address)": {
        "details": "Transfers ownership of the contract to a new account (`newOwner`). Can only be called by the current owner."
      }
    },
    "version": 1
  },
  "userdoc": {
    "kind": "user",
    "methods": {},
    "version": 1
  }
}