{
  "contractName": "TruffleFactory",
  "abi": [
    {
      "inputs": [
        {
          "internalType": "address",
          "name": "marketplaceAddress",
          "type": "address"
        }
      ],
      "stateMutability": "nonpayable",
      "type": "constructor"
    },
    {
      "anonymous": false,
      "inputs": [
        {
          "indexed": true,
          "internalType": "address",
          "name": "owner",
          "type": "address"
        },
        {
          "indexed": true,
          "internalType": "address",
          "name": "approved",
          "type": "address"
        },
        {
          "indexed": true,
          "internalType": "uint256",
          "name": "tokenId",
          "type": "uint256"
        }
      ],
      "name": "Approval",
      "type": "event"
    },
    {
      "anonymous": false,
      "inputs": [
        {
          "indexed": true,
          "internalType": "address",
          "name": "owner",
          "type": "address"
        },
        {
          "indexed": true,
          "internalType": "address",
          "name": "operator",
          "type": "address"
        },
        {
          "indexed": false,
          "internalType": "bool",
          "name": "approved",
          "type": "bool"
        }
      ],
      "name": "ApprovalForAll",
      "type": "event"
    },
    {
      "anonymous": false,
      "inputs": [
        {
          "indexed": true,
          "internalType": "address",
          "name": "owner",
          "type": "address"
        },
        {
          "indexed": false,
          "internalType": "uint256",
          "name": "id",
          "type": "uint256"
        },
        {
          "indexed": false,
          "internalType": "uint256",
          "name": "dna",
          "type": "uint256"
        }
      ],
      "name": "NewTruffle",
      "type": "event"
    },
    {
      "anonymous": false,
      "inputs": [
        {
          "indexed": true,
          "internalType": "address",
          "name": "previousOwner",
          "type": "address"
        },
        {
          "indexed": true,
          "internalType": "address",
          "name": "newOwner",
          "type": "address"
        }
      ],
      "name": "OwnershipTransferred",
      "type": "event"
    },
    {
      "anonymous": false,
      "inputs": [
        {
          "indexed": true,
          "internalType": "address",
          "name": "from",
          "type": "address"
        },
        {
          "indexed": true,
          "internalType": "address",
          "name": "to",
          "type": "address"
        },
        {
          "indexed": true,
          "internalType": "uint256",
          "name": "tokenId",
          "type": "uint256"
        }
      ],
      "name": "Transfer",
      "type": "event"
    },
    {
      "inputs": [
        {
          "internalType": "address",
          "name": "to",
          "type": "address"
        },
        {
          "internalType": "uint256",
          "name": "tokenId",
          "type": "uint256"
        }
      ],
      "name": "approve",
      "outputs": [],
      "stateMutability": "nonpayable",
      "type": "function"
    },
    {
      "inputs": [
        {
          "internalType": "address",
          "name": "owner",
          "type": "address"
        }
      ],
      "name": "balanceOf",
      "outputs": [
        {
          "internalType": "uint256",
          "name": "",
          "type": "uint256"
        }
      ],
      "stateMutability": "view",
      "type": "function",
      "constant": true
    },
    {
      "inputs": [
        {
          "internalType": "uint256",
          "name": "",
          "type": "uint256"
        }
      ],
      "name": "cooldowns",
      "outputs": [
        {
          "internalType": "uint32",
          "name": "",
          "type": "uint32"
        }
      ],
      "stateMutability": "view",
      "type": "function",
      "constant": true
    },
    {
      "inputs": [
        {
          "internalType": "uint256",
          "name": "tokenId",
          "type": "uint256"
        }
      ],
      "name": "getApproved",
      "outputs": [
        {
          "internalType": "address",
          "name": "",
          "type": "address"
        }
      ],
      "stateMutability": "view",
      "type": "function",
      "constant": true
    },
    {
      "inputs": [
        {
          "internalType": "address",
          "name": "owner",
          "type": "address"
        },
        {
          "internalType": "address",
          "name": "operator",
          "type": "address"
        }
      ],
      "name": "isApprovedForAll",
      "outputs": [
        {
          "internalType": "bool",
          "name": "",
          "type": "bool"
        }
      ],
      "stateMutability": "view",
      "type": "function",
      "constant": true
    },
    {
      "inputs": [],
      "name": "name",
      "outputs": [
        {
          "internalType": "string",
          "name": "",
          "type": "string"
        }
      ],
      "stateMutability": "view",
      "type": "function",
      "constant": true
    },
    {
      "inputs": [],
      "name": "owner",
      "outputs": [
        {
          "internalType": "address",
          "name": "",
          "type": "address"
        }
      ],
      "stateMutability": "view",
      "type": "function",
      "constant": true
    },
    {
      "inputs": [
        {
          "internalType": "uint256",
          "name": "tokenId",
          "type": "uint256"
        }
      ],
      "name": "ownerOf",
      "outputs": [
        {
          "internalType": "address",
          "name": "",
          "type": "address"
        }
      ],
      "stateMutability": "view",
      "type": "function",
      "constant": true
    },
    {
      "inputs": [],
      "name": "renounceOwnership",
      "outputs": [],
      "stateMutability": "nonpayable",
      "type": "function"
    },
    {
      "inputs": [
        {
          "internalType": "address",
          "name": "from",
          "type": "address"
        },
        {
          "internalType": "address",
          "name": "to",
          "type": "address"
        },
        {
          "internalType": "uint256",
          "name": "tokenId",
          "type": "uint256"
        }
      ],
      "name": "safeTransferFrom",
      "outputs": [],
      "stateMutability": "nonpayable",
      "type": "function"
    },
    {
      "inputs": [
        {
          "internalType": "address",
          "name": "from",
          "type": "address"
        },
        {
          "internalType": "address",
          "name": "to",
          "type": "address"
        },
        {
          "internalType": "uint256",
          "name": "tokenId",
          "type": "uint256"
        },
        {
          "internalType": "bytes",
          "name": "_data",
          "type": "bytes"
        }
      ],
      "name": "safeTransferFrom",
      "outputs": [],
      "stateMutability": "nonpayable",
      "type": "function"
    },
    {
      "inputs": [
        {
          "internalType": "address",
          "name": "operator",
          "type": "address"
        },
        {
          "internalType": "bool",
          "name": "approved",
          "type": "bool"
        }
      ],
      "name": "setApprovalForAll",
      "outputs": [],
      "stateMutability": "nonpayable",
      "type": "function"
    },
    {
      "inputs": [
        {
          "internalType": "bytes4",
          "name": "interfaceId",
          "type": "bytes4"
        }
      ],
      "name": "supportsInterface",
      "outputs": [
        {
          "internalType": "bool",
          "name": "",
          "type": "bool"
        }
      ],
      "stateMutability": "view",
      "type": "function",
      "constant": true
    },
    {
      "inputs": [],
      "name": "symbol",
      "outputs": [
        {
          "internalType": "string",
          "name": "",
          "type": "string"
        }
      ],
      "stateMutability": "view",
      "type": "function",
      "constant": true
    },
    {
      "inputs": [
        {
          "internalType": "uint256",
          "name": "tokenId",
          "type": "uint256"
        }
      ],
      "name": "tokenURI",
      "outputs": [
        {
          "internalType": "string",
          "name": "",
          "type": "string"
        }
      ],
      "stateMutability": "view",
      "type": "function",
      "constant": true
    },
    {
      "inputs": [
        {
          "internalType": "address",
          "name": "from",
          "type": "address"
        },
        {
          "internalType": "address",
          "name": "to",
          "type": "address"
        },
        {
          "internalType": "uint256",
          "name": "tokenId",
          "type": "uint256"
        }
      ],
      "name": "transferFrom",
      "outputs": [],
      "stateMutability": "nonpayable",
      "type": "function"
    },
    {
      "inputs": [
        {
          "internalType": "address",
          "name": "newOwner",
          "type": "address"
        }
      ],
      "name": "transferOwnership",
      "outputs": [],
      "stateMutability": "nonpayable",
      "type": "function"
    },
    {
      "inputs": [
        {
          "internalType": "uint256",
          "name": "",
          "type": "uint256"
        }
      ],
      "name": "truffles",
      "outputs": [
        {
          "internalType": "string",
          "name": "name",
          "type": "string"
        },
        {
          "internalType": "uint256",
          "name": "id",
          "type": "uint256"
        },
        {
          "internalType": "uint256",
          "name": "dna",
          "type": "uint256"
        },
        {
          "internalType": "uint8",
          "name": "level",
          "type": "uint8"
        },
        {
          "internalType": "uint8",
          "name": "rarity",
          "type": "uint8"
        },
        {
          "internalType": "uint32",
          "name": "readyTime",
          "type": "uint32"
        },
        {
          "internalType": "uint8",
          "name": "dadId",
          "type": "uint8"
        },
        {
          "internalType": "uint8",
          "name": "mumId",
          "type": "uint8"
        }
      ],
      "stateMutability": "view",
      "type": "function",
      "constant": true
    },
    {
      "inputs": [],
      "name": "getFee",
      "outputs": [
        {
          "internalType": "uint256",
          "name": "",
          "type": "uint256"
        }
      ],
      "stateMutability": "view",
      "type": "function",
      "constant": true
    },
    {
      "inputs": [],
      "name": "FreeLeveUp",
      "outputs": [
        {
          "internalType": "uint256",
          "name": "",
          "type": "uint256"
        }
      ],
      "stateMutability": "view",
      "type": "function",
      "constant": true
    },
    {
      "inputs": [],
      "name": "getFeeBreed",
      "outputs": [
        {
          "internalType": "uint256",
          "name": "",
          "type": "uint256"
        }
      ],
      "stateMutability": "view",
      "type": "function",
      "constant": true
    },
    {
      "inputs": [
        {
          "internalType": "string",
          "name": "_name",
          "type": "string"
        }
      ],
      "name": "createRandomTruffle",
      "outputs": [],
      "stateMutability": "payable",
      "type": "function",
      "payable": true
    },
    {
      "inputs": [],
      "name": "getTruffle",
      "outputs": [
        {
          "components": [
            {
              "internalType": "string",
              "name": "name",
              "type": "string"
            },
            {
              "internalType": "uint256",
              "name": "id",
              "type": "uint256"
            },
            {
              "internalType": "uint256",
              "name": "dna",
              "type": "uint256"
            },
            {
              "internalType": "uint8",
              "name": "level",
              "type": "uint8"
            },
            {
              "internalType": "uint8",
              "name": "rarity",
              "type": "uint8"
            },
            {
              "internalType": "uint32",
              "name": "readyTime",
              "type": "uint32"
            },
            {
              "internalType": "uint8",
              "name": "dadId",
              "type": "uint8"
            },
            {
              "internalType": "uint8",
              "name": "mumId",
              "type": "uint8"
            }
          ],
          "internalType": "struct TruffleFactory.Truffle[]",
          "name": "",
          "type": "tuple[]"
        }
      ],
      "stateMutability": "view",
      "type": "function",
      "constant": true
    },
    {
      "inputs": [
        {
          "internalType": "address",
          "name": "_owner",
          "type": "address"
        }
      ],
      "name": "getOwnerTruffles",
      "outputs": [
        {
          "components": [
            {
              "internalType": "string",
              "name": "name",
              "type": "string"
            },
            {
              "internalType": "uint256",
              "name": "id",
              "type": "uint256"
            },
            {
              "internalType": "uint256",
              "name": "dna",
              "type": "uint256"
            },
            {
              "internalType": "uint8",
              "name": "level",
              "type": "uint8"
            },
            {
              "internalType": "uint8",
              "name": "rarity",
              "type": "uint8"
            },
            {
              "internalType": "uint32",
              "name": "readyTime",
              "type": "uint32"
            },
            {
              "internalType": "uint8",
              "name": "dadId",
              "type": "uint8"
            },
            {
              "internalType": "uint8",
              "name": "mumId",
              "type": "uint8"
            }
          ],
          "internalType": "struct TruffleFactory.Truffle[]",
          "name": "",
          "type": "tuple[]"
        }
      ],
      "stateMutability": "view",
      "type": "function",
      "constant": true
    },
    {
      "inputs": [
        {
          "internalType": "uint256",
          "name": "_fee",
          "type": "uint256"
        }
      ],
      "name": "updateFee",
      "outputs": [],
      "stateMutability": "nonpayable",
      "type": "function"
    },
    {
      "inputs": [
        {
          "internalType": "uint256",
          "name": "_feeLevelUp",
          "type": "uint256"
        }
      ],
      "name": "updateFeeLevelUp",
      "outputs": [],
      "stateMutability": "nonpayable",
      "type": "function"
    },
    {
      "inputs": [],
      "name": "withdraw",
      "outputs": [],
      "stateMutability": "payable",
      "type": "function",
      "payable": true
    },
    {
      "inputs": [
        {
          "internalType": "uint256",
          "name": "_TruffleId",
          "type": "uint256"
        }
      ],
      "name": "levelUp",
      "outputs": [],
      "stateMutability": "payable",
      "type": "function",
      "payable": true
    },
    {
      "inputs": [
        {
          "internalType": "uint256",
          "name": "_TruffleId",
          "type": "uint256"
        },
        {
          "internalType": "string",
          "name": "_newName",
          "type": "string"
        }
      ],
      "name": "updateName",
      "outputs": [],
      "stateMutability": "nonpayable",
      "type": "function"
    },
    {
      "inputs": [
        {
          "internalType": "uint256",
          "name": "_truffleId",
          "type": "uint256"
        },
        {
          "internalType": "uint256",
          "name": "_targetDna",
          "type": "uint256"
        }
      ],
      "name": "BreedAndMultiply",
      "outputs": [],
      "stateMutability": "payable",
      "type": "function",
      "payable": true
    }
  ],
  "bytecode": "0x662386f26fc10000600a8190556658d15e17628000600b5566038d7ea4c68000600c55600d556000600e5560e06040526107086080908152610e1060a052611c2060c0526200005390600f9060036200017d565b503480156200006157600080fd5b5060405162003696380380620036968339810160408190526200008491620002b4565b604080518082018252600781526654727566666c6560c81b60208083019182528351808501909452600384526215119560ea1b908401528151919291620000ce9160009162000220565b508051620000e490600190602084019062000220565b50505062000101620000fb6200012760201b60201c565b6200012b565b600980546001600160a01b0319166001600160a01b039290921691909117905562000321565b3390565b600680546001600160a01b038381166001600160a01b0319831681179093556040519116919082907f8be0079c531659141344cd1fd0a4f28419497f9722a3daafe3b4186f6b6457e090600090a35050565b6001830191839082156200020e5791602002820160005b83821115620001da57835183826101000a81548163ffffffff021916908363ffffffff160217905550926020019260040160208160030104928301926001030262000194565b80156200020c5782816101000a81549063ffffffff0219169055600401602081600301049283019260010302620001da565b505b506200021c9291506200029d565b5090565b8280546200022e90620002e4565b90600052602060002090601f0160209004810192826200025257600085556200020e565b82601f106200026d57805160ff19168380011785556200020e565b828001600101855582156200020e579182015b828111156200020e57825182559160200191906001019062000280565b5b808211156200021c57600081556001016200029e565b600060208284031215620002c6578081fd5b81516001600160a01b0381168114620002dd578182fd5b9392505050565b600281046001821680620002f957607f821691505b602082108114156200031b57634e487b7160e01b600052602260045260246000fd5b50919050565b61336580620003316000396000f3fe6080604052600436106101cd5760003560e01c806377853218116100f7578063a22cb46511610095578063ced72f8711610064578063ced72f8714610500578063e985e9c514610515578063f2fde38b14610535578063ff5df90a14610555576101cd565b8063a22cb4651461048b578063b1569412146104ab578063b88d4fde146104c0578063c87b56dd146104e0576101cd565b80639012c4a8116100d15780639012c4a81461041657806395d89b4114610436578063962a8ba31461044b5780639d6fac6f1461045e576101cd565b806377853218146103cc578063884a326e146103e15780638da5cb5b14610401576101cd565b80633ccfd60b1161016f57806353e76f2c1161013e57806353e76f2c146103575780636352211e1461037757806370a0823114610397578063715018a6146103b7576101cd565b80633ccfd60b146102ce57806342842e0e146102d657806344b17626146102f65780634cc37fc014610323576101cd565b8063095ea7b3116101ab578063095ea7b3146102575780630ce90ec21461027957806312e2e1c71461028c57806323b872dd146102ae576101cd565b806301ffc9a7146101d257806306fdde0314610208578063081812fc1461022a575b600080fd5b3480156101de57600080fd5b506101f26101ed36600461280c565b610568565b6040516101ff9190612b39565b60405180910390f35b34801561021457600080fd5b5061021d6105b0565b6040516101ff9190612b44565b34801561023657600080fd5b5061024a61024536600461288a565b610642565b6040516101ff9190612a0d565b34801561026357600080fd5b506102776102723660046127e3565b61068e565b005b61027761028736600461288a565b610726565b34801561029857600080fd5b506102a16107b9565b6040516101ff9190613016565b3480156102ba57600080fd5b506102776102c93660046126f5565b6107bf565b6102776107f7565b3480156102e257600080fd5b506102776102f13660046126f5565b61087c565b34801561030257600080fd5b506103166103113660046126a9565b610897565b6040516101ff9190612a5e565b34801561032f57600080fd5b5061034361033e36600461288a565b610ab7565b6040516101ff989796959493929190612b57565b34801561036357600080fd5b506102776103723660046128a2565b610bae565b34801561038357600080fd5b5061024a61039236600461288a565b610c57565b3480156103a357600080fd5b506102a16103b23660046126a9565b610c8c565b3480156103c357600080fd5b50610277610cd0565b3480156103d857600080fd5b506102a1610d1b565b3480156103ed57600080fd5b506102776103fc36600461288a565b610d21565b34801561040d57600080fd5b5061024a610d65565b34801561042257600080fd5b5061027761043136600461288a565b610d74565b34801561044257600080fd5b5061021d610db8565b610277610459366004612919565b610dc7565b34801561046a57600080fd5b5061047e61047936600461288a565b6116a6565b6040516101ff919061302d565b34801561049757600080fd5b506102776104a63660046127a9565b6116d6565b3480156104b757600080fd5b506103166117a4565b3480156104cc57600080fd5b506102776104db366004612730565b6118f8565b3480156104ec57600080fd5b5061021d6104fb36600461288a565b611937565b34801561050c57600080fd5b506102a16119ba565b34801561052157600080fd5b506101f26105303660046126c3565b6119c0565b34801561054157600080fd5b506102776105503660046126a9565b6119ee565b610277610563366004612844565b611a5f565b60006001600160e01b031982166380ac58cd60e01b148061059957506001600160e01b03198216635b5e139f60e01b145b806105a857506105a882611ab4565b90505b919050565b6060600080546105bf9061322b565b80601f01602080910402602001604051908101604052809291908181526020018280546105eb9061322b565b80156106385780601f1061060d57610100808354040283529160200191610638565b820191906000526020600020905b81548152906001019060200180831161061b57829003601f168201915b5050505050905090565b600061064d82611acd565b6106725760405162461bcd60e51b815260040161066990612e6b565b60405180910390fd5b506000908152600460205260409020546001600160a01b031690565b600061069982610c57565b9050806001600160a01b0316836001600160a01b031614156106cd5760405162461bcd60e51b815260040161066990612f84565b806001600160a01b03166106df611aea565b6001600160a01b031614806106fb57506106fb81610530611aea565b6107175760405162461bcd60e51b815260040161066990612d46565b6107218383611aee565b505050565b600c54341461073457600080fd5b3361073e82610c57565b6001600160a01b03161461075157600080fd5b60006010828154811061077457634e487b7160e01b600052603260045260246000fd5b6000918252602082206003600490920201908101805491935060ff9091169161079c83613281565b91906101000a81548160ff021916908360ff160217905550505050565b600c5490565b6107d06107ca611aea565b82611b5c565b6107ec5760405162461bcd60e51b815260040161066990612fc5565b610721838383611be1565b6107ff611aea565b6001600160a01b0316610810610d65565b6001600160a01b0316146108365760405162461bcd60e51b815260040161066990612eb7565b6000610840610d65565b6040519091506001600160a01b038216904780156108fc02916000818181858888f19350505050158015610878573d6000803e3d6000fd5b5050565b610721838383604051806020016040528060008152506118f8565b606060006108a483610c8c565b67ffffffffffffffff8111156108ca57634e487b7160e01b600052604160045260246000fd5b60405190808252806020026020018201604052801561090357816020015b6108f06124d1565b8152602001906001900390816108e85790505b5090506000805b601054811015610aae57846001600160a01b031661092782610c57565b6001600160a01b03161415610a9c576010818154811061095757634e487b7160e01b600052603260045260246000fd5b9060005260206000209060040201604051806101000160405290816000820180546109819061322b565b80601f01602080910402602001604051908101604052809291908181526020018280546109ad9061322b565b80156109fa5780601f106109cf576101008083540402835291602001916109fa565b820191906000526020600020905b8154815290600101906020018083116109dd57829003601f168201915b5050509183525050600182015460208201526002820154604082015260039091015460ff808216606084015261010082048116608084015263ffffffff6201000083041660a0840152600160301b8204811660c0840152600160381b9091041660e0909101528351849084908110610a8257634e487b7160e01b600052603260045260246000fd5b60200260200101819052508180610a9890613266565b9250505b80610aa681613266565b91505061090a565b50909392505050565b60108181548110610ac757600080fd5b9060005260206000209060040201600091509050806000018054610aea9061322b565b80601f0160208091040260200160405190810160405280929190818152602001828054610b169061322b565b8015610b635780601f10610b3857610100808354040283529160200191610b63565b820191906000526020600020905b815481529060010190602001808311610b4657829003601f168201915b505050600184015460028501546003909501549394909390925060ff8082169250610100820481169163ffffffff6201000082041691600160301b8204811691600160381b90041688565b6002838160108281548110610bd357634e487b7160e01b600052603260045260246000fd5b600091825260209091206003600490920201015460ff161015610bf557600080fd5b33610bff86610c57565b6001600160a01b031614610c1257600080fd5b838360108781548110610c3557634e487b7160e01b600052603260045260246000fd5b60009182526020909120610c4f9360049092020191612515565b505050505050565b6000818152600260205260408120546001600160a01b0316806105a85760405162461bcd60e51b815260040161066990612ded565b60006001600160a01b038216610cb45760405162461bcd60e51b815260040161066990612da3565b506001600160a01b031660009081526003602052604090205490565b610cd8611aea565b6001600160a01b0316610ce9610d65565b6001600160a01b031614610d0f5760405162461bcd60e51b815260040161066990612eb7565b610d196000611d0e565b565b600d5490565b610d29611aea565b6001600160a01b0316610d3a610d65565b6001600160a01b031614610d605760405162461bcd60e51b815260040161066990612eb7565b600c55565b6006546001600160a01b031690565b610d7c611aea565b6001600160a01b0316610d8d610d65565b6001600160a01b031614610db35760405162461bcd60e51b815260040161066990612eb7565b600b55565b6060600180546105bf9061322b565b610dcf611aea565b6001600160a01b0316610de0610d65565b6001600160a01b031614610e065760405162461bcd60e51b815260040161066990612eb7565b600d54341015610e1557600080fd5b600060108381548110610e3857634e487b7160e01b600052603260045260246000fd5b90600052602060002090600402019050600060108381548110610e6b57634e487b7160e01b600052603260045260246000fd5b90600052602060002090600402019050610e8482611d60565b610e8d57600080fd5b610e9681611d60565b610e9f57600080fd5b600181015460028301548190600090610eba906064906132a1565b9050600060648560020154610ecf91906132a1565b905060006002610ee18360ff16611d77565b8360ff16610ef18660ff16611d77565b610efe9060ff881661303e565b610f08919061303e565b610f1291906131e8565b610f1c919061306a565b905060006064610f2d83600f6131bf565b610f37919061306a565b90506000610f46600a866132b5565b60ff1690506000610f58600a866132b5565b60ff169050600080610f6a6064611d77565b905060638860ff16108015610f82575060638760ff16105b610f8b57600080fd5b603c8860ff1611158015610fa35750603c8760ff1611155b156112a15760148860ff1611158015610fc0575060148760ff1611155b1561114b57603281106110dd578660ff168860ff161061105b576000610fe78560056130d2565b610ff28660046130d2565b8d600201548f60020154611006919061303e565b61101091906131a0565b61101a9190613056565b9050611026600a611d77565b60ff8a166110356064846132a1565b61103f90846131e8565b611049919061303e565b611053919061303e565b9250506110d8565b60006110688460056130d2565b6110738560046130d2565b8d600201548f60020154611087919061303e565b61109191906131a0565b61109b9190613056565b90506110a7600a611d77565b60ff89166110b66064846132a1565b6110c090846131e8565b6110ca919061303e565b6110d4919061303e565b9250505b611146565b60006110ea8560056130d2565b6110f58660046130d2565b8d600201548f60020154611109919061303e565b61111391906131a0565b61111d9190613056565b905060ff871661112e6064836132a1565b61113890836131e8565b611142919061303e565b9250505b6112a1565b603c811061122a578660ff168860ff16106111bb57600061116d8560056130d2565b6111788660046130d2565b8d600201548f6002015461118c919061303e565b61119691906131a0565b6111a09190613056565b90506111ac600a611d77565b60ff8a166110b66064846132a1565b60006111c88460056130d2565b6111d38560046130d2565b8d600201548f600201546111e7919061303e565b6111f191906131a0565b6111fb9190613056565b9050611207600a611d77565b60ff89166112166064846132a1565b61122090846131e8565b611138919061303e565b60006112378560056130d2565b6112428660046130d2565b8d600201548f60020154611256919061303e565b61126091906131a0565b61126a9190613056565b905060ff80871690881661127f6064846132a1565b61128990846131e8565b611293919061303e565b61129d919061303e565b9250505b603c8860ff161180156112b75750603c8760ff16115b1561143d57604681106113d4578660ff168860ff16106113525760006112de8560056130d2565b6112e98660046130d2565b8d600201548f600201546112fd919061303e565b61130791906131a0565b6113119190613056565b905061131d6008611d77565b60ff8a1661132c6064846132a1565b61133690846131e8565b611340919061303e565b61134a919061303e565b9250506113cf565b600061135f8460056130d2565b61136a8560046130d2565b8d600201548f6002015461137e919061303e565b61138891906131a0565b6113929190613056565b905061139e6008611d77565b60ff89166113ad6064846132a1565b6113b790846131e8565b6113c1919061303e565b6113cb919061303e565b9250505b61143d565b60006113e18560056130d2565b6113ec8660046130d2565b8d600201548f60020154611400919061303e565b61140a91906131a0565b6114149190613056565b905060ff87166114256064836132a1565b61142f90836131e8565b611439919061303e565b9250505b603c8860ff161180156114545750603c8760ff1611155b1561154b57605081106114e257600061146e8560056130d2565b6114798660046130d2565b8d600201548f6002015461148d919061303e565b61149791906131a0565b6114a19190613056565b90506114ad6007611d77565b60ff8a166114bc6064846132a1565b6114c690846131e8565b6114d0919061303e565b6114da919061303e565b92505061154b565b60006114ef8560056130d2565b6114fa8660046130d2565b8d600201548f6002015461150e919061303e565b61151891906131a0565b6115229190613056565b905060ff87166115336064836132a1565b61153d90836131e8565b611547919061303e565b9250505b603c8860ff16111580156115625750603c8760ff16115b1561165957605081106115f057600061157c8460056130d2565b6115878560046130d2565b8d600201548f6002015461159b919061303e565b6115a591906131a0565b6115af9190613056565b90506115bb6008611d77565b60ff89166115ca6064846132a1565b6115d490846131e8565b6115de919061303e565b6115e8919061303e565b925050611659565b60006115fd8460056130d2565b6116088560046130d2565b8d600201548f6002015461161c919061303e565b61162691906131a0565b6116309190613056565b905060ff87166116416064836132a1565b61164b90836131e8565b611655919061303e565b9250505b611684604051806040016040528060078152602001664e6f206e616d6560c81b815250838c8c611dca565b61168d8c611fa4565b6116968b611fa4565b5050505050505050505050505050565b600f81600381106116b657600080fd5b60089182820401919006600402915054906101000a900463ffffffff1681565b6116de611aea565b6001600160a01b0316826001600160a01b0316141561170f5760405162461bcd60e51b815260040161066990612cc3565b806005600061171c611aea565b6001600160a01b03908116825260208083019390935260409182016000908120918716808252919093529120805460ff191692151592909217909155611760611aea565b6001600160a01b03167f17307eab39ab6107e8899845ad3d59bd9653f200f220920489ca2b5937696c31836040516117989190612b39565b60405180910390a35050565b60606010805480602002602001604051908101604052809291908181526020016000905b828210156118ef5783829060005260206000209060040201604051806101000160405290816000820180546117fc9061322b565b80601f01602080910402602001604051908101604052809291908181526020018280546118289061322b565b80156118755780601f1061184a57610100808354040283529160200191611875565b820191906000526020600020905b81548152906001019060200180831161185857829003601f168201915b50505091835250506001828101546020808401919091526002840154604084015260039093015460ff808216606085015261010082048116608085015263ffffffff6201000083041660a0850152600160301b8204811660c0850152600160381b9091041660e090920191909152918352920191016117c8565b50505050905090565b611909611903611aea565b83611b5c565b6119255760405162461bcd60e51b815260040161066990612fc5565b611931848484846120b7565b50505050565b606061194282611acd565b61195e5760405162461bcd60e51b815260040161066990612f35565b60006119686120ea565b9050600081511161198857604051806020016040528060008152506119b3565b80611992846120fc565b6040516020016119a3929190612977565b6040516020818303038152906040525b9392505050565b600b5490565b6001600160a01b03918216600090815260056020908152604080832093909416825291909152205460ff1690565b6119f6611aea565b6001600160a01b0316611a07610d65565b6001600160a01b031614611a2d5760405162461bcd60e51b815260040161066990612eb7565b6001600160a01b038116611a535760405162461bcd60e51b815260040161066990612c02565b611a5c81611d0e565b50565b600b543414611a6d57600080fd5b6000611a7882612217565b90506000611a866014611d77565b611a916064846132a1565b611a9b90846131e8565b611aa5919061303e565b90506107218382600080611dca565b6001600160e01b031981166301ffc9a760e01b14919050565b6000908152600260205260409020546001600160a01b0316151590565b3390565b600081815260046020526040902080546001600160a01b0319166001600160a01b0384169081179091558190611b2382610c57565b6001600160a01b03167f8c5be1e5ebec7d5bd14f71427d1e84f3dd0314c0f7b2291e5b200ac8c7c3b92560405160405180910390a45050565b6000611b6782611acd565b611b835760405162461bcd60e51b815260040161066990612cfa565b6000611b8e83610c57565b9050806001600160a01b0316846001600160a01b03161480611bc95750836001600160a01b0316611bbe84610642565b6001600160a01b0316145b80611bd95750611bd981856119c0565b949350505050565b826001600160a01b0316611bf482610c57565b6001600160a01b031614611c1a5760405162461bcd60e51b815260040161066990612eec565b6001600160a01b038216611c405760405162461bcd60e51b815260040161066990612c7f565b611c4b838383610721565b611c56600082611aee565b6001600160a01b0383166000908152600360205260408120805460019290611c7f9084906131e8565b90915550506001600160a01b0382166000908152600360205260408120805460019290611cad90849061303e565b909155505060008181526002602052604080822080546001600160a01b0319166001600160a01b0386811691821790925591518493918716917fddf252ad1be2c89b69c2b068fc378daa952ba7f163c4a11628f55a4df523b3ef91a4505050565b600680546001600160a01b038381166001600160a01b0319831681179093556040519116919082907f8be0079c531659141344cd1fd0a4f28419497f9722a3daafe3b4186f6b6457e090600090a35050565b60030154426201000090910463ffffffff16111590565b600e805460009182611d8883613266565b919050555060004233600e54604051602001611da6939291906129e5565b60408051601f19818403018152919052805160209091012090506119b383826132a1565b6000611dd76064856132a1565b90506000611de56007612258565b6040805161010081018252888152602080820184905291810188905260016060820181905260ff868116608084015263ffffffff421660a084015288811660c0840152871660e0830152601080549182018155600052815180519495509193849360049092027f1b6847dc741a1b0cd08d278845f9d819d87b734759afb55fe2de5cb82a9ae6720192611e7c928492910190612599565b506020820151600182015560408201516002820155606082015160039091018054608084015160a085015160c086015160e09096015160ff908116600160381b0267ff0000000000000019978216600160301b0266ff0000000000001963ffffffff909416620100000265ffffffff0000199584166101000261ff00199490991660ff199097169690961792909216969096179290921692909217919091161792909216179055611f2d338361225c565b611f378288612276565b611f416007612295565b600954611f58906001600160a01b031660016116d6565b336001600160a01b03167f589cd144bbd2fda6318230895eca43f6ea1a1b5b0464c4bc1221bdfc7fad884c8388604051611f9392919061301f565b60405180910390a250505050505050565b6003810154604b61010090910460ff1610611fef57600f54611fcc9063ffffffff164261303e565b8160030160026101000a81548163ffffffff021916908363ffffffff1602179055505b6003810154603261010090910460ff161080159061201a57506003810154604b61010090910460ff16105b1561205d57600f5461203a90640100000000900463ffffffff164261303e565b8160030160026101000a81548163ffffffff021916908363ffffffff1602179055505b6003810154603261010090910460ff161015611a5c57600f546120929068010000000000000000900463ffffffff164261303e565b8160030160026101000a81548163ffffffff021916908363ffffffff16021790555050565b6120c2848484611be1565b6120ce8484848461229e565b6119315760405162461bcd60e51b815260040161066990612bb0565b60408051602081019091526000815290565b60608161212157506040805180820190915260018152600360fc1b60208201526105ab565b8160005b811561214b578061213581613266565b91506121449050600a83613056565b9150612125565b60008167ffffffffffffffff81111561217457634e487b7160e01b600052604160045260246000fd5b6040519080825280601f01601f19166020018201604052801561219e576020820181803683370190505b5090505b8415611bd9576121b36001836131e8565b91506121c0600a866132a1565b6121cb90603061303e565b60f81b8183815181106121ee57634e487b7160e01b600052603260045260246000fd5b60200101906001600160f81b031916908160001a905350612210600a86613056565b94506121a2565b60008042338460405160200161222f939291906129a6565b6040516020818303038152906040528051906020012060001c9050600a54816119b391906132a1565b5490565b6108788282604051806020016040528060008152506123b9565b6000828152600860209081526040909120825161072192840190612599565b80546001019055565b60006122b2846001600160a01b03166123ec565b156123ae57836001600160a01b031663150b7a026122ce611aea565b8786866040518563ffffffff1660e01b81526004016122f09493929190612a21565b602060405180830381600087803b15801561230a57600080fd5b505af192505050801561233a575060408051601f3d908101601f1916820190925261233791810190612828565b60015b612394573d808015612368576040519150601f19603f3d011682016040523d82523d6000602084013e61236d565b606091505b50805161238c5760405162461bcd60e51b815260040161066990612bb0565b805181602001fd5b6001600160e01b031916630a85bd0160e11b149050611bd9565b506001949350505050565b6123c383836123f2565b6123d0600084848461229e565b6107215760405162461bcd60e51b815260040161066990612bb0565b3b151590565b6001600160a01b0382166124185760405162461bcd60e51b815260040161066990612e36565b61242181611acd565b1561243e5760405162461bcd60e51b815260040161066990612c48565b61244a60008383610721565b6001600160a01b038216600090815260036020526040812080546001929061247390849061303e565b909155505060008181526002602052604080822080546001600160a01b0319166001600160a01b03861690811790915590518392907fddf252ad1be2c89b69c2b068fc378daa952ba7f163c4a11628f55a4df523b3ef908290a45050565b6040805161010081018252606080825260006020830181905292820183905281018290526080810182905260a0810182905260c0810182905260e081019190915290565b8280546125219061322b565b90600052602060002090601f0160209004810192826125435760008555612589565b82601f1061255c5782800160ff19823516178555612589565b82800160010185558215612589579182015b8281111561258957823582559160200191906001019061256e565b5061259592915061260d565b5090565b8280546125a59061322b565b90600052602060002090601f0160209004810192826125c75760008555612589565b82601f106125e057805160ff1916838001178555612589565b82800160010185558215612589579182015b828111156125895782518255916020019190600101906125f2565b5b80821115612595576000815560010161260e565b600067ffffffffffffffff8084111561263d5761263d613303565b604051601f8501601f19168101602001828111828210171561266157612661613303565b60405284815291508183850186101561267957600080fd5b8484602083013760006020868301015250509392505050565b80356001600160a01b03811681146105ab57600080fd5b6000602082840312156126ba578081fd5b6119b382612692565b600080604083850312156126d5578081fd5b6126de83612692565b91506126ec60208401612692565b90509250929050565b600080600060608486031215612709578081fd5b61271284612692565b925061272060208501612692565b9150604084013590509250925092565b60008060008060808587031215612745578081fd5b61274e85612692565b935061275c60208601612692565b925060408501359150606085013567ffffffffffffffff81111561277e578182fd5b8501601f8101871361278e578182fd5b61279d87823560208401612622565b91505092959194509250565b600080604083850312156127bb578182fd5b6127c483612692565b9150602083013580151581146127d8578182fd5b809150509250929050565b600080604083850312156127f5578182fd5b6127fe83612692565b946020939093013593505050565b60006020828403121561281d578081fd5b81356119b381613319565b600060208284031215612839578081fd5b81516119b381613319565b600060208284031215612855578081fd5b813567ffffffffffffffff81111561286b578182fd5b8201601f8101841361287b578182fd5b611bd984823560208401612622565b60006020828403121561289b578081fd5b5035919050565b6000806000604084860312156128b6578283fd5b83359250602084013567ffffffffffffffff808211156128d4578384fd5b818601915086601f8301126128e7578384fd5b8135818111156128f5578485fd5b876020828501011115612906578485fd5b6020830194508093505050509250925092565b6000806040838503121561292b578182fd5b50508035926020909101359150565b600081518084526129528160208601602086016131ff565b601f01601f19169290920160200192915050565b63ffffffff169052565b60ff169052565b600083516129898184602088016131ff565b83519083019061299d8183602088016131ff565b01949350505050565b60008482526bffffffffffffffffffffffff198460601b16602083015282516129d68160348501602087016131ff565b91909101603401949350505050565b92835260609190911b6bffffffffffffffffffffffff19166020830152603482015260540190565b6001600160a01b0391909116815260200190565b6001600160a01b0385811682528416602082015260408101839052608060608201819052600090612a549083018461293a565b9695505050505050565b60208082528251828201819052600091906040908185019080840286018301878501865b83811015612b2b57603f1989840301855281516101008151818652612aa98287018261293a565b9150508882015189860152878201518886015260608083015160ff80821683890152608092508083860151168389015250505060a080830151612aee82880182612966565b505060c080830151612b0282880182612970565b505060e09182015191612b1786820184612970565b509588019593505090860190600101612a82565b509098975050505050505050565b901515815260200190565b6000602082526119b3602083018461293a565b6000610100808352612b6b8184018c61293a565b602084019a909a525050604081019690965260ff9485166060870152928416608086015263ffffffff9190911660a0850152821660c08401521660e090910152919050565b60208082526032908201527f4552433732313a207472616e7366657220746f206e6f6e20455243373231526560408201527131b2b4bb32b91034b6b83632b6b2b73a32b960711b606082015260800190565b60208082526026908201527f4f776e61626c653a206e6577206f776e657220697320746865207a65726f206160408201526564647265737360d01b606082015260800190565b6020808252601c908201527f4552433732313a20746f6b656e20616c7265616479206d696e74656400000000604082015260600190565b60208082526024908201527f4552433732313a207472616e7366657220746f20746865207a65726f206164646040820152637265737360e01b606082015260800190565b60208082526019908201527f4552433732313a20617070726f766520746f2063616c6c657200000000000000604082015260600190565b6020808252602c908201527f4552433732313a206f70657261746f7220717565727920666f72206e6f6e657860408201526b34b9ba32b73a103a37b5b2b760a11b606082015260800190565b60208082526038908201527f4552433732313a20617070726f76652063616c6c6572206973206e6f74206f7760408201527f6e6572206e6f7220617070726f76656420666f7220616c6c0000000000000000606082015260800190565b6020808252602a908201527f4552433732313a2062616c616e636520717565727920666f7220746865207a65604082015269726f206164647265737360b01b606082015260800190565b60208082526029908201527f4552433732313a206f776e657220717565727920666f72206e6f6e657869737460408201526832b73a103a37b5b2b760b91b606082015260800190565b6020808252818101527f4552433732313a206d696e7420746f20746865207a65726f2061646472657373604082015260600190565b6020808252602c908201527f4552433732313a20617070726f76656420717565727920666f72206e6f6e657860408201526b34b9ba32b73a103a37b5b2b760a11b606082015260800190565b6020808252818101527f4f776e61626c653a2063616c6c6572206973206e6f7420746865206f776e6572604082015260600190565b60208082526029908201527f4552433732313a207472616e73666572206f6620746f6b656e2074686174206960408201526839903737ba1037bbb760b91b606082015260800190565b6020808252602f908201527f4552433732314d657461646174613a2055524920717565727920666f72206e6f60408201526e3732bc34b9ba32b73a103a37b5b2b760891b606082015260800190565b60208082526021908201527f4552433732313a20617070726f76616c20746f2063757272656e74206f776e656040820152603960f91b606082015260800190565b60208082526031908201527f4552433732313a207472616e736665722063616c6c6572206973206e6f74206f6040820152701ddb995c881b9bdc88185c1c1c9bdd9959607a1b606082015260800190565b90815260200190565b918252602082015260400190565b63ffffffff91909116815260200190565b60008219821115613051576130516132d7565b500190565b600082613065576130656132ed565b500490565b600060ff83168061307d5761307d6132ed565b8060ff84160491505092915050565b80825b600180861161309e57506130c9565b8187048211156130b0576130b06132d7565b808616156130bd57918102915b9490941c93800261308f565b94509492505050565b60006119b360001984846000826130eb575060016119b3565b816130f8575060006119b3565b816001811461310e576002811461311857613145565b60019150506119b3565b60ff841115613129576131296132d7565b6001841b91508482111561313f5761313f6132d7565b506119b3565b5060208310610133831016604e8410600b8410161715613178575081810a83811115613173576131736132d7565b6119b3565b613185848484600161308c565b808604821115613197576131976132d7565b02949350505050565b60008160001904831182151516156131ba576131ba6132d7565b500290565b600060ff821660ff84168160ff04811182151516156131e0576131e06132d7565b029392505050565b6000828210156131fa576131fa6132d7565b500390565b60005b8381101561321a578181015183820152602001613202565b838111156119315750506000910152565b60028104600182168061323f57607f821691505b6020821081141561326057634e487b7160e01b600052602260045260246000fd5b50919050565b600060001982141561327a5761327a6132d7565b5060010190565b600060ff821660ff811415613298576132986132d7565b60010192915050565b6000826132b0576132b06132ed565b500690565b600060ff8316806132c8576132c86132ed565b8060ff84160691505092915050565b634e487b7160e01b600052601160045260246000fd5b634e487b7160e01b600052601260045260246000fd5b634e487b7160e01b600052604160045260246000fd5b6001600160e01b031981168114611a5c57600080fdfea26469706673582212207131bb40104ae646cfca1c33a1c137dde8d5d474092841b099bf34e2cf682c1464736f6c63430008000033",
  "immutableReferences": {},
  "source": "// SPDX-License-Identifier: MIT\r\n\r\npragma solidity ^0.8.0;\r\n\r\nimport \"@openzeppelin/contracts/token/ERC721/ERC721.sol\";\r\nimport \"@openzeppelin/contracts/access/Ownable.sol\";\r\nimport \"@openzeppelin/contracts/utils/Counters.sol\";\r\n\r\ncontract TruffleFactory is ERC721, Ownable{\r\n    using Counters for Counters.Counter;\r\n    using Strings for uint256;\r\n    Counters.Counter _tokenIds;\r\n    mapping(uint256 => string) _tokenURIs;\r\n    \r\n    constructor(address marketplaceAddress) ERC721(\"Truffle\",\"TFT\")\r\n    {\r\n        contractAddress = marketplaceAddress;\r\n    }\r\n    \r\n    address contractAddress;\r\n    uint256 DNA_MOD = 10**16;\r\n    uint256 fee = 0.025 ether;\r\n    uint256 levelUpFee = 0.001 ether;\r\n    uint256 feeBreed = 0.01 ether;\r\n    uint randNonce = 0;\r\n        uint32[3] public cooldowns = [\r\n        uint32(30 minutes),\r\n        uint32(1 hours),\r\n        uint32(2 hours)\r\n    ];\r\n\r\n    struct Truffle {\r\n        string name;\r\n        uint256 id;\r\n        uint256 dna;\r\n        uint8 level;\r\n        uint8 rarity;\r\n        uint32 readyTime;\r\n        uint8 dadId;\r\n        uint8 mumId;\r\n    }\r\n\r\n    Truffle[] public truffles;\r\n\r\n    event NewTruffle(address indexed owner, uint256 id, uint256 dna);\r\n\r\n    // Helpers\r\n    function getFee() public view returns (uint256) {\r\n        return fee;\r\n    }\r\n\r\n    function FreeLeveUp() public view returns (uint256) {\r\n        return levelUpFee;\r\n    }\r\n    \r\n    function getFeeBreed() public view returns (uint256) {\r\n        return feeBreed;\r\n    }\r\n    \r\n    function _setTokenURI(uint256 tokenId, string memory _tokenURI) internal {\r\n        _tokenURIs[tokenId] = _tokenURI;\r\n    }\r\n\r\n    function _createRandomDna(string memory _mod) internal view returns (uint256) {\r\n        uint256 randomNum = uint256(\r\n            keccak256(abi.encodePacked(block.timestamp, msg.sender, _mod))\r\n        );\r\n        return randomNum % DNA_MOD;\r\n    }\r\n    \r\n    function _createTruffle(string memory _name,  uint256 _dna ,uint8 dadId, uint8 mumId) internal {\r\n        uint8 randRarity = uint8(_dna % 100);\r\n        \r\n        uint256 newId = _tokenIds.current();\r\n        Truffle memory newTruffle = Truffle(_name, newId, _dna, 1, randRarity, uint32(block.timestamp), dadId, mumId );\r\n        truffles.push(newTruffle);\r\n        _safeMint(msg.sender, newId);\r\n        _setTokenURI(newId, _name);\r\n        _tokenIds.increment();\r\n        setApprovalForAll(contractAddress,true);\r\n        \r\n        emit NewTruffle(msg.sender, newId, _dna);\r\n    }\r\n    \r\n\r\n    function createRandomTruffle(string memory _name) public payable {\r\n        require(msg.value == fee);\r\n        uint256 randDna = _createRandomDna(_name);\r\n        uint256 newDna = randDna - randDna % 100 + randMod(20);\r\n        _createTruffle(_name, newDna, 0, 0);\r\n    }\r\n\r\n    function getTruffle() public view returns (Truffle[] memory) {\r\n        return truffles;\r\n    }\r\n    \r\n    function getOwnerTruffles(address _owner) public view returns (Truffle[] memory) {\r\n        Truffle[] memory result = new Truffle[](balanceOf(_owner));\r\n        uint256 counter = 0;\r\n        for (uint256 i = 0; i < truffles.length; i++) {\r\n            if (ownerOf(i) == _owner) {\r\n                result[counter] = truffles[i];\r\n                counter++;\r\n            }\r\n        }\r\n        return result;\r\n    }\r\n\r\n    function updateFee(uint256 _fee) external onlyOwner {\r\n        fee = _fee;\r\n    }\r\n    \r\n    function updateFeeLevelUp(uint256 _feeLevelUp) external onlyOwner {\r\n        levelUpFee = _feeLevelUp;\r\n    }\r\n\r\n    function withdraw() external payable onlyOwner {\r\n        address payable _owner = payable(owner());\r\n        _owner.transfer(address(this).balance);\r\n    }\r\n\r\n    // Actions\r\n    modifier aboveLevel(uint _level, uint _TruffleId) {\r\n        require(truffles[_TruffleId].level >= _level);\r\n        _;\r\n    }\r\n\r\n    function levelUp(uint256 _TruffleId) external payable {\r\n        require(msg.value == levelUpFee);\r\n        require(ownerOf(_TruffleId) == msg.sender);\r\n        Truffle storage truffle = truffles[_TruffleId];\r\n        truffle.level++;\r\n    }\r\n    \r\n    function updateName(uint256 _TruffleId, string calldata _newName) external aboveLevel(2, _TruffleId) {\r\n        require(ownerOf(_TruffleId) == msg.sender);\r\n        truffles[_TruffleId].name = _newName;\r\n    }\r\n\r\n    function randMod(uint _modulus) internal returns(uint) {//hm s ngu nhin\r\n        randNonce++;\r\n        uint256 randomNum2 = uint256(\r\n        keccak256(abi.encodePacked(block.timestamp, msg.sender, randNonce))\r\n        );\r\n        return randomNum2 % _modulus;\r\n    }\r\n    \r\n    function _triggerCooldown(Truffle storage _truffle) internal {//hm kich hoat cooldown\r\n        if(_truffle.rarity >= 75){\r\n            _truffle.readyTime = uint32(block.timestamp + cooldowns[0]);\r\n        }if(_truffle.rarity >= 50 && _truffle.rarity < 75){\r\n            _truffle.readyTime = uint32(block.timestamp + cooldowns[1]);\r\n        }if(_truffle.rarity < 50){\r\n            _truffle.readyTime = uint32(block.timestamp + cooldowns[2]);\r\n        }\r\n    }\r\n    \r\n    function _isReady(Truffle storage _truffle) internal view returns (bool) {\r\n        return (_truffle.readyTime <= block.timestamp);\r\n    }\r\n    \r\n    function BreedAndMultiply(uint _truffleId, uint _targetDna) public payable onlyOwner{\r\n        require(msg.value >= feeBreed);\r\n        Truffle storage myTruffle = truffles[_truffleId];\r\n        Truffle storage myTargetDna = truffles[_targetDna];\r\n        require(_isReady(myTruffle));\r\n        require(_isReady(myTargetDna));\r\n        uint8 dadId = uint8(myTargetDna.id);\r\n        uint8 mumId = uint8(myTargetDna.id);\r\n        \r\n        uint8 valueRarity = uint8(myTruffle.dna % 100);\r\n        uint8 valueRarity2 = uint8(myTargetDna.dna % 100);\r\n        uint8 valueRarity3 = uint8(valueRarity + randMod(valueRarity) + valueRarity2 - randMod(valueRarity2)) /2;\r\n        uint8 valueRarity4 = uint8(valueRarity3 * 15 / 100);\r\n        \r\n        uint number = valueRarity % 10;\r\n        uint number2 = valueRarity2 % 10;\r\n        uint newDna;\r\n        uint rand = randMod(100);\r\n        require(valueRarity < 99 && valueRarity2 < 99);\r\n        if(valueRarity <= 60 && valueRarity2 <=60){\r\n            if(valueRarity <= 20 && valueRarity2 <= 20){\r\n                if(rand >= 50){\r\n                    if(valueRarity>= valueRarity2){\r\n                        uint algorithm = (myTruffle.dna + myTargetDna.dna)*(4**number)/(5**number);\r\n                        newDna = algorithm - algorithm % 100 + valueRarity + randMod(10);\r\n                    }else{\r\n                        uint algorithm = (myTruffle.dna + myTargetDna.dna)*(4**number2)/(5**number2);\r\n                        newDna = algorithm - algorithm % 100 + valueRarity2 + randMod(10);\r\n                    }\r\n                }else{\r\n                    uint algorithm = (myTruffle.dna + myTargetDna.dna)*(4**number)/(5**number);\r\n                    newDna = algorithm - algorithm % 100 + valueRarity3;\r\n                }\r\n            }else{\r\n                if(rand >= 60){\r\n                    if(valueRarity>= valueRarity2){\r\n                        uint algorithm = (myTruffle.dna + myTargetDna.dna)*(4**number)/(5**number);\r\n                        newDna = algorithm - algorithm % 100 + valueRarity + randMod(10);\r\n                    }else{\r\n                        uint algorithm = (myTruffle.dna + myTargetDna.dna)*(4**number2)/(5**number2);\r\n                        newDna = algorithm - algorithm % 100 + valueRarity2 + randMod(10);\r\n                    }\r\n                }else{\r\n                    uint algorithm = (myTruffle.dna + myTargetDna.dna)*(4**number)/(5**number);\r\n                    newDna = algorithm - algorithm % 100 + valueRarity3 + valueRarity4;\r\n                }\r\n            }\r\n        }if(valueRarity > 60 && valueRarity2 > 60){\r\n            if(rand >= 70){\r\n                if(valueRarity>= valueRarity2){\r\n                    uint algorithm = (myTruffle.dna + myTargetDna.dna)*(4**number)/(5**number);\r\n                    newDna = algorithm - algorithm % 100 + valueRarity + randMod(8);\r\n                }else{\r\n                    uint algorithm = (myTruffle.dna + myTargetDna.dna)*(4**number2)/(5**number2);\r\n                    newDna = algorithm - algorithm % 100 + valueRarity2 + randMod(8);\r\n                }\r\n            }else{\r\n                uint algorithm = (myTruffle.dna + myTargetDna.dna)*(4**number)/(5**number);\r\n                newDna = algorithm - algorithm % 100 + valueRarity3;\r\n            }\r\n        }if(valueRarity > 60 && valueRarity2 <= 60){\r\n            if(rand >= 80){\r\n                uint algorithm = (myTruffle.dna + myTargetDna.dna)*(4**number)/(5**number);\r\n                newDna = algorithm - algorithm % 100 + valueRarity + randMod(7);\r\n            }else{\r\n                uint algorithm = (myTruffle.dna + myTargetDna.dna)*(4**number)/(5**number);\r\n                newDna = algorithm - algorithm % 100 + valueRarity3;\r\n            }\r\n        }if(valueRarity <= 60 && valueRarity2 > 60){\r\n            if(rand >= 80){\r\n                uint algorithm = (myTruffle.dna + myTargetDna.dna)*(4**number2)/(5**number2);\r\n                newDna = algorithm - algorithm % 100 + valueRarity2 + randMod(8);\r\n            }else{\r\n                uint algorithm = (myTruffle.dna + myTargetDna.dna)*(4**number2)/(5**number2);\r\n                newDna = algorithm - algorithm % 100 + valueRarity3;\r\n            }\r\n        }\r\n        \r\n        _createTruffle(\"No name\", newDna, dadId, mumId);\r\n        _triggerCooldown(myTruffle);\r\n        _triggerCooldown(myTargetDna);\r\n    }\r\n    \r\n}\r\n",
  "sourcePath": "D:\\DAPP\\project-game\\project-game-truffle\\contracts\\TruffleFactory.sol",
  "compiler": {
    "name": "solc",
    "version": "0.8.0+commit.c7dfd78e.Emscripten.clang"
  },
  "schemaVersion": "3.4.3",
  "updatedAt": "2021-11-04T17:14:36.213Z",
  "networkType": "ethereum",
  "devdoc": {
    "kind": "dev",
    "methods": {
      "approve(address,uint256)": {
        "details": "See {IERC721-approve}."
      },
      "balanceOf(address)": {
        "details": "See {IERC721-balanceOf}."
      },
      "getApproved(uint256)": {
        "details": "See {IERC721-getApproved}."
      },
      "isApprovedForAll(address,address)": {
        "details": "See {IERC721-isApprovedForAll}."
      },
      "name()": {
        "details": "See {IERC721Metadata-name}."
      },
      "owner()": {
        "details": "Returns the address of the current owner."
      },
      "ownerOf(uint256)": {
        "details": "See {IERC721-ownerOf}."
      },
      "renounceOwnership()": {
        "details": "Leaves the contract without owner. It will not be possible to call `onlyOwner` functions anymore. Can only be called by the current owner. NOTE: Renouncing ownership will leave the contract without an owner, thereby removing any functionality that is only available to the owner."
      },
      "safeTransferFrom(address,address,uint256)": {
        "details": "See {IERC721-safeTransferFrom}."
      },
      "safeTransferFrom(address,address,uint256,bytes)": {
        "details": "See {IERC721-safeTransferFrom}."
      },
      "setApprovalForAll(address,bool)": {
        "details": "See {IERC721-setApprovalForAll}."
      },
      "supportsInterface(bytes4)": {
        "details": "See {IERC165-supportsInterface}."
      },
      "symbol()": {
        "details": "See {IERC721Metadata-symbol}."
      },
      "tokenURI(uint256)": {
        "details": "See {IERC721Metadata-tokenURI}."
      },
      "transferFrom(address,address,uint256)": {
        "details": "See {IERC721-transferFrom}."
      },
      "transferOwnership(address)": {
        "details": "Transfers ownership of the contract to a new account (`newOwner`). Can only be called by the current owner."
      }
    },
    "version": 1
  },
  "userdoc": {
    "kind": "user",
    "methods": {},
    "version": 1
  }
}