{
  "contractName": "TruffleFactory",
  "abi": [
    {
      "inputs": [],
      "stateMutability": "nonpayable",
      "type": "constructor"
    },
    {
      "anonymous": false,
      "inputs": [
        {
          "indexed": true,
          "internalType": "address",
          "name": "owner",
          "type": "address"
        },
        {
          "indexed": true,
          "internalType": "address",
          "name": "approved",
          "type": "address"
        },
        {
          "indexed": true,
          "internalType": "uint256",
          "name": "tokenId",
          "type": "uint256"
        }
      ],
      "name": "Approval",
      "type": "event"
    },
    {
      "anonymous": false,
      "inputs": [
        {
          "indexed": true,
          "internalType": "address",
          "name": "owner",
          "type": "address"
        },
        {
          "indexed": true,
          "internalType": "address",
          "name": "operator",
          "type": "address"
        },
        {
          "indexed": false,
          "internalType": "bool",
          "name": "approved",
          "type": "bool"
        }
      ],
      "name": "ApprovalForAll",
      "type": "event"
    },
    {
      "anonymous": false,
      "inputs": [
        {
          "indexed": false,
          "internalType": "address",
          "name": "_seller",
          "type": "address"
        },
        {
          "indexed": false,
          "internalType": "address",
          "name": "_buyer",
          "type": "address"
        },
        {
          "indexed": false,
          "internalType": "uint256",
          "name": "_price",
          "type": "uint256"
        }
      ],
      "name": "BuyTruffle",
      "type": "event"
    },
    {
      "anonymous": false,
      "inputs": [
        {
          "indexed": true,
          "internalType": "address",
          "name": "owner",
          "type": "address"
        },
        {
          "indexed": false,
          "internalType": "uint256",
          "name": "id",
          "type": "uint256"
        },
        {
          "indexed": false,
          "internalType": "uint256",
          "name": "dna",
          "type": "uint256"
        }
      ],
      "name": "NewTruffle",
      "type": "event"
    },
    {
      "anonymous": false,
      "inputs": [
        {
          "indexed": true,
          "internalType": "address",
          "name": "previousOwner",
          "type": "address"
        },
        {
          "indexed": true,
          "internalType": "address",
          "name": "newOwner",
          "type": "address"
        }
      ],
      "name": "OwnershipTransferred",
      "type": "event"
    },
    {
      "anonymous": false,
      "inputs": [
        {
          "indexed": true,
          "internalType": "address",
          "name": "from",
          "type": "address"
        },
        {
          "indexed": true,
          "internalType": "address",
          "name": "to",
          "type": "address"
        },
        {
          "indexed": true,
          "internalType": "uint256",
          "name": "tokenId",
          "type": "uint256"
        }
      ],
      "name": "Transfer",
      "type": "event"
    },
    {
      "inputs": [
        {
          "internalType": "address",
          "name": "to",
          "type": "address"
        },
        {
          "internalType": "uint256",
          "name": "tokenId",
          "type": "uint256"
        }
      ],
      "name": "approve",
      "outputs": [],
      "stateMutability": "nonpayable",
      "type": "function"
    },
    {
      "inputs": [
        {
          "internalType": "address",
          "name": "owner",
          "type": "address"
        }
      ],
      "name": "balanceOf",
      "outputs": [
        {
          "internalType": "uint256",
          "name": "",
          "type": "uint256"
        }
      ],
      "stateMutability": "view",
      "type": "function",
      "constant": true
    },
    {
      "inputs": [
        {
          "internalType": "uint256",
          "name": "",
          "type": "uint256"
        }
      ],
      "name": "cooldowns",
      "outputs": [
        {
          "internalType": "uint32",
          "name": "",
          "type": "uint32"
        }
      ],
      "stateMutability": "view",
      "type": "function",
      "constant": true
    },
    {
      "inputs": [
        {
          "internalType": "uint256",
          "name": "tokenId",
          "type": "uint256"
        }
      ],
      "name": "getApproved",
      "outputs": [
        {
          "internalType": "address",
          "name": "",
          "type": "address"
        }
      ],
      "stateMutability": "view",
      "type": "function",
      "constant": true
    },
    {
      "inputs": [
        {
          "internalType": "address",
          "name": "owner",
          "type": "address"
        },
        {
          "internalType": "address",
          "name": "operator",
          "type": "address"
        }
      ],
      "name": "isApprovedForAll",
      "outputs": [
        {
          "internalType": "bool",
          "name": "",
          "type": "bool"
        }
      ],
      "stateMutability": "view",
      "type": "function",
      "constant": true
    },
    {
      "inputs": [],
      "name": "name",
      "outputs": [
        {
          "internalType": "string",
          "name": "",
          "type": "string"
        }
      ],
      "stateMutability": "view",
      "type": "function",
      "constant": true
    },
    {
      "inputs": [],
      "name": "owner",
      "outputs": [
        {
          "internalType": "address",
          "name": "",
          "type": "address"
        }
      ],
      "stateMutability": "view",
      "type": "function",
      "constant": true
    },
    {
      "inputs": [
        {
          "internalType": "uint256",
          "name": "tokenId",
          "type": "uint256"
        }
      ],
      "name": "ownerOf",
      "outputs": [
        {
          "internalType": "address",
          "name": "",
          "type": "address"
        }
      ],
      "stateMutability": "view",
      "type": "function",
      "constant": true
    },
    {
      "inputs": [],
      "name": "renounceOwnership",
      "outputs": [],
      "stateMutability": "nonpayable",
      "type": "function"
    },
    {
      "inputs": [
        {
          "internalType": "address",
          "name": "from",
          "type": "address"
        },
        {
          "internalType": "address",
          "name": "to",
          "type": "address"
        },
        {
          "internalType": "uint256",
          "name": "tokenId",
          "type": "uint256"
        }
      ],
      "name": "safeTransferFrom",
      "outputs": [],
      "stateMutability": "nonpayable",
      "type": "function"
    },
    {
      "inputs": [
        {
          "internalType": "address",
          "name": "from",
          "type": "address"
        },
        {
          "internalType": "address",
          "name": "to",
          "type": "address"
        },
        {
          "internalType": "uint256",
          "name": "tokenId",
          "type": "uint256"
        },
        {
          "internalType": "bytes",
          "name": "_data",
          "type": "bytes"
        }
      ],
      "name": "safeTransferFrom",
      "outputs": [],
      "stateMutability": "nonpayable",
      "type": "function"
    },
    {
      "inputs": [
        {
          "internalType": "address",
          "name": "operator",
          "type": "address"
        },
        {
          "internalType": "bool",
          "name": "approved",
          "type": "bool"
        }
      ],
      "name": "setApprovalForAll",
      "outputs": [],
      "stateMutability": "nonpayable",
      "type": "function"
    },
    {
      "inputs": [
        {
          "internalType": "bytes4",
          "name": "interfaceId",
          "type": "bytes4"
        }
      ],
      "name": "supportsInterface",
      "outputs": [
        {
          "internalType": "bool",
          "name": "",
          "type": "bool"
        }
      ],
      "stateMutability": "view",
      "type": "function",
      "constant": true
    },
    {
      "inputs": [],
      "name": "symbol",
      "outputs": [
        {
          "internalType": "string",
          "name": "",
          "type": "string"
        }
      ],
      "stateMutability": "view",
      "type": "function",
      "constant": true
    },
    {
      "inputs": [
        {
          "internalType": "uint256",
          "name": "",
          "type": "uint256"
        }
      ],
      "name": "tokenIdToPrice",
      "outputs": [
        {
          "internalType": "uint256",
          "name": "",
          "type": "uint256"
        }
      ],
      "stateMutability": "view",
      "type": "function",
      "constant": true
    },
    {
      "inputs": [
        {
          "internalType": "uint256",
          "name": "tokenId",
          "type": "uint256"
        }
      ],
      "name": "tokenURI",
      "outputs": [
        {
          "internalType": "string",
          "name": "",
          "type": "string"
        }
      ],
      "stateMutability": "view",
      "type": "function",
      "constant": true
    },
    {
      "inputs": [
        {
          "internalType": "address",
          "name": "from",
          "type": "address"
        },
        {
          "internalType": "address",
          "name": "to",
          "type": "address"
        },
        {
          "internalType": "uint256",
          "name": "tokenId",
          "type": "uint256"
        }
      ],
      "name": "transferFrom",
      "outputs": [],
      "stateMutability": "nonpayable",
      "type": "function"
    },
    {
      "inputs": [
        {
          "internalType": "address",
          "name": "newOwner",
          "type": "address"
        }
      ],
      "name": "transferOwnership",
      "outputs": [],
      "stateMutability": "nonpayable",
      "type": "function"
    },
    {
      "inputs": [
        {
          "internalType": "uint256",
          "name": "",
          "type": "uint256"
        }
      ],
      "name": "truffles",
      "outputs": [
        {
          "internalType": "string",
          "name": "name",
          "type": "string"
        },
        {
          "internalType": "uint256",
          "name": "id",
          "type": "uint256"
        },
        {
          "internalType": "uint256",
          "name": "dna",
          "type": "uint256"
        },
        {
          "internalType": "uint8",
          "name": "level",
          "type": "uint8"
        },
        {
          "internalType": "uint8",
          "name": "rarity",
          "type": "uint8"
        },
        {
          "internalType": "uint32",
          "name": "readyTime",
          "type": "uint32"
        },
        {
          "internalType": "uint8",
          "name": "dadId",
          "type": "uint8"
        },
        {
          "internalType": "uint8",
          "name": "mumId",
          "type": "uint8"
        }
      ],
      "stateMutability": "view",
      "type": "function",
      "constant": true
    },
    {
      "inputs": [],
      "name": "getFee",
      "outputs": [
        {
          "internalType": "uint256",
          "name": "",
          "type": "uint256"
        }
      ],
      "stateMutability": "view",
      "type": "function",
      "constant": true
    },
    {
      "inputs": [],
      "name": "FreeLeveUp",
      "outputs": [
        {
          "internalType": "uint256",
          "name": "",
          "type": "uint256"
        }
      ],
      "stateMutability": "view",
      "type": "function",
      "constant": true
    },
    {
      "inputs": [],
      "name": "getFeeBreed",
      "outputs": [
        {
          "internalType": "uint256",
          "name": "",
          "type": "uint256"
        }
      ],
      "stateMutability": "view",
      "type": "function",
      "constant": true
    },
    {
      "inputs": [
        {
          "internalType": "string",
          "name": "_name",
          "type": "string"
        }
      ],
      "name": "createRandomTruffle",
      "outputs": [],
      "stateMutability": "payable",
      "type": "function",
      "payable": true
    },
    {
      "inputs": [],
      "name": "getTruffle",
      "outputs": [
        {
          "components": [
            {
              "internalType": "string",
              "name": "name",
              "type": "string"
            },
            {
              "internalType": "uint256",
              "name": "id",
              "type": "uint256"
            },
            {
              "internalType": "uint256",
              "name": "dna",
              "type": "uint256"
            },
            {
              "internalType": "uint8",
              "name": "level",
              "type": "uint8"
            },
            {
              "internalType": "uint8",
              "name": "rarity",
              "type": "uint8"
            },
            {
              "internalType": "uint32",
              "name": "readyTime",
              "type": "uint32"
            },
            {
              "internalType": "uint8",
              "name": "dadId",
              "type": "uint8"
            },
            {
              "internalType": "uint8",
              "name": "mumId",
              "type": "uint8"
            }
          ],
          "internalType": "struct TruffleFactory.Truffle[]",
          "name": "",
          "type": "tuple[]"
        }
      ],
      "stateMutability": "view",
      "type": "function",
      "constant": true
    },
    {
      "inputs": [
        {
          "internalType": "address",
          "name": "_owner",
          "type": "address"
        }
      ],
      "name": "getOwnerTruffles",
      "outputs": [
        {
          "components": [
            {
              "internalType": "string",
              "name": "name",
              "type": "string"
            },
            {
              "internalType": "uint256",
              "name": "id",
              "type": "uint256"
            },
            {
              "internalType": "uint256",
              "name": "dna",
              "type": "uint256"
            },
            {
              "internalType": "uint8",
              "name": "level",
              "type": "uint8"
            },
            {
              "internalType": "uint8",
              "name": "rarity",
              "type": "uint8"
            },
            {
              "internalType": "uint32",
              "name": "readyTime",
              "type": "uint32"
            },
            {
              "internalType": "uint8",
              "name": "dadId",
              "type": "uint8"
            },
            {
              "internalType": "uint8",
              "name": "mumId",
              "type": "uint8"
            }
          ],
          "internalType": "struct TruffleFactory.Truffle[]",
          "name": "",
          "type": "tuple[]"
        }
      ],
      "stateMutability": "view",
      "type": "function",
      "constant": true
    },
    {
      "inputs": [
        {
          "internalType": "uint256",
          "name": "_fee",
          "type": "uint256"
        }
      ],
      "name": "updateFee",
      "outputs": [],
      "stateMutability": "nonpayable",
      "type": "function"
    },
    {
      "inputs": [
        {
          "internalType": "uint256",
          "name": "_feeLevelUp",
          "type": "uint256"
        }
      ],
      "name": "updateFeeLevelUp",
      "outputs": [],
      "stateMutability": "nonpayable",
      "type": "function"
    },
    {
      "inputs": [],
      "name": "withdraw",
      "outputs": [],
      "stateMutability": "payable",
      "type": "function",
      "payable": true
    },
    {
      "inputs": [
        {
          "internalType": "uint256",
          "name": "_TruffleId",
          "type": "uint256"
        }
      ],
      "name": "levelUp",
      "outputs": [],
      "stateMutability": "payable",
      "type": "function",
      "payable": true
    },
    {
      "inputs": [
        {
          "internalType": "uint256",
          "name": "_TruffleId",
          "type": "uint256"
        },
        {
          "internalType": "string",
          "name": "_newName",
          "type": "string"
        }
      ],
      "name": "updateName",
      "outputs": [],
      "stateMutability": "nonpayable",
      "type": "function"
    },
    {
      "inputs": [
        {
          "internalType": "uint256",
          "name": "_truffleId",
          "type": "uint256"
        },
        {
          "internalType": "uint256",
          "name": "_targetDna",
          "type": "uint256"
        }
      ],
      "name": "BreedAndMultiply",
      "outputs": [],
      "stateMutability": "payable",
      "type": "function",
      "payable": true
    },
    {
      "inputs": [
        {
          "internalType": "uint256",
          "name": "_tokenId",
          "type": "uint256"
        },
        {
          "internalType": "uint256",
          "name": "_price",
          "type": "uint256"
        }
      ],
      "name": "allowBuy",
      "outputs": [],
      "stateMutability": "nonpayable",
      "type": "function"
    },
    {
      "inputs": [
        {
          "internalType": "uint256",
          "name": "_tokenId",
          "type": "uint256"
        }
      ],
      "name": "disallowBuy",
      "outputs": [],
      "stateMutability": "nonpayable",
      "type": "function"
    },
    {
      "inputs": [
        {
          "internalType": "uint256",
          "name": "_tokenId",
          "type": "uint256"
        }
      ],
      "name": "buy",
      "outputs": [],
      "stateMutability": "payable",
      "type": "function",
      "payable": true
    }
  ],
  "bytecode": "0x6080604052662386f26fc100006008556658d15e1762800060095566038d7ea4c68000600a55662386f26fc10000600b556000600c55610708600d55604051806060016040528061a8c063ffffffff1663ffffffff16815260200161fd2063ffffffff1663ffffffff1681526020016201518063ffffffff1663ffffffff16815250600e9060036200009392919062000236565b50348015620000a157600080fd5b506040518060400160405280600781526020017f54727566666c65000000000000000000000000000000000000000000000000008152506040518060400160405280600381526020017f5446540000000000000000000000000000000000000000000000000000000000815250816000908051906020019062000126929190620002e0565b5080600190805190602001906200013f929190620002e0565b50505062000162620001566200016860201b60201c565b6200017060201b60201c565b620003f5565b600033905090565b6000600660009054906101000a900473ffffffffffffffffffffffffffffffffffffffff16905081600660006101000a81548173ffffffffffffffffffffffffffffffffffffffff021916908373ffffffffffffffffffffffffffffffffffffffff1602179055508173ffffffffffffffffffffffffffffffffffffffff168173ffffffffffffffffffffffffffffffffffffffff167f8be0079c531659141344cd1fd0a4f28419497f9722a3daafe3b4186f6b6457e060405160405180910390a35050565b826003600701600890048101928215620002cd5791602002820160005b838211156200029957835183826101000a81548163ffffffff021916908363ffffffff160217905550926020019260040160208160030104928301926001030262000253565b8015620002cb5782816101000a81549063ffffffff021916905560040160208160030104928301926001030262000299565b505b509050620002dc919062000371565b5090565b828054620002ee9062000390565b90600052602060002090601f0160209004810192826200031257600085556200035e565b82601f106200032d57805160ff19168380011785556200035e565b828001600101855582156200035e579182015b828111156200035d57825182559160200191906001019062000340565b5b5090506200036d919062000371565b5090565b5b808211156200038c57600081600090555060010162000372565b5090565b60006002820490506001821680620003a957607f821691505b60208210811415620003c057620003bf620003c6565b5b50919050565b7f4e487b7100000000000000000000000000000000000000000000000000000000600052602260045260246000fd5b61577180620004056000396000f3fe6080604052600436106101f95760003560e01c80638da5cb5b1161010d578063bbb5e8d3116100a0578063d96a094a1161006f578063d96a094a1461070d578063e985e9c514610729578063f2fde38b14610766578063f4812eb91461078f578063ff5df90a146107cc576101f9565b8063bbb5e8d314610653578063c87b56dd1461067c578063ced72f87146106b9578063d4991312146106e4576101f9565b80639d6fac6f116100dc5780639d6fac6f14610599578063a22cb465146105d6578063b1569412146105ff578063b88d4fde1461062a576101f9565b80638da5cb5b146104fe5780639012c4a81461052957806395d89b4114610552578063962a8ba31461057d576101f9565b806342842e0e116101905780636352211e1161015f5780636352211e1461041957806370a0823114610456578063715018a61461049357806377853218146104aa578063884a326e146104d5576101f9565b806342842e0e1461034657806344b176261461036f5780634cc37fc0146103ac57806353e76f2c146103f0576101f9565b80630ce90ec2116101cc5780630ce90ec2146102cc57806312e2e1c7146102e857806323b872dd146103135780633ccfd60b1461033c576101f9565b806301ffc9a7146101fe57806306fdde031461023b578063081812fc14610266578063095ea7b3146102a3575b600080fd5b34801561020a57600080fd5b5061022560048036038101906102209190613fec565b6107e8565b6040516102329190614c3f565b60405180910390f35b34801561024757600080fd5b506102506108ca565b60405161025d9190614c5a565b60405180910390f35b34801561027257600080fd5b5061028d6004803603810190610288919061407f565b61095c565b60405161029a9190614b7f565b60405180910390f35b3480156102af57600080fd5b506102ca60048036038101906102c59190613fb0565b6109e1565b005b6102e660048036038101906102e1919061407f565b610af9565b005b3480156102f457600080fd5b506102fd610bf2565b60405161030a9190614f81565b60405180910390f35b34801561031f57600080fd5b5061033a60048036038101906103359190613eaa565b610bfc565b005b610344610c5c565b005b34801561035257600080fd5b5061036d60048036038101906103689190613eaa565b610d2e565b005b34801561037b57600080fd5b5061039660048036038101906103919190613e45565b610d4e565b6040516103a39190614c1d565b60405180910390f35b3480156103b857600080fd5b506103d360048036038101906103ce919061407f565b611028565b6040516103e7989796959493929190614c7c565b60405180910390f35b3480156103fc57600080fd5b50610417600480360381019061041291906140a8565b61114c565b005b34801561042557600080fd5b50610440600480360381019061043b919061407f565b611259565b60405161044d9190614b7f565b60405180910390f35b34801561046257600080fd5b5061047d60048036038101906104789190613e45565b61130b565b60405161048a9190614f81565b60405180910390f35b34801561049f57600080fd5b506104a86113c3565b005b3480156104b657600080fd5b506104bf61144b565b6040516104cc9190614f81565b60405180910390f35b3480156104e157600080fd5b506104fc60048036038101906104f7919061407f565b611455565b005b34801561050a57600080fd5b506105136114db565b6040516105209190614b7f565b60405180910390f35b34801561053557600080fd5b50610550600480360381019061054b919061407f565b611505565b005b34801561055e57600080fd5b5061056761158b565b6040516105749190614c5a565b60405180910390f35b61059760048036038101906105929190614100565b61161d565b005b3480156105a557600080fd5b506105c060048036038101906105bb919061407f565b61202e565b6040516105cd9190614fc5565b60405180910390f35b3480156105e257600080fd5b506105fd60048036038101906105f89190613f74565b61205e565b005b34801561060b57600080fd5b506106146121df565b6040516106219190614c1d565b60405180910390f35b34801561063657600080fd5b50610651600480360381019061064c9190613ef9565b61237f565b005b34801561065f57600080fd5b5061067a60048036038101906106759190614100565b6123e1565b005b34801561068857600080fd5b506106a3600480360381019061069e919061407f565b6124b6565b6040516106b09190614c5a565b60405180910390f35b3480156106c557600080fd5b506106ce61255d565b6040516106db9190614f81565b60405180910390f35b3480156106f057600080fd5b5061070b6004803603810190610706919061407f565b612567565b005b6107276004803603810190610722919061407f565b6125f9565b005b34801561073557600080fd5b50610750600480360381019061074b9190613e6e565b61274e565b60405161075d9190614c3f565b60405180910390f35b34801561077257600080fd5b5061078d60048036038101906107889190613e45565b6127e2565b005b34801561079b57600080fd5b506107b660048036038101906107b1919061407f565b6128da565b6040516107c39190614f81565b60405180910390f35b6107e660048036038101906107e1919061403e565b6128f2565b005b60007f80ac58cd000000000000000000000000000000000000000000000000000000007bffffffffffffffffffffffffffffffffffffffffffffffffffffffff1916827bffffffffffffffffffffffffffffffffffffffffffffffffffffffff191614806108b357507f5b5e139f000000000000000000000000000000000000000000000000000000007bffffffffffffffffffffffffffffffffffffffffffffffffffffffff1916827bffffffffffffffffffffffffffffffffffffffffffffffffffffffff1916145b806108c357506108c282612996565b5b9050919050565b6060600080546108d9906154c3565b80601f0160208091040260200160405190810160405280929190818152602001828054610905906154c3565b80156109525780601f1061092757610100808354040283529160200191610952565b820191906000526020600020905b81548152906001019060200180831161093557829003601f168201915b5050505050905090565b600061096782612a00565b6109a6576040517f08c379a000000000000000000000000000000000000000000000000000000000815260040161099d90614e81565b60405180910390fd5b6004600083815260200190815260200160002060009054906101000a900473ffffffffffffffffffffffffffffffffffffffff169050919050565b60006109ec82611259565b90508073ffffffffffffffffffffffffffffffffffffffff168373ffffffffffffffffffffffffffffffffffffffff161415610a5d576040517f08c379a0000000000000000000000000000000000000000000000000000000008152600401610a5490614f01565b60405180910390fd5b8073ffffffffffffffffffffffffffffffffffffffff16610a7c612a6c565b73ffffffffffffffffffffffffffffffffffffffff161480610aab5750610aaa81610aa5612a6c565b61274e565b5b610aea576040517f08c379a0000000000000000000000000000000000000000000000000000000008152600401610ae190614de1565b60405180910390fd5b610af48383612a74565b505050565b600a543414610b0757600080fd5b3373ffffffffffffffffffffffffffffffffffffffff16610b2782611259565b73ffffffffffffffffffffffffffffffffffffffff1614610b4757600080fd5b600060118281548110610b83577f4e487b7100000000000000000000000000000000000000000000000000000000600052603260045260246000fd5b9060005260206000209060040201905060148160030160009054906101000a900460ff1660ff1610610bb457600080fd5b80600301600081819054906101000a900460ff1680929190610bd59061553e565b91906101000a81548160ff021916908360ff160217905550505050565b6000600a54905090565b610c0d610c07612a6c565b82612b2d565b610c4c576040517f08c379a0000000000000000000000000000000000000000000000000000000008152600401610c4390614f41565b60405180910390fd5b610c57838383612c0b565b505050565b610c64612a6c565b73ffffffffffffffffffffffffffffffffffffffff16610c826114db565b73ffffffffffffffffffffffffffffffffffffffff1614610cd8576040517f08c379a0000000000000000000000000000000000000000000000000000000008152600401610ccf90614ea1565b60405180910390fd5b6000610ce26114db565b90508073ffffffffffffffffffffffffffffffffffffffff166108fc479081150290604051600060405180830381858888f19350505050158015610d2a573d6000803e3d6000fd5b5050565b610d498383836040518060200160405280600081525061237f565b505050565b60606000610d5b8361130b565b67ffffffffffffffff811115610d9a577f4e487b7100000000000000000000000000000000000000000000000000000000600052604160045260246000fd5b604051908082528060200260200182016040528015610dd357816020015b610dc0613b42565b815260200190600190039081610db85790505b5090506000805b60118054905081101561101d578473ffffffffffffffffffffffffffffffffffffffff16610e0782611259565b73ffffffffffffffffffffffffffffffffffffffff16141561100a5760118181548110610e5d577f4e487b7100000000000000000000000000000000000000000000000000000000600052603260045260246000fd5b906000526020600020906004020160405180610100016040529081600082018054610e87906154c3565b80601f0160208091040260200160405190810160405280929190818152602001828054610eb3906154c3565b8015610f005780601f10610ed557610100808354040283529160200191610f00565b820191906000526020600020905b815481529060010190602001808311610ee357829003601f168201915b5050505050815260200160018201548152602001600282015481526020016003820160009054906101000a900460ff1660ff1660ff1681526020016003820160019054906101000a900460ff1660ff1660ff1681526020016003820160029054906101000a900463ffffffff1663ffffffff1663ffffffff1681526020016003820160069054906101000a900460ff1660ff1660ff1681526020016003820160079054906101000a900460ff1660ff1660ff1681525050838381518110610ff0577f4e487b7100000000000000000000000000000000000000000000000000000000600052603260045260246000fd5b60200260200101819052508180611006906154f5565b9250505b8080611015906154f5565b915050610dda565b508192505050919050565b6011818154811061103857600080fd5b906000526020600020906004020160009150905080600001805461105b906154c3565b80601f0160208091040260200160405190810160405280929190818152602001828054611087906154c3565b80156110d45780601f106110a9576101008083540402835291602001916110d4565b820191906000526020600020905b8154815290600101906020018083116110b757829003601f168201915b5050505050908060010154908060020154908060030160009054906101000a900460ff16908060030160019054906101000a900460ff16908060030160029054906101000a900463ffffffff16908060030160069054906101000a900460ff16908060030160079054906101000a900460ff16905088565b600283816011828154811061118a577f4e487b7100000000000000000000000000000000000000000000000000000000600052603260045260246000fd5b906000526020600020906004020160030160009054906101000a900460ff1660ff1610156111b757600080fd5b3373ffffffffffffffffffffffffffffffffffffffff166111d786611259565b73ffffffffffffffffffffffffffffffffffffffff16146111f757600080fd5b838360118781548110611233577f4e487b7100000000000000000000000000000000000000000000000000000000600052603260045260246000fd5b90600052602060002090600402016000019190611251929190613b99565b505050505050565b6000806002600084815260200190815260200160002060009054906101000a900473ffffffffffffffffffffffffffffffffffffffff169050600073ffffffffffffffffffffffffffffffffffffffff168173ffffffffffffffffffffffffffffffffffffffff161415611302576040517f08c379a00000000000000000000000000000000000000000000000000000000081526004016112f990614e21565b60405180910390fd5b80915050919050565b60008073ffffffffffffffffffffffffffffffffffffffff168273ffffffffffffffffffffffffffffffffffffffff16141561137c576040517f08c379a000000000000000000000000000000000000000000000000000000000815260040161137390614e01565b60405180910390fd5b600360008373ffffffffffffffffffffffffffffffffffffffff1673ffffffffffffffffffffffffffffffffffffffff168152602001908152602001600020549050919050565b6113cb612a6c565b73ffffffffffffffffffffffffffffffffffffffff166113e96114db565b73ffffffffffffffffffffffffffffffffffffffff161461143f576040517f08c379a000000000000000000000000000000000000000000000000000000000815260040161143690614ea1565b60405180910390fd5b6114496000612e67565b565b6000600b54905090565b61145d612a6c565b73ffffffffffffffffffffffffffffffffffffffff1661147b6114db565b73ffffffffffffffffffffffffffffffffffffffff16146114d1576040517f08c379a00000000000000000000000000000000000000000000000000000000081526004016114c890614ea1565b60405180910390fd5b80600a8190555050565b6000600660009054906101000a900473ffffffffffffffffffffffffffffffffffffffff16905090565b61150d612a6c565b73ffffffffffffffffffffffffffffffffffffffff1661152b6114db565b73ffffffffffffffffffffffffffffffffffffffff1614611581576040517f08c379a000000000000000000000000000000000000000000000000000000000815260040161157890614ea1565b60405180910390fd5b8060098190555050565b60606001805461159a906154c3565b80601f01602080910402602001604051908101604052809291908181526020018280546115c6906154c3565b80156116135780601f106115e857610100808354040283529160200191611613565b820191906000526020600020905b8154815290600101906020018083116115f657829003601f168201915b5050505050905090565b600b54341461162b57600080fd5b3373ffffffffffffffffffffffffffffffffffffffff1661164b83611259565b73ffffffffffffffffffffffffffffffffffffffff161461166b57600080fd5b3373ffffffffffffffffffffffffffffffffffffffff1661168b82611259565b73ffffffffffffffffffffffffffffffffffffffff16146116ab57600080fd5b6000601183815481106116e7577f4e487b7100000000000000000000000000000000000000000000000000000000600052603260045260246000fd5b90600052602060002090600402019050600060118381548110611733577f4e487b7100000000000000000000000000000000000000000000000000000000600052603260045260246000fd5b9060005260206000209060040201905061174c82612f2d565b61175557600080fd5b61175e81612f2d565b61176757600080fd5b60008260010154905060008260010154905060006064856002015461178c9190615596565b90506000606485600201546117a19190615596565b9050600060026117b38360ff16612f54565b8360ff166117c38660ff16612f54565b8660ff166117d191906150fe565b6117db91906150fe565b6117e591906153bc565b6117ef9190615185565b905060006064600f836118029190615381565b61180c9190615185565b90506000600a8561181d91906155c7565b60ff1690506000600a8561183191906155c7565b60ff1690506000806118436064612f54565b905060638860ff1610801561185b575060638760ff16105b61186457600080fd5b603c8860ff161115801561187c5750603c8760ff1611155b15611bdf5760148860ff1611158015611899575060148760ff1611155b15611a3957603281106119c4578660ff168860ff161061193b5760008460056118c29190615209565b8560046118cf9190615209565b8d600201548f600201546118e391906150fe565b6118ed9190615327565b6118f79190615154565b9050611903600a612f54565b8960ff166064836119149190615596565b8361191f91906153bc565b61192991906150fe565b61193391906150fe565b9250506119bf565b600083600561194a9190615209565b8460046119579190615209565b8d600201548f6002015461196b91906150fe565b6119759190615327565b61197f9190615154565b905061198b600a612f54565b8860ff1660648361199c9190615596565b836119a791906153bc565b6119b191906150fe565b6119bb91906150fe565b9250505b611a34565b60008460056119d39190615209565b8560046119e09190615209565b8d600201548f600201546119f491906150fe565b6119fe9190615327565b611a089190615154565b90508660ff16606482611a1b9190615596565b82611a2691906153bc565b611a3091906150fe565b9250505b611bde565b603c8110611b5f578660ff168860ff1610611ad6576000846005611a5d9190615209565b856004611a6a9190615209565b8d600201548f60020154611a7e91906150fe565b611a889190615327565b611a929190615154565b9050611a9e600a612f54565b8960ff16606483611aaf9190615596565b83611aba91906153bc565b611ac491906150fe565b611ace91906150fe565b925050611b5a565b6000836005611ae59190615209565b846004611af29190615209565b8d600201548f60020154611b0691906150fe565b611b109190615327565b611b1a9190615154565b9050611b26600a612f54565b8860ff16606483611b379190615596565b83611b4291906153bc565b611b4c91906150fe565b611b5691906150fe565b9250505b611bdd565b6000846005611b6e9190615209565b856004611b7b9190615209565b8d600201548f60020154611b8f91906150fe565b611b999190615327565b611ba39190615154565b90508560ff168760ff16606483611bba9190615596565b83611bc591906153bc565b611bcf91906150fe565b611bd991906150fe565b9250505b5b5b603c8860ff16118015611bf55750603c8760ff16115b15611d915760468110611d20578660ff168860ff1610611c97576000846005611c1e9190615209565b856004611c2b9190615209565b8d600201548f60020154611c3f91906150fe565b611c499190615327565b611c539190615154565b9050611c5f6008612f54565b8960ff16606483611c709190615596565b83611c7b91906153bc565b611c8591906150fe565b611c8f91906150fe565b925050611d1b565b6000836005611ca69190615209565b846004611cb39190615209565b8d600201548f60020154611cc791906150fe565b611cd19190615327565b611cdb9190615154565b9050611ce76008612f54565b8860ff16606483611cf89190615596565b83611d0391906153bc565b611d0d91906150fe565b611d1791906150fe565b9250505b611d90565b6000846005611d2f9190615209565b856004611d3c9190615209565b8d600201548f60020154611d5091906150fe565b611d5a9190615327565b611d649190615154565b90508660ff16606482611d779190615596565b82611d8291906153bc565b611d8c91906150fe565b9250505b5b603c8860ff16118015611da85750603c8760ff1611155b15611eae5760508110611e3d576000846005611dc49190615209565b856004611dd19190615209565b8d600201548f60020154611de591906150fe565b611def9190615327565b611df99190615154565b9050611e056007612f54565b8960ff16606483611e169190615596565b83611e2191906153bc565b611e2b91906150fe565b611e3591906150fe565b925050611ead565b6000846005611e4c9190615209565b856004611e599190615209565b8d600201548f60020154611e6d91906150fe565b611e779190615327565b611e819190615154565b90508660ff16606482611e949190615596565b82611e9f91906153bc565b611ea991906150fe565b9250505b5b603c8860ff1611158015611ec55750603c8760ff16115b15611fcb5760508110611f5a576000836005611ee19190615209565b846004611eee9190615209565b8d600201548f60020154611f0291906150fe565b611f0c9190615327565b611f169190615154565b9050611f226008612f54565b8860ff16606483611f339190615596565b83611f3e91906153bc565b611f4891906150fe565b611f5291906150fe565b925050611fca565b6000836005611f699190615209565b846004611f769190615209565b8d600201548f60020154611f8a91906150fe565b611f949190615327565b611f9e9190615154565b90508660ff16606482611fb19190615596565b82611fbc91906153bc565b611fc691906150fe565b9250505b5b61200c6040518060400160405280600b81526020017f4e65772054727566666c65000000000000000000000000000000000000000000815250838c8c612fb6565b6120158c61319d565b61201e8b61319d565b5050505050505050505050505050565b600e816003811061203e57600080fd5b60089182820401919006600402915054906101000a900463ffffffff1681565b612066612a6c565b73ffffffffffffffffffffffffffffffffffffffff168273ffffffffffffffffffffffffffffffffffffffff1614156120d4576040517f08c379a00000000000000000000000000000000000000000000000000000000081526004016120cb90614da1565b60405180910390fd5b80600560006120e1612a6c565b73ffffffffffffffffffffffffffffffffffffffff1673ffffffffffffffffffffffffffffffffffffffff16815260200190815260200160002060008473ffffffffffffffffffffffffffffffffffffffff1673ffffffffffffffffffffffffffffffffffffffff16815260200190815260200160002060006101000a81548160ff0219169083151502179055508173ffffffffffffffffffffffffffffffffffffffff1661218e612a6c565b73ffffffffffffffffffffffffffffffffffffffff167f17307eab39ab6107e8899845ad3d59bd9653f200f220920489ca2b5937696c31836040516121d39190614c3f565b60405180910390a35050565b60606011805480602002602001604051908101604052809291908181526020016000905b82821015612376578382906000526020600020906004020160405180610100016040529081600082018054612237906154c3565b80601f0160208091040260200160405190810160405280929190818152602001828054612263906154c3565b80156122b05780601f10612285576101008083540402835291602001916122b0565b820191906000526020600020905b81548152906001019060200180831161229357829003601f168201915b5050505050815260200160018201548152602001600282015481526020016003820160009054906101000a900460ff1660ff1660ff1681526020016003820160019054906101000a900460ff1660ff1660ff1681526020016003820160029054906101000a900463ffffffff1663ffffffff1663ffffffff1681526020016003820160069054906101000a900460ff1660ff1660ff1681526020016003820160079054906101000a900460ff1660ff1660ff168152505081526020019060010190612203565b50505050905090565b61239061238a612a6c565b83612b2d565b6123cf576040517f08c379a00000000000000000000000000000000000000000000000000000000081526004016123c690614f41565b60405180910390fd5b6123db848484846134bf565b50505050565b6123ea82611259565b73ffffffffffffffffffffffffffffffffffffffff163373ffffffffffffffffffffffffffffffffffffffff1614612457576040517f08c379a000000000000000000000000000000000000000000000000000000000815260040161244e90614f21565b60405180910390fd5b6000811161249a576040517f08c379a000000000000000000000000000000000000000000000000000000000815260040161249190614f61565b60405180910390fd5b80600f6000848152602001908152602001600020819055505050565b60606124c182612a00565b612500576040517f08c379a00000000000000000000000000000000000000000000000000000000081526004016124f790614ee1565b60405180910390fd5b600061250a61351b565b9050600081511161252a5760405180602001604052806000815250612555565b8061253484613532565b604051602001612545929190614ae5565b6040516020818303038152906040525b915050919050565b6000600954905090565b61257081611259565b73ffffffffffffffffffffffffffffffffffffffff163373ffffffffffffffffffffffffffffffffffffffff16146125dd576040517f08c379a00000000000000000000000000000000000000000000000000000000081526004016125d490614f21565b60405180910390fd5b6000600f60008381526020019081526020016000208190555050565b6000600f600083815260200190815260200160002054905060008111612654576040517f08c379a000000000000000000000000000000000000000000000000000000000815260040161264b90614d21565b60405180910390fd5b803414612696576040517f08c379a000000000000000000000000000000000000000000000000000000000815260040161268d90614e41565b60405180910390fd5b60006126a183611259565b90506126ae813385612c0b565b6000600f6000858152602001908152602001600020819055508073ffffffffffffffffffffffffffffffffffffffff166108fc349081150290604051600060405180830381858888f1935050505015801561270d573d6000803e3d6000fd5b507f4dd2f31b4569bcf6afb5788e4dcfba199a9e2148b94d0dda6d5fed23041de4cd81333460405161274193929190614b9a565b60405180910390a1505050565b6000600560008473ffffffffffffffffffffffffffffffffffffffff1673ffffffffffffffffffffffffffffffffffffffff16815260200190815260200160002060008373ffffffffffffffffffffffffffffffffffffffff1673ffffffffffffffffffffffffffffffffffffffff16815260200190815260200160002060009054906101000a900460ff16905092915050565b6127ea612a6c565b73ffffffffffffffffffffffffffffffffffffffff166128086114db565b73ffffffffffffffffffffffffffffffffffffffff161461285e576040517f08c379a000000000000000000000000000000000000000000000000000000000815260040161285590614ea1565b60405180910390fd5b600073ffffffffffffffffffffffffffffffffffffffff168173ffffffffffffffffffffffffffffffffffffffff1614156128ce576040517f08c379a00000000000000000000000000000000000000000000000000000000081526004016128c590614d41565b60405180910390fd5b6128d781612e67565b50565b600f6020528060005260406000206000915090505481565b600073ffffffffffffffffffffffffffffffffffffffff163373ffffffffffffffffffffffffffffffffffffffff16141561292c57600080fd5b60095434101561293b57600080fd5b6000612946826136df565b9050600060016129566013612f54565b6064846129639190615596565b8461296e91906153bc565b61297891906150fe565b61298291906150fe565b90506129918382600080612fb6565b505050565b60007f01ffc9a7000000000000000000000000000000000000000000000000000000007bffffffffffffffffffffffffffffffffffffffffffffffffffffffff1916827bffffffffffffffffffffffffffffffffffffffffffffffffffffffff1916149050919050565b60008073ffffffffffffffffffffffffffffffffffffffff166002600084815260200190815260200160002060009054906101000a900473ffffffffffffffffffffffffffffffffffffffff1673ffffffffffffffffffffffffffffffffffffffff1614159050919050565b600033905090565b816004600083815260200190815260200160002060006101000a81548173ffffffffffffffffffffffffffffffffffffffff021916908373ffffffffffffffffffffffffffffffffffffffff160217905550808273ffffffffffffffffffffffffffffffffffffffff16612ae783611259565b73ffffffffffffffffffffffffffffffffffffffff167f8c5be1e5ebec7d5bd14f71427d1e84f3dd0314c0f7b2291e5b200ac8c7c3b92560405160405180910390a45050565b6000612b3882612a00565b612b77576040517f08c379a0000000000000000000000000000000000000000000000000000000008152600401612b6e90614dc1565b60405180910390fd5b6000612b8283611259565b90508073ffffffffffffffffffffffffffffffffffffffff168473ffffffffffffffffffffffffffffffffffffffff161480612bf157508373ffffffffffffffffffffffffffffffffffffffff16612bd98461095c565b73ffffffffffffffffffffffffffffffffffffffff16145b80612c025750612c01818561274e565b5b91505092915050565b8273ffffffffffffffffffffffffffffffffffffffff16612c2b82611259565b73ffffffffffffffffffffffffffffffffffffffff1614612c81576040517f08c379a0000000000000000000000000000000000000000000000000000000008152600401612c7890614ec1565b60405180910390fd5b600073ffffffffffffffffffffffffffffffffffffffff168273ffffffffffffffffffffffffffffffffffffffff161415612cf1576040517f08c379a0000000000000000000000000000000000000000000000000000000008152600401612ce890614d81565b60405180910390fd5b612cfc838383613728565b612d07600082612a74565b6001600360008573ffffffffffffffffffffffffffffffffffffffff1673ffffffffffffffffffffffffffffffffffffffff1681526020019081526020016000206000828254612d5791906153bc565b925050819055506001600360008473ffffffffffffffffffffffffffffffffffffffff1673ffffffffffffffffffffffffffffffffffffffff1681526020019081526020016000206000828254612dae91906150fe565b92505081905550816002600083815260200190815260200160002060006101000a81548173ffffffffffffffffffffffffffffffffffffffff021916908373ffffffffffffffffffffffffffffffffffffffff160217905550808273ffffffffffffffffffffffffffffffffffffffff168473ffffffffffffffffffffffffffffffffffffffff167fddf252ad1be2c89b69c2b068fc378daa952ba7f163c4a11628f55a4df523b3ef60405160405180910390a4505050565b6000600660009054906101000a900473ffffffffffffffffffffffffffffffffffffffff16905081600660006101000a81548173ffffffffffffffffffffffffffffffffffffffff021916908373ffffffffffffffffffffffffffffffffffffffff1602179055508173ffffffffffffffffffffffffffffffffffffffff168173ffffffffffffffffffffffffffffffffffffffff167f8be0079c531659141344cd1fd0a4f28419497f9722a3daafe3b4186f6b6457e060405160405180910390a35050565b6000428260030160029054906101000a900463ffffffff1663ffffffff1611159050919050565b6000600c6000815480929190612f69906154f5565b919050555060004233600c54604051602001612f8793929190614b42565b6040516020818303038152906040528051906020012060001c90508281612fae9190615596565b915050919050565b6000606484612fc59190615596565b90506000612fd3600761372d565b90506000604051806101000160405280888152602001838152602001878152602001600060ff1681526020018460ff1681526020014263ffffffff1681526020018660ff1681526020018560ff1681525090506011819080600181540180825580915050600190039060005260206000209060040201600090919091909150600082015181600001908051906020019061306e929190613c1f565b50602082015181600101556040820151816002015560608201518160030160006101000a81548160ff021916908360ff16021790555060808201518160030160016101000a81548160ff021916908360ff16021790555060a08201518160030160026101000a81548163ffffffff021916908363ffffffff16021790555060c08201518160030160066101000a81548160ff021916908360ff16021790555060e08201518160030160076101000a81548160ff021916908360ff160217905550505061313a338361373b565b6131446007613759565b3373ffffffffffffffffffffffffffffffffffffffff167f589cd144bbd2fda6318230895eca43f6ea1a1b5b0464c4bc1221bdfc7fad884c838860405161318c929190614f9c565b60405180910390a250505050505050565b60008160030160009054906101000a900460ff169050604b8260030160019054906101000a900460ff1660ff16106132aa5760005b60148160ff16116132a8578160ff168160ff161415613295578060ff16600d546131fc9190615327565b600e600060038110613237577f4e487b7100000000000000000000000000000000000000000000000000000000600052603260045260246000fd5b600891828204019190066004029054906101000a900463ffffffff1663ffffffff164261326491906150fe565b61326e91906153bc565b8360030160026101000a81548163ffffffff021916908363ffffffff1602179055506132a8565b80806132a09061553e565b9150506131d2565b505b60328260030160019054906101000a900460ff1660ff16101580156132e35750604b8260030160019054906101000a900460ff1660ff16105b156133c35760005b60148160ff16116133c1578160ff168160ff1614156133ae578060ff16600d546133159190615327565b600e600160038110613350577f4e487b7100000000000000000000000000000000000000000000000000000000600052603260045260246000fd5b600891828204019190066004029054906101000a900463ffffffff1663ffffffff164261337d91906150fe565b61338791906153bc565b8360030160026101000a81548163ffffffff021916908363ffffffff1602179055506133c1565b80806133b99061553e565b9150506132eb565b505b60328260030160019054906101000a900460ff1660ff1610156134bb5760005b60148160ff16116134b9578160ff168160ff1614156134a6578060ff16600d5461340d9190615327565b600e600260038110613448577f4e487b7100000000000000000000000000000000000000000000000000000000600052603260045260246000fd5b600891828204019190066004029054906101000a900463ffffffff1663ffffffff164261347591906150fe565b61347f91906153bc565b8360030160026101000a81548163ffffffff021916908363ffffffff1602179055506134b9565b80806134b19061553e565b9150506133e3565b505b5050565b6134ca848484612c0b565b6134d68484848461376f565b613515576040517f08c379a000000000000000000000000000000000000000000000000000000000815260040161350c90614d01565b60405180910390fd5b50505050565b606060405180602001604052806000815250905090565b6060600082141561357a576040518060400160405280600181526020017f300000000000000000000000000000000000000000000000000000000000000081525090506136da565b600082905060005b600082146135ac578080613595906154f5565b915050600a826135a59190615154565b9150613582565b60008167ffffffffffffffff8111156135ee577f4e487b7100000000000000000000000000000000000000000000000000000000600052604160045260246000fd5b6040519080825280601f01601f1916602001820160405280156136205781602001600182028036833780820191505090505b5090505b600085146136d35760018261363991906153bc565b9150600a856136489190615596565b603061365491906150fe565b60f81b818381518110613690577f4e487b7100000000000000000000000000000000000000000000000000000000600052603260045260246000fd5b60200101907effffffffffffffffffffffffffffffffffffffffffffffffffffffffffffff1916908160001a905350600a856136cc9190615154565b9450613624565b8093505050505b919050565b6000804233846040516020016136f793929190614b09565b6040516020818303038152906040528051906020012060001c9050600854816137209190615596565b915050919050565b505050565b600081600001549050919050565b613755828260405180602001604052806000815250613906565b5050565b6001816000016000828254019250508190555050565b60006137908473ffffffffffffffffffffffffffffffffffffffff16613961565b156138f9578373ffffffffffffffffffffffffffffffffffffffff1663150b7a026137b9612a6c565b8786866040518563ffffffff1660e01b81526004016137db9493929190614bd1565b602060405180830381600087803b1580156137f557600080fd5b505af192505050801561382657506040513d601f19601f820116820180604052508101906138239190614015565b60015b6138a9573d8060008114613856576040519150601f19603f3d011682016040523d82523d6000602084013e61385b565b606091505b506000815114156138a1576040517f08c379a000000000000000000000000000000000000000000000000000000000815260040161389890614d01565b60405180910390fd5b805181602001fd5b63150b7a0260e01b7bffffffffffffffffffffffffffffffffffffffffffffffffffffffff1916817bffffffffffffffffffffffffffffffffffffffffffffffffffffffff1916149150506138fe565b600190505b949350505050565b6139108383613974565b61391d600084848461376f565b61395c576040517f08c379a000000000000000000000000000000000000000000000000000000000815260040161395390614d01565b60405180910390fd5b505050565b600080823b905060008111915050919050565b600073ffffffffffffffffffffffffffffffffffffffff168273ffffffffffffffffffffffffffffffffffffffff1614156139e4576040517f08c379a00000000000000000000000000000000000000000000000000000000081526004016139db90614e61565b60405180910390fd5b6139ed81612a00565b15613a2d576040517f08c379a0000000000000000000000000000000000000000000000000000000008152600401613a2490614d61565b60405180910390fd5b613a3960008383613728565b6001600360008473ffffffffffffffffffffffffffffffffffffffff1673ffffffffffffffffffffffffffffffffffffffff1681526020019081526020016000206000828254613a8991906150fe565b92505081905550816002600083815260200190815260200160002060006101000a81548173ffffffffffffffffffffffffffffffffffffffff021916908373ffffffffffffffffffffffffffffffffffffffff160217905550808273ffffffffffffffffffffffffffffffffffffffff16600073ffffffffffffffffffffffffffffffffffffffff167fddf252ad1be2c89b69c2b068fc378daa952ba7f163c4a11628f55a4df523b3ef60405160405180910390a45050565b604051806101000160405280606081526020016000815260200160008152602001600060ff168152602001600060ff168152602001600063ffffffff168152602001600060ff168152602001600060ff1681525090565b828054613ba5906154c3565b90600052602060002090601f016020900481019282613bc75760008555613c0e565b82601f10613be057803560ff1916838001178555613c0e565b82800160010185558215613c0e579182015b82811115613c0d578235825591602001919060010190613bf2565b5b509050613c1b9190613ca5565b5090565b828054613c2b906154c3565b90600052602060002090601f016020900481019282613c4d5760008555613c94565b82601f10613c6657805160ff1916838001178555613c94565b82800160010185558215613c94579182015b82811115613c93578251825591602001919060010190613c78565b5b509050613ca19190613ca5565b5090565b5b80821115613cbe576000816000905550600101613ca6565b5090565b6000613cd5613cd084615011565b614fe0565b905082815260208101848484011115613ced57600080fd5b613cf8848285615481565b509392505050565b6000613d13613d0e84615041565b614fe0565b905082815260208101848484011115613d2b57600080fd5b613d36848285615481565b509392505050565b600081359050613d4d816156df565b92915050565b600081359050613d62816156f6565b92915050565b600081359050613d778161570d565b92915050565b600081519050613d8c8161570d565b92915050565b600082601f830112613da357600080fd5b8135613db3848260208601613cc2565b91505092915050565b60008083601f840112613dce57600080fd5b8235905067ffffffffffffffff811115613de757600080fd5b602083019150836001820283011115613dff57600080fd5b9250929050565b600082601f830112613e1757600080fd5b8135613e27848260208601613d00565b91505092915050565b600081359050613e3f81615724565b92915050565b600060208284031215613e5757600080fd5b6000613e6584828501613d3e565b91505092915050565b60008060408385031215613e8157600080fd5b6000613e8f85828601613d3e565b9250506020613ea085828601613d3e565b9150509250929050565b600080600060608486031215613ebf57600080fd5b6000613ecd86828701613d3e565b9350506020613ede86828701613d3e565b9250506040613eef86828701613e30565b9150509250925092565b60008060008060808587031215613f0f57600080fd5b6000613f1d87828801613d3e565b9450506020613f2e87828801613d3e565b9350506040613f3f87828801613e30565b925050606085013567ffffffffffffffff811115613f5c57600080fd5b613f6887828801613d92565b91505092959194509250565b60008060408385031215613f8757600080fd5b6000613f9585828601613d3e565b9250506020613fa685828601613d53565b9150509250929050565b60008060408385031215613fc357600080fd5b6000613fd185828601613d3e565b9250506020613fe285828601613e30565b9150509250929050565b600060208284031215613ffe57600080fd5b600061400c84828501613d68565b91505092915050565b60006020828403121561402757600080fd5b600061403584828501613d7d565b91505092915050565b60006020828403121561405057600080fd5b600082013567ffffffffffffffff81111561406a57600080fd5b61407684828501613e06565b91505092915050565b60006020828403121561409157600080fd5b600061409f84828501613e30565b91505092915050565b6000806000604084860312156140bd57600080fd5b60006140cb86828701613e30565b935050602084013567ffffffffffffffff8111156140e857600080fd5b6140f486828701613dbc565b92509250509250925092565b6000806040838503121561411357600080fd5b600061412185828601613e30565b925050602061413285828601613e30565b9150509250929050565b600061414883836149c4565b905092915050565b614159816153f0565b82525050565b61417061416b826153f0565b615568565b82525050565b600061418182615081565b61418b81856150af565b93508360208202850161419d85615071565b8060005b858110156141d957848403895281516141ba858261413c565b94506141c5836150a2565b925060208a019950506001810190506141a1565b50829750879550505050505092915050565b6141f481615402565b82525050565b60006142058261508c565b61420f81856150c0565b935061421f818560208601615490565b614228816156b4565b840191505092915050565b600061423e82615097565b61424881856150d1565b9350614258818560208601615490565b614261816156b4565b840191505092915050565b600061427782615097565b61428181856150e2565b9350614291818560208601615490565b61429a816156b4565b840191505092915050565b60006142b082615097565b6142ba81856150f3565b93506142ca818560208601615490565b80840191505092915050565b60006142e36032836150e2565b91507f4552433732313a207472616e7366657220746f206e6f6e20455243373231526560008301527f63656976657220696d706c656d656e74657200000000000000000000000000006020830152604082019050919050565b6000614349601a836150e2565b91507f5468697320746f6b656e206973206e6f7420666f722073616c650000000000006000830152602082019050919050565b60006143896026836150e2565b91507f4f776e61626c653a206e6577206f776e657220697320746865207a65726f206160008301527f64647265737300000000000000000000000000000000000000000000000000006020830152604082019050919050565b60006143ef601c836150e2565b91507f4552433732313a20746f6b656e20616c7265616479206d696e746564000000006000830152602082019050919050565b600061442f6024836150e2565b91507f4552433732313a207472616e7366657220746f20746865207a65726f2061646460008301527f72657373000000000000000000000000000000000000000000000000000000006020830152604082019050919050565b60006144956019836150e2565b91507f4552433732313a20617070726f766520746f2063616c6c6572000000000000006000830152602082019050919050565b60006144d5602c836150e2565b91507f4552433732313a206f70657261746f7220717565727920666f72206e6f6e657860008301527f697374656e7420746f6b656e00000000000000000000000000000000000000006020830152604082019050919050565b600061453b6038836150e2565b91507f4552433732313a20617070726f76652063616c6c6572206973206e6f74206f7760008301527f6e6572206e6f7220617070726f76656420666f7220616c6c00000000000000006020830152604082019050919050565b60006145a1602a836150e2565b91507f4552433732313a2062616c616e636520717565727920666f7220746865207a6560008301527f726f2061646472657373000000000000000000000000000000000000000000006020830152604082019050919050565b60006146076029836150e2565b91507f4552433732313a206f776e657220717565727920666f72206e6f6e657869737460008301527f656e7420746f6b656e00000000000000000000000000000000000000000000006020830152604082019050919050565b600061466d6040836150e2565b91507f506c65617365207375626d6974207468652061736b696e67207072696365206960008301527f6e206f7264657220746f20636f6d706c657465207468652070757263686173656020830152604082019050919050565b60006146d36020836150e2565b91507f4552433732313a206d696e7420746f20746865207a65726f20616464726573736000830152602082019050919050565b6000614713602c836150e2565b91507f4552433732313a20617070726f76656420717565727920666f72206e6f6e657860008301527f697374656e7420746f6b656e00000000000000000000000000000000000000006020830152604082019050919050565b60006147796020836150e2565b91507f4f776e61626c653a2063616c6c6572206973206e6f7420746865206f776e65726000830152602082019050919050565b60006147b96029836150e2565b91507f4552433732313a207472616e73666572206f6620746f6b656e2074686174206960008301527f73206e6f74206f776e00000000000000000000000000000000000000000000006020830152604082019050919050565b600061481f602f836150e2565b91507f4552433732314d657461646174613a2055524920717565727920666f72206e6f60008301527f6e6578697374656e7420746f6b656e00000000000000000000000000000000006020830152604082019050919050565b60006148856021836150e2565b91507f4552433732313a20617070726f76616c20746f2063757272656e74206f776e6560008301527f72000000000000000000000000000000000000000000000000000000000000006020830152604082019050919050565b60006148eb6017836150e2565b91507f4e6f74206f776e6572206f66207468697320746f6b656e0000000000000000006000830152602082019050919050565b600061492b6031836150e2565b91507f4552433732313a207472616e736665722063616c6c6572206973206e6f74206f60008301527f776e6572206e6f7220617070726f7665640000000000000000000000000000006020830152604082019050919050565b6000614991601c836150e2565b91507f5072696365206d757374206265206174206c65617374203120776569000000006000830152602082019050919050565b60006101008301600083015184820360008601526149e28282614233565b91505060208301516149f76020860182614a74565b506040830151614a0a6040860182614a74565b506060830151614a1d6060860182614ac7565b506080830151614a306080860182614ac7565b5060a0830151614a4360a0860182614aa9565b5060c0830151614a5660c0860182614ac7565b5060e0830151614a6960e0860182614ac7565b508091505092915050565b614a7d8161545a565b82525050565b614a8c8161545a565b82525050565b614aa3614a9e8261545a565b61558c565b82525050565b614ab281615464565b82525050565b614ac181615464565b82525050565b614ad081615474565b82525050565b614adf81615474565b82525050565b6000614af182856142a5565b9150614afd82846142a5565b91508190509392505050565b6000614b158286614a92565b602082019150614b25828561415f565b601482019150614b3582846142a5565b9150819050949350505050565b6000614b4e8286614a92565b602082019150614b5e828561415f565b601482019150614b6e8284614a92565b602082019150819050949350505050565b6000602082019050614b946000830184614150565b92915050565b6000606082019050614baf6000830186614150565b614bbc6020830185614150565b614bc96040830184614a83565b949350505050565b6000608082019050614be66000830187614150565b614bf36020830186614150565b614c006040830185614a83565b8181036060830152614c1281846141fa565b905095945050505050565b60006020820190508181036000830152614c378184614176565b905092915050565b6000602082019050614c5460008301846141eb565b92915050565b60006020820190508181036000830152614c74818461426c565b905092915050565b6000610100820190508181036000830152614c97818b61426c565b9050614ca6602083018a614a83565b614cb36040830189614a83565b614cc06060830188614ad6565b614ccd6080830187614ad6565b614cda60a0830186614ab8565b614ce760c0830185614ad6565b614cf460e0830184614ad6565b9998505050505050505050565b60006020820190508181036000830152614d1a816142d6565b9050919050565b60006020820190508181036000830152614d3a8161433c565b9050919050565b60006020820190508181036000830152614d5a8161437c565b9050919050565b60006020820190508181036000830152614d7a816143e2565b9050919050565b60006020820190508181036000830152614d9a81614422565b9050919050565b60006020820190508181036000830152614dba81614488565b9050919050565b60006020820190508181036000830152614dda816144c8565b9050919050565b60006020820190508181036000830152614dfa8161452e565b9050919050565b60006020820190508181036000830152614e1a81614594565b9050919050565b60006020820190508181036000830152614e3a816145fa565b9050919050565b60006020820190508181036000830152614e5a81614660565b9050919050565b60006020820190508181036000830152614e7a816146c6565b9050919050565b60006020820190508181036000830152614e9a81614706565b9050919050565b60006020820190508181036000830152614eba8161476c565b9050919050565b60006020820190508181036000830152614eda816147ac565b9050919050565b60006020820190508181036000830152614efa81614812565b9050919050565b60006020820190508181036000830152614f1a81614878565b9050919050565b60006020820190508181036000830152614f3a816148de565b9050919050565b60006020820190508181036000830152614f5a8161491e565b9050919050565b60006020820190508181036000830152614f7a81614984565b9050919050565b6000602082019050614f966000830184614a83565b92915050565b6000604082019050614fb16000830185614a83565b614fbe6020830184614a83565b9392505050565b6000602082019050614fda6000830184614ab8565b92915050565b6000604051905081810181811067ffffffffffffffff8211171561500757615006615685565b5b8060405250919050565b600067ffffffffffffffff82111561502c5761502b615685565b5b601f19601f8301169050602081019050919050565b600067ffffffffffffffff82111561505c5761505b615685565b5b601f19601f8301169050602081019050919050565b6000819050602082019050919050565b600081519050919050565b600081519050919050565b600081519050919050565b6000602082019050919050565b600082825260208201905092915050565b600082825260208201905092915050565b600082825260208201905092915050565b600082825260208201905092915050565b600081905092915050565b60006151098261545a565b91506151148361545a565b9250827fffffffffffffffffffffffffffffffffffffffffffffffffffffffffffffffff03821115615149576151486155f8565b5b828201905092915050565b600061515f8261545a565b915061516a8361545a565b92508261517a57615179615627565b5b828204905092915050565b600061519082615474565b915061519b83615474565b9250826151ab576151aa615627565b5b828204905092915050565b6000808291508390505b6001851115615200578086048111156151dc576151db6155f8565b5b60018516156151eb5780820291505b80810290506151f9856156d2565b94506151c0565b94509492505050565b60006152148261545a565b915061521f8361545a565b925061524c7fffffffffffffffffffffffffffffffffffffffffffffffffffffffffffffffff8484615254565b905092915050565b6000826152645760019050615320565b816152725760009050615320565b81600181146152885760028114615292576152c1565b6001915050615320565b60ff8411156152a4576152a36155f8565b5b8360020a9150848211156152bb576152ba6155f8565b5b50615320565b5060208310610133831016604e8410600b84101617156152f65782820a9050838111156152f1576152f06155f8565b5b615320565b61530384848460016151b6565b9250905081840481111561531a576153196155f8565b5b81810290505b9392505050565b60006153328261545a565b915061533d8361545a565b9250817fffffffffffffffffffffffffffffffffffffffffffffffffffffffffffffffff0483118215151615615376576153756155f8565b5b828202905092915050565b600061538c82615474565b915061539783615474565b92508160ff04831182151516156153b1576153b06155f8565b5b828202905092915050565b60006153c78261545a565b91506153d28361545a565b9250828210156153e5576153e46155f8565b5b828203905092915050565b60006153fb8261543a565b9050919050565b60008115159050919050565b60007fffffffff0000000000000000000000000000000000000000000000000000000082169050919050565b600073ffffffffffffffffffffffffffffffffffffffff82169050919050565b6000819050919050565b600063ffffffff82169050919050565b600060ff82169050919050565b82818337600083830152505050565b60005b838110156154ae578082015181840152602081019050615493565b838111156154bd576000848401525b50505050565b600060028204905060018216806154db57607f821691505b602082108114156154ef576154ee615656565b5b50919050565b60006155008261545a565b91507fffffffffffffffffffffffffffffffffffffffffffffffffffffffffffffffff821415615533576155326155f8565b5b600182019050919050565b600061554982615474565b915060ff82141561555d5761555c6155f8565b5b600182019050919050565b60006155738261557a565b9050919050565b6000615585826156c5565b9050919050565b6000819050919050565b60006155a18261545a565b91506155ac8361545a565b9250826155bc576155bb615627565b5b828206905092915050565b60006155d282615474565b91506155dd83615474565b9250826155ed576155ec615627565b5b828206905092915050565b7f4e487b7100000000000000000000000000000000000000000000000000000000600052601160045260246000fd5b7f4e487b7100000000000000000000000000000000000000000000000000000000600052601260045260246000fd5b7f4e487b7100000000000000000000000000000000000000000000000000000000600052602260045260246000fd5b7f4e487b7100000000000000000000000000000000000000000000000000000000600052604160045260246000fd5b6000601f19601f8301169050919050565b60008160601b9050919050565b60008160011c9050919050565b6156e8816153f0565b81146156f357600080fd5b50565b6156ff81615402565b811461570a57600080fd5b50565b6157168161540e565b811461572157600080fd5b50565b61572d8161545a565b811461573857600080fd5b5056fea264697066735822122052ee59f2e022a249b9c193518c4e0c28ab87eb82b76e2438d1a09e6ccf9cdbd664736f6c63430008000033",
  "immutableReferences": {},
  "source": "// SPDX-License-Identifier: MIT\r\n\r\npragma solidity ^0.8.0;\r\n\r\nimport \"@openzeppelin/contracts/token/ERC721/ERC721.sol\";\r\nimport \"@openzeppelin/contracts/access/Ownable.sol\";\r\nimport \"@openzeppelin/contracts/utils/Counters.sol\";\r\n\r\ncontract TruffleFactory is ERC721, Ownable{\r\n    using Counters for Counters.Counter;\r\n    using Strings for uint256;\r\n    Counters.Counter _tokenIds;\r\n\r\n    // address public admin;\r\n\r\n    uint256 DNA_MOD = 10**16;\r\n    uint256 fee = 0.025 ether;\r\n    uint256 levelUpFee = 0.001 ether;\r\n    uint256 feeBreed = 0.01 ether;\r\n    uint randNonce = 0;\r\n    uint lostTime = 30 minutes;\r\n    uint32[3] public cooldowns = [\r\n        uint32(12 hours),\r\n        uint32(18 hours),\r\n        uint32(1 days)\r\n    ];\r\n\r\n    mapping (uint256 => uint256) public tokenIdToPrice;\r\n    mapping (uint256 => string) _tokenURIs;\r\n\r\n    constructor() ERC721(\"Truffle\",\"TFT\"){\r\n        // admin = msg.sender;\r\n    }\r\n\r\n    struct Truffle {\r\n        string name;\r\n        uint256 id;\r\n        uint256 dna;\r\n        uint8 level;\r\n        uint8 rarity;\r\n        uint32 readyTime;\r\n        uint8 dadId;\r\n        uint8 mumId;\r\n    }\r\n\r\n    Truffle[] public truffles;\r\n\r\n    event NewTruffle(address indexed owner, uint256 id, uint256 dna);\r\n    event BuyTruffle(address _seller, address _buyer, uint256 _price);\r\n\r\n    // Helpers\r\n    function getFee() public view returns (uint256) {\r\n        return fee;\r\n    }\r\n\r\n    function FreeLeveUp() public view returns (uint256) {\r\n        return levelUpFee;\r\n    }\r\n    \r\n    function getFeeBreed() public view returns (uint256) {\r\n        return feeBreed;\r\n    }\r\n    \r\n    function _setTokenURI(uint256 tokenId, string memory _tokenURI) internal {\r\n        _tokenURIs[tokenId] = _tokenURI;\r\n    }\r\n\r\n    function _createRandomDna(string memory _mod) internal view returns (uint256) {\r\n        uint256 randomNum = uint256(\r\n            keccak256(abi.encodePacked(block.timestamp, msg.sender, _mod))\r\n        );\r\n        return randomNum % DNA_MOD;\r\n    }\r\n    \r\n    function _createTruffle(string memory _name,  uint256 _dna , uint8 dadId, uint8 mumId) internal {\r\n        uint8 randRarity = uint8(_dna % 100);\r\n\r\n        uint256 newId = _tokenIds.current();\r\n        Truffle memory newTruffle = Truffle(\r\n            _name, \r\n            newId, \r\n            _dna, \r\n            0, \r\n            randRarity, \r\n            uint32(block.timestamp), \r\n            dadId, \r\n            mumId \r\n        );\r\n        truffles.push(newTruffle);\r\n        _safeMint(msg.sender, newId);\r\n        _tokenIds.increment();\r\n\r\n        emit NewTruffle(msg.sender, newId, _dna);\r\n    }\r\n    \r\n\r\n    function createRandomTruffle(string memory _name) public payable {\r\n        require(msg.sender != address(0));\r\n        require(msg.value >= fee);\r\n        uint256 randDna = _createRandomDna(_name);\r\n        uint256 newDna = randDna - randDna % 100 + randMod(19) + 1;\r\n        _createTruffle(_name, newDna, 0, 0);\r\n    }\r\n\r\n    function getTruffle() public view returns (Truffle[] memory) {\r\n        return truffles;\r\n    }\r\n    \r\n    function getOwnerTruffles(address _owner) public view returns (Truffle[] memory) {\r\n        Truffle[] memory result = new Truffle[](balanceOf(_owner));\r\n        uint256 counter = 0;\r\n        for (uint256 i = 0; i < truffles.length; i++) {\r\n            if (ownerOf(i) == _owner) {\r\n                result[counter] = truffles[i];\r\n                counter++;\r\n            }\r\n        }\r\n        return result;\r\n    }\r\n\r\n    //RandomBreed number\r\n    function randMod(uint _modulus) internal returns(uint) {\r\n        randNonce++;\r\n        uint256 randomNum2 = uint256(\r\n        keccak256(abi.encodePacked(block.timestamp, msg.sender, randNonce))\r\n        );\r\n        return randomNum2 % _modulus;\r\n    }\r\n\r\n    // Actions\r\n    function updateFee(uint256 _fee) external onlyOwner {\r\n        fee = _fee;\r\n    }\r\n    \r\n    function updateFeeLevelUp(uint256 _feeLevelUp) external onlyOwner {\r\n        levelUpFee = _feeLevelUp;\r\n    }\r\n\r\n    function withdraw() external payable onlyOwner {\r\n        address payable _owner = payable(owner());\r\n        _owner.transfer(address(this).balance);\r\n    }\r\n    \r\n    modifier aboveLevel(uint _level, uint _TruffleId) {\r\n        require(truffles[_TruffleId].level >= _level);\r\n        _;\r\n    }\r\n\r\n    function levelUp(uint256 _TruffleId) external payable {\r\n        require(msg.value == levelUpFee);\r\n        require(ownerOf(_TruffleId) == msg.sender);\r\n        Truffle storage truffle = truffles[_TruffleId];\r\n        require(truffle.level < 20);\r\n        truffle.level++;\r\n    }\r\n    \r\n    function updateName(uint256 _TruffleId, string calldata _newName) external aboveLevel(2, _TruffleId) {\r\n        require(ownerOf(_TruffleId) == msg.sender);\r\n        truffles[_TruffleId].name = _newName;\r\n    }\r\n    \r\n    function _triggerCooldown(Truffle storage _truffle) internal {//hm kich hoat cooldown\r\n        uint8 levels = _truffle.level;\r\n        if(_truffle.rarity >= 75){\r\n            for(uint8 i = 0; i <= 20; i++){\r\n                if(i == levels){\r\n                    _truffle.readyTime = uint32(block.timestamp + cooldowns[0] - (lostTime * i));\r\n                    break;\r\n                }\r\n            }\r\n        }if(_truffle.rarity >= 50 && _truffle.rarity < 75){\r\n            for(uint8 i = 0; i <= 20; i++){\r\n                if(i == levels){\r\n                    _truffle.readyTime = uint32(block.timestamp + cooldowns[1] - (lostTime * i));\r\n                    break;\r\n                }\r\n            }\r\n        }if(_truffle.rarity < 50){\r\n            for(uint8 i = 0; i <= 20; i++){\r\n                if(i == levels){\r\n                    _truffle.readyTime = uint32(block.timestamp + cooldowns[2] - (lostTime * i));\r\n                    break;\r\n                }\r\n            }\r\n        }\r\n    }\r\n    \r\n    function _isReady(Truffle storage _truffle) internal view returns (bool) {\r\n        return (_truffle.readyTime <= block.timestamp);\r\n    }\r\n    \r\n   function BreedAndMultiply(uint _truffleId, uint _targetDna) public payable {\r\n        require(msg.value == feeBreed);\r\n        require(ownerOf(_truffleId) == msg.sender);\r\n        require(ownerOf(_targetDna) == msg.sender);\r\n        Truffle storage myTruffle = truffles[_truffleId];\r\n        Truffle storage myTargetDna = truffles[_targetDna];\r\n        require(_isReady(myTruffle));\r\n        require(_isReady(myTargetDna));\r\n        uint8 dadId = uint8(myTruffle.id);\r\n        uint8 mumId = uint8(myTargetDna.id);\r\n        \r\n        uint8 valueRarity = uint8(myTruffle.dna % 100);\r\n        uint8 valueRarity2 = uint8(myTargetDna.dna % 100);\r\n        uint8 valueRarity3 = uint8(valueRarity + randMod(valueRarity) + valueRarity2 - randMod(valueRarity2)) /2;\r\n        uint8 valueRarity4 = uint8(valueRarity3 * 15 / 100);\r\n        \r\n        uint number = valueRarity % 10;\r\n        uint number2 = valueRarity2 % 10;\r\n        uint newDna;\r\n        uint rand = randMod(100);\r\n        require(valueRarity < 99 && valueRarity2 < 99);\r\n        if(valueRarity <= 60 && valueRarity2 <=60){\r\n            if(valueRarity <= 20 && valueRarity2 <= 20){\r\n                if(rand >= 50){\r\n                    if(valueRarity>= valueRarity2){\r\n                        uint algorithm = (myTruffle.dna + myTargetDna.dna)*(4**number)/(5**number);\r\n                        newDna = algorithm - algorithm % 100 + valueRarity + randMod(10);\r\n                    }else{\r\n                        uint algorithm = (myTruffle.dna + myTargetDna.dna)*(4**number2)/(5**number2);\r\n                        newDna = algorithm - algorithm % 100 + valueRarity2 + randMod(10);\r\n                    }\r\n                }else{\r\n                    uint algorithm = (myTruffle.dna + myTargetDna.dna)*(4**number)/(5**number);\r\n                    newDna = algorithm - algorithm % 100 + valueRarity3;\r\n                }\r\n            }else{\r\n                if(rand >= 60){\r\n                    if(valueRarity>= valueRarity2){\r\n                        uint algorithm = (myTruffle.dna + myTargetDna.dna)*(4**number)/(5**number);\r\n                        newDna = algorithm - algorithm % 100 + valueRarity + randMod(10);\r\n                    }else{\r\n                        uint algorithm = (myTruffle.dna + myTargetDna.dna)*(4**number2)/(5**number2);\r\n                        newDna = algorithm - algorithm % 100 + valueRarity2 + randMod(10);\r\n                    }\r\n                }else{\r\n                    uint algorithm = (myTruffle.dna + myTargetDna.dna)*(4**number)/(5**number);\r\n                    newDna = algorithm - algorithm % 100 + valueRarity3 + valueRarity4;\r\n                }\r\n            }\r\n        }if(valueRarity > 60 && valueRarity2 > 60){\r\n            if(rand >= 70){\r\n                if(valueRarity>= valueRarity2){\r\n                    uint algorithm = (myTruffle.dna + myTargetDna.dna)*(4**number)/(5**number);\r\n                    newDna = algorithm - algorithm % 100 + valueRarity + randMod(8);\r\n                }else{\r\n                    uint algorithm = (myTruffle.dna + myTargetDna.dna)*(4**number2)/(5**number2);\r\n                    newDna = algorithm - algorithm % 100 + valueRarity2 + randMod(8);\r\n                }\r\n            }else{\r\n                uint algorithm = (myTruffle.dna + myTargetDna.dna)*(4**number)/(5**number);\r\n                newDna = algorithm - algorithm % 100 + valueRarity3;\r\n            }\r\n        }if(valueRarity > 60 && valueRarity2 <= 60){\r\n            if(rand >= 80){\r\n                uint algorithm = (myTruffle.dna + myTargetDna.dna)*(4**number)/(5**number);\r\n                newDna = algorithm - algorithm % 100 + valueRarity + randMod(7);\r\n            }else{\r\n                uint algorithm = (myTruffle.dna + myTargetDna.dna)*(4**number)/(5**number);\r\n                newDna = algorithm - algorithm % 100 + valueRarity3;\r\n            }\r\n        }if(valueRarity <= 60 && valueRarity2 > 60){\r\n            if(rand >= 80){\r\n                uint algorithm = (myTruffle.dna + myTargetDna.dna)*(4**number2)/(5**number2);\r\n                newDna = algorithm - algorithm % 100 + valueRarity2 + randMod(8);\r\n            }else{\r\n                uint algorithm = (myTruffle.dna + myTargetDna.dna)*(4**number2)/(5**number2);\r\n                newDna = algorithm - algorithm % 100 + valueRarity3;\r\n            }\r\n        }\r\n        \r\n        _createTruffle(\"New Truffle\", newDna, dadId, mumId);\r\n        _triggerCooldown(myTruffle);\r\n        _triggerCooldown(myTargetDna);\r\n    }\r\n\r\n    //seller\r\n    function allowBuy(uint256 _tokenId, uint256 _price) external {\r\n        require(msg.sender == ownerOf(_tokenId), \"Not owner of this token\");\r\n        require(_price > 0, \"Price must be at least 1 wei\");\r\n        tokenIdToPrice[_tokenId] = _price;\r\n    }\r\n\r\n    function disallowBuy(uint256 _tokenId) external {\r\n        require(msg.sender == ownerOf(_tokenId), 'Not owner of this token');\r\n        tokenIdToPrice[_tokenId] = 0;\r\n    }\r\n\r\n    function buy(uint256 _tokenId) external payable {\r\n        uint256 price = tokenIdToPrice[_tokenId];\r\n        require(price > 0, \"This token is not for sale\");\r\n        require(msg.value == price, \"Please submit the asking price in order to complete the purchase\");\r\n        \r\n        address seller = ownerOf(_tokenId);\r\n        _transfer(seller, msg.sender, _tokenId);\r\n        tokenIdToPrice[_tokenId] = 0; // not for sale anymore\r\n        payable(seller).transfer(msg.value); // send the ETH to the seller\r\n\r\n        emit BuyTruffle(seller, msg.sender, msg.value);\r\n    }\r\n    \r\n}\r\n",
  "sourcePath": "D:\\DAPP\\project-game\\project-game-truffle\\contracts\\TruffleFactory.sol",
  "compiler": {
    "name": "solc",
    "version": "0.8.0+commit.c7dfd78e.Emscripten.clang"
  },
  "schemaVersion": "3.4.3",
  "updatedAt": "2021-11-25T13:47:52.995Z",
  "networkType": "ethereum",
  "devdoc": {
    "kind": "dev",
    "methods": {
      "approve(address,uint256)": {
        "details": "See {IERC721-approve}."
      },
      "balanceOf(address)": {
        "details": "See {IERC721-balanceOf}."
      },
      "getApproved(uint256)": {
        "details": "See {IERC721-getApproved}."
      },
      "isApprovedForAll(address,address)": {
        "details": "See {IERC721-isApprovedForAll}."
      },
      "name()": {
        "details": "See {IERC721Metadata-name}."
      },
      "owner()": {
        "details": "Returns the address of the current owner."
      },
      "ownerOf(uint256)": {
        "details": "See {IERC721-ownerOf}."
      },
      "renounceOwnership()": {
        "details": "Leaves the contract without owner. It will not be possible to call `onlyOwner` functions anymore. Can only be called by the current owner. NOTE: Renouncing ownership will leave the contract without an owner, thereby removing any functionality that is only available to the owner."
      },
      "safeTransferFrom(address,address,uint256)": {
        "details": "See {IERC721-safeTransferFrom}."
      },
      "safeTransferFrom(address,address,uint256,bytes)": {
        "details": "See {IERC721-safeTransferFrom}."
      },
      "setApprovalForAll(address,bool)": {
        "details": "See {IERC721-setApprovalForAll}."
      },
      "supportsInterface(bytes4)": {
        "details": "See {IERC165-supportsInterface}."
      },
      "symbol()": {
        "details": "See {IERC721Metadata-symbol}."
      },
      "tokenURI(uint256)": {
        "details": "See {IERC721Metadata-tokenURI}."
      },
      "transferFrom(address,address,uint256)": {
        "details": "See {IERC721-transferFrom}."
      },
      "transferOwnership(address)": {
        "details": "Transfers ownership of the contract to a new account (`newOwner`). Can only be called by the current owner."
      }
    },
    "version": 1
  },
  "userdoc": {
    "kind": "user",
    "methods": {},
    "version": 1
  }
}