{
  "contractName": "TruffleFactory",
  "abi": [
    {
      "inputs": [],
      "stateMutability": "nonpayable",
      "type": "constructor"
    },
    {
      "anonymous": false,
      "inputs": [
        {
          "indexed": true,
          "internalType": "address",
          "name": "owner",
          "type": "address"
        },
        {
          "indexed": true,
          "internalType": "address",
          "name": "approved",
          "type": "address"
        },
        {
          "indexed": true,
          "internalType": "uint256",
          "name": "tokenId",
          "type": "uint256"
        }
      ],
      "name": "Approval",
      "type": "event"
    },
    {
      "anonymous": false,
      "inputs": [
        {
          "indexed": true,
          "internalType": "address",
          "name": "owner",
          "type": "address"
        },
        {
          "indexed": true,
          "internalType": "address",
          "name": "operator",
          "type": "address"
        },
        {
          "indexed": false,
          "internalType": "bool",
          "name": "approved",
          "type": "bool"
        }
      ],
      "name": "ApprovalForAll",
      "type": "event"
    },
    {
      "anonymous": false,
      "inputs": [
        {
          "indexed": false,
          "internalType": "address",
          "name": "_seller",
          "type": "address"
        },
        {
          "indexed": false,
          "internalType": "address",
          "name": "_buyer",
          "type": "address"
        },
        {
          "indexed": false,
          "internalType": "uint256",
          "name": "_price",
          "type": "uint256"
        }
      ],
      "name": "BuyTruffle",
      "type": "event"
    },
    {
      "anonymous": false,
      "inputs": [
        {
          "indexed": true,
          "internalType": "address",
          "name": "owner",
          "type": "address"
        },
        {
          "indexed": false,
          "internalType": "uint256",
          "name": "id",
          "type": "uint256"
        },
        {
          "indexed": false,
          "internalType": "uint256",
          "name": "dna",
          "type": "uint256"
        }
      ],
      "name": "NewTruffle",
      "type": "event"
    },
    {
      "anonymous": false,
      "inputs": [
        {
          "indexed": true,
          "internalType": "address",
          "name": "previousOwner",
          "type": "address"
        },
        {
          "indexed": true,
          "internalType": "address",
          "name": "newOwner",
          "type": "address"
        }
      ],
      "name": "OwnershipTransferred",
      "type": "event"
    },
    {
      "anonymous": false,
      "inputs": [
        {
          "indexed": true,
          "internalType": "address",
          "name": "from",
          "type": "address"
        },
        {
          "indexed": true,
          "internalType": "address",
          "name": "to",
          "type": "address"
        },
        {
          "indexed": true,
          "internalType": "uint256",
          "name": "tokenId",
          "type": "uint256"
        }
      ],
      "name": "Transfer",
      "type": "event"
    },
    {
      "inputs": [],
      "name": "admin",
      "outputs": [
        {
          "internalType": "address",
          "name": "",
          "type": "address"
        }
      ],
      "stateMutability": "view",
      "type": "function",
      "constant": true
    },
    {
      "inputs": [
        {
          "internalType": "address",
          "name": "to",
          "type": "address"
        },
        {
          "internalType": "uint256",
          "name": "tokenId",
          "type": "uint256"
        }
      ],
      "name": "approve",
      "outputs": [],
      "stateMutability": "nonpayable",
      "type": "function"
    },
    {
      "inputs": [
        {
          "internalType": "address",
          "name": "owner",
          "type": "address"
        }
      ],
      "name": "balanceOf",
      "outputs": [
        {
          "internalType": "uint256",
          "name": "",
          "type": "uint256"
        }
      ],
      "stateMutability": "view",
      "type": "function",
      "constant": true
    },
    {
      "inputs": [
        {
          "internalType": "uint256",
          "name": "",
          "type": "uint256"
        }
      ],
      "name": "cooldowns",
      "outputs": [
        {
          "internalType": "uint32",
          "name": "",
          "type": "uint32"
        }
      ],
      "stateMutability": "view",
      "type": "function",
      "constant": true
    },
    {
      "inputs": [
        {
          "internalType": "uint256",
          "name": "tokenId",
          "type": "uint256"
        }
      ],
      "name": "getApproved",
      "outputs": [
        {
          "internalType": "address",
          "name": "",
          "type": "address"
        }
      ],
      "stateMutability": "view",
      "type": "function",
      "constant": true
    },
    {
      "inputs": [
        {
          "internalType": "address",
          "name": "owner",
          "type": "address"
        },
        {
          "internalType": "address",
          "name": "operator",
          "type": "address"
        }
      ],
      "name": "isApprovedForAll",
      "outputs": [
        {
          "internalType": "bool",
          "name": "",
          "type": "bool"
        }
      ],
      "stateMutability": "view",
      "type": "function",
      "constant": true
    },
    {
      "inputs": [],
      "name": "name",
      "outputs": [
        {
          "internalType": "string",
          "name": "",
          "type": "string"
        }
      ],
      "stateMutability": "view",
      "type": "function",
      "constant": true
    },
    {
      "inputs": [],
      "name": "owner",
      "outputs": [
        {
          "internalType": "address",
          "name": "",
          "type": "address"
        }
      ],
      "stateMutability": "view",
      "type": "function",
      "constant": true
    },
    {
      "inputs": [
        {
          "internalType": "uint256",
          "name": "tokenId",
          "type": "uint256"
        }
      ],
      "name": "ownerOf",
      "outputs": [
        {
          "internalType": "address",
          "name": "",
          "type": "address"
        }
      ],
      "stateMutability": "view",
      "type": "function",
      "constant": true
    },
    {
      "inputs": [],
      "name": "renounceOwnership",
      "outputs": [],
      "stateMutability": "nonpayable",
      "type": "function"
    },
    {
      "inputs": [
        {
          "internalType": "address",
          "name": "from",
          "type": "address"
        },
        {
          "internalType": "address",
          "name": "to",
          "type": "address"
        },
        {
          "internalType": "uint256",
          "name": "tokenId",
          "type": "uint256"
        }
      ],
      "name": "safeTransferFrom",
      "outputs": [],
      "stateMutability": "nonpayable",
      "type": "function"
    },
    {
      "inputs": [
        {
          "internalType": "address",
          "name": "from",
          "type": "address"
        },
        {
          "internalType": "address",
          "name": "to",
          "type": "address"
        },
        {
          "internalType": "uint256",
          "name": "tokenId",
          "type": "uint256"
        },
        {
          "internalType": "bytes",
          "name": "_data",
          "type": "bytes"
        }
      ],
      "name": "safeTransferFrom",
      "outputs": [],
      "stateMutability": "nonpayable",
      "type": "function"
    },
    {
      "inputs": [
        {
          "internalType": "address",
          "name": "operator",
          "type": "address"
        },
        {
          "internalType": "bool",
          "name": "approved",
          "type": "bool"
        }
      ],
      "name": "setApprovalForAll",
      "outputs": [],
      "stateMutability": "nonpayable",
      "type": "function"
    },
    {
      "inputs": [
        {
          "internalType": "bytes4",
          "name": "interfaceId",
          "type": "bytes4"
        }
      ],
      "name": "supportsInterface",
      "outputs": [
        {
          "internalType": "bool",
          "name": "",
          "type": "bool"
        }
      ],
      "stateMutability": "view",
      "type": "function",
      "constant": true
    },
    {
      "inputs": [],
      "name": "symbol",
      "outputs": [
        {
          "internalType": "string",
          "name": "",
          "type": "string"
        }
      ],
      "stateMutability": "view",
      "type": "function",
      "constant": true
    },
    {
      "inputs": [
        {
          "internalType": "uint256",
          "name": "",
          "type": "uint256"
        }
      ],
      "name": "tokenIdToPrice",
      "outputs": [
        {
          "internalType": "uint256",
          "name": "",
          "type": "uint256"
        }
      ],
      "stateMutability": "view",
      "type": "function",
      "constant": true
    },
    {
      "inputs": [
        {
          "internalType": "uint256",
          "name": "tokenId",
          "type": "uint256"
        }
      ],
      "name": "tokenURI",
      "outputs": [
        {
          "internalType": "string",
          "name": "",
          "type": "string"
        }
      ],
      "stateMutability": "view",
      "type": "function",
      "constant": true
    },
    {
      "inputs": [
        {
          "internalType": "address",
          "name": "from",
          "type": "address"
        },
        {
          "internalType": "address",
          "name": "to",
          "type": "address"
        },
        {
          "internalType": "uint256",
          "name": "tokenId",
          "type": "uint256"
        }
      ],
      "name": "transferFrom",
      "outputs": [],
      "stateMutability": "nonpayable",
      "type": "function"
    },
    {
      "inputs": [
        {
          "internalType": "address",
          "name": "newOwner",
          "type": "address"
        }
      ],
      "name": "transferOwnership",
      "outputs": [],
      "stateMutability": "nonpayable",
      "type": "function"
    },
    {
      "inputs": [
        {
          "internalType": "uint256",
          "name": "",
          "type": "uint256"
        }
      ],
      "name": "truffles",
      "outputs": [
        {
          "internalType": "string",
          "name": "name",
          "type": "string"
        },
        {
          "internalType": "uint256",
          "name": "id",
          "type": "uint256"
        },
        {
          "internalType": "uint256",
          "name": "dna",
          "type": "uint256"
        },
        {
          "internalType": "uint8",
          "name": "level",
          "type": "uint8"
        },
        {
          "internalType": "uint8",
          "name": "rarity",
          "type": "uint8"
        },
        {
          "internalType": "address",
          "name": "currentOwner",
          "type": "address"
        },
        {
          "internalType": "address",
          "name": "previousOwner",
          "type": "address"
        },
        {
          "internalType": "uint32",
          "name": "readyTime",
          "type": "uint32"
        },
        {
          "internalType": "uint8",
          "name": "dadId",
          "type": "uint8"
        },
        {
          "internalType": "uint8",
          "name": "mumId",
          "type": "uint8"
        },
        {
          "internalType": "uint256",
          "name": "sell",
          "type": "uint256"
        }
      ],
      "stateMutability": "view",
      "type": "function",
      "constant": true
    },
    {
      "inputs": [],
      "name": "getFee",
      "outputs": [
        {
          "internalType": "uint256",
          "name": "",
          "type": "uint256"
        }
      ],
      "stateMutability": "view",
      "type": "function",
      "constant": true
    },
    {
      "inputs": [],
      "name": "FreeLeveUp",
      "outputs": [
        {
          "internalType": "uint256",
          "name": "",
          "type": "uint256"
        }
      ],
      "stateMutability": "view",
      "type": "function",
      "constant": true
    },
    {
      "inputs": [],
      "name": "getFeeBreed",
      "outputs": [
        {
          "internalType": "uint256",
          "name": "",
          "type": "uint256"
        }
      ],
      "stateMutability": "view",
      "type": "function",
      "constant": true
    },
    {
      "inputs": [
        {
          "internalType": "string",
          "name": "_name",
          "type": "string"
        }
      ],
      "name": "createRandomTruffle",
      "outputs": [],
      "stateMutability": "payable",
      "type": "function",
      "payable": true
    },
    {
      "inputs": [],
      "name": "getTruffle",
      "outputs": [
        {
          "components": [
            {
              "internalType": "string",
              "name": "name",
              "type": "string"
            },
            {
              "internalType": "uint256",
              "name": "id",
              "type": "uint256"
            },
            {
              "internalType": "uint256",
              "name": "dna",
              "type": "uint256"
            },
            {
              "internalType": "uint8",
              "name": "level",
              "type": "uint8"
            },
            {
              "internalType": "uint8",
              "name": "rarity",
              "type": "uint8"
            },
            {
              "internalType": "address",
              "name": "currentOwner",
              "type": "address"
            },
            {
              "internalType": "address",
              "name": "previousOwner",
              "type": "address"
            },
            {
              "internalType": "uint32",
              "name": "readyTime",
              "type": "uint32"
            },
            {
              "internalType": "uint8",
              "name": "dadId",
              "type": "uint8"
            },
            {
              "internalType": "uint8",
              "name": "mumId",
              "type": "uint8"
            },
            {
              "internalType": "uint256",
              "name": "sell",
              "type": "uint256"
            }
          ],
          "internalType": "struct TruffleFactory.Truffle[]",
          "name": "",
          "type": "tuple[]"
        }
      ],
      "stateMutability": "view",
      "type": "function",
      "constant": true
    },
    {
      "inputs": [
        {
          "internalType": "address",
          "name": "_owner",
          "type": "address"
        }
      ],
      "name": "getOwnerTruffles",
      "outputs": [
        {
          "components": [
            {
              "internalType": "string",
              "name": "name",
              "type": "string"
            },
            {
              "internalType": "uint256",
              "name": "id",
              "type": "uint256"
            },
            {
              "internalType": "uint256",
              "name": "dna",
              "type": "uint256"
            },
            {
              "internalType": "uint8",
              "name": "level",
              "type": "uint8"
            },
            {
              "internalType": "uint8",
              "name": "rarity",
              "type": "uint8"
            },
            {
              "internalType": "address",
              "name": "currentOwner",
              "type": "address"
            },
            {
              "internalType": "address",
              "name": "previousOwner",
              "type": "address"
            },
            {
              "internalType": "uint32",
              "name": "readyTime",
              "type": "uint32"
            },
            {
              "internalType": "uint8",
              "name": "dadId",
              "type": "uint8"
            },
            {
              "internalType": "uint8",
              "name": "mumId",
              "type": "uint8"
            },
            {
              "internalType": "uint256",
              "name": "sell",
              "type": "uint256"
            }
          ],
          "internalType": "struct TruffleFactory.Truffle[]",
          "name": "",
          "type": "tuple[]"
        }
      ],
      "stateMutability": "view",
      "type": "function",
      "constant": true
    },
    {
      "inputs": [
        {
          "internalType": "uint256",
          "name": "_fee",
          "type": "uint256"
        }
      ],
      "name": "updateFee",
      "outputs": [],
      "stateMutability": "nonpayable",
      "type": "function"
    },
    {
      "inputs": [
        {
          "internalType": "uint256",
          "name": "_feeLevelUp",
          "type": "uint256"
        }
      ],
      "name": "updateFeeLevelUp",
      "outputs": [],
      "stateMutability": "nonpayable",
      "type": "function"
    },
    {
      "inputs": [],
      "name": "withdraw",
      "outputs": [],
      "stateMutability": "payable",
      "type": "function",
      "payable": true
    },
    {
      "inputs": [
        {
          "internalType": "uint256",
          "name": "_TruffleId",
          "type": "uint256"
        }
      ],
      "name": "levelUp",
      "outputs": [],
      "stateMutability": "payable",
      "type": "function",
      "payable": true
    },
    {
      "inputs": [
        {
          "internalType": "uint256",
          "name": "_TruffleId",
          "type": "uint256"
        },
        {
          "internalType": "string",
          "name": "_newName",
          "type": "string"
        }
      ],
      "name": "updateName",
      "outputs": [],
      "stateMutability": "nonpayable",
      "type": "function"
    },
    {
      "inputs": [
        {
          "internalType": "uint256",
          "name": "_truffleId",
          "type": "uint256"
        },
        {
          "internalType": "uint256",
          "name": "_targetDna",
          "type": "uint256"
        }
      ],
      "name": "BreedAndMultiply",
      "outputs": [],
      "stateMutability": "payable",
      "type": "function",
      "payable": true
    },
    {
      "inputs": [
        {
          "internalType": "uint256",
          "name": "_tokenId",
          "type": "uint256"
        },
        {
          "internalType": "uint256",
          "name": "_price",
          "type": "uint256"
        }
      ],
      "name": "allowBuy",
      "outputs": [],
      "stateMutability": "payable",
      "type": "function",
      "payable": true
    },
    {
      "inputs": [
        {
          "internalType": "uint256",
          "name": "_tokenId",
          "type": "uint256"
        }
      ],
      "name": "disallowBuy",
      "outputs": [],
      "stateMutability": "nonpayable",
      "type": "function"
    },
    {
      "inputs": [
        {
          "internalType": "uint256",
          "name": "_tokenId",
          "type": "uint256"
        }
      ],
      "name": "buy",
      "outputs": [],
      "stateMutability": "payable",
      "type": "function",
      "payable": true
    },
    {
      "inputs": [],
      "name": "getAllTruffleSell",
      "outputs": [
        {
          "components": [
            {
              "internalType": "string",
              "name": "name",
              "type": "string"
            },
            {
              "internalType": "uint256",
              "name": "id",
              "type": "uint256"
            },
            {
              "internalType": "uint256",
              "name": "dna",
              "type": "uint256"
            },
            {
              "internalType": "uint8",
              "name": "level",
              "type": "uint8"
            },
            {
              "internalType": "uint8",
              "name": "rarity",
              "type": "uint8"
            },
            {
              "internalType": "address",
              "name": "currentOwner",
              "type": "address"
            },
            {
              "internalType": "address",
              "name": "previousOwner",
              "type": "address"
            },
            {
              "internalType": "uint32",
              "name": "readyTime",
              "type": "uint32"
            },
            {
              "internalType": "uint8",
              "name": "dadId",
              "type": "uint8"
            },
            {
              "internalType": "uint8",
              "name": "mumId",
              "type": "uint8"
            },
            {
              "internalType": "uint256",
              "name": "sell",
              "type": "uint256"
            }
          ],
          "internalType": "struct TruffleFactory.Truffle[]",
          "name": "",
          "type": "tuple[]"
        }
      ],
      "stateMutability": "view",
      "type": "function",
      "constant": true
    },
    {
      "inputs": [
        {
          "internalType": "address",
          "name": "_owner",
          "type": "address"
        }
      ],
      "name": "getOwnerTrufflesSell",
      "outputs": [
        {
          "components": [
            {
              "internalType": "string",
              "name": "name",
              "type": "string"
            },
            {
              "internalType": "uint256",
              "name": "id",
              "type": "uint256"
            },
            {
              "internalType": "uint256",
              "name": "dna",
              "type": "uint256"
            },
            {
              "internalType": "uint8",
              "name": "level",
              "type": "uint8"
            },
            {
              "internalType": "uint8",
              "name": "rarity",
              "type": "uint8"
            },
            {
              "internalType": "address",
              "name": "currentOwner",
              "type": "address"
            },
            {
              "internalType": "address",
              "name": "previousOwner",
              "type": "address"
            },
            {
              "internalType": "uint32",
              "name": "readyTime",
              "type": "uint32"
            },
            {
              "internalType": "uint8",
              "name": "dadId",
              "type": "uint8"
            },
            {
              "internalType": "uint8",
              "name": "mumId",
              "type": "uint8"
            },
            {
              "internalType": "uint256",
              "name": "sell",
              "type": "uint256"
            }
          ],
          "internalType": "struct TruffleFactory.Truffle[]",
          "name": "",
          "type": "tuple[]"
        }
      ],
      "stateMutability": "view",
      "type": "function",
      "constant": true
    }
  ],
  "bytecode": "0x662386f26fc1000060098190556658d15e17628000600a5566038d7ea4c68000600b819055600c91909155600d556000600e55610708600f5560e060405261a8c0608090815261fd2060a0526201518060c052620000629060109060036200019e565b503480156200007057600080fd5b50604080518082018252600781527f54727566666c650000000000000000000000000000000000000000000000000060208083019182528351808501909452600384527f5446540000000000000000000000000000000000000000000000000000000000908401528151919291620000eb9160009162000241565b5080516200010190600190602084019062000241565b505050620001306200012162000148640100000000026401000000009004565b6401000000006200014c810204565b60088054600160a060020a031916331790556200032b565b3390565b60068054600160a060020a03838116600160a060020a0319831681179093556040519116919082907f8be0079c531659141344cd1fd0a4f28419497f9722a3daafe3b4186f6b6457e090600090a35050565b6001830191839082156200022f5791602002820160005b83821115620001fb57835183826101000a81548163ffffffff021916908363ffffffff1602179055509260200192600401602081600301049283019260010302620001b5565b80156200022d5782816101000a81549063ffffffff0219169055600401602081600301049283019260010302620001fb565b505b506200023d929150620002be565b5090565b8280546200024f90620002d5565b90600052602060002090601f0160209004810192826200027357600085556200022f565b82601f106200028e57805160ff19168380011785556200022f565b828001600101855582156200022f579182015b828111156200022f578251825591602001919060010190620002a1565b5b808211156200023d5760008155600101620002bf565b600281046001821680620002ea57607f821691505b6020821081141562000325577f4e487b7100000000000000000000000000000000000000000000000000000000600052602260045260246000fd5b50919050565b614705806200033b6000396000f3fe608060405260043610610237576000357c0100000000000000000000000000000000000000000000000000000000900480638da5cb5b11610140578063bbb5e8d3116100c8578063e985e9c51161008c578063e985e9c5146105fd578063f2fde38b1461061d578063f4812eb91461063d578063f851a4401461065d578063ff5df90a1461067257610237565b8063bbb5e8d314610582578063c87b56dd14610595578063ced72f87146105b5578063d4991312146105ca578063d96a094a146105ea57610237565b80639d678a9c1161010f5780639d678a9c146104eb5780639d6fac6f14610500578063a22cb4651461052d578063b15694121461054d578063b88d4fde1461056257610237565b80638da5cb5b1461048e5780639012c4a8146104a357806395d89b41146104c3578063962a8ba3146104d857610237565b806344b17626116101c357806370a082311161019257806370a0823114610404578063715018a614610424578063778532181461043957806377e00c311461044e578063884a326e1461046e57610237565b806344b17626146103605780634cc37fc01461038d57806353e76f2c146103c45780636352211e146103e457610237565b80630ce90ec21161020a5780630ce90ec2146102e357806312e2e1c7146102f657806323b872dd146103185780633ccfd60b1461033857806342842e0e1461034057610237565b806301ffc9a71461023c57806306fdde0314610272578063081812fc14610294578063095ea7b3146102c1575b600080fd5b34801561024857600080fd5b5061025c61025736600461380a565b610685565b6040516102699190613bb1565b60405180910390f35b34801561027e57600080fd5b506102876106ff565b6040516102699190613bbc565b3480156102a057600080fd5b506102b46102af366004613888565b610791565b6040516102699190613a24565b3480156102cd57600080fd5b506102e16102dc3660046137e1565b6107e0565b005b6102e16102f1366004613888565b61087e565b34801561030257600080fd5b5061030b610975565b60405161026991906143a8565b34801561032457600080fd5b506102e16103333660046136f3565b61097b565b6102e16109b6565b34801561034c57600080fd5b506102e161035b3660046136f3565b610a3f565b34801561036c57600080fd5b5061038061037b3660046136a7565b610a5a565b6040516102699190613a98565b34801561039957600080fd5b506103ad6103a8366004613888565b610cb3565b6040516102699b9a99989796959493929190613bcf565b3480156103d057600080fd5b506102e16103df3660046138a0565b610dcc565b3480156103f057600080fd5b506102b46103ff366004613888565b610ec3565b34801561041057600080fd5b5061030b61041f3660046136a7565b610efb565b34801561043057600080fd5b506102e1610f42565b34801561044557600080fd5b5061030b610f90565b34801561045a57600080fd5b506103806104693660046136a7565b610f96565b34801561047a57600080fd5b506102e1610489366004613888565b6112bb565b34801561049a57600080fd5b506102b4611302565b3480156104af57600080fd5b506102e16104be366004613888565b611311565b3480156104cf57600080fd5b50610287611358565b6102e16104e6366004613917565b611367565b3480156104f757600080fd5b50610380611d1f565b34801561050c57600080fd5b5061052061051b366004613888565b611ff9565b60405161026991906143bf565b34801561053957600080fd5b506102e16105483660046137a7565b612029565b34801561055957600080fd5b506103806120fa565b34801561056e57600080fd5b506102e161057d36600461372e565b61227e565b6102e1610590366004613917565b6122c0565b3480156105a157600080fd5b506102876105b0366004613888565b6123f4565b3480156105c157600080fd5b5061030b61247a565b3480156105d657600080fd5b506102e16105e5366004613888565b612480565b6102e16105f8366004613888565b612509565b34801561060957600080fd5b5061025c6106183660046136c1565b6126d9565b34801561062957600080fd5b506102e16106383660046136a7565b612707565b34801561064957600080fd5b5061030b610658366004613888565b61277e565b34801561066957600080fd5b506102b4612790565b6102e1610680366004613842565b61279f565b6000600160e060020a031982167f80ac58cd0000000000000000000000000000000000000000000000000000000014806106e85750600160e060020a031982167f5b5e139f00000000000000000000000000000000000000000000000000000000145b806106f757506106f782612846565b90505b919050565b60606000805461070e906145bf565b80601f016020809104026020016040519081016040528092919081815260200182805461073a906145bf565b80156107875780601f1061075c57610100808354040283529160200191610787565b820191906000526020600020905b81548152906001019060200180831161076a57829003601f168201915b5050505050905090565b600061079c82612878565b6107c45760405160e560020a62461bcd0281526004016107bb9061407a565b60405180910390fd5b50600090815260046020526040902054600160a060020a031690565b60006107eb82610ec3565b905080600160a060020a031683600160a060020a031614156108225760405160e560020a62461bcd0281526004016107bb90614223565b80600160a060020a0316610834612895565b600160a060020a03161480610850575061085081610618612895565b61086f5760405160e560020a62461bcd0281526004016107bb90613e99565b6108798383612899565b505050565b600b54341461088c57600080fd5b3361089682610ec3565b600160a060020a0316146108a957600080fd5b6000601382815481106108cf5760e060020a634e487b7102600052603260045260246000fd5b600091825260209091206006909102016003810154909150601460ff909116106108f857600080fd5b60058101541561090757600080fd5b60038101805460ff1690600061091c83614618565b825460ff9182166101009390930a928302919092021990911617905550600854600b54604051600160a060020a039092169181156108fc0291906000818181858888f19350505050158015610879573d6000803e3d6000fd5b600b5490565b61098c610986612895565b82612914565b6109ab5760405160e560020a62461bcd0281526004016107bb90614314565b61087983838361299c565b6109be612895565b600160a060020a03166109cf611302565b600160a060020a0316146109f85760405160e560020a62461bcd0281526004016107bb90614134565b6000610a02611302565b604051909150600160a060020a03821690303180156108fc02916000818181858888f19350505050158015610a3b573d6000803e3d6000fd5b5050565b6108798383836040518060200160405280600081525061227e565b60606000610a6783610efb565b67ffffffffffffffff811115610a905760e060020a634e487b7102600052604160045260246000fd5b604051908082528060200260200182016040528015610ac957816020015b610ab66134b7565b815260200190600190039081610aae5790505b5090506000805b601354811015610caa5784600160a060020a0316610aed82610ec3565b600160a060020a03161415610c985760138181548110610b205760e060020a634e487b7102600052603260045260246000fd5b906000526020600020906006020160405180610160016040529081600082018054610b4a906145bf565b80601f0160208091040260200160405190810160405280929190818152602001828054610b76906145bf565b8015610bc35780601f10610b9857610100808354040283529160200191610bc3565b820191906000526020600020905b815481529060010190602001808311610ba657829003601f168201915b50505091835250506001820154602082015260028201546040820152600382015460ff808216606084015261010080830482166080850152600160a060020a0362010000909304831660a0850152600485015492831660c085015263ffffffff60a060020a84041660e085015260c060020a830482169084015260c860020a90910416610120820152600590910154610140909101528351849084908110610c7e5760e060020a634e487b7102600052603260045260246000fd5b60200260200101819052508180610c94906145fd565b9250505b80610ca2816145fd565b915050610ad0565b50909392505050565b60138181548110610cc357600080fd5b9060005260206000209060060201600091509050806000018054610ce6906145bf565b80601f0160208091040260200160405190810160405280929190818152602001828054610d12906145bf565b8015610d5f5780601f10610d3457610100808354040283529160200191610d5f565b820191906000526020600020905b815481529060010190602001808311610d4257829003601f168201915b50505060018401546002850154600386015460048701546005909701549596929591945060ff80821694506101008204811693600160a060020a03620100009093048316939281169263ffffffff60a060020a8304169260c060020a830481169260c860020a900416908b565b6002838160138281548110610df45760e060020a634e487b7102600052603260045260246000fd5b600091825260209091206003600690920201015460ff161015610e1657600080fd5b33610e2086610ec3565b600160a060020a031614610e3357600080fd5b600060138681548110610e595760e060020a634e487b7102600052603260045260246000fd5b906000526020600020906006020190508060050154600014610e7a57600080fd5b848460138881548110610ea05760e060020a634e487b7102600052603260045260246000fd5b60009182526020909120610eba9360069092020191613513565b50505050505050565b600081815260026020526040812054600160a060020a0316806106f75760405160e560020a62461bcd0281526004016107bb90613f53565b6000600160a060020a038216610f265760405160e560020a62461bcd0281526004016107bb90613ef6565b50600160a060020a031660009081526003602052604090205490565b610f4a612895565b600160a060020a0316610f5b611302565b600160a060020a031614610f845760405160e560020a62461bcd0281526004016107bb90614134565b610f8e6000612adc565b565b600c5490565b606060008060005b60135481101561102b5784600160a060020a0316610fbb82610ec3565b600160a060020a03161480156110065750600060138281548110610ff25760e060020a634e487b7102600052603260045260246000fd5b906000526020600020906006020160050154115b15611019576110166001836143d0565b91505b80611023816145fd565b915050610f9e565b5060008167ffffffffffffffff8111156110585760e060020a634e487b7102600052604160045260246000fd5b60405190808252806020026020018201604052801561109157816020015b61107e6134b7565b8152602001906001900390816110765790505b50905060005b6013548110156112b25785600160a060020a03166110b482610ec3565b600160a060020a03161480156110ff57506000601382815481106110eb5760e060020a634e487b7102600052603260045260246000fd5b906000526020600020906006020160050154115b156112a057601381815481106111285760e060020a634e487b7102600052603260045260246000fd5b906000526020600020906006020160405180610160016040529081600082018054611152906145bf565b80601f016020809104026020016040519081016040528092919081815260200182805461117e906145bf565b80156111cb5780601f106111a0576101008083540402835291602001916111cb565b820191906000526020600020905b8154815290600101906020018083116111ae57829003601f168201915b50505091835250506001820154602082015260028201546040820152600382015460ff808216606084015261010080830482166080850152600160a060020a0362010000909304831660a0850152600485015492831660c085015263ffffffff60a060020a84041660e085015260c060020a830482169084015260c860020a909104166101208201526005909101546101409091015282518390869081106112865760e060020a634e487b7102600052603260045260246000fd5b6020026020010181905250838061129c906145fd565b9450505b806112aa816145fd565b915050611097565b50949350505050565b6112c3612895565b600160a060020a03166112d4611302565b600160a060020a0316146112fd5760405160e560020a62461bcd0281526004016107bb90614134565b600b55565b600654600160a060020a031690565b611319612895565b600160a060020a031661132a611302565b600160a060020a0316146113535760405160e560020a62461bcd0281526004016107bb90614134565b600a55565b60606001805461070e906145bf565b600c54341461137557600080fd5b60006013838154811061139b5760e060020a634e487b7102600052603260045260246000fd5b906000526020600020906006020190506000601383815481106113d15760e060020a634e487b7102600052603260045260246000fd5b90600052602060002090600602019050828414156113ee57600080fd5b336113f885610ec3565b600160a060020a03161461140b57600080fd5b3361141584610ec3565b600160a060020a03161461142857600080fd5b61143182612b3b565b6114505760405160e560020a62461bcd0281526004016107bb90613fb0565b61145981612b3b565b6114785760405160e560020a62461bcd0281526004016107bb90613fb0565b60058201541561149d5760405160e560020a62461bcd0281526004016107bb906140d7565b6005810154156114c25760405160e560020a62461bcd0281526004016107bb906140d7565b6001808301549082015460028401546000906114e090606490614638565b90506000606485600201546114f59190614638565b9050600060026115078360ff16612b53565b8360ff166115178660ff16612b53565b6115249060ff88166143d0565b61152e91906143d0565b611538919061457c565b61154291906143fc565b90506000606461155383600f614553565b61155d91906143fc565b9050600061156c600a8661464c565b60ff169050600061157e600a8661464c565b60ff1690506000806115906064612b53565b905060638860ff161080156115a8575060638760ff16105b6115b157600080fd5b603c8860ff16111580156115c95750603c8760ff1611155b156118c75760148860ff16111580156115e6575060148760ff1611155b156117715760328110611703578660ff168860ff161061168157600061160d856005614466565b611618866004614466565b8d600201548f6002015461162c91906143d0565b6116369190614534565b61164091906143e8565b905061164c600a612b53565b60ff8a1661165b606484614638565b611665908461457c565b61166f91906143d0565b61167991906143d0565b9250506116fe565b600061168e846005614466565b611699856004614466565b8d600201548f600201546116ad91906143d0565b6116b79190614534565b6116c191906143e8565b90506116cd600a612b53565b60ff89166116dc606484614638565b6116e6908461457c565b6116f091906143d0565b6116fa91906143d0565b9250505b61176c565b6000611710856005614466565b61171b866004614466565b8d600201548f6002015461172f91906143d0565b6117399190614534565b61174391906143e8565b905060ff8716611754606483614638565b61175e908361457c565b61176891906143d0565b9250505b6118c7565b603c8110611850578660ff168860ff16106117e1576000611793856005614466565b61179e866004614466565b8d600201548f600201546117b291906143d0565b6117bc9190614534565b6117c691906143e8565b90506117d2600a612b53565b60ff8a166116dc606484614638565b60006117ee846005614466565b6117f9856004614466565b8d600201548f6002015461180d91906143d0565b6118179190614534565b61182191906143e8565b905061182d600a612b53565b60ff891661183c606484614638565b611846908461457c565b61175e91906143d0565b600061185d856005614466565b611868866004614466565b8d600201548f6002015461187c91906143d0565b6118869190614534565b61189091906143e8565b905060ff8087169088166118a5606484614638565b6118af908461457c565b6118b991906143d0565b6118c391906143d0565b9250505b603c8860ff161180156118dd5750603c8760ff16115b15611a6357604681106119fa578660ff168860ff1610611978576000611904856005614466565b61190f866004614466565b8d600201548f6002015461192391906143d0565b61192d9190614534565b61193791906143e8565b90506119436008612b53565b60ff8a16611952606484614638565b61195c908461457c565b61196691906143d0565b61197091906143d0565b9250506119f5565b6000611985846005614466565b611990856004614466565b8d600201548f600201546119a491906143d0565b6119ae9190614534565b6119b891906143e8565b90506119c46008612b53565b60ff89166119d3606484614638565b6119dd908461457c565b6119e791906143d0565b6119f191906143d0565b9250505b611a63565b6000611a07856005614466565b611a12866004614466565b8d600201548f60020154611a2691906143d0565b611a309190614534565b611a3a91906143e8565b905060ff8716611a4b606483614638565b611a55908361457c565b611a5f91906143d0565b9250505b603c8860ff16118015611a7a5750603c8760ff1611155b15611b715760508110611b08576000611a94856005614466565b611a9f866004614466565b8d600201548f60020154611ab391906143d0565b611abd9190614534565b611ac791906143e8565b9050611ad36007612b53565b60ff8a16611ae2606484614638565b611aec908461457c565b611af691906143d0565b611b0091906143d0565b925050611b71565b6000611b15856005614466565b611b20866004614466565b8d600201548f60020154611b3491906143d0565b611b3e9190614534565b611b4891906143e8565b905060ff8716611b59606483614638565b611b63908361457c565b611b6d91906143d0565b9250505b603c8860ff1611158015611b885750603c8760ff16115b15611c7f5760508110611c16576000611ba2846005614466565b611bad856004614466565b8d600201548f60020154611bc191906143d0565b611bcb9190614534565b611bd591906143e8565b9050611be16008612b53565b60ff8916611bf0606484614638565b611bfa908461457c565b611c0491906143d0565b611c0e91906143d0565b925050611c7f565b6000611c23846005614466565b611c2e856004614466565b8d600201548f60020154611c4291906143d0565b611c4c9190614534565b611c5691906143e8565b905060ff8716611c67606483614638565b611c71908361457c565b611c7b91906143d0565b9250505b611cc06040518060400160405280600b81526020017f4e65772054727566666c65000000000000000000000000000000000000000000815250838c8c612ba6565b611cc98c612e11565b611cd28b612e11565b600854600c54604051600160a060020a039092169181156108fc0291906000818181858888f19350505050158015611d0e573d6000803e3d6000fd5b505050505050505050505050505050565b606060008060005b601354811015611d8f57600060138281548110611d575760e060020a634e487b7102600052603260045260246000fd5b9060005260206000209060060201600501541115611d7d57611d7a6001836143d0565b91505b80611d87816145fd565b915050611d27565b5060008167ffffffffffffffff811115611dbc5760e060020a634e487b7102600052604160045260246000fd5b604051908082528060200260200182016040528015611df557816020015b611de26134b7565b815260200190600190039081611dda5790505b50905060005b601354811015611ff157600060138281548110611e2b5760e060020a634e487b7102600052603260045260246000fd5b9060005260206000209060060201600501541115611fdf5760138181548110611e675760e060020a634e487b7102600052603260045260246000fd5b906000526020600020906006020160405180610160016040529081600082018054611e91906145bf565b80601f0160208091040260200160405190810160405280929190818152602001828054611ebd906145bf565b8015611f0a5780601f10611edf57610100808354040283529160200191611f0a565b820191906000526020600020905b815481529060010190602001808311611eed57829003601f168201915b50505091835250506001820154602082015260028201546040820152600382015460ff808216606084015261010080830482166080850152600160a060020a0362010000909304831660a0850152600485015492831660c085015263ffffffff60a060020a84041660e085015260c060020a830482169084015260c860020a90910416610120820152600590910154610140909101528251839086908110611fc55760e060020a634e487b7102600052603260045260246000fd5b60200260200101819052508380611fdb906145fd565b9450505b80611fe9816145fd565b915050611dfb565b509250505090565b6010816003811061200957600080fd5b60089182820401919006600402915054906101000a900463ffffffff1681565b612031612895565b600160a060020a031682600160a060020a031614156120655760405160e560020a62461bcd0281526004016107bb90613e05565b8060056000612072612895565b600160a060020a03908116825260208083019390935260409182016000908120918716808252919093529120805460ff1916921515929092179091556120b6612895565b600160a060020a03167f17307eab39ab6107e8899845ad3d59bd9653f200f220920489ca2b5937696c31836040516120ee9190613bb1565b60405180910390a35050565b60606013805480602002602001604051908101604052809291908181526020016000905b82821015612275578382906000526020600020906006020160405180610160016040529081600082018054612152906145bf565b80601f016020809104026020016040519081016040528092919081815260200182805461217e906145bf565b80156121cb5780601f106121a0576101008083540402835291602001916121cb565b820191906000526020600020905b8154815290600101906020018083116121ae57829003601f168201915b505050918352505060018281015460208084019190915260028401546040840152600384015460ff808216606086015261010080830482166080870152600160a060020a0362010000909304831660a0870152600487015492831660c087015263ffffffff60a060020a84041660e087015260c060020a830482169086015260c860020a90910416610120840152600590930154610140909201919091529183529201910161211e565b50505050905090565b61228f612289612895565b83612914565b6122ae5760405160e560020a62461bcd0281526004016107bb90614314565b6122ba84848484613013565b50505050565b6122c982610ec3565b600160a060020a031633600160a060020a0316146122fc5760405160e560020a62461bcd0281526004016107bb90614280565b600d543410156123215760405160e560020a62461bcd0281526004016107bb906142b7565b600081116123445760405160e560020a62461bcd0281526004016107bb90614371565b60006013838154811061236a5760e060020a634e487b7102600052603260045260246000fd5b9060005260206000209060060201905061238381612b3b565b6123a25760405160e560020a62461bcd0281526004016107bb90613d71565b600083815260116020526040812083905560138054859081106123d85760e060020a634e487b7102600052603260045260246000fd5b6000918252602090912060056006909202010192909255505050565b60606123ff82612878565b61241e5760405160e560020a62461bcd0281526004016107bb906141c6565b6000612428613049565b905060008151116124485760405180602001604052806000815250612473565b806124528461305b565b604051602001612463929190613982565b6040516020818303038152906040525b9392505050565b600a5490565b61248981610ec3565b600160a060020a031633600160a060020a0316146124bc5760405160e560020a62461bcd0281526004016107bb90614280565b600081815260116020526040812081905560138054839081106124f25760e060020a634e487b7102600052603260045260246000fd5b600091825260208220600560069092020101555050565b600081815260116020526040902054806125385760405160e560020a62461bcd0281526004016107bb90613ca6565b80341461255a5760405160e560020a62461bcd0281526004016107bb90613fe7565b600061256583610ec3565b905061257281338561299c565b600083815260116020526040812081905560138054859081106125a85760e060020a634e487b7102600052603260045260246000fd5b906000526020600020906006020190506000816005018190555081600160a060020a03166108fc349081150290604051600060405180830381858888f193505050501580156125fb573d6000803e3d6000fd5b50600854600d54604051600160a060020a039092169181156108fc0291906000818181858888f19350505050158015612638573d6000803e3d6000fd5b5060038101805460048301805462010000808404600160a060020a031673ffffffffffffffffffffffffffffffffffffffff199092169190911790915575ffffffffffffffffffffffffffffffffffffffff00001990911633918202179091556040517f4dd2f31b4569bcf6afb5788e4dcfba199a9e2148b94d0dda6d5fed23041de4cd916126cb918591903490613a38565b60405180910390a150505050565b600160a060020a03918216600090815260056020908152604080832093909416825291909152205460ff1690565b61270f612895565b600160a060020a0316612720611302565b600160a060020a0316146127495760405160e560020a62461bcd0281526004016107bb90614134565b600160a060020a0381166127725760405160e560020a62461bcd0281526004016107bb90613cdd565b61277b81612adc565b50565b60116020526000908152604090205481565b600854600160a060020a031681565b336127a957600080fd5b600a543410156127b857600080fd5b60006127c3826131cf565b905060006127d16013612b53565b6127dc606484614638565b6127e6908461457c565b6127f091906143d0565b6127fb9060016143d0565b905061280a8382600080612ba6565b600854600a54604051600160a060020a039092169181156108fc0291906000818181858888f193505050501580156122ba573d6000803e3d6000fd5b600160e060020a031981167f01ffc9a70000000000000000000000000000000000000000000000000000000014919050565b600090815260026020526040902054600160a060020a0316151590565b3390565b6000818152600460205260409020805473ffffffffffffffffffffffffffffffffffffffff1916600160a060020a03841690811790915581906128db82610ec3565b600160a060020a03167f8c5be1e5ebec7d5bd14f71427d1e84f3dd0314c0f7b2291e5b200ac8c7c3b92560405160405180910390a45050565b600061291f82612878565b61293e5760405160e560020a62461bcd0281526004016107bb90613e3c565b600061294983610ec3565b905080600160a060020a031684600160a060020a03161480612984575083600160a060020a031661297984610791565b600160a060020a0316145b80612994575061299481856126d9565b949350505050565b82600160a060020a03166129af82610ec3565b600160a060020a0316146129d85760405160e560020a62461bcd0281526004016107bb90614169565b600160a060020a038216612a015760405160e560020a62461bcd0281526004016107bb90613da8565b612a0c838383610879565b612a17600082612899565b600160a060020a0383166000908152600360205260408120805460019290612a4090849061457c565b9091555050600160a060020a0382166000908152600360205260408120805460019290612a6e9084906143d0565b9091555050600081815260026020526040808220805473ffffffffffffffffffffffffffffffffffffffff1916600160a060020a0386811691821790925591518493918716917fddf252ad1be2c89b69c2b068fc378daa952ba7f163c4a11628f55a4df523b3ef91a4505050565b60068054600160a060020a0383811673ffffffffffffffffffffffffffffffffffffffff19831681179093556040519116919082907f8be0079c531659141344cd1fd0a4f28419497f9722a3daafe3b4186f6b6457e090600090a35050565b600401544260a060020a90910463ffffffff16111590565b600e805460009182612b64836145fd565b919050555060004233600e54604051602001612b82939291906139f6565b60408051601f19818403018152919052805160209091012090506124738382614638565b6000612bb3606485614638565b90506000612bc1600761320f565b6040805161016081018252888152602080820184905291810188905260006060820181905260ff86811660808401523360a084015260c0830182905263ffffffff421660e084015288811661010084015287166101208301526101408201819052601380546001810182559152815180519495509193849360069092027f66de8ffda797e3de9c05e8fc57b3bf0ec28a930d40b0d285d93c06501cf6a0900192612c6f928492910190613597565b5060208201516001820155604082015160028201556060820151600382018054608085015160a086015160ff1990921660ff9485161761ff00191661010091851682021775ffffffffffffffffffffffffffffffffffffffff0000191662010000600160a060020a03938416021790925560c085015160048501805460e08801519488015161012089015173ffffffffffffffffffffffffffffffffffffffff19909216939094169290921777ffffffff0000000000000000000000000000000000000000191660a060020a63ffffffff909516949094029390931778ff000000000000000000000000000000000000000000000000191660c060020a928516929092029190911779ff00000000000000000000000000000000000000000000000000191660c860020a919093160291909117905561014090910151600590910155612dbb3383613213565b612dc5600761322d565b33600160a060020a03167f589cd144bbd2fda6318230895eca43f6ea1a1b5b0464c4bc1221bdfc7fad884c8388604051612e009291906143b1565b60405180910390a250505050505050565b600381015460ff80821691604b61010090910490911610612eb15760005b60148160ff1611612eaf578160ff168160ff161415612e9d578060ff16600f54612e599190614534565b601054612e6c9063ffffffff16426143d0565b612e76919061457c565b8360040160146101000a81548163ffffffff021916908363ffffffff160217905550612eaf565b80612ea781614618565b915050612e2f565b505b6003820154603261010090910460ff1610801590612edc57506003820154604b61010090910460ff16105b15612f6e5760005b60148160ff1611612f6c578160ff168160ff161415612f5a578060ff16600f54612f0e9190614534565b601054612f2990640100000000900463ffffffff16426143d0565b612f33919061457c565b8360040160146101000a81548163ffffffff021916908363ffffffff160217905550612f6c565b80612f6481614618565b915050612ee4565b505b6003820154603261010090910460ff161015610a3b5760005b60148160ff1611610879578160ff168160ff161415613001578060ff16600f54612fb19190614534565b601054612fd09068010000000000000000900463ffffffff16426143d0565b612fda919061457c565b8360040160146101000a81548163ffffffff021916908363ffffffff160217905550610879565b8061300b81614618565b915050612f87565b61301e84848461299c565b61302a84848484613236565b6122ba5760405160e560020a62461bcd0281526004016107bb90613c49565b60408051602081019091526000815290565b60608161309c575060408051808201909152600181527f300000000000000000000000000000000000000000000000000000000000000060208201526106fa565b8160005b81156130c657806130b0816145fd565b91506130bf9050600a836143e8565b91506130a0565b60008167ffffffffffffffff8111156130f25760e060020a634e487b7102600052604160045260246000fd5b6040519080825280601f01601f19166020018201604052801561311c576020820181803683370190505b5090505b84156129945761313160018361457c565b915061313e600a86614638565b6131499060306143d0565b7f01000000000000000000000000000000000000000000000000000000000000000281838151811061318e5760e060020a634e487b7102600052603260045260246000fd5b60200101907effffffffffffffffffffffffffffffffffffffffffffffffffffffffffffff1916908160001a9053506131c8600a866143e8565b9450613120565b6000804233846040516020016131e7939291906139b1565b60408051601f1981840301815291905280516020909101206009549091506124739082614638565b5490565b610a3b828260405180602001604052806000815250613389565b80546001019055565b600061324a84600160a060020a03166133bf565b1561337e5783600160a060020a031663150b7a02613266612895565b8786866040518563ffffffff167c01000000000000000000000000000000000000000000000000000000000281526004016132a49493929190613a5c565b602060405180830381600087803b1580156132be57600080fd5b505af19250505080156132ee575060408051601f3d908101601f191682019092526132eb91810190613826565b60015b61334b573d80801561331c576040519150601f19603f3d011682016040523d82523d6000602084013e613321565b606091505b5080516133435760405160e560020a62461bcd0281526004016107bb90613c49565b805181602001fd5b600160e060020a0319167f150b7a0200000000000000000000000000000000000000000000000000000000149050612994565b506001949350505050565b61339383836133c5565b6133a06000848484613236565b6108795760405160e560020a62461bcd0281526004016107bb90613c49565b3b151590565b600160a060020a0382166133ee5760405160e560020a62461bcd0281526004016107bb90614045565b6133f781612878565b156134175760405160e560020a62461bcd0281526004016107bb90613d3a565b61342360008383610879565b600160a060020a038216600090815260036020526040812080546001929061344c9084906143d0565b9091555050600081815260026020526040808220805473ffffffffffffffffffffffffffffffffffffffff1916600160a060020a03861690811790915590518392907fddf252ad1be2c89b69c2b068fc378daa952ba7f163c4a11628f55a4df523b3ef908290a45050565b6040805161016081018252606080825260006020830181905292820183905281018290526080810182905260a0810182905260c0810182905260e081018290526101008101829052610120810182905261014081019190915290565b82805461351f906145bf565b90600052602060002090601f0160209004810192826135415760008555613587565b82601f1061355a5782800160ff19823516178555613587565b82800160010185558215613587579182015b8281111561358757823582559160200191906001019061356c565b5061359392915061360b565b5090565b8280546135a3906145bf565b90600052602060002090601f0160209004810192826135c55760008555613587565b82601f106135de57805160ff1916838001178555613587565b82800160010185558215613587579182015b828111156135875782518255916020019190600101906135f0565b5b80821115613593576000815560010161360c565b600067ffffffffffffffff8084111561363b5761363b6146a0565b604051601f8501601f19168101602001828111828210171561365f5761365f6146a0565b60405284815291508183850186101561367757600080fd5b8484602083013760006020868301015250509392505050565b8035600160a060020a03811681146106fa57600080fd5b6000602082840312156136b8578081fd5b61247382613690565b600080604083850312156136d3578081fd5b6136dc83613690565b91506136ea60208401613690565b90509250929050565b600080600060608486031215613707578081fd5b61371084613690565b925061371e60208501613690565b9150604084013590509250925092565b60008060008060808587031215613743578081fd5b61374c85613690565b935061375a60208601613690565b925060408501359150606085013567ffffffffffffffff81111561377c578182fd5b8501601f8101871361378c578182fd5b61379b87823560208401613620565b91505092959194509250565b600080604083850312156137b9578182fd5b6137c283613690565b9150602083013580151581146137d6578182fd5b809150509250929050565b600080604083850312156137f3578182fd5b6137fc83613690565b946020939093013593505050565b60006020828403121561381b578081fd5b8135612473816146b9565b600060208284031215613837578081fd5b8151612473816146b9565b600060208284031215613853578081fd5b813567ffffffffffffffff811115613869578182fd5b8201601f81018413613879578182fd5b61299484823560208401613620565b600060208284031215613899578081fd5b5035919050565b6000806000604084860312156138b4578283fd5b83359250602084013567ffffffffffffffff808211156138d2578384fd5b818601915086601f8301126138e5578384fd5b8135818111156138f3578485fd5b876020828501011115613904578485fd5b6020830194508093505050509250925092565b60008060408385031215613929578182fd5b50508035926020909101359150565b600160a060020a03169052565b6000815180845261395d816020860160208601614593565b601f01601f19169290920160200192915050565b63ffffffff169052565b60ff169052565b60008351613994818460208801614593565b8351908301906139a8818360208801614593565b01949350505050565b60008482526c01000000000000000000000000600160a060020a03851602602083015282516139e7816034850160208701614593565b91909101603401949350505050565b928352600160a060020a03919091166c01000000000000000000000000026020830152603482015260540190565b600160a060020a0391909116815260200190565b600160a060020a039384168152919092166020820152604081019190915260600190565b6000600160a060020a03808716835280861660208401525083604083015260806060830152613a8e6080830184613945565b9695505050505050565b60208082528251828201819052600091906040908185019080840286018301878501865b83811015613ba357603f1989840301855281516101608151818652613ae382870182613945565b91505088820151898601528782015188860152606080830151613b088288018261397b565b5050608080830151613b1c8288018261397b565b505060a080830151613b3082880182613938565b505060c080830151613b4482880182613938565b505060e080830151613b5882880182613971565b505061010080830151613b6d8288018261397b565b505061012080830151613b828288018261397b565b50506101409182015194909101939093529386019390860190600101613abc565b509098975050505050505050565b901515815260200190565b6000602082526124736020830184613945565b6000610160808352613be38184018f613945565b602084019d909d525050604081019990995260ff97881660608a01529587166080890152600160a060020a0394851660a08901529290931660c087015263ffffffff1660e086015290831661010085015290911661012083015261014090910152919050565b60208082526032908201527f4552433732313a207472616e7366657220746f206e6f6e20455243373231526560408201527f63656976657220696d706c656d656e7465720000000000000000000000000000606082015260800190565b6020808252601a908201527f5468697320746f6b656e206973206e6f7420666f722073616c65000000000000604082015260600190565b60208082526026908201527f4f776e61626c653a206e6577206f776e657220697320746865207a65726f206160408201527f6464726573730000000000000000000000000000000000000000000000000000606082015260800190565b6020808252601c908201527f4552433732313a20746f6b656e20616c7265616479206d696e74656400000000604082015260600190565b6020808252600f908201527f4272656564206e6f742072656564790000000000000000000000000000000000604082015260600190565b60208082526024908201527f4552433732313a207472616e7366657220746f20746865207a65726f2061646460408201527f7265737300000000000000000000000000000000000000000000000000000000606082015260800190565b60208082526019908201527f4552433732313a20617070726f766520746f2063616c6c657200000000000000604082015260600190565b6020808252602c908201527f4552433732313a206f70657261746f7220717565727920666f72206e6f6e657860408201527f697374656e7420746f6b656e0000000000000000000000000000000000000000606082015260800190565b60208082526038908201527f4552433732313a20617070726f76652063616c6c6572206973206e6f74206f7760408201527f6e6572206e6f7220617070726f76656420666f7220616c6c0000000000000000606082015260800190565b6020808252602a908201527f4552433732313a2062616c616e636520717565727920666f7220746865207a6560408201527f726f206164647265737300000000000000000000000000000000000000000000606082015260800190565b60208082526029908201527f4552433732313a206f776e657220717565727920666f72206e6f6e657869737460408201527f656e7420746f6b656e0000000000000000000000000000000000000000000000606082015260800190565b60208082526011908201527f4272656564206e6f742072656164792021000000000000000000000000000000604082015260600190565b602080825260409082018190527f506c65617365207375626d6974207468652061736b696e672070726963652069908201527f6e206f7264657220746f20636f6d706c65746520746865207075726368617365606082015260800190565b6020808252818101527f4552433732313a206d696e7420746f20746865207a65726f2061646472657373604082015260600190565b6020808252602c908201527f4552433732313a20617070726f76656420717565727920666f72206e6f6e657860408201527f697374656e7420746f6b656e0000000000000000000000000000000000000000606082015260800190565b60208082526027908201527f5468652070726f64756374206265696e6720736f6c642063616e6e6f7420626560408201527f206d617465642100000000000000000000000000000000000000000000000000606082015260800190565b6020808252818101527f4f776e61626c653a2063616c6c6572206973206e6f7420746865206f776e6572604082015260600190565b60208082526029908201527f4552433732313a207472616e73666572206f6620746f6b656e2074686174206960408201527f73206e6f74206f776e0000000000000000000000000000000000000000000000606082015260800190565b6020808252602f908201527f4552433732314d657461646174613a2055524920717565727920666f72206e6f60408201527f6e6578697374656e7420746f6b656e0000000000000000000000000000000000606082015260800190565b60208082526021908201527f4552433732313a20617070726f76616c20746f2063757272656e74206f776e6560408201527f7200000000000000000000000000000000000000000000000000000000000000606082015260800190565b60208082526017908201527f4e6f74206f776e6572206f66207468697320746f6b656e000000000000000000604082015260600190565b60208082526024908201527f5072696365206d75737420626520657175616c20746f206c697374696e67207060408201527f7269636500000000000000000000000000000000000000000000000000000000606082015260800190565b60208082526031908201527f4552433732313a207472616e736665722063616c6c6572206973206e6f74206f60408201527f776e6572206e6f7220617070726f766564000000000000000000000000000000606082015260800190565b6020808252601c908201527f5072696365206d757374206265206174206c6561737420312077656900000000604082015260600190565b90815260200190565b918252602082015260400190565b63ffffffff91909116815260200190565b600082198211156143e3576143e361466e565b500190565b6000826143f7576143f7614687565b500490565b600060ff83168061440f5761440f614687565b8060ff84160491505092915050565b80825b6001808611614430575061445d565b8187048211156144425761444261466e565b8086161561444f57918102915b506002909404938002614421565b94509492505050565b6000612473600019848460008261447f57506001612473565b8161448c57506000612473565b81600181146144a257600281146144ac576144d9565b6001915050612473565b60ff8411156144bd576144bd61466e565b8360020a9150848211156144d3576144d361466e565b50612473565b5060208310610133831016604e8410600b841016171561450c575081810a838111156145075761450761466e565b612473565b614519848484600161441e565b80860482111561452b5761452b61466e565b02949350505050565b600081600019048311821515161561454e5761454e61466e565b500290565b600060ff821660ff84168160ff04811182151516156145745761457461466e565b029392505050565b60008282101561458e5761458e61466e565b500390565b60005b838110156145ae578181015183820152602001614596565b838111156122ba5750506000910152565b6002810460018216806145d357607f821691505b602082108114156145f75760e060020a634e487b7102600052602260045260246000fd5b50919050565b60006000198214156146115761461161466e565b5060010190565b600060ff821660ff81141561462f5761462f61466e565b60010192915050565b60008261464757614647614687565b500690565b600060ff83168061465f5761465f614687565b8060ff84160691505092915050565b60e060020a634e487b7102600052601160045260246000fd5b60e060020a634e487b7102600052601260045260246000fd5b60e060020a634e487b7102600052604160045260246000fd5b600160e060020a03198116811461277b57600080fdfea2646970667358221220512bd1122b0c131125546da3eef5a2fd7bc8e6efacca707e4f64bb6e9ecf81ec64736f6c63430008000033",
  "immutableReferences": {},
  "source": "// SPDX-License-Identifier: MIT\r\n\r\npragma solidity ^0.8.0;\r\n\r\nimport \"@openzeppelin/contracts/token/ERC721/ERC721.sol\";\r\nimport \"@openzeppelin/contracts/access/Ownable.sol\";\r\nimport \"@openzeppelin/contracts/utils/Counters.sol\";\r\n\r\ncontract TruffleFactory is ERC721, Ownable {\r\n    using Counters for Counters.Counter;\r\n    using Strings for uint256;\r\n    Counters.Counter _tokenIds;\r\n\r\n    address public admin;\r\n    uint256 DNA_MOD = 10**16;\r\n    uint256 fee = 0.025 ether;\r\n    uint256 levelUpFee = 0.001 ether;\r\n    uint256 breedFee = 0.01 ether;\r\n    uint256 sellFee = 0.001 ether;\r\n    uint256 randNonce = 0;\r\n    uint256 lostTime = 30 minutes;\r\n    uint32[3] public cooldowns = [\r\n        uint32(12 hours),\r\n        uint32(18 hours),\r\n        uint32(1 days)\r\n    ];\r\n\r\n    mapping(uint256 => uint256) public tokenIdToPrice;\r\n    mapping(uint256 => string) _tokenURIs;\r\n\r\n    constructor() ERC721(\"Truffle\", \"TFT\") {\r\n        admin = msg.sender;\r\n    }\r\n\r\n    struct Truffle {\r\n        string name;\r\n        uint256 id;\r\n        uint256 dna;\r\n        uint8 level;\r\n        uint8 rarity;\r\n        address currentOwner;\r\n        address previousOwner;\r\n        uint32 readyTime;\r\n        uint8 dadId;\r\n        uint8 mumId;\r\n        uint256 sell;\r\n    }\r\n\r\n    Truffle[] public truffles;\r\n\r\n    event NewTruffle(address indexed owner, uint256 id, uint256 dna);\r\n    event BuyTruffle(address _seller, address _buyer, uint256 _price);\r\n\r\n    function getFee() public view returns (uint256) {\r\n        return fee;\r\n    }\r\n\r\n    function FreeLeveUp() public view returns (uint256) {\r\n        return levelUpFee;\r\n    }\r\n\r\n    function getFeeBreed() public view returns (uint256) {\r\n        return breedFee;\r\n    }\r\n\r\n    function _setTokenURI(uint256 tokenId, string memory _tokenURI) internal {\r\n        _tokenURIs[tokenId] = _tokenURI;\r\n    }\r\n\r\n    function _createRandomDna(string memory _mod)\r\n        internal\r\n        view\r\n        returns (uint256)\r\n    {\r\n        uint256 randomNum = uint256(\r\n            keccak256(abi.encodePacked(block.timestamp, msg.sender, _mod))\r\n        );\r\n        return randomNum % DNA_MOD;\r\n    }\r\n\r\n    function _createTruffle(\r\n        string memory _name,\r\n        uint256 _dna,\r\n        uint8 dadId,\r\n        uint8 mumId\r\n    ) internal {\r\n        uint8 randRarity = uint8(_dna % 100);\r\n\r\n        uint256 newId = _tokenIds.current();\r\n\r\n        Truffle memory newTruffle = Truffle(\r\n            _name,\r\n            newId,\r\n            _dna,\r\n            0,\r\n            randRarity,\r\n            msg.sender,\r\n            address(0),\r\n            uint32(block.timestamp),\r\n            dadId,\r\n            mumId,\r\n            0\r\n        );\r\n        truffles.push(newTruffle);\r\n        _safeMint(msg.sender, newId);\r\n        _tokenIds.increment();\r\n\r\n        emit NewTruffle(msg.sender, newId, _dna);\r\n    }\r\n\r\n    function createRandomTruffle(string memory _name) public payable {\r\n        require(msg.sender != address(0));\r\n        require(msg.value >= fee);\r\n        uint256 randDna = _createRandomDna(_name);\r\n        uint256 newDna = randDna - (randDna % 100) + randMod(19) + 1;\r\n        _createTruffle(_name, newDna, 0, 0);\r\n        payable(admin).transfer(fee); \r\n    }\r\n\r\n    function getTruffle() public view returns (Truffle[] memory) {\r\n        return truffles;\r\n    }\r\n\r\n    function getOwnerTruffles(address _owner)\r\n        public\r\n        view\r\n        returns (Truffle[] memory)\r\n    {\r\n        Truffle[] memory result = new Truffle[](balanceOf(_owner));\r\n        uint256 counter = 0;\r\n        for (uint256 i = 0; i < truffles.length; i++) {\r\n            if (ownerOf(i) == _owner) {\r\n                result[counter] = truffles[i];\r\n                counter++;\r\n            }\r\n        }\r\n        return result;\r\n    }\r\n\r\n    function randMod(uint256 _modulus) internal returns (uint256) {\r\n        randNonce++;\r\n        uint256 randomNum2 = uint256(\r\n            keccak256(abi.encodePacked(block.timestamp, msg.sender, randNonce))\r\n        );\r\n        return randomNum2 % _modulus;\r\n    }\r\n\r\n    function updateFee(uint256 _fee) external onlyOwner {\r\n        fee = _fee;\r\n    }\r\n\r\n    function updateFeeLevelUp(uint256 _feeLevelUp) external onlyOwner {\r\n        levelUpFee = _feeLevelUp;\r\n    }\r\n\r\n    function withdraw() external payable onlyOwner {\r\n        address payable _owner = payable(owner());\r\n        _owner.transfer(address(this).balance);\r\n    }\r\n\r\n    modifier aboveLevel(uint256 _level, uint256 _TruffleId) {\r\n        require(truffles[_TruffleId].level >= _level);\r\n        _;\r\n    }\r\n\r\n    function levelUp(uint256 _TruffleId) external payable {\r\n        require(msg.value == levelUpFee);\r\n        require(ownerOf(_TruffleId) == msg.sender);\r\n        Truffle storage truffle = truffles[_TruffleId];\r\n        require(truffle.level < 20);\r\n        require(truffle.sell == 0);\r\n        truffle.level++;\r\n        payable(admin).transfer(levelUpFee); \r\n    }\r\n\r\n    function updateName(uint256 _TruffleId, string calldata _newName)\r\n        external\r\n        aboveLevel(2, _TruffleId)\r\n    {\r\n        require(ownerOf(_TruffleId) == msg.sender);\r\n        Truffle storage truffle = truffles[_TruffleId];\r\n        require(truffle.sell == 0);\r\n        truffles[_TruffleId].name = _newName;\r\n    }\r\n\r\n    function _triggerCooldown(Truffle storage _truffle) internal {\r\n        //hm kich hoat cooldown\r\n        uint8 levels = _truffle.level;\r\n        if (_truffle.rarity >= 75) {\r\n            for (uint8 i = 0; i <= 20; i++) {\r\n                if (i == levels) {\r\n                    _truffle.readyTime = uint32(\r\n                        block.timestamp + cooldowns[0] - (lostTime * i)\r\n                    );\r\n                    break;\r\n                }\r\n            }\r\n        }\r\n        if (_truffle.rarity >= 50 && _truffle.rarity < 75) {\r\n            for (uint8 i = 0; i <= 20; i++) {\r\n                if (i == levels) {\r\n                    _truffle.readyTime = uint32(\r\n                        block.timestamp + cooldowns[1] - (lostTime * i)\r\n                    );\r\n                    break;\r\n                }\r\n            }\r\n        }\r\n        if (_truffle.rarity < 50) {\r\n            for (uint8 i = 0; i <= 20; i++) {\r\n                if (i == levels) {\r\n                    _truffle.readyTime = uint32(\r\n                        block.timestamp + cooldowns[2] - (lostTime * i)\r\n                    );\r\n                    break;\r\n                }\r\n            }\r\n        }\r\n    }\r\n\r\n    function _isReady(Truffle storage _truffle) internal view returns (bool) {\r\n        return (_truffle.readyTime <= block.timestamp);\r\n    }\r\n\r\n    function BreedAndMultiply(uint256 _truffleId, uint256 _targetDna)\r\n        public\r\n        payable\r\n    {\r\n        require(msg.value == breedFee);\r\n        Truffle storage myTruffle = truffles[_truffleId];\r\n        Truffle storage myTargetDna = truffles[_targetDna];\r\n        require(_truffleId != _targetDna);\r\n        require(ownerOf(_truffleId) == msg.sender);\r\n        require(ownerOf(_targetDna) == msg.sender);\r\n        require(_isReady(myTruffle),\"Breed not ready !\");\r\n        require(_isReady(myTargetDna),\"Breed not ready !\");\r\n        require(myTruffle.sell == 0,\"The product being sold cannot be mated!\");\r\n        require(myTargetDna.sell == 0, \"The product being sold cannot be mated!\");\r\n        \r\n        uint8 dadId = uint8(myTruffle.id);\r\n        uint8 mumId = uint8(myTargetDna.id);\r\n\r\n        uint8 valueRarity = uint8(myTruffle.dna % 100);\r\n        uint8 valueRarity2 = uint8(myTargetDna.dna % 100);\r\n        uint8 valueRarity3 = uint8(\r\n            valueRarity +\r\n                randMod(valueRarity) +\r\n                valueRarity2 -\r\n                randMod(valueRarity2)\r\n        ) / 2;\r\n        uint8 valueRarity4 = uint8((valueRarity3 * 15) / 100);\r\n\r\n        uint256 number = valueRarity % 10;\r\n        uint256 number2 = valueRarity2 % 10;\r\n        uint256 newDna;\r\n        uint256 rand = randMod(100);\r\n        require(valueRarity < 99 && valueRarity2 < 99);\r\n        if (valueRarity <= 60 && valueRarity2 <= 60) {\r\n            if (valueRarity <= 20 && valueRarity2 <= 20) {\r\n                if (rand >= 50) {\r\n                    if (valueRarity >= valueRarity2) {\r\n                        uint256 algorithm = ((myTruffle.dna + myTargetDna.dna) *\r\n                            (4**number)) / (5**number);\r\n                        newDna =\r\n                            algorithm -\r\n                            (algorithm % 100) +\r\n                            valueRarity +\r\n                            randMod(10);\r\n                    } else {\r\n                        uint256 algorithm = ((myTruffle.dna + myTargetDna.dna) *\r\n                            (4**number2)) / (5**number2);\r\n                        newDna =\r\n                            algorithm -\r\n                            (algorithm % 100) +\r\n                            valueRarity2 +\r\n                            randMod(10);\r\n                    }\r\n                } else {\r\n                    uint256 algorithm = ((myTruffle.dna + myTargetDna.dna) *\r\n                        (4**number)) / (5**number);\r\n                    newDna = algorithm - (algorithm % 100) + valueRarity3;\r\n                }\r\n            } else {\r\n                if (rand >= 60) {\r\n                    if (valueRarity >= valueRarity2) {\r\n                        uint256 algorithm = ((myTruffle.dna + myTargetDna.dna) *\r\n                            (4**number)) / (5**number);\r\n                        newDna =\r\n                            algorithm -\r\n                            (algorithm % 100) +\r\n                            valueRarity +\r\n                            randMod(10);\r\n                    } else {\r\n                        uint256 algorithm = ((myTruffle.dna + myTargetDna.dna) *\r\n                            (4**number2)) / (5**number2);\r\n                        newDna =\r\n                            algorithm -\r\n                            (algorithm % 100) +\r\n                            valueRarity2 +\r\n                            randMod(10);\r\n                    }\r\n                } else {\r\n                    uint256 algorithm = ((myTruffle.dna + myTargetDna.dna) *\r\n                        (4**number)) / (5**number);\r\n                    newDna =\r\n                        algorithm -\r\n                        (algorithm % 100) +\r\n                        valueRarity3 +\r\n                        valueRarity4;\r\n                }\r\n            }\r\n        }\r\n        if (valueRarity > 60 && valueRarity2 > 60) {\r\n            if (rand >= 70) {\r\n                if (valueRarity >= valueRarity2) {\r\n                    uint256 algorithm = ((myTruffle.dna + myTargetDna.dna) *\r\n                        (4**number)) / (5**number);\r\n                    newDna =\r\n                        algorithm -\r\n                        (algorithm % 100) +\r\n                        valueRarity +\r\n                        randMod(8);\r\n                } else {\r\n                    uint256 algorithm = ((myTruffle.dna + myTargetDna.dna) *\r\n                        (4**number2)) / (5**number2);\r\n                    newDna =\r\n                        algorithm -\r\n                        (algorithm % 100) +\r\n                        valueRarity2 +\r\n                        randMod(8);\r\n                }\r\n            } else {\r\n                uint256 algorithm = ((myTruffle.dna + myTargetDna.dna) *\r\n                    (4**number)) / (5**number);\r\n                newDna = algorithm - (algorithm % 100) + valueRarity3;\r\n            }\r\n        }\r\n        if (valueRarity > 60 && valueRarity2 <= 60) {\r\n            if (rand >= 80) {\r\n                uint256 algorithm = ((myTruffle.dna + myTargetDna.dna) *\r\n                    (4**number)) / (5**number);\r\n                newDna =\r\n                    algorithm -\r\n                    (algorithm % 100) +\r\n                    valueRarity +\r\n                    randMod(7);\r\n            } else {\r\n                uint256 algorithm = ((myTruffle.dna + myTargetDna.dna) *\r\n                    (4**number)) / (5**number);\r\n                newDna = algorithm - (algorithm % 100) + valueRarity3;\r\n            }\r\n        }\r\n        if (valueRarity <= 60 && valueRarity2 > 60) {\r\n            if (rand >= 80) {\r\n                uint256 algorithm = ((myTruffle.dna + myTargetDna.dna) *\r\n                    (4**number2)) / (5**number2);\r\n                newDna =\r\n                    algorithm -\r\n                    (algorithm % 100) +\r\n                    valueRarity2 +\r\n                    randMod(8);\r\n            } else {\r\n                uint256 algorithm = ((myTruffle.dna + myTargetDna.dna) *\r\n                    (4**number2)) / (5**number2);\r\n                newDna = algorithm - (algorithm % 100) + valueRarity3;\r\n            }\r\n        }\r\n\r\n        _createTruffle(\"New Truffle\", newDna, dadId, mumId);\r\n        _triggerCooldown(myTruffle);\r\n        _triggerCooldown(myTargetDna);\r\n        payable(admin).transfer(breedFee); \r\n    }\r\n\r\n    function allowBuy(uint256 _tokenId, uint256 _price) external payable {\r\n        require(msg.sender == ownerOf(_tokenId), \"Not owner of this token\");\r\n        require(msg.value >= sellFee,\"Price must be equal to listing price\");\r\n        require(_price > 0, \"Price must be at least 1 wei\");\r\n        Truffle storage myTokenID = truffles[_tokenId];\r\n        require(_isReady(myTokenID), \"Breed not reedy\");\r\n        tokenIdToPrice[_tokenId] = _price;\r\n        Truffle storage myTruffle = truffles[_tokenId];\r\n        myTruffle.sell = _price;\r\n    }\r\n\r\n    function disallowBuy(uint256 _tokenId) external {\r\n        require(msg.sender == ownerOf(_tokenId), \"Not owner of this token\");\r\n        tokenIdToPrice[_tokenId] = 0;\r\n        Truffle storage myTruffle = truffles[_tokenId];\r\n        myTruffle.sell = 0;\r\n    }\r\n\r\n    function buy(uint256 _tokenId) external payable {\r\n        uint256 price = tokenIdToPrice[_tokenId];\r\n        require(price > 0, \"This token is not for sale\");\r\n        require(\r\n            msg.value == price,\r\n            \"Please submit the asking price in order to complete the purchase\"\r\n        );\r\n\r\n        address seller = ownerOf(_tokenId);\r\n\r\n        _transfer(seller, msg.sender, _tokenId);\r\n        tokenIdToPrice[_tokenId] = 0; // not for sale anymore\r\n        Truffle storage myTruffle = truffles[_tokenId];\r\n        myTruffle.sell = 0;\r\n        payable(seller).transfer(msg.value); // send the ETH to the seller\r\n        payable(admin).transfer(sellFee); \r\n        // update the token's previous owner\r\n        myTruffle.previousOwner = myTruffle.currentOwner;\r\n        // update the token's current owner\r\n        myTruffle.currentOwner = msg.sender;\r\n\r\n        emit BuyTruffle(seller, msg.sender, msg.value);\r\n    }\r\n\r\n    function getAllTruffleSell() public view returns (Truffle[] memory) {\r\n        uint256 counter = 0;\r\n        uint256 itemCount = 0;\r\n        for (uint256 i = 0; i < truffles.length; i++) {\r\n            if (truffles[i].sell > 0) {\r\n                itemCount += 1;\r\n            }\r\n        }\r\n        Truffle[] memory truffleSell = new Truffle[](itemCount);\r\n        for (uint256 i = 0; i < truffles.length; i++) {\r\n            if (truffles[i].sell > 0) {\r\n                truffleSell[counter] = truffles[i];\r\n                counter++;\r\n            }\r\n        }\r\n        return truffleSell;\r\n    }\r\n\r\n    function getOwnerTrufflesSell(address _owner) public view returns (Truffle[] memory) {\r\n        uint256 counter = 0;\r\n        uint itemCount = 0;\r\n        for (uint i = 0; i < truffles.length; i++) {\r\n          if (ownerOf(i) == _owner && truffles[i].sell > 0) {\r\n                itemCount += 1;\r\n            }\r\n        }\r\n        Truffle[] memory result = new Truffle[](itemCount);\r\n        for (uint256 i = 0; i < truffles.length; i++) {\r\n            if (ownerOf(i) == _owner && truffles[i].sell > 0) {\r\n                result[counter] = truffles[i];\r\n                counter++;\r\n            }\r\n        }\r\n        return result;\r\n    }\r\n}\r\n",
  "sourcePath": "D:\\DAPP\\project-game\\project-game-truffle\\contracts\\TruffleFactory.sol",
  "compiler": {
    "name": "solc",
    "version": "0.8.0+commit.c7dfd78e.Emscripten.clang"
  },
  "schemaVersion": "3.4.3",
  "updatedAt": "2021-12-05T01:08:28.903Z",
  "networkType": "ethereum",
  "devdoc": {
    "kind": "dev",
    "methods": {
      "approve(address,uint256)": {
        "details": "See {IERC721-approve}."
      },
      "balanceOf(address)": {
        "details": "See {IERC721-balanceOf}."
      },
      "getApproved(uint256)": {
        "details": "See {IERC721-getApproved}."
      },
      "isApprovedForAll(address,address)": {
        "details": "See {IERC721-isApprovedForAll}."
      },
      "name()": {
        "details": "See {IERC721Metadata-name}."
      },
      "owner()": {
        "details": "Returns the address of the current owner."
      },
      "ownerOf(uint256)": {
        "details": "See {IERC721-ownerOf}."
      },
      "renounceOwnership()": {
        "details": "Leaves the contract without owner. It will not be possible to call `onlyOwner` functions anymore. Can only be called by the current owner. NOTE: Renouncing ownership will leave the contract without an owner, thereby removing any functionality that is only available to the owner."
      },
      "safeTransferFrom(address,address,uint256)": {
        "details": "See {IERC721-safeTransferFrom}."
      },
      "safeTransferFrom(address,address,uint256,bytes)": {
        "details": "See {IERC721-safeTransferFrom}."
      },
      "setApprovalForAll(address,bool)": {
        "details": "See {IERC721-setApprovalForAll}."
      },
      "supportsInterface(bytes4)": {
        "details": "See {IERC165-supportsInterface}."
      },
      "symbol()": {
        "details": "See {IERC721Metadata-symbol}."
      },
      "tokenURI(uint256)": {
        "details": "See {IERC721Metadata-tokenURI}."
      },
      "transferFrom(address,address,uint256)": {
        "details": "See {IERC721-transferFrom}."
      },
      "transferOwnership(address)": {
        "details": "Transfers ownership of the contract to a new account (`newOwner`). Can only be called by the current owner."
      }
    },
    "version": 1
  },
  "userdoc": {
    "kind": "user",
    "methods": {},
    "version": 1
  }
}