{
  "contractName": "TruffleFactory",
  "abi": [
    {
      "inputs": [],
      "stateMutability": "nonpayable",
      "type": "constructor"
    },
    {
      "anonymous": false,
      "inputs": [
        {
          "indexed": true,
          "internalType": "address",
          "name": "owner",
          "type": "address"
        },
        {
          "indexed": true,
          "internalType": "address",
          "name": "approved",
          "type": "address"
        },
        {
          "indexed": true,
          "internalType": "uint256",
          "name": "tokenId",
          "type": "uint256"
        }
      ],
      "name": "Approval",
      "type": "event"
    },
    {
      "anonymous": false,
      "inputs": [
        {
          "indexed": true,
          "internalType": "address",
          "name": "owner",
          "type": "address"
        },
        {
          "indexed": true,
          "internalType": "address",
          "name": "operator",
          "type": "address"
        },
        {
          "indexed": false,
          "internalType": "bool",
          "name": "approved",
          "type": "bool"
        }
      ],
      "name": "ApprovalForAll",
      "type": "event"
    },
    {
      "anonymous": false,
      "inputs": [
        {
          "indexed": false,
          "internalType": "address",
          "name": "_seller",
          "type": "address"
        },
        {
          "indexed": false,
          "internalType": "address",
          "name": "_buyer",
          "type": "address"
        },
        {
          "indexed": false,
          "internalType": "uint256",
          "name": "_price",
          "type": "uint256"
        }
      ],
      "name": "BuyTruffle",
      "type": "event"
    },
    {
      "anonymous": false,
      "inputs": [
        {
          "indexed": true,
          "internalType": "address",
          "name": "owner",
          "type": "address"
        },
        {
          "indexed": false,
          "internalType": "uint256",
          "name": "id",
          "type": "uint256"
        },
        {
          "indexed": false,
          "internalType": "uint256",
          "name": "dna",
          "type": "uint256"
        }
      ],
      "name": "NewTruffle",
      "type": "event"
    },
    {
      "anonymous": false,
      "inputs": [
        {
          "indexed": true,
          "internalType": "address",
          "name": "previousOwner",
          "type": "address"
        },
        {
          "indexed": true,
          "internalType": "address",
          "name": "newOwner",
          "type": "address"
        }
      ],
      "name": "OwnershipTransferred",
      "type": "event"
    },
    {
      "anonymous": false,
      "inputs": [
        {
          "indexed": true,
          "internalType": "address",
          "name": "from",
          "type": "address"
        },
        {
          "indexed": true,
          "internalType": "address",
          "name": "to",
          "type": "address"
        },
        {
          "indexed": true,
          "internalType": "uint256",
          "name": "tokenId",
          "type": "uint256"
        }
      ],
      "name": "Transfer",
      "type": "event"
    },
    {
      "inputs": [],
      "name": "admin",
      "outputs": [
        {
          "internalType": "address",
          "name": "",
          "type": "address"
        }
      ],
      "stateMutability": "view",
      "type": "function",
      "constant": true
    },
    {
      "inputs": [
        {
          "internalType": "address",
          "name": "to",
          "type": "address"
        },
        {
          "internalType": "uint256",
          "name": "tokenId",
          "type": "uint256"
        }
      ],
      "name": "approve",
      "outputs": [],
      "stateMutability": "nonpayable",
      "type": "function"
    },
    {
      "inputs": [
        {
          "internalType": "address",
          "name": "owner",
          "type": "address"
        }
      ],
      "name": "balanceOf",
      "outputs": [
        {
          "internalType": "uint256",
          "name": "",
          "type": "uint256"
        }
      ],
      "stateMutability": "view",
      "type": "function",
      "constant": true
    },
    {
      "inputs": [
        {
          "internalType": "uint256",
          "name": "",
          "type": "uint256"
        }
      ],
      "name": "cooldowns",
      "outputs": [
        {
          "internalType": "uint32",
          "name": "",
          "type": "uint32"
        }
      ],
      "stateMutability": "view",
      "type": "function",
      "constant": true
    },
    {
      "inputs": [
        {
          "internalType": "uint256",
          "name": "tokenId",
          "type": "uint256"
        }
      ],
      "name": "getApproved",
      "outputs": [
        {
          "internalType": "address",
          "name": "",
          "type": "address"
        }
      ],
      "stateMutability": "view",
      "type": "function",
      "constant": true
    },
    {
      "inputs": [
        {
          "internalType": "address",
          "name": "owner",
          "type": "address"
        },
        {
          "internalType": "address",
          "name": "operator",
          "type": "address"
        }
      ],
      "name": "isApprovedForAll",
      "outputs": [
        {
          "internalType": "bool",
          "name": "",
          "type": "bool"
        }
      ],
      "stateMutability": "view",
      "type": "function",
      "constant": true
    },
    {
      "inputs": [],
      "name": "name",
      "outputs": [
        {
          "internalType": "string",
          "name": "",
          "type": "string"
        }
      ],
      "stateMutability": "view",
      "type": "function",
      "constant": true
    },
    {
      "inputs": [],
      "name": "owner",
      "outputs": [
        {
          "internalType": "address",
          "name": "",
          "type": "address"
        }
      ],
      "stateMutability": "view",
      "type": "function",
      "constant": true
    },
    {
      "inputs": [
        {
          "internalType": "uint256",
          "name": "tokenId",
          "type": "uint256"
        }
      ],
      "name": "ownerOf",
      "outputs": [
        {
          "internalType": "address",
          "name": "",
          "type": "address"
        }
      ],
      "stateMutability": "view",
      "type": "function",
      "constant": true
    },
    {
      "inputs": [],
      "name": "renounceOwnership",
      "outputs": [],
      "stateMutability": "nonpayable",
      "type": "function"
    },
    {
      "inputs": [
        {
          "internalType": "address",
          "name": "from",
          "type": "address"
        },
        {
          "internalType": "address",
          "name": "to",
          "type": "address"
        },
        {
          "internalType": "uint256",
          "name": "tokenId",
          "type": "uint256"
        }
      ],
      "name": "safeTransferFrom",
      "outputs": [],
      "stateMutability": "nonpayable",
      "type": "function"
    },
    {
      "inputs": [
        {
          "internalType": "address",
          "name": "from",
          "type": "address"
        },
        {
          "internalType": "address",
          "name": "to",
          "type": "address"
        },
        {
          "internalType": "uint256",
          "name": "tokenId",
          "type": "uint256"
        },
        {
          "internalType": "bytes",
          "name": "_data",
          "type": "bytes"
        }
      ],
      "name": "safeTransferFrom",
      "outputs": [],
      "stateMutability": "nonpayable",
      "type": "function"
    },
    {
      "inputs": [
        {
          "internalType": "address",
          "name": "operator",
          "type": "address"
        },
        {
          "internalType": "bool",
          "name": "approved",
          "type": "bool"
        }
      ],
      "name": "setApprovalForAll",
      "outputs": [],
      "stateMutability": "nonpayable",
      "type": "function"
    },
    {
      "inputs": [
        {
          "internalType": "bytes4",
          "name": "interfaceId",
          "type": "bytes4"
        }
      ],
      "name": "supportsInterface",
      "outputs": [
        {
          "internalType": "bool",
          "name": "",
          "type": "bool"
        }
      ],
      "stateMutability": "view",
      "type": "function",
      "constant": true
    },
    {
      "inputs": [],
      "name": "symbol",
      "outputs": [
        {
          "internalType": "string",
          "name": "",
          "type": "string"
        }
      ],
      "stateMutability": "view",
      "type": "function",
      "constant": true
    },
    {
      "inputs": [
        {
          "internalType": "uint256",
          "name": "",
          "type": "uint256"
        }
      ],
      "name": "tokenIdToPrice",
      "outputs": [
        {
          "internalType": "uint256",
          "name": "",
          "type": "uint256"
        }
      ],
      "stateMutability": "view",
      "type": "function",
      "constant": true
    },
    {
      "inputs": [
        {
          "internalType": "uint256",
          "name": "tokenId",
          "type": "uint256"
        }
      ],
      "name": "tokenURI",
      "outputs": [
        {
          "internalType": "string",
          "name": "",
          "type": "string"
        }
      ],
      "stateMutability": "view",
      "type": "function",
      "constant": true
    },
    {
      "inputs": [
        {
          "internalType": "address",
          "name": "from",
          "type": "address"
        },
        {
          "internalType": "address",
          "name": "to",
          "type": "address"
        },
        {
          "internalType": "uint256",
          "name": "tokenId",
          "type": "uint256"
        }
      ],
      "name": "transferFrom",
      "outputs": [],
      "stateMutability": "nonpayable",
      "type": "function"
    },
    {
      "inputs": [
        {
          "internalType": "address",
          "name": "newOwner",
          "type": "address"
        }
      ],
      "name": "transferOwnership",
      "outputs": [],
      "stateMutability": "nonpayable",
      "type": "function"
    },
    {
      "inputs": [
        {
          "internalType": "uint256",
          "name": "",
          "type": "uint256"
        }
      ],
      "name": "truffles",
      "outputs": [
        {
          "internalType": "string",
          "name": "name",
          "type": "string"
        },
        {
          "internalType": "uint256",
          "name": "id",
          "type": "uint256"
        },
        {
          "internalType": "uint256",
          "name": "dna",
          "type": "uint256"
        },
        {
          "internalType": "uint8",
          "name": "level",
          "type": "uint8"
        },
        {
          "internalType": "uint8",
          "name": "rarity",
          "type": "uint8"
        },
        {
          "internalType": "address",
          "name": "currentOwner",
          "type": "address"
        },
        {
          "internalType": "address",
          "name": "previousOwner",
          "type": "address"
        },
        {
          "internalType": "uint32",
          "name": "readyTime",
          "type": "uint32"
        },
        {
          "internalType": "uint256",
          "name": "birth",
          "type": "uint256"
        },
        {
          "internalType": "uint8",
          "name": "dadId",
          "type": "uint8"
        },
        {
          "internalType": "uint8",
          "name": "mumId",
          "type": "uint8"
        },
        {
          "internalType": "uint256",
          "name": "sell",
          "type": "uint256"
        }
      ],
      "stateMutability": "view",
      "type": "function",
      "constant": true
    },
    {
      "inputs": [],
      "name": "getFee",
      "outputs": [
        {
          "internalType": "uint256",
          "name": "",
          "type": "uint256"
        }
      ],
      "stateMutability": "view",
      "type": "function",
      "constant": true
    },
    {
      "inputs": [],
      "name": "FreeLeveUp",
      "outputs": [
        {
          "internalType": "uint256",
          "name": "",
          "type": "uint256"
        }
      ],
      "stateMutability": "view",
      "type": "function",
      "constant": true
    },
    {
      "inputs": [],
      "name": "getFeeBreed",
      "outputs": [
        {
          "internalType": "uint256",
          "name": "",
          "type": "uint256"
        }
      ],
      "stateMutability": "view",
      "type": "function",
      "constant": true
    },
    {
      "inputs": [
        {
          "internalType": "string",
          "name": "_name",
          "type": "string"
        }
      ],
      "name": "createRandomTruffle",
      "outputs": [],
      "stateMutability": "payable",
      "type": "function",
      "payable": true
    },
    {
      "inputs": [],
      "name": "getTruffle",
      "outputs": [
        {
          "components": [
            {
              "internalType": "string",
              "name": "name",
              "type": "string"
            },
            {
              "internalType": "uint256",
              "name": "id",
              "type": "uint256"
            },
            {
              "internalType": "uint256",
              "name": "dna",
              "type": "uint256"
            },
            {
              "internalType": "uint8",
              "name": "level",
              "type": "uint8"
            },
            {
              "internalType": "uint8",
              "name": "rarity",
              "type": "uint8"
            },
            {
              "internalType": "address",
              "name": "currentOwner",
              "type": "address"
            },
            {
              "internalType": "address",
              "name": "previousOwner",
              "type": "address"
            },
            {
              "internalType": "uint32",
              "name": "readyTime",
              "type": "uint32"
            },
            {
              "internalType": "uint256",
              "name": "birth",
              "type": "uint256"
            },
            {
              "internalType": "uint8",
              "name": "dadId",
              "type": "uint8"
            },
            {
              "internalType": "uint8",
              "name": "mumId",
              "type": "uint8"
            },
            {
              "internalType": "uint256",
              "name": "sell",
              "type": "uint256"
            }
          ],
          "internalType": "struct TruffleFactory.Truffle[]",
          "name": "",
          "type": "tuple[]"
        }
      ],
      "stateMutability": "view",
      "type": "function",
      "constant": true
    },
    {
      "inputs": [
        {
          "internalType": "address",
          "name": "_owner",
          "type": "address"
        }
      ],
      "name": "getOwnerTruffles",
      "outputs": [
        {
          "components": [
            {
              "internalType": "string",
              "name": "name",
              "type": "string"
            },
            {
              "internalType": "uint256",
              "name": "id",
              "type": "uint256"
            },
            {
              "internalType": "uint256",
              "name": "dna",
              "type": "uint256"
            },
            {
              "internalType": "uint8",
              "name": "level",
              "type": "uint8"
            },
            {
              "internalType": "uint8",
              "name": "rarity",
              "type": "uint8"
            },
            {
              "internalType": "address",
              "name": "currentOwner",
              "type": "address"
            },
            {
              "internalType": "address",
              "name": "previousOwner",
              "type": "address"
            },
            {
              "internalType": "uint32",
              "name": "readyTime",
              "type": "uint32"
            },
            {
              "internalType": "uint256",
              "name": "birth",
              "type": "uint256"
            },
            {
              "internalType": "uint8",
              "name": "dadId",
              "type": "uint8"
            },
            {
              "internalType": "uint8",
              "name": "mumId",
              "type": "uint8"
            },
            {
              "internalType": "uint256",
              "name": "sell",
              "type": "uint256"
            }
          ],
          "internalType": "struct TruffleFactory.Truffle[]",
          "name": "",
          "type": "tuple[]"
        }
      ],
      "stateMutability": "view",
      "type": "function",
      "constant": true
    },
    {
      "inputs": [
        {
          "internalType": "uint256",
          "name": "_fee",
          "type": "uint256"
        }
      ],
      "name": "updateFee",
      "outputs": [],
      "stateMutability": "nonpayable",
      "type": "function"
    },
    {
      "inputs": [
        {
          "internalType": "uint256",
          "name": "_feeLevelUp",
          "type": "uint256"
        }
      ],
      "name": "updateFeeLevelUp",
      "outputs": [],
      "stateMutability": "nonpayable",
      "type": "function"
    },
    {
      "inputs": [],
      "name": "withdraw",
      "outputs": [],
      "stateMutability": "payable",
      "type": "function",
      "payable": true
    },
    {
      "inputs": [
        {
          "internalType": "uint256",
          "name": "_TruffleId",
          "type": "uint256"
        }
      ],
      "name": "levelUp",
      "outputs": [],
      "stateMutability": "payable",
      "type": "function",
      "payable": true
    },
    {
      "inputs": [
        {
          "internalType": "uint256",
          "name": "_TruffleId",
          "type": "uint256"
        },
        {
          "internalType": "string",
          "name": "_newName",
          "type": "string"
        }
      ],
      "name": "updateName",
      "outputs": [],
      "stateMutability": "nonpayable",
      "type": "function"
    },
    {
      "inputs": [
        {
          "internalType": "uint256",
          "name": "_truffleId",
          "type": "uint256"
        },
        {
          "internalType": "uint256",
          "name": "_targetDna",
          "type": "uint256"
        }
      ],
      "name": "BreedAndMultiply",
      "outputs": [],
      "stateMutability": "payable",
      "type": "function",
      "payable": true
    },
    {
      "inputs": [
        {
          "internalType": "uint256",
          "name": "_tokenId",
          "type": "uint256"
        },
        {
          "internalType": "uint256",
          "name": "_price",
          "type": "uint256"
        }
      ],
      "name": "allowBuy",
      "outputs": [],
      "stateMutability": "payable",
      "type": "function",
      "payable": true
    },
    {
      "inputs": [
        {
          "internalType": "uint256",
          "name": "_tokenId",
          "type": "uint256"
        }
      ],
      "name": "disallowBuy",
      "outputs": [],
      "stateMutability": "nonpayable",
      "type": "function"
    },
    {
      "inputs": [
        {
          "internalType": "uint256",
          "name": "_tokenId",
          "type": "uint256"
        }
      ],
      "name": "buy",
      "outputs": [],
      "stateMutability": "payable",
      "type": "function",
      "payable": true
    },
    {
      "inputs": [],
      "name": "getAllTruffleSell",
      "outputs": [
        {
          "components": [
            {
              "internalType": "string",
              "name": "name",
              "type": "string"
            },
            {
              "internalType": "uint256",
              "name": "id",
              "type": "uint256"
            },
            {
              "internalType": "uint256",
              "name": "dna",
              "type": "uint256"
            },
            {
              "internalType": "uint8",
              "name": "level",
              "type": "uint8"
            },
            {
              "internalType": "uint8",
              "name": "rarity",
              "type": "uint8"
            },
            {
              "internalType": "address",
              "name": "currentOwner",
              "type": "address"
            },
            {
              "internalType": "address",
              "name": "previousOwner",
              "type": "address"
            },
            {
              "internalType": "uint32",
              "name": "readyTime",
              "type": "uint32"
            },
            {
              "internalType": "uint256",
              "name": "birth",
              "type": "uint256"
            },
            {
              "internalType": "uint8",
              "name": "dadId",
              "type": "uint8"
            },
            {
              "internalType": "uint8",
              "name": "mumId",
              "type": "uint8"
            },
            {
              "internalType": "uint256",
              "name": "sell",
              "type": "uint256"
            }
          ],
          "internalType": "struct TruffleFactory.Truffle[]",
          "name": "",
          "type": "tuple[]"
        }
      ],
      "stateMutability": "view",
      "type": "function",
      "constant": true
    },
    {
      "inputs": [
        {
          "internalType": "address",
          "name": "_owner",
          "type": "address"
        }
      ],
      "name": "getOwnerTrufflesSell",
      "outputs": [
        {
          "components": [
            {
              "internalType": "string",
              "name": "name",
              "type": "string"
            },
            {
              "internalType": "uint256",
              "name": "id",
              "type": "uint256"
            },
            {
              "internalType": "uint256",
              "name": "dna",
              "type": "uint256"
            },
            {
              "internalType": "uint8",
              "name": "level",
              "type": "uint8"
            },
            {
              "internalType": "uint8",
              "name": "rarity",
              "type": "uint8"
            },
            {
              "internalType": "address",
              "name": "currentOwner",
              "type": "address"
            },
            {
              "internalType": "address",
              "name": "previousOwner",
              "type": "address"
            },
            {
              "internalType": "uint32",
              "name": "readyTime",
              "type": "uint32"
            },
            {
              "internalType": "uint256",
              "name": "birth",
              "type": "uint256"
            },
            {
              "internalType": "uint8",
              "name": "dadId",
              "type": "uint8"
            },
            {
              "internalType": "uint8",
              "name": "mumId",
              "type": "uint8"
            },
            {
              "internalType": "uint256",
              "name": "sell",
              "type": "uint256"
            }
          ],
          "internalType": "struct TruffleFactory.Truffle[]",
          "name": "",
          "type": "tuple[]"
        }
      ],
      "stateMutability": "view",
      "type": "function",
      "constant": true
    }
  ],
  "bytecode": "0x662386f26fc1000060098190556658d15e17628000600a5566038d7ea4c68000600b819055600c91909155600d556000600e55610708600f5560e060405261a8c0608090815261fd2060a0526201518060c052620000629060109060036200019e565b503480156200007057600080fd5b50604080518082018252600781527f54727566666c650000000000000000000000000000000000000000000000000060208083019182528351808501909452600384527f5446540000000000000000000000000000000000000000000000000000000000908401528151919291620000eb9160009162000241565b5080516200010190600190602084019062000241565b505050620001306200012162000148640100000000026401000000009004565b6401000000006200014c810204565b60088054600160a060020a031916331790556200032b565b3390565b60068054600160a060020a03838116600160a060020a0319831681179093556040519116919082907f8be0079c531659141344cd1fd0a4f28419497f9722a3daafe3b4186f6b6457e090600090a35050565b6001830191839082156200022f5791602002820160005b83821115620001fb57835183826101000a81548163ffffffff021916908363ffffffff1602179055509260200192600401602081600301049283019260010302620001b5565b80156200022d5782816101000a81549063ffffffff0219169055600401602081600301049283019260010302620001fb565b505b506200023d929150620002be565b5090565b8280546200024f90620002d5565b90600052602060002090601f0160209004810192826200027357600085556200022f565b82601f106200028e57805160ff19168380011785556200022f565b828001600101855582156200022f579182015b828111156200022f578251825591602001919060010190620002a1565b5b808211156200023d5760008155600101620002bf565b600281046001821680620002ea57607f821691505b6020821081141562000325577f4e487b7100000000000000000000000000000000000000000000000000000000600052602260045260246000fd5b50919050565b61472a806200033b6000396000f3fe608060405260043610610237576000357c0100000000000000000000000000000000000000000000000000000000900480638da5cb5b11610140578063bbb5e8d3116100c8578063e985e9c51161008c578063e985e9c5146105fe578063f2fde38b1461061e578063f4812eb91461063e578063f851a4401461065e578063ff5df90a1461067357610237565b8063bbb5e8d314610583578063c87b56dd14610596578063ced72f87146105b6578063d4991312146105cb578063d96a094a146105eb57610237565b80639d678a9c1161010f5780639d678a9c146104ec5780639d6fac6f14610501578063a22cb4651461052e578063b15694121461054e578063b88d4fde1461056357610237565b80638da5cb5b1461048f5780639012c4a8146104a457806395d89b41146104c4578063962a8ba3146104d957610237565b806344b17626116101c357806370a082311161019257806370a0823114610405578063715018a614610425578063778532181461043a57806377e00c311461044f578063884a326e1461046f57610237565b806344b17626146103605780634cc37fc01461038d57806353e76f2c146103c55780636352211e146103e557610237565b80630ce90ec21161020a5780630ce90ec2146102e357806312e2e1c7146102f657806323b872dd146103185780633ccfd60b1461033857806342842e0e1461034057610237565b806301ffc9a71461023c57806306fdde0314610272578063081812fc14610294578063095ea7b3146102c1575b600080fd5b34801561024857600080fd5b5061025c61025736600461380d565b610686565b6040516102699190613bbf565b60405180910390f35b34801561027e57600080fd5b50610287610700565b6040516102699190613bca565b3480156102a057600080fd5b506102b46102af36600461388b565b610792565b6040516102699190613a27565b3480156102cd57600080fd5b506102e16102dc3660046137e4565b6107e1565b005b6102e16102f136600461388b565b61087f565b34801561030257600080fd5b5061030b610976565b60405161026991906143cd565b34801561032457600080fd5b506102e16103333660046136f6565b61097c565b6102e16109b7565b34801561034c57600080fd5b506102e161035b3660046136f6565b610a40565b34801561036c57600080fd5b5061038061037b3660046136aa565b610a5b565b6040516102699190613a9b565b34801561039957600080fd5b506103ad6103a836600461388b565b610cbb565b6040516102699c9b9a99989796959493929190613bdd565b3480156103d157600080fd5b506102e16103e03660046138a3565b610dd9565b3480156103f157600080fd5b506102b461040036600461388b565b610ed0565b34801561041157600080fd5b5061030b6104203660046136aa565b610f08565b34801561043157600080fd5b506102e1610f4f565b34801561044657600080fd5b5061030b610f9d565b34801561045b57600080fd5b5061038061046a3660046136aa565b610fa3565b34801561047b57600080fd5b506102e161048a36600461388b565b6112cf565b34801561049b57600080fd5b506102b4611316565b3480156104b057600080fd5b506102e16104bf36600461388b565b611325565b3480156104d057600080fd5b5061028761136c565b6102e16104e736600461391a565b61137b565b3480156104f857600080fd5b50610380611d2f565b34801561050d57600080fd5b5061052161051c36600461388b565b612010565b60405161026991906143e4565b34801561053a57600080fd5b506102e16105493660046137aa565b612040565b34801561055a57600080fd5b50610380612111565b34801561056f57600080fd5b506102e161057e366004613731565b61229c565b6102e161059136600461391a565b6122de565b3480156105a257600080fd5b506102876105b136600461388b565b612412565b3480156105c257600080fd5b5061030b612498565b3480156105d757600080fd5b506102e16105e636600461388b565b61249e565b6102e16105f936600461388b565b612527565b34801561060a57600080fd5b5061025c6106193660046136c4565b6126f7565b34801561062a57600080fd5b506102e16106393660046136aa565b612725565b34801561064a57600080fd5b5061030b61065936600461388b565b61279c565b34801561066a57600080fd5b506102b46127ae565b6102e1610681366004613845565b6127bd565b6000600160e060020a031982167f80ac58cd0000000000000000000000000000000000000000000000000000000014806106e95750600160e060020a031982167f5b5e139f00000000000000000000000000000000000000000000000000000000145b806106f857506106f882612864565b90505b919050565b60606000805461070f906145e4565b80601f016020809104026020016040519081016040528092919081815260200182805461073b906145e4565b80156107885780601f1061075d57610100808354040283529160200191610788565b820191906000526020600020905b81548152906001019060200180831161076b57829003601f168201915b5050505050905090565b600061079d82612896565b6107c55760405160e560020a62461bcd0281526004016107bc9061409f565b60405180910390fd5b50600090815260046020526040902054600160a060020a031690565b60006107ec82610ed0565b905080600160a060020a031683600160a060020a031614156108235760405160e560020a62461bcd0281526004016107bc90614248565b80600160a060020a03166108356128b3565b600160a060020a031614806108515750610851816106196128b3565b6108705760405160e560020a62461bcd0281526004016107bc90613ebe565b61087a83836128b7565b505050565b600b54341461088d57600080fd5b3361089782610ed0565b600160a060020a0316146108aa57600080fd5b6000601382815481106108d05760e060020a634e487b7102600052603260045260246000fd5b600091825260209091206008909102016003810154909150601460ff909116106108f957600080fd5b60078101541561090857600080fd5b60038101805460ff1690600061091d8361463d565b825460ff9182166101009390930a928302919092021990911617905550600854600b54604051600160a060020a039092169181156108fc0291906000818181858888f1935050505015801561087a573d6000803e3d6000fd5b600b5490565b61098d6109876128b3565b82612932565b6109ac5760405160e560020a62461bcd0281526004016107bc90614339565b61087a8383836129ba565b6109bf6128b3565b600160a060020a03166109d0611316565b600160a060020a0316146109f95760405160e560020a62461bcd0281526004016107bc90614159565b6000610a03611316565b604051909150600160a060020a03821690303180156108fc02916000818181858888f19350505050158015610a3c573d6000803e3d6000fd5b5050565b61087a8383836040518060200160405280600081525061229c565b60606000610a6883610f08565b67ffffffffffffffff811115610a915760e060020a634e487b7102600052604160045260246000fd5b604051908082528060200260200182016040528015610aca57816020015b610ab76134b2565b815260200190600190039081610aaf5790505b5090506000805b601354811015610cb25784600160a060020a0316610aee82610ed0565b600160a060020a03161415610ca05760138181548110610b215760e060020a634e487b7102600052603260045260246000fd5b906000526020600020906008020160405180610180016040529081600082018054610b4b906145e4565b80601f0160208091040260200160405190810160405280929190818152602001828054610b77906145e4565b8015610bc45780601f10610b9957610100808354040283529160200191610bc4565b820191906000526020600020905b815481529060010190602001808311610ba757829003601f168201915b50505091835250506001820154602082015260028201546040820152600382015460ff80821660608401526101008083048216608085015262010000909204600160a060020a0390811660a0850152600485015490811660c085015260a060020a900463ffffffff1660e084015260058401548284015260068401548082166101208501529190910416610140820152600790910154610160909101528351849084908110610c865760e060020a634e487b7102600052603260045260246000fd5b60200260200101819052508180610c9c90614622565b9250505b80610caa81614622565b915050610ad1565b50909392505050565b60138181548110610ccb57600080fd5b9060005260206000209060080201600091509050806000018054610cee906145e4565b80601f0160208091040260200160405190810160405280929190818152602001828054610d1a906145e4565b8015610d675780601f10610d3c57610100808354040283529160200191610d67565b820191906000526020600020905b815481529060010190602001808311610d4a57829003601f168201915b505050506001830154600284015460038501546004860154600587015460068801546007909801549697949693955060ff80841695610100808604831696600160a060020a036201000090970487169686169563ffffffff60a060020a9091041694938084169392909204909116908c565b6002838160138281548110610e015760e060020a634e487b7102600052603260045260246000fd5b600091825260209091206003600890920201015460ff161015610e2357600080fd5b33610e2d86610ed0565b600160a060020a031614610e4057600080fd5b600060138681548110610e665760e060020a634e487b7102600052603260045260246000fd5b906000526020600020906008020190508060070154600014610e8757600080fd5b848460138881548110610ead5760e060020a634e487b7102600052603260045260246000fd5b60009182526020909120610ec79360089092020191613516565b50505050505050565b600081815260026020526040812054600160a060020a0316806106f85760405160e560020a62461bcd0281526004016107bc90613f78565b6000600160a060020a038216610f335760405160e560020a62461bcd0281526004016107bc90613f1b565b50600160a060020a031660009081526003602052604090205490565b610f576128b3565b600160a060020a0316610f68611316565b600160a060020a031614610f915760405160e560020a62461bcd0281526004016107bc90614159565b610f9b6000612afa565b565b600c5490565b606060008060005b6013548110156110385784600160a060020a0316610fc882610ed0565b600160a060020a03161480156110135750600060138281548110610fff5760e060020a634e487b7102600052603260045260246000fd5b906000526020600020906008020160070154115b15611026576110236001836143f5565b91505b8061103081614622565b915050610fab565b5060008167ffffffffffffffff8111156110655760e060020a634e487b7102600052604160045260246000fd5b60405190808252806020026020018201604052801561109e57816020015b61108b6134b2565b8152602001906001900390816110835790505b50905060005b6013548110156112c65785600160a060020a03166110c182610ed0565b600160a060020a031614801561110c57506000601382815481106110f85760e060020a634e487b7102600052603260045260246000fd5b906000526020600020906008020160070154115b156112b457601381815481106111355760e060020a634e487b7102600052603260045260246000fd5b90600052602060002090600802016040518061018001604052908160008201805461115f906145e4565b80601f016020809104026020016040519081016040528092919081815260200182805461118b906145e4565b80156111d85780601f106111ad576101008083540402835291602001916111d8565b820191906000526020600020905b8154815290600101906020018083116111bb57829003601f168201915b50505091835250506001820154602082015260028201546040820152600382015460ff80821660608401526101008083048216608085015262010000909204600160a060020a0390811660a0850152600485015490811660c085015260a060020a900463ffffffff1660e08401526005840154828401526006840154808216610120850152919091041661014082015260079091015461016090910152825183908690811061129a5760e060020a634e487b7102600052603260045260246000fd5b602002602001018190525083806112b090614622565b9450505b806112be81614622565b9150506110a4565b50949350505050565b6112d76128b3565b600160a060020a03166112e8611316565b600160a060020a0316146113115760405160e560020a62461bcd0281526004016107bc90614159565b600b55565b600654600160a060020a031690565b61132d6128b3565b600160a060020a031661133e611316565b600160a060020a0316146113675760405160e560020a62461bcd0281526004016107bc90614159565b600a55565b60606001805461070f906145e4565b600c54341461138957600080fd5b6000601383815481106113af5760e060020a634e487b7102600052603260045260246000fd5b906000526020600020906008020190506000601383815481106113e55760e060020a634e487b7102600052603260045260246000fd5b9060005260206000209060080201905033600160a060020a031661140885610ed0565b600160a060020a03161461141b57600080fd5b3361142584610ed0565b600160a060020a03161461143857600080fd5b61144182612b59565b6114605760405160e560020a62461bcd0281526004016107bc90613fd5565b61146981612b59565b6114885760405160e560020a62461bcd0281526004016107bc90613fd5565b6007820154156114ad5760405160e560020a62461bcd0281526004016107bc906140fc565b6007810154156114d25760405160e560020a62461bcd0281526004016107bc906140fc565b6001808301549082015460028401546000906114f09060649061465d565b9050600060648560020154611505919061465d565b9050600060026115178360ff16612b71565b8360ff166115278660ff16612b71565b6115349060ff88166143f5565b61153e91906143f5565b61154891906145a1565b6115529190614421565b90506000606461156383600f614578565b61156d9190614421565b9050600061157c600a86614671565b60ff169050600061158e600a86614671565b60ff1690506000806115a06064612b71565b905060638860ff161080156115b8575060638760ff16105b6115c157600080fd5b603c8860ff16111580156115d95750603c8760ff1611155b156118d75760148860ff16111580156115f6575060148760ff1611155b156117815760328110611713578660ff168860ff161061169157600061161d85600561448b565b61162886600461448b565b8d600201548f6002015461163c91906143f5565b6116469190614559565b611650919061440d565b905061165c600a612b71565b60ff8a1661166b60648461465d565b61167590846145a1565b61167f91906143f5565b61168991906143f5565b92505061170e565b600061169e84600561448b565b6116a985600461448b565b8d600201548f600201546116bd91906143f5565b6116c79190614559565b6116d1919061440d565b90506116dd600a612b71565b60ff89166116ec60648461465d565b6116f690846145a1565b61170091906143f5565b61170a91906143f5565b9250505b61177c565b600061172085600561448b565b61172b86600461448b565b8d600201548f6002015461173f91906143f5565b6117499190614559565b611753919061440d565b905060ff871661176460648361465d565b61176e90836145a1565b61177891906143f5565b9250505b6118d7565b603c8110611860578660ff168860ff16106117f15760006117a385600561448b565b6117ae86600461448b565b8d600201548f600201546117c291906143f5565b6117cc9190614559565b6117d6919061440d565b90506117e2600a612b71565b60ff8a166116ec60648461465d565b60006117fe84600561448b565b61180985600461448b565b8d600201548f6002015461181d91906143f5565b6118279190614559565b611831919061440d565b905061183d600a612b71565b60ff891661184c60648461465d565b61185690846145a1565b61176e91906143f5565b600061186d85600561448b565b61187886600461448b565b8d600201548f6002015461188c91906143f5565b6118969190614559565b6118a0919061440d565b905060ff8087169088166118b560648461465d565b6118bf90846145a1565b6118c991906143f5565b6118d391906143f5565b9250505b603c8860ff161180156118ed5750603c8760ff16115b15611a735760468110611a0a578660ff168860ff161061198857600061191485600561448b565b61191f86600461448b565b8d600201548f6002015461193391906143f5565b61193d9190614559565b611947919061440d565b90506119536008612b71565b60ff8a1661196260648461465d565b61196c90846145a1565b61197691906143f5565b61198091906143f5565b925050611a05565b600061199584600561448b565b6119a085600461448b565b8d600201548f600201546119b491906143f5565b6119be9190614559565b6119c8919061440d565b90506119d46008612b71565b60ff89166119e360648461465d565b6119ed90846145a1565b6119f791906143f5565b611a0191906143f5565b9250505b611a73565b6000611a1785600561448b565b611a2286600461448b565b8d600201548f60020154611a3691906143f5565b611a409190614559565b611a4a919061440d565b905060ff8716611a5b60648361465d565b611a6590836145a1565b611a6f91906143f5565b9250505b603c8860ff16118015611a8a5750603c8760ff1611155b15611b815760508110611b18576000611aa485600561448b565b611aaf86600461448b565b8d600201548f60020154611ac391906143f5565b611acd9190614559565b611ad7919061440d565b9050611ae36007612b71565b60ff8a16611af260648461465d565b611afc90846145a1565b611b0691906143f5565b611b1091906143f5565b925050611b81565b6000611b2585600561448b565b611b3086600461448b565b8d600201548f60020154611b4491906143f5565b611b4e9190614559565b611b58919061440d565b905060ff8716611b6960648361465d565b611b7390836145a1565b611b7d91906143f5565b9250505b603c8860ff1611158015611b985750603c8760ff16115b15611c8f5760508110611c26576000611bb284600561448b565b611bbd85600461448b565b8d600201548f60020154611bd191906143f5565b611bdb9190614559565b611be5919061440d565b9050611bf16008612b71565b60ff8916611c0060648461465d565b611c0a90846145a1565b611c1491906143f5565b611c1e91906143f5565b925050611c8f565b6000611c3384600561448b565b611c3e85600461448b565b8d600201548f60020154611c5291906143f5565b611c5c9190614559565b611c66919061440d565b905060ff8716611c7760648361465d565b611c8190836145a1565b611c8b91906143f5565b9250505b611cd06040518060400160405280600b81526020017f4e65772054727566666c65000000000000000000000000000000000000000000815250838c8c612bc4565b611cd98c612e0c565b611ce28b612e0c565b600854600c54604051600160a060020a039092169181156108fc0291906000818181858888f19350505050158015611d1e573d6000803e3d6000fd5b505050505050505050505050505050565b606060008060005b601354811015611d9f57600060138281548110611d675760e060020a634e487b7102600052603260045260246000fd5b9060005260206000209060080201600701541115611d8d57611d8a6001836143f5565b91505b80611d9781614622565b915050611d37565b5060008167ffffffffffffffff811115611dcc5760e060020a634e487b7102600052604160045260246000fd5b604051908082528060200260200182016040528015611e0557816020015b611df26134b2565b815260200190600190039081611dea5790505b50905060005b60135481101561200857600060138281548110611e3b5760e060020a634e487b7102600052603260045260246000fd5b9060005260206000209060080201600701541115611ff65760138181548110611e775760e060020a634e487b7102600052603260045260246000fd5b906000526020600020906008020160405180610180016040529081600082018054611ea1906145e4565b80601f0160208091040260200160405190810160405280929190818152602001828054611ecd906145e4565b8015611f1a5780601f10611eef57610100808354040283529160200191611f1a565b820191906000526020600020905b815481529060010190602001808311611efd57829003601f168201915b50505091835250506001820154602082015260028201546040820152600382015460ff80821660608401526101008083048216608085015262010000909204600160a060020a0390811660a0850152600485015490811660c085015260a060020a900463ffffffff1660e084015260058401548284015260068401548082166101208501529190910416610140820152600790910154610160909101528251839086908110611fdc5760e060020a634e487b7102600052603260045260246000fd5b60200260200101819052508380611ff290614622565b9450505b8061200081614622565b915050611e0b565b509250505090565b6010816003811061202057600080fd5b60089182820401919006600402915054906101000a900463ffffffff1681565b6120486128b3565b600160a060020a031682600160a060020a0316141561207c5760405160e560020a62461bcd0281526004016107bc90613e2a565b80600560006120896128b3565b600160a060020a03908116825260208083019390935260409182016000908120918716808252919093529120805460ff1916921515929092179091556120cd6128b3565b600160a060020a03167f17307eab39ab6107e8899845ad3d59bd9653f200f220920489ca2b5937696c31836040516121059190613bbf565b60405180910390a35050565b60606013805480602002602001604051908101604052809291908181526020016000905b82821015612293578382906000526020600020906008020160405180610180016040529081600082018054612169906145e4565b80601f0160208091040260200160405190810160405280929190818152602001828054612195906145e4565b80156121e25780601f106121b7576101008083540402835291602001916121e2565b820191906000526020600020905b8154815290600101906020018083116121c557829003601f168201915b505050918352505060018281015460208084019190915260028401546040840152600384015460ff80821660608601526101008083048216608087015262010000909204600160a060020a0390811660a0870152600487015490811660c087015260a060020a900463ffffffff1660e0860152600586015482860152600686015480821661012087015291909104166101408401526007909301546101609092019190915291835292019101612135565b50505050905090565b6122ad6122a76128b3565b83612932565b6122cc5760405160e560020a62461bcd0281526004016107bc90614339565b6122d88484848461300e565b50505050565b6122e782610ed0565b600160a060020a031633600160a060020a03161461231a5760405160e560020a62461bcd0281526004016107bc906142a5565b600d5434101561233f5760405160e560020a62461bcd0281526004016107bc906142dc565b600081116123625760405160e560020a62461bcd0281526004016107bc90614396565b6000601383815481106123885760e060020a634e487b7102600052603260045260246000fd5b906000526020600020906008020190506123a181612b59565b6123c05760405160e560020a62461bcd0281526004016107bc90613d96565b600083815260116020526040812083905560138054859081106123f65760e060020a634e487b7102600052603260045260246000fd5b6000918252602090912060076008909202010192909255505050565b606061241d82612896565b61243c5760405160e560020a62461bcd0281526004016107bc906141eb565b6000612446613044565b905060008151116124665760405180602001604052806000815250612491565b8061247084613056565b604051602001612481929190613985565b6040516020818303038152906040525b9392505050565b600a5490565b6124a781610ed0565b600160a060020a031633600160a060020a0316146124da5760405160e560020a62461bcd0281526004016107bc906142a5565b600081815260116020526040812081905560138054839081106125105760e060020a634e487b7102600052603260045260246000fd5b600091825260208220600760089092020101555050565b600081815260116020526040902054806125565760405160e560020a62461bcd0281526004016107bc90613ccb565b8034146125785760405160e560020a62461bcd0281526004016107bc9061400c565b600061258383610ed0565b90506125908133856129ba565b600083815260116020526040812081905560138054859081106125c65760e060020a634e487b7102600052603260045260246000fd5b906000526020600020906008020190506000816007018190555081600160a060020a03166108fc349081150290604051600060405180830381858888f19350505050158015612619573d6000803e3d6000fd5b50600854600d54604051600160a060020a039092169181156108fc0291906000818181858888f19350505050158015612656573d6000803e3d6000fd5b5060038101805460048301805462010000808404600160a060020a031673ffffffffffffffffffffffffffffffffffffffff199092169190911790915575ffffffffffffffffffffffffffffffffffffffff00001990911633918202179091556040517f4dd2f31b4569bcf6afb5788e4dcfba199a9e2148b94d0dda6d5fed23041de4cd916126e9918591903490613a3b565b60405180910390a150505050565b600160a060020a03918216600090815260056020908152604080832093909416825291909152205460ff1690565b61272d6128b3565b600160a060020a031661273e611316565b600160a060020a0316146127675760405160e560020a62461bcd0281526004016107bc90614159565b600160a060020a0381166127905760405160e560020a62461bcd0281526004016107bc90613d02565b61279981612afa565b50565b60116020526000908152604090205481565b600854600160a060020a031681565b336127c757600080fd5b600a543410156127d657600080fd5b60006127e1826131ca565b905060006127ef6013612b71565b6127fa60648461465d565b61280490846145a1565b61280e91906143f5565b6128199060016143f5565b90506128288382600080612bc4565b600854600a54604051600160a060020a039092169181156108fc0291906000818181858888f193505050501580156122d8573d6000803e3d6000fd5b600160e060020a031981167f01ffc9a70000000000000000000000000000000000000000000000000000000014919050565b600090815260026020526040902054600160a060020a0316151590565b3390565b6000818152600460205260409020805473ffffffffffffffffffffffffffffffffffffffff1916600160a060020a03841690811790915581906128f982610ed0565b600160a060020a03167f8c5be1e5ebec7d5bd14f71427d1e84f3dd0314c0f7b2291e5b200ac8c7c3b92560405160405180910390a45050565b600061293d82612896565b61295c5760405160e560020a62461bcd0281526004016107bc90613e61565b600061296783610ed0565b905080600160a060020a031684600160a060020a031614806129a2575083600160a060020a031661299784610792565b600160a060020a0316145b806129b257506129b281856126f7565b949350505050565b82600160a060020a03166129cd82610ed0565b600160a060020a0316146129f65760405160e560020a62461bcd0281526004016107bc9061418e565b600160a060020a038216612a1f5760405160e560020a62461bcd0281526004016107bc90613dcd565b612a2a83838361087a565b612a356000826128b7565b600160a060020a0383166000908152600360205260408120805460019290612a5e9084906145a1565b9091555050600160a060020a0382166000908152600360205260408120805460019290612a8c9084906143f5565b9091555050600081815260026020526040808220805473ffffffffffffffffffffffffffffffffffffffff1916600160a060020a0386811691821790925591518493918716917fddf252ad1be2c89b69c2b068fc378daa952ba7f163c4a11628f55a4df523b3ef91a4505050565b60068054600160a060020a0383811673ffffffffffffffffffffffffffffffffffffffff19831681179093556040519116919082907f8be0079c531659141344cd1fd0a4f28419497f9722a3daafe3b4186f6b6457e090600090a35050565b600401544260a060020a90910463ffffffff16111590565b600e805460009182612b8283614622565b919050555060004233600e54604051602001612ba0939291906139f9565b60408051601f1981840301815291905280516020909101209050612491838261465d565b6000612bd160648561465d565b90506000612bdf600761320a565b6040805161018081018252888152602080820184905291810188905260006060820181905260ff86811660808401523360a084015260c0830182905263ffffffff421660e0840181905261010084015288811661012084015287166101408301526101608201819052601380546001810182559152815180519495509193849360089092027f66de8ffda797e3de9c05e8fc57b3bf0ec28a930d40b0d285d93c06501cf6a0900192612c9592849291019061359a565b5060208201516001820155604082015160028201556060820151600382018054608085015160a086015160ff1992831660ff9586161761ff001990811661010093871684021775ffffffffffffffffffffffffffffffffffffffff0000191662010000600160a060020a03938416021790945560c087015160048701805460e08a015173ffffffffffffffffffffffffffffffffffffffff19909116929093169190911777ffffffff0000000000000000000000000000000000000000191660a060020a63ffffffff909316929092029190911790558086015160058601556101208601516006860180546101408901519416918616919091179093169190931690920291909117905561016090910151600790910155612db6338361320e565b612dc06007613228565b33600160a060020a03167f589cd144bbd2fda6318230895eca43f6ea1a1b5b0464c4bc1221bdfc7fad884c8388604051612dfb9291906143d6565b60405180910390a250505050505050565b600381015460ff80821691604b61010090910490911610612eac5760005b60148160ff1611612eaa578160ff168160ff161415612e98578060ff16600f54612e549190614559565b601054612e679063ffffffff16426143f5565b612e7191906145a1565b8360040160146101000a81548163ffffffff021916908363ffffffff160217905550612eaa565b80612ea28161463d565b915050612e2a565b505b6003820154603261010090910460ff1610801590612ed757506003820154604b61010090910460ff16105b15612f695760005b60148160ff1611612f67578160ff168160ff161415612f55578060ff16600f54612f099190614559565b601054612f2490640100000000900463ffffffff16426143f5565b612f2e91906145a1565b8360040160146101000a81548163ffffffff021916908363ffffffff160217905550612f67565b80612f5f8161463d565b915050612edf565b505b6003820154603261010090910460ff161015610a3c5760005b60148160ff161161087a578160ff168160ff161415612ffc578060ff16600f54612fac9190614559565b601054612fcb9068010000000000000000900463ffffffff16426143f5565b612fd591906145a1565b8360040160146101000a81548163ffffffff021916908363ffffffff16021790555061087a565b806130068161463d565b915050612f82565b6130198484846129ba565b61302584848484613231565b6122d85760405160e560020a62461bcd0281526004016107bc90613c6e565b60408051602081019091526000815290565b606081613097575060408051808201909152600181527f300000000000000000000000000000000000000000000000000000000000000060208201526106fb565b8160005b81156130c157806130ab81614622565b91506130ba9050600a8361440d565b915061309b565b60008167ffffffffffffffff8111156130ed5760e060020a634e487b7102600052604160045260246000fd5b6040519080825280601f01601f191660200182016040528015613117576020820181803683370190505b5090505b84156129b25761312c6001836145a1565b9150613139600a8661465d565b6131449060306143f5565b7f0100000000000000000000000000000000000000000000000000000000000000028183815181106131895760e060020a634e487b7102600052603260045260246000fd5b60200101907effffffffffffffffffffffffffffffffffffffffffffffffffffffffffffff1916908160001a9053506131c3600a8661440d565b945061311b565b6000804233846040516020016131e2939291906139b4565b60408051601f198184030181529190528051602090910120600954909150612491908261465d565b5490565b610a3c828260405180602001604052806000815250613384565b80546001019055565b600061324584600160a060020a03166133ba565b156133795783600160a060020a031663150b7a026132616128b3565b8786866040518563ffffffff167c010000000000000000000000000000000000000000000000000000000002815260040161329f9493929190613a5f565b602060405180830381600087803b1580156132b957600080fd5b505af19250505080156132e9575060408051601f3d908101601f191682019092526132e691810190613829565b60015b613346573d808015613317576040519150601f19603f3d011682016040523d82523d6000602084013e61331c565b606091505b50805161333e5760405160e560020a62461bcd0281526004016107bc90613c6e565b805181602001fd5b600160e060020a0319167f150b7a02000000000000000000000000000000000000000000000000000000001490506129b2565b506001949350505050565b61338e83836133c0565b61339b6000848484613231565b61087a5760405160e560020a62461bcd0281526004016107bc90613c6e565b3b151590565b600160a060020a0382166133e95760405160e560020a62461bcd0281526004016107bc9061406a565b6133f281612896565b156134125760405160e560020a62461bcd0281526004016107bc90613d5f565b61341e6000838361087a565b600160a060020a03821660009081526003602052604081208054600192906134479084906143f5565b9091555050600081815260026020526040808220805473ffffffffffffffffffffffffffffffffffffffff1916600160a060020a03861690811790915590518392907fddf252ad1be2c89b69c2b068fc378daa952ba7f163c4a11628f55a4df523b3ef908290a45050565b6040805161018081018252606080825260006020830181905292820183905281018290526080810182905260a0810182905260c0810182905260e0810182905261010081018290526101208101829052610140810182905261016081019190915290565b828054613522906145e4565b90600052602060002090601f016020900481019282613544576000855561358a565b82601f1061355d5782800160ff1982351617855561358a565b8280016001018555821561358a579182015b8281111561358a57823582559160200191906001019061356f565b5061359692915061360e565b5090565b8280546135a6906145e4565b90600052602060002090601f0160209004810192826135c8576000855561358a565b82601f106135e157805160ff191683800117855561358a565b8280016001018555821561358a579182015b8281111561358a5782518255916020019190600101906135f3565b5b80821115613596576000815560010161360f565b600067ffffffffffffffff8084111561363e5761363e6146c5565b604051601f8501601f191681016020018281118282101715613662576136626146c5565b60405284815291508183850186101561367a57600080fd5b8484602083013760006020868301015250509392505050565b8035600160a060020a03811681146106fb57600080fd5b6000602082840312156136bb578081fd5b61249182613693565b600080604083850312156136d6578081fd5b6136df83613693565b91506136ed60208401613693565b90509250929050565b60008060006060848603121561370a578081fd5b61371384613693565b925061372160208501613693565b9150604084013590509250925092565b60008060008060808587031215613746578081fd5b61374f85613693565b935061375d60208601613693565b925060408501359150606085013567ffffffffffffffff81111561377f578182fd5b8501601f8101871361378f578182fd5b61379e87823560208401613623565b91505092959194509250565b600080604083850312156137bc578182fd5b6137c583613693565b9150602083013580151581146137d9578182fd5b809150509250929050565b600080604083850312156137f6578182fd5b6137ff83613693565b946020939093013593505050565b60006020828403121561381e578081fd5b8135612491816146de565b60006020828403121561383a578081fd5b8151612491816146de565b600060208284031215613856578081fd5b813567ffffffffffffffff81111561386c578182fd5b8201601f8101841361387c578182fd5b6129b284823560208401613623565b60006020828403121561389c578081fd5b5035919050565b6000806000604084860312156138b7578283fd5b83359250602084013567ffffffffffffffff808211156138d5578384fd5b818601915086601f8301126138e8578384fd5b8135818111156138f6578485fd5b876020828501011115613907578485fd5b6020830194508093505050509250925092565b6000806040838503121561392c578182fd5b50508035926020909101359150565b600160a060020a03169052565b600081518084526139608160208601602086016145b8565b601f01601f19169290920160200192915050565b63ffffffff169052565b60ff169052565b600083516139978184602088016145b8565b8351908301906139ab8183602088016145b8565b01949350505050565b60008482526c01000000000000000000000000600160a060020a03851602602083015282516139ea8160348501602087016145b8565b91909101603401949350505050565b928352600160a060020a03919091166c01000000000000000000000000026020830152603482015260540190565b600160a060020a0391909116815260200190565b600160a060020a039384168152919092166020820152604081019190915260600190565b6000600160a060020a03808716835280861660208401525083604083015260806060830152613a916080830184613948565b9695505050505050565b60208082528251828201819052600091906040908185019080840286018301878501865b83811015613bb157603f1989840301855281516101808151818652613ae682870182613948565b91505088820151898601528782015188860152606080830151613b0b8288018261397e565b5050608080830151613b1f8288018261397e565b505060a080830151613b338288018261393b565b505060c080830151613b478288018261393b565b505060e080830151613b5b82880182613974565b5050610100828101519086015261012080830151613b7b8288018261397e565b505061014080830151613b908288018261397e565b50506101609182015194909101939093529386019390860190600101613abf565b509098975050505050505050565b901515815260200190565b6000602082526124916020830184613948565b60006101808252613bf261018083018f613948565b90508c60208301528b604083015260ff8b16606083015260ff8a166080830152600160a060020a03808a1660a084015280891660c08401525063ffffffff871660e08301528561010083015260ff8516610120830152613c5661014083018561397e565b826101608301529d9c50505050505050505050505050565b60208082526032908201527f4552433732313a207472616e7366657220746f206e6f6e20455243373231526560408201527f63656976657220696d706c656d656e7465720000000000000000000000000000606082015260800190565b6020808252601a908201527f5468697320746f6b656e206973206e6f7420666f722073616c65000000000000604082015260600190565b60208082526026908201527f4f776e61626c653a206e6577206f776e657220697320746865207a65726f206160408201527f6464726573730000000000000000000000000000000000000000000000000000606082015260800190565b6020808252601c908201527f4552433732313a20746f6b656e20616c7265616479206d696e74656400000000604082015260600190565b6020808252600f908201527f4272656564206e6f742072656564790000000000000000000000000000000000604082015260600190565b60208082526024908201527f4552433732313a207472616e7366657220746f20746865207a65726f2061646460408201527f7265737300000000000000000000000000000000000000000000000000000000606082015260800190565b60208082526019908201527f4552433732313a20617070726f766520746f2063616c6c657200000000000000604082015260600190565b6020808252602c908201527f4552433732313a206f70657261746f7220717565727920666f72206e6f6e657860408201527f697374656e7420746f6b656e0000000000000000000000000000000000000000606082015260800190565b60208082526038908201527f4552433732313a20617070726f76652063616c6c6572206973206e6f74206f7760408201527f6e6572206e6f7220617070726f76656420666f7220616c6c0000000000000000606082015260800190565b6020808252602a908201527f4552433732313a2062616c616e636520717565727920666f7220746865207a6560408201527f726f206164647265737300000000000000000000000000000000000000000000606082015260800190565b60208082526029908201527f4552433732313a206f776e657220717565727920666f72206e6f6e657869737460408201527f656e7420746f6b656e0000000000000000000000000000000000000000000000606082015260800190565b60208082526011908201527f4272656564206e6f742072656164792021000000000000000000000000000000604082015260600190565b602080825260409082018190527f506c65617365207375626d6974207468652061736b696e672070726963652069908201527f6e206f7264657220746f20636f6d706c65746520746865207075726368617365606082015260800190565b6020808252818101527f4552433732313a206d696e7420746f20746865207a65726f2061646472657373604082015260600190565b6020808252602c908201527f4552433732313a20617070726f76656420717565727920666f72206e6f6e657860408201527f697374656e7420746f6b656e0000000000000000000000000000000000000000606082015260800190565b60208082526027908201527f5468652070726f64756374206265696e6720736f6c642063616e6e6f7420626560408201527f206d617465642100000000000000000000000000000000000000000000000000606082015260800190565b6020808252818101527f4f776e61626c653a2063616c6c6572206973206e6f7420746865206f776e6572604082015260600190565b60208082526029908201527f4552433732313a207472616e73666572206f6620746f6b656e2074686174206960408201527f73206e6f74206f776e0000000000000000000000000000000000000000000000606082015260800190565b6020808252602f908201527f4552433732314d657461646174613a2055524920717565727920666f72206e6f60408201527f6e6578697374656e7420746f6b656e0000000000000000000000000000000000606082015260800190565b60208082526021908201527f4552433732313a20617070726f76616c20746f2063757272656e74206f776e6560408201527f7200000000000000000000000000000000000000000000000000000000000000606082015260800190565b60208082526017908201527f4e6f74206f776e6572206f66207468697320746f6b656e000000000000000000604082015260600190565b60208082526024908201527f5072696365206d75737420626520657175616c20746f206c697374696e67207060408201527f7269636500000000000000000000000000000000000000000000000000000000606082015260800190565b60208082526031908201527f4552433732313a207472616e736665722063616c6c6572206973206e6f74206f60408201527f776e6572206e6f7220617070726f766564000000000000000000000000000000606082015260800190565b6020808252601c908201527f5072696365206d757374206265206174206c6561737420312077656900000000604082015260600190565b90815260200190565b918252602082015260400190565b63ffffffff91909116815260200190565b6000821982111561440857614408614693565b500190565b60008261441c5761441c6146ac565b500490565b600060ff831680614434576144346146ac565b8060ff84160491505092915050565b80825b60018086116144555750614482565b81870482111561446757614467614693565b8086161561447457918102915b506002909404938002614446565b94509492505050565b600061249160001984846000826144a457506001612491565b816144b157506000612491565b81600181146144c757600281146144d1576144fe565b6001915050612491565b60ff8411156144e2576144e2614693565b8360020a9150848211156144f8576144f8614693565b50612491565b5060208310610133831016604e8410600b8410161715614531575081810a8381111561452c5761452c614693565b612491565b61453e8484846001614443565b80860482111561455057614550614693565b02949350505050565b600081600019048311821515161561457357614573614693565b500290565b600060ff821660ff84168160ff048111821515161561459957614599614693565b029392505050565b6000828210156145b3576145b3614693565b500390565b60005b838110156145d35781810151838201526020016145bb565b838111156122d85750506000910152565b6002810460018216806145f857607f821691505b6020821081141561461c5760e060020a634e487b7102600052602260045260246000fd5b50919050565b600060001982141561463657614636614693565b5060010190565b600060ff821660ff81141561465457614654614693565b60010192915050565b60008261466c5761466c6146ac565b500690565b600060ff831680614684576146846146ac565b8060ff84160691505092915050565b60e060020a634e487b7102600052601160045260246000fd5b60e060020a634e487b7102600052601260045260246000fd5b60e060020a634e487b7102600052604160045260246000fd5b600160e060020a03198116811461279957600080fdfea26469706673582212208ceb3fc055fb2ffd97c4eb5461c23f60d4a9d2076f8c3f54b0f33dd57b4f35cc64736f6c63430008000033",
  "immutableReferences": {},
  "source": "// SPDX-License-Identifier: MIT\r\n\r\npragma solidity ^0.8.0;\r\n\r\nimport \"@openzeppelin/contracts/token/ERC721/ERC721.sol\";\r\nimport \"@openzeppelin/contracts/access/Ownable.sol\";\r\nimport \"@openzeppelin/contracts/utils/Counters.sol\";\r\n\r\ncontract TruffleFactory is ERC721, Ownable {\r\n    using Counters for Counters.Counter;\r\n    using Strings for uint256;\r\n    Counters.Counter _tokenIds;\r\n\r\n    address public admin;\r\n    uint256 DNA_MOD = 10**16;\r\n    uint256 fee = 0.025 ether;\r\n    uint256 levelUpFee = 0.001 ether;\r\n    uint256 breedFee = 0.01 ether;\r\n    uint256 sellFee = 0.001 ether;\r\n    uint256 randNonce = 0;\r\n    uint256 lostTime = 30 minutes;\r\n    uint32[3] public cooldowns = [\r\n        uint32(12 hours),\r\n        uint32(18 hours),\r\n        uint32(1 days)\r\n    ];\r\n\r\n    mapping(uint256 => uint256) public tokenIdToPrice;\r\n    mapping(uint256 => string) _tokenURIs;\r\n\r\n    constructor() ERC721(\"Truffle\", \"TFT\") {\r\n        admin = msg.sender;\r\n    }\r\n\r\n    struct Truffle {\r\n        string name;\r\n        uint256 id;\r\n        uint256 dna;\r\n        uint8 level;\r\n        uint8 rarity;\r\n        address currentOwner;\r\n        address previousOwner;\r\n        uint32 readyTime;\r\n        uint256 birth;\r\n        uint8 dadId;\r\n        uint8 mumId;\r\n        uint256 sell;\r\n    }\r\n\r\n    Truffle[] public truffles;\r\n\r\n    event NewTruffle(address indexed owner, uint256 id, uint256 dna);\r\n    event BuyTruffle(address _seller, address _buyer, uint256 _price);\r\n\r\n    function getFee() public view returns (uint256) {\r\n        return fee;\r\n    }\r\n\r\n    function FreeLeveUp() public view returns (uint256) {\r\n        return levelUpFee;\r\n    }\r\n\r\n    function getFeeBreed() public view returns (uint256) {\r\n        return breedFee;\r\n    }\r\n\r\n    function _setTokenURI(uint256 tokenId, string memory _tokenURI) internal {\r\n        _tokenURIs[tokenId] = _tokenURI;\r\n    }\r\n\r\n    function _createRandomDna(string memory _mod)\r\n        internal\r\n        view\r\n        returns (uint256)\r\n    {\r\n        uint256 randomNum = uint256(\r\n            keccak256(abi.encodePacked(block.timestamp, msg.sender, _mod))\r\n        );\r\n        return randomNum % DNA_MOD;\r\n    }\r\n\r\n    function _createTruffle(\r\n        string memory _name,\r\n        uint256 _dna,\r\n        uint8 dadId,\r\n        uint8 mumId\r\n    ) internal {\r\n        uint8 randRarity = uint8(_dna % 100);\r\n\r\n        uint256 newId = _tokenIds.current();\r\n\r\n        Truffle memory newTruffle = Truffle(\r\n            _name,\r\n            newId,\r\n            _dna,\r\n            0,\r\n            randRarity,\r\n            msg.sender,\r\n            address(0),\r\n            uint32(block.timestamp),\r\n            uint32(block.timestamp),\r\n            dadId,\r\n            mumId,\r\n            0\r\n        );\r\n        truffles.push(newTruffle);\r\n        _safeMint(msg.sender, newId);\r\n        _tokenIds.increment();\r\n\r\n        emit NewTruffle(msg.sender, newId, _dna);\r\n    }\r\n\r\n    function createRandomTruffle(string memory _name) public payable {\r\n        require(msg.sender != address(0));\r\n        require(msg.value >= fee);\r\n        uint256 randDna = _createRandomDna(_name);\r\n        uint256 newDna = randDna - (randDna % 100) + randMod(19) + 1;\r\n        _createTruffle(_name, newDna, 0, 0);\r\n        payable(admin).transfer(fee); \r\n    }\r\n\r\n    function getTruffle() public view returns (Truffle[] memory) {\r\n        return truffles;\r\n    }\r\n\r\n    function getOwnerTruffles(address _owner)\r\n        public\r\n        view\r\n        returns (Truffle[] memory)\r\n    {\r\n        Truffle[] memory result = new Truffle[](balanceOf(_owner));\r\n        uint256 counter = 0;\r\n        for (uint256 i = 0; i < truffles.length; i++) {\r\n            if (ownerOf(i) == _owner) {\r\n                result[counter] = truffles[i];\r\n                counter++;\r\n            }\r\n        }\r\n        return result;\r\n    }\r\n\r\n    function randMod(uint256 _modulus) internal returns (uint256) {\r\n        randNonce++;\r\n        uint256 randomNum2 = uint256(\r\n            keccak256(abi.encodePacked(block.timestamp, msg.sender, randNonce))\r\n        );\r\n        return randomNum2 % _modulus;\r\n    }\r\n\r\n    function updateFee(uint256 _fee) external onlyOwner {\r\n        fee = _fee;\r\n    }\r\n\r\n    function updateFeeLevelUp(uint256 _feeLevelUp) external onlyOwner {\r\n        levelUpFee = _feeLevelUp;\r\n    }\r\n\r\n    function withdraw() external payable onlyOwner {\r\n        address payable _owner = payable(owner());\r\n        _owner.transfer(address(this).balance);\r\n    }\r\n\r\n    modifier aboveLevel(uint256 _level, uint256 _TruffleId) {\r\n        require(truffles[_TruffleId].level >= _level);\r\n        _;\r\n    }\r\n\r\n    function levelUp(uint256 _TruffleId) external payable {\r\n        require(msg.value == levelUpFee);\r\n        require(ownerOf(_TruffleId) == msg.sender);\r\n        Truffle storage truffle = truffles[_TruffleId];\r\n        require(truffle.level < 20);\r\n        require(truffle.sell == 0);\r\n        truffle.level++;\r\n        payable(admin).transfer(levelUpFee); \r\n    }\r\n\r\n    function updateName(uint256 _TruffleId, string calldata _newName)\r\n        external\r\n        aboveLevel(2, _TruffleId)\r\n    {\r\n        require(ownerOf(_TruffleId) == msg.sender);\r\n        Truffle storage truffle = truffles[_TruffleId];\r\n        require(truffle.sell == 0);\r\n        truffles[_TruffleId].name = _newName;\r\n    }\r\n\r\n    function _triggerCooldown(Truffle storage _truffle) internal {\r\n        //hm kich hoat cooldown\r\n        uint8 levels = _truffle.level;\r\n        if (_truffle.rarity >= 75) {\r\n            for (uint8 i = 0; i <= 20; i++) {\r\n                if (i == levels) {\r\n                    _truffle.readyTime = uint32(\r\n                        block.timestamp + cooldowns[0] - (lostTime * i)\r\n                    );\r\n                    break;\r\n                }\r\n            }\r\n        }\r\n        if (_truffle.rarity >= 50 && _truffle.rarity < 75) {\r\n            for (uint8 i = 0; i <= 20; i++) {\r\n                if (i == levels) {\r\n                    _truffle.readyTime = uint32(\r\n                        block.timestamp + cooldowns[1] - (lostTime * i)\r\n                    );\r\n                    break;\r\n                }\r\n            }\r\n        }\r\n        if (_truffle.rarity < 50) {\r\n            for (uint8 i = 0; i <= 20; i++) {\r\n                if (i == levels) {\r\n                    _truffle.readyTime = uint32(\r\n                        block.timestamp + cooldowns[2] - (lostTime * i)\r\n                    );\r\n                    break;\r\n                }\r\n            }\r\n        }\r\n    }\r\n\r\n    function _isReady(Truffle storage _truffle) internal view returns (bool) {\r\n        return (_truffle.readyTime <= block.timestamp);\r\n    }\r\n\r\n    function BreedAndMultiply(uint256 _truffleId, uint256 _targetDna)\r\n        public\r\n        payable\r\n    {\r\n        require(msg.value == breedFee);\r\n        Truffle storage myTruffle = truffles[_truffleId];\r\n        Truffle storage myTargetDna = truffles[_targetDna];\r\n        require(ownerOf(_truffleId) == msg.sender);\r\n        require(ownerOf(_targetDna) == msg.sender);\r\n        require(_isReady(myTruffle),\"Breed not ready !\");\r\n        require(_isReady(myTargetDna),\"Breed not ready !\");\r\n        require(myTruffle.sell == 0,\"The product being sold cannot be mated!\");\r\n        require(myTargetDna.sell == 0, \"The product being sold cannot be mated!\");\r\n        \r\n        uint8 dadId = uint8(myTruffle.id);\r\n        uint8 mumId = uint8(myTargetDna.id);\r\n\r\n        uint8 valueRarity = uint8(myTruffle.dna % 100);\r\n        uint8 valueRarity2 = uint8(myTargetDna.dna % 100);\r\n        uint8 valueRarity3 = uint8(\r\n            valueRarity +\r\n                randMod(valueRarity) +\r\n                valueRarity2 -\r\n                randMod(valueRarity2)\r\n        ) / 2;\r\n        uint8 valueRarity4 = uint8((valueRarity3 * 15) / 100);\r\n\r\n        uint256 number = valueRarity % 10;\r\n        uint256 number2 = valueRarity2 % 10;\r\n        uint256 newDna;\r\n        uint256 rand = randMod(100);\r\n        require(valueRarity < 99 && valueRarity2 < 99);\r\n        if (valueRarity <= 60 && valueRarity2 <= 60) {\r\n            if (valueRarity <= 20 && valueRarity2 <= 20) {\r\n                if (rand >= 50) {\r\n                    if (valueRarity >= valueRarity2) {\r\n                        uint256 algorithm = ((myTruffle.dna + myTargetDna.dna) *\r\n                            (4**number)) / (5**number);\r\n                        newDna =\r\n                            algorithm -\r\n                            (algorithm % 100) +\r\n                            valueRarity +\r\n                            randMod(10);\r\n                    } else {\r\n                        uint256 algorithm = ((myTruffle.dna + myTargetDna.dna) *\r\n                            (4**number2)) / (5**number2);\r\n                        newDna =\r\n                            algorithm -\r\n                            (algorithm % 100) +\r\n                            valueRarity2 +\r\n                            randMod(10);\r\n                    }\r\n                } else {\r\n                    uint256 algorithm = ((myTruffle.dna + myTargetDna.dna) *\r\n                        (4**number)) / (5**number);\r\n                    newDna = algorithm - (algorithm % 100) + valueRarity3;\r\n                }\r\n            } else {\r\n                if (rand >= 60) {\r\n                    if (valueRarity >= valueRarity2) {\r\n                        uint256 algorithm = ((myTruffle.dna + myTargetDna.dna) *\r\n                            (4**number)) / (5**number);\r\n                        newDna =\r\n                            algorithm -\r\n                            (algorithm % 100) +\r\n                            valueRarity +\r\n                            randMod(10);\r\n                    } else {\r\n                        uint256 algorithm = ((myTruffle.dna + myTargetDna.dna) *\r\n                            (4**number2)) / (5**number2);\r\n                        newDna =\r\n                            algorithm -\r\n                            (algorithm % 100) +\r\n                            valueRarity2 +\r\n                            randMod(10);\r\n                    }\r\n                } else {\r\n                    uint256 algorithm = ((myTruffle.dna + myTargetDna.dna) *\r\n                        (4**number)) / (5**number);\r\n                    newDna =\r\n                        algorithm -\r\n                        (algorithm % 100) +\r\n                        valueRarity3 +\r\n                        valueRarity4;\r\n                }\r\n            }\r\n        }\r\n        if (valueRarity > 60 && valueRarity2 > 60) {\r\n            if (rand >= 70) {\r\n                if (valueRarity >= valueRarity2) {\r\n                    uint256 algorithm = ((myTruffle.dna + myTargetDna.dna) *\r\n                        (4**number)) / (5**number);\r\n                    newDna =\r\n                        algorithm -\r\n                        (algorithm % 100) +\r\n                        valueRarity +\r\n                        randMod(8);\r\n                } else {\r\n                    uint256 algorithm = ((myTruffle.dna + myTargetDna.dna) *\r\n                        (4**number2)) / (5**number2);\r\n                    newDna =\r\n                        algorithm -\r\n                        (algorithm % 100) +\r\n                        valueRarity2 +\r\n                        randMod(8);\r\n                }\r\n            } else {\r\n                uint256 algorithm = ((myTruffle.dna + myTargetDna.dna) *\r\n                    (4**number)) / (5**number);\r\n                newDna = algorithm - (algorithm % 100) + valueRarity3;\r\n            }\r\n        }\r\n        if (valueRarity > 60 && valueRarity2 <= 60) {\r\n            if (rand >= 80) {\r\n                uint256 algorithm = ((myTruffle.dna + myTargetDna.dna) *\r\n                    (4**number)) / (5**number);\r\n                newDna =\r\n                    algorithm -\r\n                    (algorithm % 100) +\r\n                    valueRarity +\r\n                    randMod(7);\r\n            } else {\r\n                uint256 algorithm = ((myTruffle.dna + myTargetDna.dna) *\r\n                    (4**number)) / (5**number);\r\n                newDna = algorithm - (algorithm % 100) + valueRarity3;\r\n            }\r\n        }\r\n        if (valueRarity <= 60 && valueRarity2 > 60) {\r\n            if (rand >= 80) {\r\n                uint256 algorithm = ((myTruffle.dna + myTargetDna.dna) *\r\n                    (4**number2)) / (5**number2);\r\n                newDna =\r\n                    algorithm -\r\n                    (algorithm % 100) +\r\n                    valueRarity2 +\r\n                    randMod(8);\r\n            } else {\r\n                uint256 algorithm = ((myTruffle.dna + myTargetDna.dna) *\r\n                    (4**number2)) / (5**number2);\r\n                newDna = algorithm - (algorithm % 100) + valueRarity3;\r\n            }\r\n        }\r\n\r\n        _createTruffle(\"New Truffle\", newDna, dadId, mumId);\r\n        _triggerCooldown(myTruffle);\r\n        _triggerCooldown(myTargetDna);\r\n        payable(admin).transfer(breedFee); \r\n    }\r\n\r\n    function allowBuy(uint256 _tokenId, uint256 _price) external payable {\r\n        require(msg.sender == ownerOf(_tokenId), \"Not owner of this token\");\r\n        require(msg.value >= sellFee,\"Price must be equal to listing price\");\r\n        require(_price > 0, \"Price must be at least 1 wei\");\r\n        Truffle storage myTokenID = truffles[_tokenId];\r\n        require(_isReady(myTokenID), \"Breed not reedy\");\r\n        tokenIdToPrice[_tokenId] = _price;\r\n        Truffle storage myTruffle = truffles[_tokenId];\r\n        myTruffle.sell = _price;\r\n    }\r\n\r\n    function disallowBuy(uint256 _tokenId) external {\r\n        require(msg.sender == ownerOf(_tokenId), \"Not owner of this token\");\r\n        tokenIdToPrice[_tokenId] = 0;\r\n        Truffle storage myTruffle = truffles[_tokenId];\r\n        myTruffle.sell = 0;\r\n    }\r\n\r\n    function buy(uint256 _tokenId) external payable {\r\n        uint256 price = tokenIdToPrice[_tokenId];\r\n        require(price > 0, \"This token is not for sale\");\r\n        require(\r\n            msg.value == price,\r\n            \"Please submit the asking price in order to complete the purchase\"\r\n        );\r\n\r\n        address seller = ownerOf(_tokenId);\r\n\r\n        _transfer(seller, msg.sender, _tokenId);\r\n        tokenIdToPrice[_tokenId] = 0; // not for sale anymore\r\n        Truffle storage myTruffle = truffles[_tokenId];\r\n        myTruffle.sell = 0;\r\n        payable(seller).transfer(msg.value); // send the ETH to the seller\r\n        payable(admin).transfer(sellFee); \r\n        // update the token's previous owner\r\n        myTruffle.previousOwner = myTruffle.currentOwner;\r\n        // update the token's current owner\r\n        myTruffle.currentOwner = msg.sender;\r\n\r\n        emit BuyTruffle(seller, msg.sender, msg.value);\r\n    }\r\n\r\n    function getAllTruffleSell() public view returns (Truffle[] memory) {\r\n        //uint currentIndex = 0;\r\n        //uint totalItemCount = _tokenIds.current();\r\n        uint256 counter = 0;\r\n        uint256 itemCount = 0;\r\n        for (uint256 i = 0; i < truffles.length; i++) {\r\n            if (truffles[i].sell > 0) {\r\n                itemCount += 1;\r\n            }\r\n        }\r\n        Truffle[] memory truffleSell = new Truffle[](itemCount);\r\n        for (uint256 i = 0; i < truffles.length; i++) {\r\n            if (truffles[i].sell > 0) {\r\n                truffleSell[counter] = truffles[i];\r\n                counter++;\r\n            }\r\n        }\r\n        return truffleSell;\r\n    }\r\n\r\n    function getOwnerTrufflesSell(address _owner) public view returns (Truffle[] memory) {\r\n        uint256 counter = 0;\r\n        uint itemCount = 0;\r\n        for (uint i = 0; i < truffles.length; i++) {\r\n          if (ownerOf(i) == _owner && truffles[i].sell > 0) {\r\n                itemCount += 1;\r\n            }\r\n        }\r\n        Truffle[] memory result = new Truffle[](itemCount);\r\n        for (uint256 i = 0; i < truffles.length; i++) {\r\n            if (ownerOf(i) == _owner && truffles[i].sell > 0) {\r\n                result[counter] = truffles[i];\r\n                counter++;\r\n            }\r\n        }\r\n        return result;\r\n    }\r\n}\r\n",
  "sourcePath": "D:\\DAPP\\project-game\\project-game-truffle\\contracts\\TruffleFactory.sol",
  "compiler": {
    "name": "solc",
    "version": "0.8.0+commit.c7dfd78e.Emscripten.clang"
  },
  "schemaVersion": "3.4.3",
  "updatedAt": "2021-11-27T13:33:02.811Z",
  "networkType": "ethereum",
  "devdoc": {
    "kind": "dev",
    "methods": {
      "approve(address,uint256)": {
        "details": "See {IERC721-approve}."
      },
      "balanceOf(address)": {
        "details": "See {IERC721-balanceOf}."
      },
      "getApproved(uint256)": {
        "details": "See {IERC721-getApproved}."
      },
      "isApprovedForAll(address,address)": {
        "details": "See {IERC721-isApprovedForAll}."
      },
      "name()": {
        "details": "See {IERC721Metadata-name}."
      },
      "owner()": {
        "details": "Returns the address of the current owner."
      },
      "ownerOf(uint256)": {
        "details": "See {IERC721-ownerOf}."
      },
      "renounceOwnership()": {
        "details": "Leaves the contract without owner. It will not be possible to call `onlyOwner` functions anymore. Can only be called by the current owner. NOTE: Renouncing ownership will leave the contract without an owner, thereby removing any functionality that is only available to the owner."
      },
      "safeTransferFrom(address,address,uint256)": {
        "details": "See {IERC721-safeTransferFrom}."
      },
      "safeTransferFrom(address,address,uint256,bytes)": {
        "details": "See {IERC721-safeTransferFrom}."
      },
      "setApprovalForAll(address,bool)": {
        "details": "See {IERC721-setApprovalForAll}."
      },
      "supportsInterface(bytes4)": {
        "details": "See {IERC165-supportsInterface}."
      },
      "symbol()": {
        "details": "See {IERC721Metadata-symbol}."
      },
      "tokenURI(uint256)": {
        "details": "See {IERC721Metadata-tokenURI}."
      },
      "transferFrom(address,address,uint256)": {
        "details": "See {IERC721-transferFrom}."
      },
      "transferOwnership(address)": {
        "details": "Transfers ownership of the contract to a new account (`newOwner`). Can only be called by the current owner."
      }
    },
    "version": 1
  },
  "userdoc": {
    "kind": "user",
    "methods": {},
    "version": 1
  }
}